:020000040000FA
:0600000032EF1FF01200B8
:020006001200E6
:060008003BEF08F01200BE
:02000E00BD6AC9
:020010001200DC
:06001200000000000000E8
:0600180001EF08F01200E8
:02001E000200DE
:1000200012000000DE00000006000000F60F0000D5
:08003000F802000007000000C7
:0800380078EC06F0A0940F0122
:100040005F6B626A536B72EC06F0FCEC05F0DF6AE2
:10005000DF50146E156A080E145C000E155810E27D
:10006000DF50040DF3CFE9FFF4CFEAFF000EE926DD
:10007000020EEA22EE6AEE6AEE6AEE6ADF2AE8D73C
:10008000648C0F015C6B6498649C62A607D06296D6
:100090000201436B486B496B4A6BF7D70201010EB3
:1000A0005A6F5B6F5C6B5D6B506BDF6A020EDF5CDF
:1000B00011E2EA6ADF347BEC06F0EA22EE6AED6ACE
:1000C000EA6ADF3482EC06F0EA22EE6AED6AC5ECF9
:1000D00005F0ECD70201080E3B6F020E3C6F0F01DA
:1000E000160E536F0201200E026F020E036F080EF0
:1000F000016F840E006F0201316B306BE55297EF98
:1001000005F078EC06F00201300507E164BA05D08D
:10011000626A60806088020E306F6250040B05E0F6
:100120006050040B02E0629443DB64B246D062503C
:10013000010B09E06050010B06E07EDFA0840201A4
:10014000040E306F62906250100B05E06050100B8F
:1001500002E024DB629862AC0FD060AC05D014ECF6
:1001600006F0730E84EC05F0629C0201585101E028
:100170005807585101E10CD96250200B04E060503F
:10018000200B01E0FADA6250020B0CE06050020B27
:1001900009E014EC06F0E6687F0EE66E89EC06F0E6
:1001A0000F015F6B040E0201E76E3019E8AE02D05A
:1001B000E73402D0E750305D02E2A1942ED060A671
:1001C0002BD0DF6A040EDF5C27E262A625D063CF66
:1001D00051F202015151780BE842E842E842526F75
:1001E000629651B504D0525190EC06F003D05251B2
:1001F00095EC06F0EA22EF70525102E1E5DA0AD0FE
:10020000000EE66EE66A510EE66E020EE66E720EA5
:1002100084EC05F0DF2AD6D7A194E55297EF05F0DC
:100220004CEC06F0FD0EDBA403D0E66A04EC06F00D
:10023000FD0EDBA204D0010EE66E04EC06F0FE0E0D
:10024000DB50156A530F146E0F0EF6EC05F088ECB8
:1002500005F0FD0EDBCFEFFF020EE15C02E2E16A8A
:10026000E552E16E97EF05F04CEC06F0FD0EDB5029
:1002700003E07FEC05F002D0B6EC05F0E2EC05F00F
:10028000D9CFE9FFDACFEAFFEE50ED1003E1F36AD0
:10029000F46A28D088EC05F0A4EC06F0FB0EDBCF66
:1002A000EEFFFC0EDBCFEDFF88EC05F0EE52FA0E10
:1002B000DBCFEFFF400E9AEC06F0880EA9EC06F0BB
:1002C000FD0EDB5003E07FEC05F002D0B6EC05F04C
:1002D000EA22EF74DECF14F0DDCF15F014C0F3FF87
:1002E00015C0F4FF020EE15C02E2E16AE552E16E44
:1002F00097EF05F04CEC06F0FE0EDB5003E15AECF4
:1003000006F009D0BBEC05F03AEC06F0BBEC05F0CA
:10031000010F3AEC06F0020EE15C02E2E16AE552FE
:10032000E16E97EF05F092EC05F064A816D06BEC47
:1003300006F0400EEE16EE6AEE6AEE6A6BEC06F020
:10034000EE7CDDDBEA22EF74400E146E6BEC06F0FF
:100350001450EF166BEC06F0EF7CE9D3646A6198F9
:10036000606AA0940201306B1200020130510FE16B
:10037000646A606AFCEC05F0D08EA284A084F28EE0
:1003800064B602D06486FCD70201010E306F120001
:1003900002015A5122E1010E5A6F5B511EE1010E1A
:1003A0005B6F020E405D07E1B8DBEE52EF6AB5DB32
:1003B000C80EEF6E1200400510E1536BC4DBEE5225
:1003C000080EEF6EC0DB46EC06F0BDDB840EEF6E70
:1003D000010E536F90DB800EEF6E120002015C6B1A
:1003E0005D6B020E405D06E19EEC06F0B1DB35EC84
:1003F00006F010D044510201265D02014551020170
:10040000275904E226C244F227C245F261D885DBAF
:100410009FDB83DBC80EEF6E12004CEC06F0000E83
:10042000DE6E020EDD6EA7DB040DF4CF15F0D9CF22
:10043000E9FFDACFEAFFF350EE261550ED2268DB34
:10044000EF9EFD0EDB5002E191DB01D058DBEA228A
:10045000DECFEEFFDDCFEDFF5BDBEF9C59DB040E63
:10046000E926000EEA22EF8C020EE15C02E2E16A6C
:10047000E552E16E5CD36498020143BF0DD048AFF2
:1004800009D0020E406F5D5101E1A8DF02015B6BF4
:100490005A6B12005AEF06F0020120AF0DD0020194
:1004A000010E406F5C5101E199DF02015B6B5A6BF9
:1004B00059510DE1C8EF01F00201020E406F1BDB44
:1004C000840EEF6E5B6B5A6B595101E161DF1200D4
:1004D00078EC06F0080EDF6E0201445D000E45590F
:1004E0000AE244C2DFFF3F5102E1010E03D03F05A3
:1004F00002E1020E3F6FDF50156AE850445D446F21
:1005000015504559456F09DBEE52DFCFEFFF280E3E
:100510004D6F020E4E6F43B10DD0DF5017E041C258
:10052000F6FF42C2F7FF412B000E42230800F550B0
:100530003CDBF3D7DF500AE041C2E9FF42C2EAFFE9
:10054000412B000E4223EF5030DBF4D7E552EFD2BF
:10055000A3DBF9DAEE52EFCFDFFFDFCF14F0145058
:100560000201495D000E4A5902E249C2DFFFDF5035
:10057000146E156AE850495D496F15504A594A6F23
:10058000010EDB6ADF50F36E010EDBCFF4FFF35098
:10059000F45C16E2010EDB50EA6A280FE96E020EE7
:1005A000EA22EF50E66E46C2E9FF47C2EAFF462B59
:1005B000000E4723E552E750EF6E010EDB2AE2D72B
:1005C000000ED8804955000E4A550DE2B7DBC0DA5F
:1005D000BADAEF50400B03E148DBC80E02D045DB2E
:1005E000880EEF6E12D087DA840EEF6E4B514C11ED
:1005F00007E005D04CC2FAFF02014B51F96EFADF59
:100600000201489F595101E1C3DE020EE15C02E2A2
:10061000E16AE552E16E8BD26BDB0201438F62DB54
:10062000200EE66EE66AE66A000EE66E020E96DAC6
:10063000648CDF6A020EDF5C02E2A7DAFBD710DB14
:10064000320EE66E020E8ADA649C0201080E3B6FDF
:10065000020E3C6F000E336F020E346F33C235F260
:10066000366F22C231F2315102E1100E0BD0010E71
:10067000E66EE66A310EE66E020EE66E010E44DAB2
:100680000201200E306FE55252D2800E0201205D31
:1006900038E10201C00E436F02012351030A1AE040
:1006A000010A09E0030A2BE102019C0E416F390E99
:1006B000426F120E1ED0C6DA450EF6263A0EACDA9E
:1006C000020E0201B8DAF5CF44F2030EB4DAF5CF28
:1006D00045F21200040E225D0FE2B4DA470EF62650
:1006E0003A0E9ADA41C2F6FF42C2F7FF0800F5500F
:1006F0000201446F456B12000201436B12000201BC
:10070000436B1200C9DA0201286B296B20511F0BC1
:10071000020A11E0030A0CE0010A1EE10201438F04
:100720000201288102014F0517E10201288314D03C
:100730000201438F11D00201438F020124BF02D076
:10074000C0DA01D0C3DA3EDAC9DA06E0E1D9EF5007
:10075000040B02E0010E286F020143AF07D0280E00
:10076000416F020E426F4381020E446F020EE15C44
:1007700002E2E16AE552E16EDAD10F0153A10CD039
:10078000E2D9EF50800807E1C8D9EF50840803E1AF
:10079000DAD98C0EEF6E5391629A120060846298DF
:1007A00064820201010E506F13DA750E84EF05F0BA
:1007B0000201506B0DDA740EA7D96492609462A4A2
:1007C00002D06294FCD7120093DA02012D0E586F0A
:1007D000FD0E511539E17E0E5115E8407F0B040DD9
:1007E000F3CF33F2F4CF34F2000E3327020E34236A
:1007F00033C235F234C236F23575A5D9EF503C0B11
:10080000E842E8420D081EE1DF6A080EDF5C16E2EE
:100810009AD9020EE926000EC2D9EF50E66EDF50DB
:10082000EA6A200FE96E020EEA22E552E750EF6E07
:100830008AD98ADAEE2AEF22DF2AE7D784D926DAA4
:100840000AD807D023D805D0FD0E5115040801E1C0
:100850002CD8E5526CD102013F6B596B5C6B5D6B20
:10086000536B406B5AD9EF9E3B7557D9EF9E3B7542
:10087000FCD9EF9E436B446B456B486B496B4A6BED
:1008800051D8A6D9030E40D93BEF02F0020E020167
:10089000405D02E1A8EF02F0406B535104E12BD917
:1008A0008C0EEF6E1200536B120022DA36D9EF5025
:1008B000400B01E0010EDF6E02013B75080E305D5A
:1008C0000BE122C25CFF0F015C5103E00201100E3C
:1008D00002D00201040E306F400513E11ED938D951
:1008E000F7DD020E02013F5D03E117D9840E07D048
:1008F000DF5003E112D9C80E02D00FD9880EEF6E77
:100900000FD048AF0CD04B514C1107E005D04CC272
:10091000FAFF02014B51F96EFADF0201489F406B6A
:10092000E55205D102012051600BE842E842E8425D
:10093000E842E842000901E0120021510C0A45E0BA
:100940000B0A3FE00C0A31E0010A22E00B0A1EE02C
:10095000020A1CE0030A18E0080A10E0010A0CE091
:100960000F0A08E0030A01E012000201438F080E9B
:10097000306F120045EF03F00CEF03F00201310E6F
:10098000416F020E426F0CD082EF03F0E6EF04F0ED
:1009900024510201416F426B320E4127020E422365
:1009A0004381010E446F438F12000201438F020105
:1009B0002451EA6A320FE96E020EEA2222C2EFFFE8
:1009C000120006D9020E84EF05F01200ABD8050E16
:1009D000E1260201220510E120511F0B00090CE164
:1009E0000201438F030E0201215D04E10201010EA9
:1009F0004F6F02D002014F6B0201225101E074D00F
:100A000020511F0B020870E124510F0B00096CE00C
:100A100024510F0B010868E3200E0201305D64E1F0
:100A2000438F020124BF04D04CD9CCD8D7D803D0EF
:100A30004DD9C8D8D7D8EA22020EEFCFDBFF09D9AB
:100A4000010B03E1000EDF9401D0DF8424BF02D04C
:100A500038D901D03BD9EA22DECFEEFFDDCFEDFF62
:100A6000030E215D0CE13AD907E024BF02D0B6D8CD
:100A700001D0B8D8EA22EF82840E6BD935D0DF746A
:100A80002DD906E045D8EF9E43D8EF8C09D902D086
:100A90003FD8EF8CDF74DDD8020B02E11FD90DE0E7
:100AA000020124BF02D09AD801D09CD8EA22EF924A
:100AB0003B0E146E3FD9F4D802D03B0E3BD9020155
:100AC00024510F0B156A530F146E0F0E1522030ECF
:100AD00014C0DBFF040E15C0DBFF030EDBCFE9FF04
:100AE000040EDBCFEAFFEF90050EE15C02E2E16A63
:100AF000E552E16E1CD022D9C9D835EF06F0FE0EC2
:100B0000EA6ADB347BEF06F0E66EE66A89EF06F010
:100B1000DECFE9FFDDCFEAFF12003BC2E9FF3CC2B6
:100B2000EAFF1200D9CFE6FFE1CFD9FF1200E5526C
:100B3000E7CFD9FF120024510F0BE96EEA6AD89073
:100B4000E936EA36120033C2E9FF34C2EAFF120086
:100B5000FBD8280EEE6E020EED6E1200E66EE1EC92
:100B60001EF0146E050EE15E14501200FE0EEA6ACD
:100B7000DB3482EF06F0FD0EDB50E824166EFE0E2D
:100B8000DB50040DF35016241200DF50CED8EA22B9
:100B9000EF6ADF50C5D8EA22EF6ADF2A1200EA22A4
:100BA000EE50EFCFEAFFE96E1200E66E4DC2E9FFAC
:100BB0004EC2EAFF4D2B000E4E23E552E750EF6E7A
:100BC000DF061200EA22EECFDEFFEDCFDDFF1200DE
:100BD000000EE66EE66AE66EE66A120024510F0B1E
:100BE00090EF06F024510F0B95EF06F0152214C07C
:100BF000DEFF15C0DDFF1200160E616E0F019F0EA5
:100C00005B6F7B0E606E1200FE0EDBCFE6FF0DEC1D
:100C100002F0E552E5521200F7220900F5CF41F249
:100C20000A00F5CF42F21200010EE66EE66A000EEF
:100C3000E66EE66A1200F76A4125F66E4251F72227
:100C4000080012002251F66EF76AD890F636F73691
:100C50001200D950020FE96EDACFEAFFEF5012000E
:100C6000010EE66EE66AE66A120035C2E9FF36C298
:100C7000EAFF1200040DF3CF14F0F4CF15F0000ECC
:100C80001426020EB3DF840EA9EF06F05DD8200E05
:100C9000EE6E020EED6E120045DF020EE12612002E
:100CA000020EE66EE66ADECFE6FFDDCFE6FF050E5A
:100CB00084EF05F020DF8C0EEF6E2FDF840EEF6ED9
:100CC000120039DF370EE926020E120034DF3B0E28
:100CD000E926020E120013DFCFEF05F019DFEF5007
:100CE000800B1200BDDF540EE66E0F0EAEEF05F066
:100CF00019DFE6521200FE0BEA36E96E3B0EE926DA
:100D0000020E1200FE0BEA36E96E370EE926020EDD
:100D100012007DEC10F0146E060EE15E145012000D
:100D2000EA6A560FE96E020E1200EA6A540FE96E83
:100D3000020E1200EDDEE850EF16120096DFEE52C2
:100D4000080EEF6E35EF06F0020EE926000EEA22DD
:0A0D50001200DEDEE850EF12120080
:060D5A00F29EF29C3F0E28
:100D6000C716C66AC56A800EC76E080EC66E1D0E0F
:100D7000C86E938C9388C68A8A8E0A0EE66E12EC31
:100D80001FF0E552F28EF28C1200C69A8A9E030E74
:100D9000E66E12EC1FF0E5521200D9CFE6FFE1CF6C
:100DA000D9FFE652DF6ADF98DF8ADF9CDF8E100E04
:100DB000B2D802E0D2D8FEE1010E1416D4D8186ED3
:100DC000D9CFE9FFBDD8DF92DF94DF90F29EF29C8D
:100DD00074EC1FF0C580C5A003D0FDD7C5B0FED709
:100DE000DFCFE6FFA8D8C5BCFED7080E94D802E036
:100DF000B4D8FEE1BCD8C5BCFED7BDD8C5BCFED7B3
:100E0000FB0EDBCFE6FF97D8C5BCFED7C584C5A4D3
:100E100003D0FDD7C5B4FED774EC1FF0C580C5B0B4
:100E2000FED774EC1FF0DFCFE6FF85D8C5AC04D049
:100E3000C584C5B4FED7F0D7C584C5A403D0FDD7FB
:100E4000C5B4FED774EC1FF0F28EF28CE552E55279
:100E5000E7CFD9FF1200D9CFE6FFE1CFD9FF020ECD
:100E6000E126DF6A010EDB6ADB98DB8ADB9CDB8E26
:100E7000100E51D802E071D8FEE1010E141673D89D
:100E8000186ED950010FE96E5BD8010EDB92DB942E
:100E9000DB90F29EF29C74EC1FF0C580C5A003D0DD
:100EA000FDD7C5B0FED7010EDBCFE6FF44D8C5BCE9
:100EB000FED7080E30D802E050D8FEE158D8C5BCA5
:100EC000FED759D8C5BCFED7C582C5B2FED774ECD3
:100ED0001FF0010EDB28E66E2ED8C5BCFED75CECF9
:100EE0001FF0DF6E74EC1FF0C584C5A403D0FDD7DE
:100EF000C5B4FED774EC1FF0F28EF28CDF50146E86
:100F0000020EE15C02E2E16AE552E16E1450E55244
:100F1000E7CFD9FF1200176ED950FC0FE96EFF0E14
:100F2000DA20EA6E17501F0BEECF14F0EECF15F05B
:100F3000EECF16F01200C2EC07F0E55274EF1FF08E
:100F4000DACFEAFF1450010BF36EF346F346F34693
:100F5000F70EEF14F310EF6E1200D8901632153220
:100F60001432E8061200156A166A14501200FBDFEC
:100F7000E66E9BEF07F0FC0EDBCF14F0FD0EFE0ECD
:040F8000B7EF07F0D0
:0C0F8400D9CFE6FFDACFE6FFE1CFD9FFBE
:100F9000E2CFDAFFFD0EDB50C96EC6AE02D0FF0E07
:100FA00024D00F0EC61408080FE00F0EC6140B084D
:100FB0000BE0C6889EA6FED7C750040B03E1C750BE
:100FC000010B10E0000E11D00F0EC614080804E04B
:100FD0000F0EC6140B0809E1C7B0FED774EC1FF062
:100FE000C5AC02D0FE0E01D0000EE552E5CFDAFF0F
:060FF000E7CFD9FF12005B
:070FF60000000000000000F4
:02100000393085
:0E100200D8CFE4FFE0CFE4FFE46EEFEC15F092
:1010100000EE00F0140EE80403E3EECFE4FFFBD78C
:1010200000EE14F00D0EE80403E3EECFE4FFFBD76F
:10103000E652A050020B06E0A150020B03E0E0ECE8
:1010400017F0A192E55200EE20F00D0EE80403E344
:10105000E5CFEDFFFBD700EE13F0140EE80403E339
:10106000E5CFEDFFFBD704EC16F0E550E5CFE0FF50
:10107000E5CFD8FF1000EFEC15F000EE00F0140EF5
:10108000E80403E3EECFE4FFFBD700EE14F00D0E0F
:10109000E80403E3EECFE4FFFBD7E652D7EC15F00C
:1010A000E652F250100B07E0F250020B04E0000190
:1010B0006785F298F2929E50010B0BE09D50010B58
:1010C00008E00201F82B050EF85D02E18A7AF86B60
:1010D0009E90F050080B18E0F050010B15E0020E46
:1010E0000001D25D03E166EC17F00DD0D2050BE1F3
:1010F00082A209D0020ED26FD36BE00ECF6E640EC7
:10110000CE6E0201FA6BF090E552E552E7CFD9FFBF
:10111000E55200EE20F00D0EE80403E3E5CFEDFF0D
:10112000FBD700EE13F0140EE80403E3E5CFEDFF68
:10113000FBD704EC16F01100D9CFE6FFE1CFD9FFC1
:10114000030EE1264AD87AEC1EF0020EE66E19EC88
:1011500011F0E552F3CF79F0F4CF7AF0010EE66E9C
:1011600019EC11F0E552F3CF77F0F4CF78F0030EDD
:10117000E66E19EC11F0E552F3CF7BF0F4CF7CF082
:1011800051EC13F0F3CF7DF0F4CF7EF0010EE66E5C
:101190006DD8E5520001D20514E146EC17F0F18A52
:1011A000F090F086070EE66E40EC1FF0E55200016D
:1011B000010ED26F0001D20504E1F090F0965BECD5
:1011C00017F00300E7D7030EE15C02E2E16AE552A3
:1011D000E16EE552E7CFD9FF1200F29EF29C949C9B
:1011E000949E829C829E939A94968A988A9C9398C5
:1011F0008A98939C8A9C939E686A6D6A6B6A7E6AE1
:101200007F6ABD6A2AEC17F07AEC1EF08A9A8B96F8
:101210008A9E9480F292F288F18CBBEC1AF0000165
:10122000676B6785CD6A9F809E909D80D08EF28E81
:10123000F28CD36B0201FA6B1200000167A50CD08F
:101240000A0EE66E69EC1FF0E55282A005D000019F
:1012500067956787B5EC01F0200E0201305D05E16E
:1012600000016751080B01E031D81200D7EC15F0EE
:10127000E652FE0EDB50030A18E0010A08E0030AFA
:1012800022E18B868A8A010E52EC16F01CD0DF6AAE
:10129000060EDF5C18E28B868A8A050E52EC16F089
:1012A000050E01EC17F0DF2AF3D7DF6A030EDF5CCF
:1012B0000AE28B868A8A640E52EC16F0320E01EC3A
:1012C00017F0DF2AF3D7E552DCEF15F0D9CFE6FFB0
:1012D000E1CFD9FF080EE126200E0201E76E30199A
:1012E000E8AE02D0E73402D0E750305D03E364504B
:1012F000020B02E031EF10F00201FB51FC1102E1A0
:10130000000E08D0FBC2E9FFFCC2EAFFEF50800BE1
:1013100001E0010E000902E031EF10F00001866BE0
:101320000001CB6BCC6B00018651EA6A600FE96E5D
:10133000020EEA22EF500F0802E01EEF10F000014B
:10134000862B00018651EA6A600FE96E020EEA22DE
:10135000EFCF87F0CBC0E6FFCCC0E6FF000186519F
:10136000EA6A600FE96E020EEA22EF50E66EC3EC05
:1013700010F0E552E552E552F3CFCBF0F4CFCCF0CC
:101380000001862B00018651EA6A600FE96E020EA9
:10139000EA22EFCF88F0CBC0E6FFCCC0E6FF000129
:1013A0008651EA6A600FE96E020EEA22EF50E66E9D
:1013B000C3EC10F0E552E552E552F3CFCBF0F4CF99
:1013C000CCF00001862B030EDB6A00018851F36E1E
:1013D000030EDBCFF4FFF350F45C30E200018651E2
:1013E000EA6A600FE96E020EEA22EF50E66E030E23
:1013F000DB50EA6A890FE96E000EEA22E552E750F7
:10140000EF6ECBC0E6FFCCC0E6FF00018651EA6A72
:10141000600FE96E020EEA22EF50E66EC3EC10F0A8
:10142000E552E552E552F3CFCBF0F4CFCCF000011A
:10143000C92B0001862B030EDB2AC7D7000186517A
:10144000EA6A600FE96E020EEA22EF50146E156A26
:10145000086A010E096E14C00DF015C00EF0E6EC1E
:101460001DF006C0CDF007C0CEF00001862B0001B4
:101470008651EA6A600FE96E020EEA22EF50146E9E
:10148000156A14500001CD2715500001CE2300012C
:10149000CD510001CB1904E10001CE510001CC195E
:1014A00002E01EEF10F0030EDB6A400EF36E030E37
:1014B000DBCFF4FFF350F45C0BE2030EDB50EA6A7F
:1014C000A00FE96E020EEA22EF6A030EDB2AEDD7C7
:1014D00000018751760A02E1CAEF0FF0030A02E128
:1014E000E8EF0EF0010A02E1D0EF0EF0070A02E188
:1014F000CFEF0EF0010A02E1CEEF0EF0030A02E197
:10150000CDEF0EF0010A02E1C7EF0EF01F0A02E173
:1015100087EF0EF0010A01E1B2D3030A01E16DD3B6
:10152000010A01E14FD2070A01E124D2010A01E1D7
:1015300002D2030A01E1E1D1010A01E169D10F0AF6
:1015400001E1E3D0010A2BE0030A02E01EEF10F0F4
:10155000000EF66E100EF76E0900F5CF14F00800BD
:10156000F5CF15F015C014F0156A14500001896FFD
:10157000000EF66E100EF76E0900F5CF14F008009D
:10158000F5CF15F0145000018A6F020EE66EC90EF9
:10159000E66E35EC14F0E552E5521EEF10F0000156
:1015A0008951030A2BE0010A16E0030A01E039D051
:1015B000040E77C0DBFF050E78C0DBFF060EDB6A8A
:1015C000040EF36E070EF3CFDBFF010EF36E030E76
:1015D000F3CFDBFF29D0040E79C0DBFF050E7AC004
:1015E000DBFF060EDB6A040EF36E070EF3CFDBFFA4
:1015F000010EF36E030EF3CFDBFF16D0040E7BC09B
:10160000DBFF050E7CC0DBFF060EDB6A040EF36E0B
:10161000070EF3CFDBFF010EF36E030EF3CFDBFFFC
:1016200003D0030EDB6A00D0030EDB0465E1040E79
:10163000DBCF14F0050EDBCF15F0060EDBCF16F076
:10164000070EDBCF17F01650145C1750155832E216
:101650008AC06AF08BC06BF08CC06CF0680EE66ECE
:10166000000EE66E98EC11F0E552E552E8680718B6
:1016700005E1E868081802E1E868091813E189C083
:10168000E6FF680EE66E000EE66E1DEC12F0E55207
:10169000E552E552E66ACA0EE66E35EC14F0E55204
:1016A000E55207D0E66ACB0EE66E35EC14F0E55253
:1016B000E55221D000018951030A15E0010A0BE02F
:1016C000030A01E018D0E66AD80EE66E35EC14F095
:1016D000E552E55210D0E66AD90EE66E35EC14F00C
:1016E000E552E55208D0E66ADA0EE66E35EC14F003
:1016F000E552E55200D007D0E66AE00EE66E35EC22
:1017000014F0E552E5521EEF10F08AC06AF08BC06B
:101710006BF08CC06CF0680EE66E000EE66E98EC16
:1017200011F0E552E55207C0DFFF010E08C0DBFFF4
:10173000020E09C0DBFFD9CFE9FFDACFEAFFE86884
:10174000EE1805E1E868EE1802E1E868EE1857E0E7
:1017500000018951030A33E0010A1AE0030A01E09B
:1017600045D0010EE66EDECFE6FFDECFE6FFDDCF31
:10177000E6FFDD52AAEC12F0E552E552E552E552E1
:10178000E66ACC0EE66E35EC14F0E552E55236D042
:10179000020EE66EDECFE6FFDECFE6FFDDCFE6FF30
:1017A000DD52AAEC12F0E552E552E552E552E66A46
:1017B000CC0EE66E35EC14F0E552E5521FD0030E68
:1017C000E66EDECFE6FFDECFE6FFDDCFE6FFDD52E1
:1017D000AAEC12F0E552E552E552E552E66ACC0E6B
:1017E000E66E35EC14F0E552E55208D0E66AE00EFC
:1017F000E66E35EC14F0E552E55200D007D0E66A0B
:10180000CD0EE66E35EC14F0E552E5521EEF10F009
:1018100089C06AF08AC06BF08BC06CF0680EE66E0F
:10182000000EE66E98EC11F0E552E55207C0DFFFBE
:10183000010E08C0DBFF020E09C0DBFFD9CFE9FFB4
:10184000DACFEAFFE868EE1805E1E868EE1802E191
:10185000E868EE184AE0DFCF14F0010EDBCF15F098
:10186000020EDBCF16F0176A000E145C0C0E155832
:10187000000E1658000E175804E20001010E896F81
:101880002BD0DFCF14F0010EDBCF15F0020EDBCF33
:1018900016F0176A030E145C180E1558000E165831
:1018A000000E175804E20001020E896F15D0DFCF39
:1018B00014F0010EDBCF15F0020EDBCF16F0176A25
:1018C000060E145C240E1558000E1658000E1758FC
:1018D00003E20001030E896F010EE66ECB0EE66E89
:1018E00035EC14F0E552E55207D0E66ACD0EE66E0F
:1018F00035EC14F0E552E552A1D389C060F08AC0FE
:1019000061F08BC062F08CC063F08DC064F08EC05B
:1019100065F08FC066F0600EE66E000EE66E60EC5D
:101920001BF0E552E552E66ACE0EE66E35EC14F099
:10193000E552E55283D3600EE66E000EE66EBDEC16
:101940001BF0E552E55260C089F061C08AF062C0C8
:101950008BF063C08CF064C08DF065C08EF066C003
:101960008FF0070EE66ECF0EE66E35EC14F0E55202
:10197000E55264D30001816B826B78C014F0156A64
:1019800014C089F077C08AF07AC014F0156A14C0C8
:101990008BF079C08CF07CC014F0156A14C08DF007
:1019A0007BC08EF07EC014F0156A14C08FF07DC02D
:1019B00090F0080EE66ED00EE66E35EC14F0E552AF
:1019C000E5523CD300017D510001815D00017E5153
:1019D0000001825901E309D1F29EF29C81C014F00A
:1019E00082C015F0070E1502F3CF15F0070E140292
:1019F000F3CF14F0F4501526166A176A090E142650
:101A0000240E1522000E1622000E172214C0DFFF2E
:101A1000010E15C0DBFF020E16C0DBFFADEC06F0B9
:101A2000DECFE6FFDECFE6FFDDCFE6FFDD522BECBB
:101A300007F0E552E552E5520001896FD9CFE9FF81
:101A4000DACFEAFFEE2A000EEE22000EEE22DECF03
:101A5000E6FFDECFE6FFDDCFE6FFDD522BEC07F041
:101A6000E552E552E55200018A6FD9CFE9FFDACF9E
:101A7000EAFFEE2A000EEE22000EEE22DECFE6FF97
:101A8000DECFE6FFDDCFE6FFDD522BEC07F0E552BF
:101A9000E552E55200018B6FD9CFE9FFDACFEAFFBB
:101AA000EE2A000EEE22000EEE22DECFE6FFDECFA3
:101AB000E6FFDDCFE6FFDD522BEC07F0E552E55205
:101AC000E5520001936FD9CFE9FFDACFEAFFEE2AA2
:101AD000000EEE22000EEE22DECFE6FFDECFE6FFA6
:101AE000DDCFE6FFDD522BEC07F0E552E552E55283
:101AF0000001946FD9CFE9FFDACFEAFFEE2A000E9A
:101B0000EE22000EEE22DECFE6FFDECFE6FFDDCFD7
:101B1000E6FFDD522BEC07F0E552E552E5520001FD
:101B2000956FD9CFE9FFDACFEAFFEE2A000EEE2259
:101B3000000EEE22DECFE6FFDECFE6FFDDCFE6FFD2
:101B4000DD522BEC07F0E552E552E5520001966FAD
:101B5000C5EC06F0F28EF28C0001812B000E822380
:101B600000019351E840E8403F0B00018C6F030EE9
:101B700000019315100DF3CF8DF0000194390F0B78
:101B800000018D130F0E00019415E82400018E6FE3
:101B900000019545010B00018E1300019551E840AD
:101BA000E8403F0B1F0B00018F6F030E00019515DE
:101BB000040DF3CF90F0060E96C0E7FF070B04E08C
:101BC000E742E79EE806FCE1E750000190133F0E74
:101BD000000196150001916F090EE66ED10EE66EBA
:101BE00035EC14F0E552E55207D0E66AD70EE66E02
:101BF00035EC14F0E552E55221D2F29EF29C090E2A
:101C0000DF6E240EF36E010EF3CFDBFF020EDB6AF4
:101C1000ADEC06F0030EDB6A070EF36E030EDBCFAE
:101C2000F4FFF350F45C1AE2E668DECFE6FFDECFA5
:101C3000E6FFDDCFE6FFDD52CDEC06F0E552E552E2
:101C4000E552E552D9CFE9FFDACFEAFFEE2A000EDE
:101C5000EE22000EEE22030EDB2ADED7C5EC06F0E4
:101C6000F28EF28C00017D6B7E6B00016799E66A53
:101C7000D20EE66E35EC14F0E552E552DFD10001EC
:101C80008951040A2EE0070A1FE0010A10E0030A46
:101C900001E034D0010EE66EACEC14F0E552E66AD9
:101CA000D30EE66E35EC14F0E552E5522FD0020E5D
:101CB000E66EACEC14F0E552E66AD40EE66E35EC56
:101CC00014F0E552E55222D0030EE66EACEC14F0AF
:101CD000E552E66ADB0EE66E35EC14F0E552E552AD
:101CE00015D0040EE66EACEC14F0E552E66AD50EA3
:101CF000E66E35EC14F0E552E55208D0E66AE00EE7
:101D0000E66E35EC14F0E552E55200D097D105ECC3
:101D100015F00001020ED26F0201E299000167A7DF
:101D200013D0000167B110D0680EE66E000EE66EAB
:101D3000E3EC17F0E552E552000903E0040002016C
:101D4000E2890201E2A9EAD70201E2A915D0020163
:101D5000E299010EE66E36EC09F0E5526AC089F0B0
:101D60006BC08AF06CC08BF0030EE66ED60EE66E8A
:101D700035EC14F0E552E552000167A107D0E66AA0
:101D8000E20EE66E35EC14F0E552E55257D1010E45
:101D9000E66E36EC09F0E55251D150D14FD14ED11B
:101DA0000001040E896F00018A6B0001040E8B6F25
:101DB00000018C6B0001040E8D6F00018E6B060E0E
:101DC000E66EE10EE66E35EC14F0E552E55236D1E2
:101DD00000018951070803E30001895108E1E66A1F
:101DE000E00EE66E35EC14F0E552E552D2D000017B
:101DF0008905146E156A166A176A2D0E0B6E010E90
:101E00000C6E0D6A0E6A14C006F015C007F016C0FD
:101E100008F017C009F013EC1EF002C014F003C064
:101E200015F004C016F005C017F01D0E1426ED0EB7
:101E30001522010E1622000E172214C0CFF015C075
:101E4000D0F016C0D1F0ADEC06F0CFC0E6FFD0C0A8
:101E5000E6FFD1C0E6FF2BEC07F0E552E552E55274
:101E60000001846FFF0E0001845D0FE084C014F058
:101E7000156A166A176A640E145C000E1558000E77
:101E80001658000E175801E37BD0FF0E0001845D49
:101E900002E10001846B00018429E66ECFC0E6FFF9
:101EA000D0C0E6FFD1C0E6FFCDEC06F0E552E5522A
:101EB000E552E552030E00018403F328146E156AFF
:101EC000166A14500001CF2715500001D023165078
:101ED0000001D1238AC0E6FF0001CFC014F0CF2B50
:101EE000D0C015F0000ED023D1C016F0000ED123C3
:101EF00014C0E6FF15C0E6FF16C0E6FFCDEC06F005
:101F0000E552E552E552E5528BC0E6FF0001CFC035
:101F100014F0CF2BD0C015F0000ED023D1C016F096
:101F2000000ED12314C0E6FF15C0E6FF16C0E6FF81
:101F3000CDEC06F0E552E552E552E5528CC0E6FFE5
:101F40000001CFC014F0CF2BD0C015F0000ED0236D
:101F5000D1C016F0000ED12314C0E6FF15C0E6FF75
:101F600016C0E6FFCDEC06F0E552E552E552E5522B
:101F7000E66AE30EE66E35EC14F0E552E55207D062
:101F8000E66AE50EE66E35EC14F0E552E552C5EC76
:101F900006F054D000018951070803E3000189517C
:101FA00008E1E66AE00EE66E35EC14F0E552E55223
:101FB00044D000018905146E156A166A176A2D0E41
:101FC0000B6E010E0C6E0D6A0E6A14C006F015C081
:101FD00007F016C008F017C009F013EC1EF002C09D
:101FE00014F003C015F004C016F005C017F01D0E64
:101FF0001426ED0E1522010E1622000E172214C013
:10200000CFF015C0D0F016C0D1F0ADEC06F0E66A06
:10201000CFC0E6FFD0C0E6FFD1C0E6FFCDEC06F0B2
:10202000E552E552E552E552C5EC06F0E66AE40EEB
:10203000E66E35EC14F0E552E55200D0400EE66E47
:10204000600EE66E020EE66EE66A010EE66E34EC97
:1020500001F0146E050EE15E1450F3CFFBF2F4CFE5
:10206000FCF2080EE15C02E2E16AE552E16EE55243
:10207000E7CFD9FF120012001200120012006DEF1C
:102080001CF012001E0EE66E010EE66E10EC01F062
:10209000E552E552400EE66E600EE66E020EE66E0A
:1020A000E66A010E76EC16F0F3CFFBF2F4CFFCF209
:1020B000120002014F0520E1020150051DE1A0942C
:1020C000DBDF64920201506B0201100EE06F0E0E16
:1020D000E16FE007000EE15BE051E111FAE1648499
:1020E000080EE06F070EE16FE007000EE15BE051C4
:1020F000E111FAE16494A0841200D7EC15F0FD0E12
:10210000DBCF08F0FE0EDBCF09F0050E081801E169
:10211000095036E0E868081802E17F0E09182FE040
:10212000030E081801E1095028E0020E081801E129
:10213000095021E0010E081801E109501AE0740E5F
:10214000081801E1095013E0750E081801E1095063
:102150000CE0730E081801E1095005E0720E081832
:102160000FE109500DD089DF0BD085DF09D084DF66
:1021700007D088DF05D085DF03D081DF01D07EDF87
:10218000010EDCEF15F0D7EC15F0FC0EDBCF18F0EC
:1021900018C019F0186AFD0EDBCF17F017C016F043
:1021A00017501810146EFC0E14C0DBFFFD0E19C082
:1021B000DBFFFE0EDB50146E156AE150E0EC15F00B
:1021C000FF0EE76EFC0EDBCF16F0FD0EDBCF17F037
:1021D000E7501616176A16380F0B146E156AD95089
:1021E000E0EC15F056EC16F014C015F0146A040E6D
:1021F000D89014361536E804FBE1D950E0EC15F020
:10220000FF0EE76E56EC16F0E7501416156A040E32
:10221000D89014361536E804FBE1D89014361536FC
:10222000D950E0EC15F056EC16F08DEC16F0DCEF22
:1022300015F0D7EC15F0090EE126FE0EDB50030A6F
:1022400017E0010A0BE0030A1EE106EC17F0F36E3B
:10225000DB6E050EDB6A060EDB6A15D006EC17F0A6
:10226000DB6E030EF36E050EF3CFDBFF0C0E09D011
:1022700006EC17F0DB6E060EF36E050EF3CFDBFFF8
:10228000180E71EC16F040EC16F0070EDB6A080E23
:10229000DB6A070EDBCF14F0080EDBCF15F0030E60
:1022A000DBCF16F0040EDBCF17F01650145C17507E
:1022B00015582CE2070EDBCF17F0080EDBCF18F015
:1022C00067EC16F0050EDB50F324146E060EDB509F
:1022D0001820156E166A14C0DFFFA9EC15F0FF0870
:1022E0000FE191EC15F0FF080BE191EC15F0FF0800
:1022F00007E1EAEC15F0070EDBCF14F0080E0CD066
:10230000070EDB2A080EC5E3DB2AC3D7EAEC15F07B
:10231000030EDBCF14F0040EDBCF15F08DEC16F0BE
:10232000090EE15C02E2E16AE552E16EDCEF15F0D4
:10233000D2EC16F09CEC16F000017751145C785149
:1023400015581BE2A5EC15F0F3CFDFFFA9EC15F053
:10235000E1EC16F00CE1C0EC16F009E1C4EC16F06B
:1023600006E1EAEC15F000016789EFDB4ED0030EC1
:10237000DB2A040EDFE3DB2ADDD764EC16F09CECED
:1023800016F000017951145C7A5115581CE2DDDB1E
:10239000030E14260C0EB8EC16F0E1EC16F00DE16D
:1023A000C0EC16F00AE1C4EC16F007E1EAEC15F017
:1023B000CCDB030E14260C0E24D0030EDB2A040EF5
:1023C000DEE3DB2ADCD764EC16F09CEC16F00001AF
:1023D0007B51145C7C51155825E2B7DB060E1426A0
:1023E000180EB8EC16F0E1EC16F016E1C0EC16F0A1
:1023F00013E1C4EC16F010E1EDDBA7DB060E1426AA
:10240000180E1522000E1622172214C007F015C050
:1024100008F016C009F00AD0030EDB2A040ED5E33B
:10242000DB2AD3D7D7DB076808680968050EE15CAB
:1024300002E2E16AE552E16EBFD3B9DB070EE126A5
:10244000FC0EDB50030A23E0010A0FE0030A30E12F
:10245000DE6A040EDD6E020EDB6A06EC17F077C052
:10246000DBFF050E78C0DBFF23D0DE6A040EDD6ED5
:10247000030EF36E020EF3CFDBFF0C0E92EC16F0A0
:10248000040E79C0DBFF050E7AC0DBFF11D0DE6AD7
:10249000040EDD6E060EF36E020EF3CFDBFF180E98
:1024A00092EC16F0040E7BC0DBFF050E7CC0DBFF58
:1024B000040EDBCF14F0050EDBCF15F0DECF16F0E7
:1024C000DDCF17F01650145C1750155839E2D8DBE1
:1024D000030E71EC16F0DB50000806E2060EDB2856
:1024E00027DBE66E39DBF7D7040EDB2A050E01E3A6
:1024F000DB2A030EF6DBDB50000803E2E6682CDB88
:10250000FAD768DBFC0EDB50030A12E0010A09E08F
:10251000030A14E1040EDBCF77F0050EDBCF78F071
:102520000DD0040EDBCF79F0050EDBCF7AF006D0AC
:10253000040EDBCF7BF0050EDBCF7CF0010E01D06B
:10254000FF0E146E070EE15C02E2E16AE552E16EF5
:10255000145032D32CDB050EE126FB0EDB50030AB0
:1025600016E0010A0AE0030A1FE1010E77C0DBFF53
:10257000020E78C0DBFFA8DB17D0010E79C0DBFFAD
:10258000020E7AC0DBFF030EDB6E0C0E09D0010ECB
:102590007BC0DBFF020E7CC0DBFF060EC3DB180E28
:1025A000F36E040EF3CFDBFF6BDB010EDBCF17F016
:1025B000020EDBCF18F01706000E185A88DB030E48
:1025C000DB50F324146E040EDB501820156E166ACF
:1025D00095DB141805E1EE50151802E1EE501618BF
:1025E00029E0030EDF6EDF50000824E28FDB1FDBE3
:1025F000040E175E000E185A3ADB12EC17F0E66E66
:10260000DFCF1EF01F6A206A79DB1E241B6EEE509E
:102610001F201C6EEE5020201D6E1B06000E1C5A43
:102620001D5A1BC0E6FF1CC0E6FF1DC0E6FF8EDB87
:10263000DF06D9D7DF6A030EDF5C0AE2E66866DBF5
:102640001906000E1A5AF3DA12DB80DBDF2AF3D701
:10265000C1DA010EDB06020E01E2DB06FB0EDB50E7
:10266000030A12E0010A09E0030A14E1010EDBCFBC
:1026700077F0020EDBCF78F00DD0010EDBCF79F0D2
:10268000020EDBCF7AF006D0010EDBCF7BF0020E1C
:10269000DBCF7CF0050EE15C02E2E16AE552E16E1F
:1026A0008BD280DB49DB98DB15E246DBCADB60DBE3
:1026B000FF080AE136DAFF0807E133DAFF0804E130
:1026C00089DA3ADB2ADB0BD0030EDB2A040EEAE3BD
:1026D000DB2AE8D77FDA800EF36E3E0EF46E050E2D
:1026E000E15C02E2E16AE552E16E66D260DA070E71
:1026F000E126F29EF29C7DC014F07EC015F06CDBEA
:1027000001E3A7D04BDA0001635103E063510708EE
:102710000AE244DA0001635103E06351070803E26F
:10272000070E636F9BD0645103E064511F080AE2F7
:1027300035DA0001645103E064511F0803E2070E1B
:10274000646F8CD0655103E065510C080AE226DA0B
:102750000001655103E065510C0803E2070E656F47
:102760007DD0030E60C0DBFFDB50040D030EF3CF02
:10277000DBFF61390F0B146E030ED9DA030EE7CFBE
:10278000DBFF040E61C0DBFFDBCFF3FFF338F00BA0
:10279000F36E040EF3CFDBFF62417F0B146E040E69
:1027A000C6DA040EE7CFDBFF050E62C0DBFFDBCF2E
:1027B000F3FFF332F36AF332F3CFDBFF6451040D1E
:1027C000050EDBCFE7FFF350E712050EE7CFDBFF87
:1027D0006551E840E8403F0B146E050EA8DA050E7F
:1027E000E7CFDBFF060E65C0DBFFDBCFF3FFF34077
:1027F000E842C00B76DADBCFE7FF6651E712060E40
:10280000E7CFDBFF7DC014F07EC015F01ADB152288
:10281000000E162239DA020ED7DA030ED5DA040ECC
:10282000D3DA030ED5DA040ED3DA050ED1DA060EAA
:10283000CFDAE66879D9E66877D9E668EBDA86DA3E
:10284000C5EC06F000017D2B000E7E23F28EF28C8B
:1028500005D0030EE66E36EC09F0E552070EE15C9A
:1028600002E2E16AE552E16EA7D1A1D9E652000188
:10287000CB6BCC6B0201FD51FE1102E1000E08D0C2
:10288000FDC2E9FFFEC2EAFFEF50800B01E0010E3E
:10289000000960E102010F0EA06FFE0EDBCFA1F276
:1028A000CBC0E6FFCCC0E6FFA1C2E6FFCAD9FD0E51
:1028B000DBCFA2F2F3CFE6FFF4CFE6FFA2C2E6FF42
:1028C000C0D9DF6AFD0EDB50DF5C1AE2DF50EA6A36
:1028D000890FE96E000EEA22EF50E66E030EDF2448
:1028E000C0D9E552E750EF6ECBC0E6FFCCC0E6FFA3
:1028F000030EDF24B6D9EF50E66EA3D9DF2AE2D764
:10290000CCC014F0156AFF0E1416000E1516FD0E3D
:10291000DB50030FA6D914C0EFFF0001CB51E66EC8
:10292000FD0EDB50040F9DD9E552E750EF6EFD0E12
:10293000DB50050F96D9040EEF6E400EE66EA00E2A
:10294000E66E020EE66E010EE66ED0D9F3CFFDF212
:10295000F4CFFEF2E55230D12AD9020EE12690D909
:10296000FE0EDB0404E0FE0EDB50040814E1DE6A18
:10297000DD6A010EDE6EDD6ADE6ADD6A9ED9030E57
:10298000145C000E68D904E200D9F8E3DB2AF6D71C
:102990000001776B786BFE0EDB50020804E0FE0E40
:1029A000DB50040811E1030EDE6E0C0EDD6E85D9DE
:1029B000060E145C0C0E4FD904E2E7D8F8E3DB2ACC
:1029C000F6D70001796B7A6BFE0EDB50030804E04A
:1029D000FE0EDB50040811E1060EDE6E180EDD6EF1
:1029E0006CD9090E145C180E36D904E2CED8F8E37F
:1029F000DB2AF6D700017B6B7C6BECD8020EE15C26
:102A000002E2E16AE552E16ED7D000016791678387
:102A1000726B1200CCD8040EE126C0D80001630509
:102A2000146E156A166A176A2D0E0B6E010E0C6E67
:102A30000D6A0E6A14C006F015C007F016C008F043
:102A400017C009F013EC1EF002C014F003C015F01B
:102A500004C016F005C017F01D0E1426ED0E152249
:102A6000010E1622000E10D96ED90001846FFF0EE0
:102A7000845D4EE0030EDB6A8451F36E030EDBCF00
:102A8000F4FFF350F45C44E2DFCF14F0010EDBCF2F
:102A900015F0020EDBCF16F0142A000E15221622B6
:102AA000030EDB50030DF3CF17F0186A196A1450A8
:102AB000F324CF6F15501820D06F16501920D16F06
:102AC000CFC0E6FFD0C0E6FFE66EACD90001625D84
:102AD0001CE1CF2B000ED023D123DCD80001615D97
:102AE00013E18551615D11E0CF2B000ED023D1237E
:102AF00061C085F0CFD80001836F0201F96B00013E
:102B0000678BC5EC06F004D08569030EDB2AB4D7C9
:102B1000C5EC06F0040EE15C02E2E16AE552E16E0A
:102B20004BD046D9A3EF16F075D910D9D8EF16F0CF
:102B3000E76EFD0EDBCFE9FFFE0EDBCFEAFFE750CD
:102B4000E926000EEA22EF501200F6D8030EADEF90
:102B500016F049D9A3EF16F0040EDBCF19F0050EDD
:102B6000DBCF1AF015D9020EDB50F324176E030EDB
:102B7000DB501A20186E060EDB503CD91406000EEE
:102B8000155A56D9060EDB061200E668DECF14F0A1
:102B9000DDCF15F04DD9DF2A010E1200600EE66E72
:102BA000000EE66EBDEC1BF0E552E5521200D9CFE7
:102BB000E6FFE1CFD9FF1200E552E7CFD9FF1200BF
:102BC000FC0FE96EFF0EDA20EA6E1450EE1A155073
:102BD000ED1A1200C5EC06F0F28EF28C1200DACF7C
:102BE000E4FFE2CFDAFFE9CFE4FFEACFE4FFF6CF7C
:102BF000E4FFF7CFE4FFF5CFE4FFF3CFE4FFF4CF3A
:102C0000E4FFFACFE4FF1200E5CFFAFFE5CFF4FFCF
:102C1000E5CFF3FFE5CFF5FFE5CFF7FFE5CFF6FF13
:102C2000E5CFEAFFE5CFE9FFE5CFDAFF1200B0D844
:102C3000030EDB50F324176E040EDB501A20186EBF
:102C40001200C3EC10F0E552E552E552F3CFCBF0A1
:102C5000F4CFCCF012001558000E1658000E17587D
:102C60001200EA6AA00FE96E020EEA221200DF509B
:102C7000C1D8166A14C0E6FFE66E16C0E6FF120061
:102C8000F29EF29CADEF06F0172214C0DFFFABD826
:102C9000ADEF06F0CFC0E6FFD0C0E6FFD1C0E6FF43
:102CA00012EF17F0AED88B968A9A1200FC0EDBCF8B
:102CB00014F0FD0EDBCF15F01200DECF14F0DDCFE7
:102CC00015F0166A176A1200A1D8DB6A1200030E0B
:102CD0001802F3CF18F01702F3CF17F0F4501826AC
:102CE0001200F36E060EF3CFDBFF1200E66E34EC3B
:102CF00001F0146E050EE15E14501200D950FC0F65
:102D0000E96EFF0EDA20EA6EEE501200010EDBCF04
:102D100019F0020EDBCF1AF0120014C0F3FF15C039
:102D2000F4FF1200F36E030EF3CFDBFF1200DBCFD4
:102D3000E7FF1450E7121200030EDBCF14F0040E6D
:102D4000DBCF15F0120066D812EF17F0CDEC06F0CD
:102D5000E552E552E552E55212001502F3CF15F0A7
:102D60001402F3CF14F0F4501526166A176A1200F5
:102D70001522000E1622172214C0DFFFA9EF15F04E
:102D8000D0DE146E030E63D0CCDE146E040E5FD062
:102D9000030E1A02F3CF1AF01902F3CF19F0F45010
:102DA0001A26120004DF050EE1266ADF64EF16F032
:102DB000D9CFE9FFDACFEAFFEE2A000EEE22EE22AB
:102DC0001200146E020E43D0B3DEE66E94EF15F0DF
:102DD000DBCFE6FF94EF15F0166A176A800E145CDD
:102DE0003E0E2BEF16F0010E15C0DBFF020E16C0D3
:102DF000DBFF120000011724146E000E1820156E60
:102E00001200E66EFBEC1EF0E5521200030EDB6AC8
:102E1000040E1200DECFE6FFDECFE6FFDDCFE6FFD9
:102E2000DD5212002BEC07F0E552E552E55212009C
:102E3000166A14C0E6FF15C0E6FF16C0E6FFA6EF4F
:102E400016F0070E8ADF090E1426240E120070DE1B
:042E5000145C1200FC
:0C2E54000201E281E283E285E29794989B
:102E6000949A94828B8A8B98F18AF08CF090F096E9
:102E7000A80ED56ED66AD76AF194F294F29A010E32
:102E8000B16EB190A292A192A09212008B8A8B880F
:102E9000E00EBB6E0F0EBC6ECA6A9D920C0EBD6E2C
:102EA000030EBE6E050ECB6ECA84B36AB26AB180E1
:102EB000A192A08212008B9807EC00F08B8ABB6A6B
:102EC000BC6AA192A092B1908B8A1200EDDA060E34
:102ED000E126020EDB6A030EDB6A050ED6CFDBFFAE
:102EE000040ED7CFDBFFDB50146E156A086A010EA3
:102EF000096E14C00DF015C00EF0E6EC1DF0020EC8
:102F000006C0DBFF030E07C0DBFF050EDB50146EAF
:102F1000156AD950020FE96EDACFEAFF1450EE2697
:102F20001550ED220201E2A503D0F19AE29502D0FC
:102F3000F18AE285020EDBCF08F0030EDBCF09F049
:102F40000001E051085C146EE1510958156E1450EF
:102F5000DF6E020EDBCFE0F0030EDBCFE1F0DF50DF
:102F6000320803E20201E271E2830201E2A31FD010
:102F7000E251010BE76E010EE7CFDBFFDBCFE6FF8F
:102F80000001E251156AE40F146E020E152214C0FE
:102F9000E6FF15C0E6FFFCD8E552E552E552000118
:102FA000DE2BE32B080EE35D02E1E36BE22B020173
:102FB000E273060EE15C02E2E16AE552E16E79D26B
:102FC0000001DF2B120070DA020EE1265FDF010E36
:102FD000E66EA00EE66E5FD8E552E5526CDFDE6A63
:102FE000DD6ADECF14F0DDCF15F0020E145C000EAA
:102FF00015581DE274DA01E1155013E033D90009C8
:10300000F9E08ADA42D9E552E5520009F3E084DAC0
:10301000E0D9E552E552AA0EE66E5CD8E552010E03
:103020000BD072D8DF2A010EDCE3DB2ADAD7AA0E36
:10303000E66E50D8E552000E146E020EE15C02E21C
:10304000E16AE552E16E145034D2040EE66EC6EC2D
:103050001EF0E552FC0EE66E3F0EE66E28EC1DF00B
:10306000E552E552300EE66EE66A4BEC1EF0E55294
:10307000E552170EE66EA2EC1EF0E552120014DACD
:10308000FE0EDB5004E0F18A0201E28503D0F19AE2
:103090000201E2950ED208DAFD0EDBCFE6FFEFDF8C
:1030A000E5520201E283E2910001E26BE36BDE6B29
:1030B000DF6BE06BE16BF090F086FE0EDB50DE5DC7
:1030C00003E2060EDF5DF9E3F090F096E26BE36B4E
:1030D000DE51EFD1E9D9E652DF6ADFCF14F0156A8D
:1030E00014BE1568140E145C000E15580BE2DFCFE9
:1030F000E9FFEA6AE9BEEA6829DAFE0EDBCFEFFFF4
:10310000DF2AEBD7E552D5D1CFD9E652140EDF6EC8
:10311000DFCF14F0000EE76E1418E8AE02D01434BE
:1031200003D0E750D880145411E2DF04E96EEA6A54
:10313000E9BEEA680BDAEF1CE66EDF04E96EEA6AC4
:10314000E9BEEA6803DAFED9DF06E2D7E552B1D17B
:10315000C6D901E1155019E0E251EA6AE40FE96EBF
:10316000020EEA22EF50E3C0E7FFE75204E0E84234
:103170007F0BE706FCE1010B0201E36F0001E32B8B
:10318000080EE35D02E1E22BE36B0201E351120062
:103190008BD983D9EF90EF42FC0EDB5002E07DD952
:1031A000EF8E87D181D9020EE126FC0EDB50E76E4F
:1031B000010EE7CFDBFFDBCF14F0E76E1418E8AEAB
:1031C00002D0143403D0E750D880145431E2010EF9
:1031D000DB50FE0F146E156A14BE15686ED9EF50E1
:1031E000010BDF6EB8D916BE176870D9EF407F0BA0
:1031F000A3D914BE156861D9A5D9DF500BE0ABD9AE
:1032000016BE176863D9EF50800996D914AE0BD05B
:10321000156809D0A0D916BE176858D9EF507F0B92
:103220008BD914BE156849D98DD9010EDB06C3D7D9
:1032300034D9EF407F0BE66E30D984D9FB0EDB50DA
:1032400004E02BD9EF50800903D027D9EF507F0B32
:10325000E66E23D977D9020EE15C02E2E16AE5521B
:10326000E16E27D121D9E652DF6A39D901E1155043
:1032700009E06EDF0108F8E1DF2A090EDF5CF5E105
:10328000010E01D0000EE55214D10ED9070EE12631
:10329000DF6ADE52010EDD6E020EDB6A44D9DE52B9
:1032A000010EDD6EDBCF14F0320EE76E1418E8AEBF
:1032B00002D0143403D0E750D88014543EE348DFE2
:1032C000DF6E0DD903E1155001E177D00FD909E187
:1032D000DF50F36E020EDB50F35C6FE1020EDB6A2F
:1032E00029D0DFCFE6FF050EE66E16D95BDFE5528B
:1032F000E552E552E552020E33D9020EE7CFDBFF6D
:10330000F5D8040A12E0070A0CE0010A06E0030AF5
:1033100011E1030E25D9030E0BD0040E21D9040EA2
:1033200007D0050E1DD9050E03D0060E19D9060EBD
:10333000E7CFDBFF010EDB2AB5D70ADFF36E030E02
:10334000DB50F35C3AE104DFF36E040EDB50F35C18
:1033500034E1FEDEF36E050EDB50F35C2EE1F8DEA9
:10336000F36E060EDB50F35C28E1F2DE000925E186
:10337000010EDB6ADBCF14F0050EE76E1418E8AE21
:1033800002D0E73402D0E750145C13E2010EDBCF29
:1033900015F0166A15BE1668FD0EDB501524E96E91
:1033A000FE0EDB501620EA6EEF5003E1010EDB2A21
:1033B000E1D7010EDB50050802E1000E01D0010E3D
:1033C000146E070EE15C02E2E16AE552E16E145010
:1033D00070D06AD8080EE126A6D8070EDB6A020E66
:1033E000DB6A050EF36E020EDBCFF4FFF350F45CE4
:1033F00037E2DE52070EDD6EDF6A080EDF5C2DE27B
:10340000020EDB50B1D8EF50DF5206E0DFCFF3FF02
:10341000E8327F0BF306FCE1010B0DE0010EF36EC9
:10342000DB5004E0D890F336E806FCE1F35069D8AD
:10343000F350EF120ED0010EF36EDB5004E0D89083
:10344000F336E806FCE1F350F31C166E5AD816501A
:10345000EF16010EDB06DF2AD0D7020EDB2AC1D71A
:10346000DF6A050EDF5C12E2D950030F146EDF50E5
:103470001424E96E000EDA20EA6EEF50E66E040EB8
:10348000D880DF5471D85ED8DF2AEBD7080EE15C14
:1034900002E2E16AE552E16E0CD0FD0EDBCFE9FFFE
:1034A000FE0EDBCFEAFF1200D9CFE6FFE1CFD9FF56
:1034B0001200E552E7CFD9FF1200FD0EDB501424B5
:1034C000E96EFE0EDB501520EA6E1200FD0EDB5099
:1034D0001624E96EFE0EDB501720EA6E1200000182
:1034E000E251146E156A140E14181200010EDBCF8F
:1034F00014F014C009F0050E0E6ECCEC1DF0055052
:103500001200D950030F146E020EDB501424E96E22
:10351000000EDA20EA6E1200FD0EDBCFE6FFFE0E93
:10352000DBCFE6FF1200030EDB6A040EDB6A050E3A
:10353000DB6A060EDB6A1200E66E010EDB04146E17
:10354000156A1200E552E750EF6E1200E40EE9260C
:10355000020EEA221200010EDB04166E176A120038
:10356000DB50DF18E76E1200E76E97DFE750E926C1
:06357000000EEA22120029
:0A35760072D9E652DF6A80D9020E16
:1035800069D9DF6EBF0EDF14E66E020E51D986D9FF
:10359000600EE66E000EE66EF0D8E552E5520001D0
:1035A00063510DE0635107080AE3645108E0645178
:1035B0001F0805E3655103E065510C0817E26ED959
:1035C000130EE66E060E34D9010EE66E050E30D9E6
:1035D000010EE66E040E2CD9E66A020E29D9E66ABF
:1035E000010E26D9800EE66EE66A64D9C5EC06F0B7
:1035F000F28EF28CE55237D131D9F29EF29C74EC06
:103600001FF0C580C5A003D0FDD7C5B0FED756D9E1
:10361000C5BCFED7FE0E56D9C5BCFED7FD0E52D98D
:10362000C5BCFED7C584C5A403D0FDD7C5B4FED79D
:1036300074EC1FF0C580C5B0FED774EC1FF03ED906
:10364000C5AC04D0C584C5B4FED7F2D7C584C5A423
:1036500003D0FDD7C5B4FED774EC1FF0F28EF28C08
:1036600002D1FCD8E652F29EF29C74EC1FF0C580A9
:10367000C5A003D0FDD7C5B0FED720D9C5BCFED7A5
:10368000FE0E20D9C5BCFED7C582C5B2FED774ECEC
:103690001FF0DF0EE66ED2D8C5BCFED75CEC1FF083
:1036A000DF6E74EC1FF0C584C5A403D0FDD7C5B48C
:1036B000FED774EC1FF0F28EF28CDF50E552D3D0BF
:1036C000CDD8E652DCD8ADD8040EE3D854E0A9D862
:1036D000040EDFD81F084FE3A4D8030EDAD84BE05E
:1036E000A0D8030ED6D8070846E39BD8050ED1D83C
:1036F00042E097D8050ECDD80C083DE392D8030ED2
:103700009AD8DF6E000EDF96DF98DF9ADF9CDF9E8F
:10371000DF86DFCFE6FF030ECAD8EF50D7D8DF6EC3
:10372000800EDF10DF6EDFCFE6FFE66AC3D879D800
:10373000EE52EF50CBD8E66E010EB9D8020E7BD810
:10374000DF6E3F0EDF14DF6EDFCFE6FF020EAFD875
:10375000040E71D8E66E040EAAD8050E6CD8E66E7B
:10376000050EA5D8060E67D8E66E060E61D8F28E55
:10377000F28CC5EC06F0E55276D070D880D8E66AB7
:1037800070DFE5527F0B7FD8E552E750EF6E010EF8
:10379000A1D8EE52E552E750EF6E020E5BD83F0B18
:1037A00072D8020E50D8030E55D8070B6CD8030EF2
:1037B0004AD8040E8FD8040E46D8050E4BD81F0BDE
:1037C00062D8050E40D8060E85D8060E3CD8F28E7B
:1037D000F28CC5EC06F047D0120040D8FE0EDB3864
:1037E0000F0B0A0DFE0EDB500F0BF324E76EFE0EDF
:1037F000E7CFDBFFDB5037D031D8E652DF6AFE0E71
:10380000DB50090808E233D80938F00BDF6E2FD8F7
:103810000550DF1002D0FE0EDB50DF6EDF50E552A8
:1038200022D0FD0EDBCFE9FFFE0EDBCFEAFF120058
:10383000E66E5AEF1CF02DD866EF1CF0C2EC07F0D4
:10384000E55274EF1FF0E926000EEA22E552E75038
:10385000EF6E1200E66E05DFE5521200D9CFE6FFEB
:10386000E1CFD9FF1200E552E7CFD9FF12000A0ECF
:10387000146E0E6EFE0EDBCF09F04EEF1FF0F29EBF
:10388000F29CADEF06F0E66EA8DFE552E66E11EFB2
:103890001CF0E926000EEA22EF501200030EDADFD8
:1038A000DF6E080EDF10E66E030E18EF1CF0C0DFAF
:1038B00011EF1CF0A1DEE552E5521200DE0EE66EBD
:1038C0001EEF1CF0DBCFE6FF1EEF1CF0E66E94DF70
:0A38D000E5521200BFDF43EF1CF0C9
:0638DA00020120511F0B4A
:1038E000010801E01200245101E01200060E215DE2
:1038F0001BE12351230A18E0010A0CE0030A14E13A
:103900000201310511E10201C00E416F390E426F13
:10391000090E06D00201290E416F3A0E426F1C0EAD
:10392000446F456BC00E436F02012051600BE842AB
:10393000E842E842E842E842010801E01200215171
:103940000B0A26E0080A19E0090A11E0080A05E056
:103950000B0A23E0080A21E0120002015E0E416F0B
:10396000020E426F010E446F456BC10E0FD0020173
:10397000800E436F23C25EF2120002015F0E416FA0
:10398000020E426F010E446F456B810E436F1200B1
:0C3990000201800E436F22C25FF21200A1
:04399C001201000212
:1039A00000000008D8043F000200010203010902E0
:1039B0002900010100C032090400000203000000D8
:1039C000092111010001221C0007058103400001AB
:1039D00007050103400001040309042A0349006E9E
:1039E000006E006F00200054006500630068006EE8
:1039F000006F006C006F0067007900200049006EC6
:103A00000063002E001203410054002000470055BF
:103A100000410052004400120330003600380030EC
:103A20000039003300320032000600FF0901A10115
:103A3000190129401501254075089540810019019B
:0F3A400029409100C0AE39D739DB39053A173A22
:103A5000D9CFE6FFDACFE6FFE1CFD9FFE2CFDAFF39
:103A6000E652E652E652F8CF01F0F6CF02F0FD0E34
:103A7000DB80DB82DB84DB86DB88DB8AFC0EDB849D
:103A8000DB86DB88DB8ADB8CDB8EFD0EDBCFE6FFA3
:103A9000C00EBD10E552E714BD6EFC0EDBCFE6FF95
:103AA0000F0EBD10E552E714BD6E3F0E146EFD0EF5
:103AB000DB50145C02E1949A13D0FD0EDB50BF087A
:103AC00003E1949A94980CD0FD0EDB507F0804E03B
:103AD000FD0EDB50FF0804E1949A94989496949418
:103AE00001C0F8FF02C0F6FFE552E552E552E5528B
:0A3AF000E5CFDAFFE7CFD9FF12009F
:063AFA001E0EF66E000E28
:103B0000F76E000EF86E00010900F550D96F09003C
:103B1000F550DA6F03E1D96701D03DD00900F550C7
:103B2000D46F0900F550D56F0900F550D66F090024
:103B30000900F550E96E0900F550EA6E0900090028
:103B40000900F550D76F0900F550D86F090009003A
:103B5000F6CFDBF0F7CFDCF0F8CFDDF0D4C0F6FF26
:103B6000D5C0F7FFD6C0F8FF0001D75302E1D85304
:103B700007E00900F550EE6ED707F8E2D807F9D74D
:103B8000DBC0F6FFDCC0F7FFDDC0F8FF0001D9079E
:083B9000000EDA5BBFD7120042
:083B9800006A0EAED2EF1DF031
:103BA0000E6C001E09AED7EF1DF0096C001E4EEC26
:103BB0001FF009BEE1EF1DF000AE000C096C056CB2
:103BC000000C00BEDEEF1DF00188FF0C09C013F0F1
:103BD00008C012F008500D02F4CF07F0F3CF06F042
:103BE00009500E02F4CF09F0F3CF08F00D02F350A4
:103BF0000726F4500822E86A092212500E02F350F8
:103C00000726F4500822E86A09220EAE0CEF1EF0D7
:103C10001250085E1350095A13AE000C0D50085E86
:063C20000E50095A000CD1
:0A3C260006500B02F3CF02F0F4CFBA
:103C300003F00C02F3500326000EF420046E06502D
:103C40000D02F3500426000EF420056E06500E02FD
:103C5000F350052607500B02F3500326F4500422BC
:103C6000000E052207500C02F3500426F4500522E2
:103C700007500D02F350052608500B02F35004269E
:103C8000F450052208500C02F350052609500B028F
:063C9000F35005261200AE
:0A3C9600D9CFE6FFDACFE6FFE1CF59
:103CA000D9FFE2CFDAFFE652E652FC0EDBCF14F08A
:103CB000FD0EDBCF15F0060ED89014361536E8044D
:103CC000FBE114C0DEFF15C0DDFF010EDB50BE6E50
:103CD000DF50E840E8403F0B300B146ECF0EBD14B0
:103CE0001410BD6EE552E552E552E5CFDAFFE7CF9D
:043CF000D9FF1200E6
:0C3CF400D39E060EE66E02D8E5521200C8
:103D0000D9CFE6FFE1CFD9FFD39EFE0EDB500708E7
:103D100004E1D390D382D29407D0FE0EDB50060884
:103D200005E1D390D392D2849B9C08D0FE0EDB5049
:103D3000050804E1D390D392D2849B8CE552E7CF5F
:043D4000D9FF120095
:0C3D4400D9CFE6FFDACFE6FFE1CFD9FFD0
:103D5000E2CFDAFF0C0EBD12CA94FD0EDB50CB6E23
:103D6000CA84E552E5CFDAFFE7CFD9FF1200B9B038
:103D7000949AB9A202D094987F90B9A402D0949654
:0C3D80007F94B9A602D094947F961200A4
:043D8C00D9CFE6FFA6
:103D9000DACFE6FFE1CFD9FFE2CFDAFFFD0EDB504D
:103DA000FB0BCA6ECC6A9E92FD0EDBAE02D09D82EA
:103DB00001D09D92CA84E552E5CFDAFFE7CFD9FF63
:023DC0001200EF
:0E3DC200FE0EE3CFE9FFFF0EE3CFEAFFE9CFED
:103DD000F3FFEACFF4FFFB0EE35003E1FC0EE350E8
:103DE00009E0FB0EE30602E2FC0EE306FD0EE350E3
:063DF000EE6EF1D7120097
:0A3DF600FF0EE350226EEF0E01D025
:103E0000F30EE76EE72E02EF1FF00C0E216EE76A4D
:103E1000E72E08EF1FF0212E07EF1FF0222E00EFF4
:043E20001FF012007D
:0C3E2400FF0EE350226E480E01D04C0E41
:103E3000E76EE72EFED7E76AE72EFED7222EF7D7EA
:043E4000000012006C
:0C3E4400000EF36E00EE00F0030E01D83B
:103E50001200EA6002D0EE6AFCD7F350E96012006B
:043E6000EE6AFCD733
:0C3E640011EE00F021EE00F0F86A019C65
:103E70007DEC1DF003EC00F09CEC08F0FBD7120089
:103E8000FF0EE350226E1B0E00D001D0200EE76E15
:0C3E9000E72EFED7222EFAD700D0120039
:043E9C00056A080E9D
:103EA000E76ED890093605360E50055C02E3056EC4
:083EB000092AE72EF7D71200E2
:083EB8000F0EC614080804E017
:103EC0000F0EC6140B0801E1C586C7A0FED7C95066
:023ED0001200DE
:0E3ED200FF0EE350E84E1200000000D000D0BA
:083EE00000D0E82EFAD7120011
:083EE8001F0EC514FDE1C750D7
:063EF000040BFAE11200D0
:020000040030CA
:0100000018E7
:0100010002FC
:0100020038C5
:0100030011EB
:01000500807A
:01000600C138
:0100080000F7
:010009008076
:01000A0003F2
:01000B00C034
:01000C0003F0
:01000D0040B2
:00000001FF
