:020000040000FA
:06000000F2EF07F0120010
:020006001200E6
:0600080037EF08F01200C2
:02000E00BD6AC9
:020010001200DC
:06001200000000000000E8
:0600180001EF08F01200E8
:02001E000200DE
:1000200012000000E200000006000000563600004A
:08003000F802000007000000C7
:0800380012EC06F0A0940F0188
:100040005F6B626A536BA5EC05F0CFEC05F0016ABB
:10005000080EF36EF46AF350015C000EF45410E2E3
:100060000150040DF3CFE9FFF4CFEAFF000EE926BB
:10007000020EEA22EE6AEE6AEE6AEE6A012AE8D71A
:10008000648C0F015C6B6498649C62A607D06296D6
:100090000201436B486B496B4A6BF7D70201010EB3
:1000A0005A6F5B6F5C6B5D6B506B016A020E015C9B
:1000B0000FE2BCEC05F0EA22EE6AED6AEA6A01346E
:1000C00089EC05F0EA22EE6AED6A72EC05F0EED7F3
:1000D0000201080E3B6F020E3C6F0F01160E536FAC
:1000E0000201200E026F020E036F080E016F840ED4
:1000F000006F0201316B306B9DEF05F012EC06F0E2
:100100000201300507E164BA05D0626A6080608848
:10011000020E306F6250040B05E06050040B02E0E9
:10012000629419DB64B246D06250010B09E0605062
:10013000010B06E081DFA0840201040E306F6290A3
:100140006250100B05E06050100B02E0FADA629882
:1001500062AC0FD060AC05D0DFEC05F0730E5CEC48
:1001600005F0629C0201585101E05807585101E125
:1001700001D96250200B04E06050200B01E0D0DA7E
:100180006250020B0DE06050020B0AE0DFEC05F05C
:10019000E6687F0EE66EE9EC0DF046E90F015F6B55
:1001A000040E0201E76E301902E7E73402D0E7508F
:1001B000305D02E2A1942ED060A62BD0016A040E1D
:1001C000015C27E262A625D063CF51F202015151B2
:1001D000780BE842E842E842526F629651B504D08B
:1001E000525141EC06F003D0525146EC06F0EA229F
:1001F000EF70525102E1BBDA0AD0000EE66EE66AF9
:10020000510EE66E020EE66E720E5CEC05F0012AEF
:10021000D6D7A1949DEF05F04BEC06F000A405D0D5
:10022000E66A01EBE6FFEBD842E900A206D0010E38
:10023000E66E01EBE6FFE3D842E90150036E046A83
:10024000530E03260F0E042231EC06F000EBEFFFF5
:10025000A1EF05F04FEC05F086E942E8035003E01A
:10026000C0EC05F004D0EA6A043489EC05F0EA2217
:10027000EE50066EED50076E0650071004E1000EBA
:10028000F36EF46A29D0CAEC05F05AEC06F001EBE3
:10029000EEFF02EBEDFFCAEC05F0EE5200EBEFFFD4
:1002A0000001400ED86FCAEC05F0D851EF16880E49
:1002B000D86FCAEC05F0D851EF12035003E0C0EC40
:1002C00005F004D0EA6A043489EC05F0EA22EF7400
:1002D00006EBF3FF07EBF4FFA1EF05F04BEC06F0A4
:1002E000015003E120EC06F00CD0FBEC05F000011E
:1002F000F3247CEC05F0FBEC05F0F324010F7CEC1F
:1003000005F0A1EF05F0CBDB82E964A816D0B9DBDC
:10031000400EEE16EE6AEE6AEE6AB3DBEE7CEA6A37
:1003200000340BEC06F0EA22EF740001400ED86FA7
:10033000A8DBD851EF16A5DBEF7C41E9E7CFD9FF69
:100340001200646A6198606A0201306B1200020157
:1003500030510FE1646A606ACFEC05F0D08EA28460
:10036000A084F28E64B602D06486FCD70201010E2E
:10037000306F120002015A5122E1010E5A6F5B5197
:100380001EE1010E5B6F020E405D07E183DBEE5262
:10039000EF6A80DBC80EEF6E1200400510E1536B70
:1003A00091DBEE52080EEF6E8DDB05EC06F08ADB7A
:1003B000840EEF6E010E536F60DB800EEF6E120045
:1003C00002015C6B5D6B020E405D06E154EC06F0D1
:1003D00083DB00EC06F010D044510201265D0201DF
:1003E00045510201275904E226C244F227C245F2D0
:1003F0005BD850DB71DB4EDBC80EEF6E12004BECAE
:1004000006F0000E036E020E046EFBEC05F0F32402
:10041000040DF3500326F450042231EC06F0EF9E55
:10042000005004E1EA6A013474DB01D0A5DBEA2262
:1004300003EBEEFF04EBEDFF31EC06F0EF9C040E56
:100440000324E96E000E0420EA6EEF8C7AD36498E0
:10045000020143BF0DD048AF09D0020E406F5D517D
:1004600001E1AEDF02015B6B5A6B120020EF06F078
:10047000020120AF0DD00201010E406F5C5101E17D
:100480009FDF02015B6B5A6B59510DE1BAEF01F02E
:100490000201020E406FF1DA840EEF6E5B6B5A6B55
:1004A000595101E167DF1200BDDB080E016E020148
:1004B000445D000E45590AE24451016E3F5102E18C
:1004C000010E03D03F0502E1020E3F6F0150F36EB3
:1004D000F46AF350445FF450455BDCDAEE5201EB12
:1004E000EFFF280E4D6F020E4E6F43B10DD001503D
:1004F00017E041C2F6FF42C2F7FF412B000E422334
:100500000800F5500DDBF3D701500AE041C2E9FFC6
:1005100042C2EAFF412B000E4223EF5001DBF4D729
:100520000CD3BDDA81E942E8CDDAEE52EF50016E2C
:1005300001500201495D000E4A5902E24951016E23
:100540000150F36EF46AF350495FF4504A5B026A5B
:100550000150025C14E20250EA6A280FE96E020EB2
:10056000EA22EF50E66E46C2E9FF47C2EAFF462B99
:10057000000E4723E552E750EF6E022AE9D74951B2
:100580000008000E4A550DE28FDBA6DA9BDAEF5029
:10059000400B03E135DBC80E02D032DB880EEF6E74
:1005A0000FD06BDA840EEF6E4B514C1104E04CC24D
:1005B000FAFF4B5114000201489F595101E1DADE64
:1005C000C0D230DB0201438FC0DA200EE66EE66A4D
:1005D000E66A000EE66E020E62DB648C016A020EB1
:1005E000015C02E27FDAFBD7010EE66EE66AE66A9C
:1005F000320EE66E020E53DB649C0201080E3B6F66
:10060000020E3C6F000E336F020E346F33C235F2B0
:10061000366F22C231F2315102E1100E0BD0010EC1
:10062000E66EE66A310EE66E020EE66E010E44DA02
:100630000201200E306F81D2800E0201205D38E170
:100640000201C00E436F02012351030A1AE0010A9E
:1006500009E0030A2BE102019C0E416F320E426F4A
:10066000120E1ED0BADA450EF626330EA0DA020EAE
:100670000201ACDAF5CF44F2030EA8DAF5CF45F269
:100680001200040E225D0FE2A8DA470EF626330EA2
:100690008EDA41C2F6FF42C2F7FF0800F5500201B0
:1006A000446F456B12000201436B12000201436B61
:1006B0001200F5D981E942E80201286B296B20512B
:1006C0001F0B020A11E0030A0CE0010A1EE10201FD
:1006D000438F0201288102014F0517E1020128839F
:1006E00014D00201438F11D00201438F020124BFB5
:1006F00002D0ADDA01D0B0DA47DAB8DA06E0E7D9ED
:10070000EF50040B02E0010E286F020143AF07D047
:10071000280E416F020E426F4381020E446F11D2C8
:100720000F0153A10CD0CED9EF50800807E1B2D908
:10073000EF50840803E1C6D98C0EEF6E5391629A94
:1007400012006084629864820201010E506F06DA22
:10075000750E5CEF05F00201506B00DA740EACD937
:100760006492609462A402D06294FCD712005ADAB8
:1007700002012D0E586FFD0E51153AE17E0E5115F6
:10078000E8407F0B040DF3CF33F2F4CF34F2000EC8
:100790003327020E342333C235F234C236F23575B4
:1007A00091D9EF503C0BE842E8420D081FE1016A85
:1007B000080E015C17E286D97DDAEE50EFCFEAFF32
:1007C000E96EEF50E66E0150EA6A200FE96E020E04
:1007D000EA22E552E750EF6E75D96CDAEE2AEF2285
:1007E000012AE6D76FD911DA09D807D022D805D067
:1007F000FD0E5115040801E12BD89FD102013F6B7A
:10080000596B5C6B5D6B536B406B44D9EF9E3B75D2
:1008100041D9EF9E3B75F4D9EF9E436B446B456B1A
:10082000486B496B4A6B4DD899D9030E45D927EFD0
:1008300002F0020E0201405D02E191EF02F0406B16
:10084000535104E11AD98C0EEF6E1200536B120053
:10085000E9D920D9EF50400B01E0010E016E0201F1
:100860003B75080E305D0BE122C25CFF0F015C514D
:1008700003E00201100E02D00201040E306F4005A9
:1008800013E108D929D910DE020E02013F5D03E110
:1008900001D9840E07D0015003E1FCD8C80E02D064
:1008A000F9D8880EEF6E0CD048AF09D04B514C11DF
:1008B00004E04CC2FAFF4B5114000201489F406B08
:1008C0003CD102012051600BE842E842E842E84294
:1008D000E842000901E0120021510C0A44E00B0A31
:1008E0003EE00C0A30E0010A22E00B0A1EE0020A98
:1008F0001CE0030A18E0080A10E0010A0CE00F0AE5
:1009000008E0030A01E012000201438F080E306F75
:1009100012001CEF03F0E1EF02F00201310E416F13
:10092000020E426F0BD059EF03F0B4EF04F02451E4
:100930000201426B320F416F020E42234381010ECE
:10094000446F438F12000201438F02012451EA6A6F
:10095000320FE96E020EEA2222C2EFFF1200FED829
:10096000020E5CEF05F012009AD881E945E8020119
:10097000220510E120511F0B00090CE10201438FF9
:10098000030E0201215D04E10201010E4F6F02D04E
:1009900002014F6B020122516CE120511F0B020832
:1009A00068E124510F0B000964E024510F0B01088A
:1009B00060E3200E0201305D5CE1438F020124BF41
:1009C00004D045D9E1D8D0D803D046D9DDD8D0D885
:1009D000EA22EF50036E08D9010B02E1019401D025
:1009E000018424BF02D033D901D036D9EA2201EBE9
:1009F000EEFF02EBEDFF030E215D10E137D907E0BA
:100A000024BF02D0B1D801D0B3D8EA22EF820001CE
:100A1000840ED86F5CD8D851EF122BD0017426D930
:100A200006E055D8EF9E53D8EF8C00D902D04FD8AE
:100A3000EF8C0174D9D8020B02E118D90BE0020146
:100A400024BF02D091D801D093D8EA22EF9212D9D4
:100A5000EDD801D00FD9020124510F0B046E056AA5
:100A6000530E04260F0E052204EBE9FF05EBEAFF07
:100A7000EF9046E9E7CFD9FF120016D9C6D800EFAC
:100A800006F0EA6A0034C7D8EA22EE50EFCFEAFF58
:100A9000E96E12003BC2E9FF3CC2EAFF1200D9CF67
:100AA000E6FFE1CFD9FF120024510F0BE96EEA6A8D
:100AB000D890E936EA361200E66EE66AE9EC0DF007
:100AC00046E9120033C2E9FF34C2EAFF120001EB2B
:100AD000E9FF02EBEAFF1200EDD8280EEE6E020EDF
:100AE000ED6E12000150D2D8EA22EF6A0150C9D847
:100AF000EA22EF6A012A1200040D000EF324036EAD
:100B0000020EF420046E840ED86FABD8D851EF12C9
:100B10001200FE0BE96EEA36370EE926020E1200CD
:100B2000E66E4DC2E9FF4EC2EAFF4D2B000E4E238A
:100B3000E552E750EF6E0106120042E9E7CFD9FF18
:100B4000120043E9E7CFD9FF1200010EE66EE66A14
:100B5000E66A540EE66E0F0E4FEF06F0000EE66EDC
:100B6000E66AE66EE66A120024510F0B41EF06F0CA
:100B700024510F0B46EF06F0EA6A01340BEF06F042
:100B8000EA6A04340BEF06F0EA22EE50016EED50F3
:100B9000026E120006EBE9FF07EBEAFF1200160EE9
:100BA000616E0F019F0E5B6F7B0E606E1200F7226D
:100BB0000900F5CF41F20A00F5CF42F21200010E12
:100BC000E66EE66A000EE66EE66A1200F76A4125F6
:100BD000F66E4251F722080012002251F66EF76AB3
:100BE000D890F636F7361200D950030FE96EDACFF7
:100BF000EAFFEF501200040E01020050E824120038
:100C000035C2E9FF36C2EAFF120054D8200EEE6E5C
:100C1000020EED6E1200FE0BE96EEA363B0EE9267F
:100C2000020E12003CDF81E941E81200020EE66E7E
:100C3000E66A01EBE6FF02EBE6FF050E5CEF05F06E
:100C40001CDF8C0EEF6E26DF840EEF6E12002CDFA1
:100C5000370EE926020E120027DF3B0EE926020EB0
:100C6000120003EBE9FF04EBEAFF120030DFEF5064
:100C7000800B120000013B0ED86F29DFD851EF1610
:100C80001200EA6A560FE96E020E1200EA6A540F69
:100C9000E96E020E120003DF83E942E81200E66EFD
:100CA000A8EC1AF045E91200ABDFEE52080EEF6E29
:0E0CB00000EF06F0020EE926000EEA22120006
:020CBE003BD920
:100CC00081E941E8016A48D9030E3AD9016E080E5C
:100CD0000110E66E030E48D9200E0114200813E01F
:100CE000130EE66E060E34D9050E32D9040E3CD929
:100CF000E66A020E39D9E66A010E36D9800EE66E32
:100D0000E66A06D842E927EC17F0F28EF28C1CD185
:100D100012D983E924EC1BF0C580C5A003D0FDD710
:100D2000C5B0FED72AD9C5BCFED701EBE6FFF7D880
:100D3000C5BCFED700EBE6FFF2D8C5BCFED7C58424
:100D4000C5A403D0FDD7C5B4FED724EC1BF0C580E5
:100D5000C5B0FED724EC1BF010D9C5AC04D0C584B7
:100D6000C5B4FED7F2D7C584C5A403D0FDD7C5B49A
:100D7000FED724EC1BF0F4D0DED882E941E824EC65
:100D80001BF0C580C5A003D0FDD7C5B0FED7F5D8F0
:100D9000C5BCFED700EBE6FFC2D8C5BCFED7C582F6
:100DA000C5B2FED724EC1BF0DF0EE66EB8D8C5BC8A
:100DB000FED70CEC1BF0026E24EC1BF0C584C5A41E
:100DC00003D0FDD7C5B4FED724EC1BF00250BCD035
:100DD000B2D883E941E8C0D8D4D8030E9BD8036EBB
:100DE000070E0316038603EBE6FF030ED2D8C0D826
:100DF000036E800E0310036E03EBE6FFE66A86D8EF
:100E0000EE52B6D8E66E010EC4D8020E83D8036E39
:100E10003F0E0314036E03EBE6FF020EBAD8040E76
:100E200079D8E66E040EB5D8050E74D8E66E050EB8
:100E3000B0D8060E6FD8E66E060E96D8F28EF28CFB
:100E400027EC17F081D077D883E986D8E66A94DF5B
:100E500041E97F0B55D8E552E750EF6E010E96D869
:100E6000EE52E552E750EF6E020E6AD83F0B48D8BB
:100E7000020E5AD8030E64D8070B42D8030E54D87A
:100E8000040E84D8040E50D8050E5AD81F0B38D83B
:100E9000050E4AD8060E7AD8060E46D8F28EF28C87
:100EA00027EC17F05DD0120046D882E900380F0B0E
:100EB0000A0D0F0E0014F324006E005051D03BD8E1
:100EC00082E941E8026A0050090816E20A0EE66E5D
:100ED00000EBE6FF13EC18F041E9E750100DF3507A
:100EE000026E0A0EE66E00EBE6FF16EC18F041E922
:100EF000E7500210026E02D080EB02F0025024D0C4
:100F0000E66ED2DF41E9E66EC1EF07F001DF42E9AC
:100F1000C1EF07F0E926000EEA22B8EF07F030EC47
:100F20001AF041E924EF1BF0E926000EEA22E5520F
:100F3000E750EF6E1200D9CFE6FFE1CFD9FF1200E4
:100F4000E66E1ADF41E9120042E9E7CFD9FF12004D
:100F50000BD8010EE66E1200F29EF29C18EF17F00D
:100F600041E9E7CFD9FF1200E66ED2DE42E9120076
:100F7000EFCFE6FFA4DF41E91200DE0EE66E8FEF51
:100F800007F000EBE9FF01EBEAFF1200D9DF80EF89
:080F900007F0E66E86EF07F0A2
:080F9800D9CFE6FFDACFE6FF36
:100FA000E1CFD9FFE2CFDAFF84E942E880EB04F039
:100FB00081EB05F0060ED89004360536E804FBE117
:100FC00005EBBEFF0440E8423F0B300B0001D86F39
:100FD000CF0EBD14D811BD6E43E9E5CFDAFFE7CFE0
:040FE000D9FF120023
:0C0FE40011EE00F021EE00F0F86AA8EC1D
:0E0FF00019F003EC00F0C6EC08F0FBD712007D
:02100000393085
:0E100200D8CFE4FFE0CFE4FFE46E19EC13F06A
:10101000D9CFE4FFDACFE4FF7BEC12F000EED8F09A
:101020000A0EE80403E3EECFE4FFFBD7E652A0503C
:10103000020B06E0A150020B03E0A9EC14F0A19210
:10104000E55200EEE1F00A0EE80403E3E5CFEDFF20
:10105000FBD790EC12F0E5CFDAFFE5CFD9FF2DEC0E
:1010600013F0E550E5CFE0FFE5CFD8FF100019EC15
:1010700013F07BEC12F000EED8F00A0EE80403E364
:10108000EECFE4FFFBD7E65241EC12F081E941E8F4
:101090007EEC00F0F250100B07E0F250020B04E07F
:1010A00000016785F298F2929E50010B42E09D503C
:1010B000010B3FE0800ECF6ECE6A0201F82BF8C222
:1010C000E8F00001E96BEA6BEB6B320EE8190AE11C
:1010D000E95108E1EA5106E1EB5104E10201F86B44
:1010E0000001678D000167AB1AD0016A040E015C34
:1010F0000AE28B868A8A0F0EC9EC12F00F0EB2EC50
:1011000013F0012AF3D70201F92B00017F510201EC
:10111000F95D05E1F96B8B968A9A0001679B0001E6
:1011200067A306D0040E725D02E367936781722B9A
:101130009E90F050080B19E0F050010B16E0020EE3
:101140000201FA5D03E14CEC14F00ED0FA050CE15B
:1011500082B20AD0020EE66E19EC1BF041E982B2AF
:1011600003D00201020EFA6FF09042E9E7CFD9FFF7
:10117000E55200EEE1F00A0EE80403E3E5CFEDFFEF
:10118000FBD790EC12F02DEC13F01100D9CFE6FF55
:10119000E1CFD9FF81E943E8D7D8A7EC01F0020EEF
:1011A000E66E77EC0EF041E9F3CF75F0F4CF76F010
:1011B000010EE66E77EC0EF041E9F3CF73F0F4CF59
:1011C00074F0030EE66E77EC0EF041E9F3CF77F0A2
:1011D000F4CF78F047EC10F0F3CF79F0F4CF7AF059
:1011E000010EE66EF8D841E9DDD8000167AD04D004
:1011F0000001679D8DEC11F0000167B789D00201F5
:10120000FA0513E132EC14F0050EE66EECEC1AF080
:1012100041E9F19AF090F086040EE66EDCEC1AF0EB
:1012200041E9F090F09643EC14F0020E0201FA5DF1
:101230006AE1016A026A036A040E015C000E025848
:10124000000E035826E2680EE66E000EE66EACEC69
:1012500014F042E9000912E000016F5100016A5DDB
:101260000AE10001705100016B5D05E1000171515F
:1012700000016C5D03E00201E2890BD0D950010F3F
:10128000E96EDACFEAFFEE2A000EEE22000EEE2221
:10129000D3D70201E2A937D00201E2996AC06FF008
:1012A0006BC070F06CC071F0680EE66E000EE66EFA
:1012B000D1EC0EF042E9ECC0D8F0EDC0D9F0EEC0B0
:1012C000DAF0E8680001D81905E1E868D91902E107
:1012D000E868DA1914E0000167A90CD0010EE66E87
:1012E0007AD841E9680EE66E000EE66E72EC10F0F8
:1012F00042E904D0020EE66E6ED841E904D0020E37
:10130000E66E69D841E90201010EFA6F030017D0B9
:10131000040082B014D00A0EE66E19EC1BF041E90D
:1013200082B00DD0000167970201305102E0A1ECBC
:1013300001F0F292F2880201010EFA6F030054D715
:1013400044E9E7CFD9FF1200948C948E939A949637
:101350009388938C939E686A6D6A6B6A7E6A7F6AD3
:10136000BD6A17EC14F08A9A8B968A9E9480F2924A
:10137000F288F18C1CEC00F00201FB6BFC6BFD6B46
:10138000FE6B0001676B67855FEC06F0800ECF6E29
:10139000CE6A0F0ECD6E9F809E909D80D08EF28E75
:1013A000F28C1200000167A50CD00A0EE66E19EC53
:1013B0001BF041E982A005D0000167956787A7EC83
:1013C00001F0200E0201305D05E100016751080BBC
:1013D00001E032D8120041EC12F082E941E80050FD
:1013E000030A18E0010A08E0030A22E18B868A8AD0
:1013F0000A0EC9EC12F01CD0026A040E025C18E25C
:101400008B868A8A050EC9EC12F0050EB2EC13F039
:10141000022AF3D7026A030E025C0AE28B868A8AEA
:10142000640EC9EC12F0320EB2EC13F0022AF3D7BC
:1014300042E9E7CFD9FF120041EC12F081E948E818
:10144000200E0201E76E301902E7E73402D0E750C0
:10145000305D01E286D36450020B01E082D30201C9
:10146000FB51FC1102E1000E08D0FBC2E9FFFCC2F7
:10147000EAFFEF50800B01E0010E000901E071D39B
:101480000001826BC76BC86B3AEC12F0EF500F088B
:1014900001E065D3822B3AEC12F0EFCF83F028EC19
:1014A00013F091EC13F00001822B3AEC12F0EFCF25
:1014B00084F0F3CFE6FFF4CFE6FF91EC13F00001E8
:1014C000822B046A8451045C15E23AEC12F0EF506E
:1014D000E66E0450EA6A850FE96E000EEA2215EC0A
:1014E00013F028EC13F091EC13F00001C52B822BC4
:1014F000042AE8D73AEC12F0EF50E66EE66AE66AA4
:10150000010EE66E68EC18F0E552E5CFCAF0E7CFC1
:10151000C9F00001822B3AEC12F0EF50F36EF46A3E
:10152000F350C927F450CA23C951C71901E017D392
:10153000CA51C81901E013D3046A400E045C06E2E4
:101540000450B2EC12F0EF6A042AF7D7000183517D
:10155000770A01E182D2010A01E169D2030A01E1BD
:1015600014D2010A01E106D2070A01E1F8D2010A08
:1015700001E1F5D2030A01E1F2D2010A01E1F6D15B
:101580001F0A01E1C3D1010A01E1A2D1030A01E16D
:1015900080D1010A01E118D1070A01E1F5D0010A61
:1015A00001E1DED0030A01E1C3D0010A01E184D0E8
:1015B0000F0A60E0010A13E0030A01E0D0D2E7EC71
:1015C00012F0D9C0D8F0D8510001856FE7EC12F0C5
:1015D000D8510001866F020EE66EC90EBED285514B
:1015E000030A0CE0010A06E0030A12E17351056EDA
:1015F000745107D07551056E765103D07751056E41
:101600007851066E076A040E086E010E046E01D052
:10161000046A040401E010D20750055C0850065823
:1016200018E2A2EC13F0E8680001D81910E1E868AC
:10163000D9190DE1E868DA190AE185C0E6FFDAECAC
:1016400013F041EC0FF043E9E66ACA0E86D2E66A6F
:101650006AD08551030A0BE0010A06E0030A01E0A3
:101660007ED2E66AD80E79D2E66AD90E76D2E66ADA
:10167000DA0E73D2A2EC13F0B7EC13F005E1E868D0
:10168000021802E1E868031850E000018551030ADE
:1016900009E0010A05E0030A01E0CED1010E03D002
:1016A000020E01D0030EE66E96EC13F0A8EC0FF0DC
:1016B00044E9E66ACC0E51D285C06AF086C06BF070
:1016C00087C06CF059EC12F0B7EC13F005E1E86854
:1016D000021802E1E868031828E074EC12F0DB6BF2
:1016E000000ED85D0C0E53EC12F003E20001010E67
:1016F00017D074EC12F0DB6B030ED85D180E53ECB0
:1017000012F003E20001020E0BD074EC12F0DB6B5E
:10171000060ED85D240E53EC12F003E20001030E16
:10172000856F010EE66ECB0E18D2E66ACD0E15D28D
:1017300085C060F086C061F087C062F088C063F049
:1017400089C064F08AC065F08BC066F0600EE66EFA
:10175000000EE66EE8EC06F042E9E66ACE0EFDD138
:10176000D7EC12F060C085F061C086F062C087F0EF
:1017700063C088F064C089F065C08AF066C08BF0F1
:10178000070EE66ECF0EE9D17D6B7E6B000174C053
:10179000D8F0D8C085F073C086F076C0D8F0D8C035
:1017A00087F075C088F078C0D8F0D8C089F077C0CD
:1017B0008AF07AC0D8F0D96BD8C08BF079C08CF0A1
:1017C000080EE66ED00EC9D179517D5D7A517E59F1
:1017D0005DE2F29EF29C7DC0D8F07EC0D9F000019F
:1017E00032EC12F0BDEC13F00001856F52EC13F0F7
:1017F0000001866F52EC13F00001876F52EC13F07A
:1018000000018F6F52EC13F00001906F52EC13F057
:101810000001916F52EC13F00001926F46EC12F050
:1018200000017D2B000E7E238F51E840E8403F0BE6
:10183000886F030E8F15100DF3CF89F090390F0BC1
:1018400089130F0E9015E8248A6F9145010B8A13B6
:101850009151E840E8403F0B1F0B8B6F030E911531
:10186000040DF3CF8CF0060E92C0E7FF070B04E0E7
:10187000E742E79EE806FCE1E75000018C133F0ECB
:1018800092158D6F090EE66ED10E67D1E66AD70EFE
:1018900064D1F29EF29C090E016E240E026E036A60
:1018A00018EC17F0046A070E045C09E2E66896EC8F
:1018B00013F09AEC13F002EC14F0042AF4D746EC7F
:1018C00012F00001796B7A6B6799E66AD20E45D106
:1018D0008551040A16E0070A0FE0010A08E0030A2E
:1018E00001E0AAD0010EFFEC12F0D30E36D1020EA9
:1018F000FFEC12F0D40E31D1030EFFEC12F0DB0E30
:101900002CD1040EFFEC12F0D50E27D188EC11F08B
:101910000201020EFA6F0201E299000167A70ED0E0
:1019200067B10CD0DAEC13F0ACEC14F042E900092A
:1019300002E00201E2890201E2A9EFD70201E2A975
:101940000FD0E299010E42EC13F06AC085F06BC033
:1019500086F06CC087F0030EE66ED60E47EC13F0EF
:10196000000167A1FCD0E66AE20EF7D0010E42EC5E
:1019700013F0F5D0040E856F866B876F886B896FC7
:101980008A6B060EE66EE10EE8D08551070854E337
:10199000855152E0FFEC11F018EC17F006EC14F052
:1019A0000001806FFF0E805D0CE080C0D8F0000168
:1019B000D96BDA6BDB6B640ED85D000E53EC12F062
:1019C0002FE2FF0E0001805D01E1806B8029E66E51
:1019D000ABEC12F09AEC13F0030E00018003F32835
:1019E0000001D86FD96BDA6BD8510001CB27000109
:1019F000D9510001CC230001DA510001CD2386C06A
:101A0000E6FF22EC13F063EC12F087C0E6FFC2ECB5
:101A100013F088C0E6FFC2EC13F0E66AE30E02D0D2
:101A2000E66AE50E47EC13F027EC17F098D08551E5
:101A3000070802E3855103E1E66AE00E8ED0FFEC71
:101A400011F018EC17F0E66AABEC12F09AEC13F018
:101A500027EC17F0E66AE40E80D0D3EC12F0000118
:101A600085510C0A5DE0070A43E0010A32E00B0AE7
:101A70000CE0030A0AE0010A08E0070A06E0010A8E
:101A800004E0030A02E0010A63E1FFEC11F0016ADD
:101A9000026A036A320E015C000E0258000E0358FF
:101AA00057E234EC13F00001CB250001D86FEE5063
:101AB0000001CC210001D96FEE500001CD210001C1
:101AC000DA6FDFEC13F0E66E9EEC13F0FAEC13F035
:101AD000E1D7016A026A036A330E015C000E025804
:101AE000000E035835E2FCEC11F0FAEC13F0F4D7D9
:101AF000030E016E0C0E026E036A360E015C0C0EB4
:101B00000258000E035824E2FCEC11F0E66E74EC6F
:101B100012F0030E0001D85F0C0EEBEC13F0EDD7C2
:101B2000060E016E180E026E036A390E015C180E65
:101B30000258000E03580CE2FCEC11F0E66E74EC57
:101B400012F0060E0001D85F180EEBEC13F0EDD783
:101B500046EC12F0300EE66EE60E47EC13F0B8ECF1
:101B600012F049E9E7CFD9FF12001200120012006B
:101B70001200EDEF18F012001E0EE66E010EE66E7A
:101B80000CEC01F042E9B8EF12F002014F0520E140
:101B9000020150051DE1A094E9DF64920201506B3F
:101BA0000201100EE06F0E0EE16FE007000EE15B28
:101BB000E051E111FAE16484080EE06F070EE16F75
:101BC000E007000EE15BE051E111FAE16494A084CA
:101BD000120041EC12F087E904EBF3FF05EBF4FF90
:101BE000050EF31801E1F45036E0E868F31802E15D
:101BF0007F0EF4182FE0030EF31801E1F45028E0F3
:101C0000020EF31801E1F45021E0010EF31801E196
:101C1000F4501AE0740EF31801E1F45013E0750E5D
:101C2000F31801E1F4500CE0730EF31801E1F450E5
:101C300005E0720EF3180FE1F4500DD098DF0BD0D1
:101C400094DF09D093DF07D097DF05D094DF03D06E
:101C500090DF01D08DDF010E41E9E7CFD9FF1200FF
:101C600041EC12F084E9000100EBDBF0DA6B01EBF0
:101C7000D8F0D851DA11006EDB51016E0250001A13
:101C8000000E011AFF0E0014E8380F0B001A000EA8
:101C9000011A00EBDBF0DA6B3BEC13F006E000011D
:101CA000D890D837D937E804FBE10001D851001AA1
:101CB000D951011AFF0E0014DA6FDB6B3BEC13F005
:101CC00006E00001D890D837D937E804FBE10001DD
:101CD000D890D837D937D851001AD951011A00EB0A
:101CE000F3FF01EBF4FF41E9E7CFD9FF1200C9DBB5
:101CF00082E949E80050030A11E0010A08E0030AFA
:101D000014E1056A040E066E076A086A0ED0056AB9
:101D1000040E066E030E076E0C0E06D0056A040E46
:101D2000066E060E076E180E086ED3EC12F0096AE6
:101D30000A6A0550095C06500A582AE2E7EC13F0DB
:101D400009EBE6FF0AEBE6FF68EC18F00001FE0E77
:101D5000E3500724D86F41E9E5500820D96FDA6BCA
:101D6000D851026ED951036EDA51046EEEDB0CE1EC
:101D7000C7EC13F009E1C7EC13F006E187DB09EBD0
:101D8000F3FF0AEBF4FF09D0092A000E0A22D1D78B
:101D90007DDB05EBF3FF06EBF4FF4AE9E7CFD9FF64
:101DA00012006FDB83E945E8D3EC12F0066A076A9C
:101DB00000017351065C7451075816E22ADBF35098
:101DC00004EC13F0020E03DB0BE172EC13F008E1FC
:101DD00076EC13F005E15ADB000167891ADB3FD08E
:101DE000062A000E0722E4D7066A076A0001755129
:101DF000065C7651075817E20CDB030ED8270C0E51
:101E000080EC13F00CE172EC13F009E176EC13F0C6
:101E100006E13CDBFEDA030ED8270C0E1ED0062AA4
:101E2000000E0722E3D7066A076A00017751065CB5
:101E3000785107581FE2EDDA060ED827180E80EC0D
:101E400013F014E172EC13F011E176EC13F00EE1F3
:101E50001DDBDFDA060ED827180E09EC14F0D8C007
:101E6000ECF0D9C0EDF0DAC0EEF009D0062A000E91
:101E70000722DBD70BDB0001EC69ED69EE694BEF64
:101E800013F0FFDA84E947E80050030A1AE0010A78
:101E90000CE0030A22E1046A040E056E066A076A72
:101EA00000017351086E745117D0046A040E056E58
:101EB000030E066E0C0E076E00017551086E76510A
:101EC0000BD0046A040E056E060E066E180E076E21
:101ED00000017751086E7851096E0450085C055076
:101EE000095831E260DB030E0A6E0A500AE00A2844
:101EF0000124E96E000E0220EA6EEFCFE6FF94DACD
:101F0000F4D7082A000E0922030E0A6E0A5003E0D5
:101F1000E6688ADAFBD7BADA0050030A0EE0010A53
:101F200007E0030A0EE108EB73F009EB74F009D047
:101F300008EB75F009EB76F004D008EB77F009EBCD
:101F400078F0010E01D0FF0E48E9E7CFD9FF12006B
:101F500098DA85E945E80050030A15E0010A0AE02D
:101F6000030A1AE100017351066E7451076E086A84
:101F7000096A12D000017551066E7651076E030E84
:101F8000086E0C0E08D000017751066E7851076E6E
:101F9000060E086E180E096E06DBE7EC13F0000162
:101FA0000604DB6F000E0758DC6FDBC0E6FFE66E51
:101FB00068EC18F00001FE0EE3500824D86F41E9E8
:101FC000E5500920D96FDA6B0150D81905E10250AC
:101FD000D91902E10350DA192CE0030E056E055001
:101FE00028E0F5DB06EBE6FF07EBE6FFFCDA040E84
:101FF000DA5F000EDB5B0EDBA1DBE66E05EBDFF0EC
:102000000001E06BE16B30DBDF25DC6FEE50E0219F
:10201000DD6FEE50E121DE6FDC07000EDD5BDE5B85
:10202000DCC0E6FFDDC0E6FFDEC0E6FF83DB0506C1
:10203000D6D7056A030E055C10E2E668C8DB00012E
:102040000604DC6F000E0758DD6FDCC0E6FFE66EAD
:10205000CADAE0DA6FDB052AEDD718DA0606000ED9
:10206000075A0050030A0EE0010A07E0030A0EE1D6
:1020700006EB73F007EB74F009D006EB75F007EB95
:1020800076F004D006EB77F007EB78F004D3F9D9BB
:1020900081E945E888DA046A056A04EBD8F005EBC3
:1020A000D9F058DB19E204EBD8F005EBD9F0DAD916
:1020B00074DAA2D9FF080CE1F5DAFF0809E1F2DAD7
:1020C000FF0806E1E3D904EBF3FF05EBF4FF09D0C9
:1020D000042A000E0522E1D7D9D9800EF36E3E0EF8
:1020E000F46ED9D2CED983E947E879C0D8F07AC066
:1020F000D9F030DB55E25BDA00016051066E040E68
:102100000602F350066E61390F0B06126151076E1D
:102110000738F00B076E62417F0B07126251086EA1
:102120000832086A08326451040DF35008126551F0
:10213000E840E8403F0B08126551096E0940E8424B
:10214000C00B096E66510912F29EF29C79C0D8F05C
:102150007AC0D9F0000186D957DA18EC17F0020ED0
:1021600044DB030E42DB040E40DB06EBE6FF97DAAE
:1021700007EBE6FF94DA08EBE6FF91DA09EBE6FFFE
:102180008EDAE6688CDAE6688ADAE6684AD927ECFD
:1021900017F00001792B000E7A23F28EF28C02D018
:1021A000030E70DA48E9E7CFD9FF12006AD983E954
:1021B00041E80001C76BC86B0201FD51FE1102E14D
:1021C000000E08D0FDC2E9FFFEC2EAFFEF50800B0F
:1021D00001E0010E00094EE102010F0EA06F01EBBC
:1021E000A1F236DAA1C2E6FF56D900EBA2F2F3CF94
:1021F000E6FFF4CFE6FFA2C2E6FF4DD9036A005026
:10220000035C14E20350EA6A850FE96E000EEA22CD
:10221000EF50E66E030E0324D7DA1ADA030E032416
:10222000A1D9EFCFE6FF37D9032AE9D70001C8C00B
:10223000D8F0D96BD851E66E030E0024C5DA000140
:10224000C751E66E040E0024BFDA050E00248AD9B9
:10225000040EEF6E400EE66EA00EE66E020EE66E07
:10226000010EE66EE66E2AEC01F045E9F3CFFDF2D1
:10227000F4CFFEF242E9E7CFD9FF120002D982E99A
:1022800042E891D9000403E0040E005C12E1026A06
:10229000036A010E026E036A026A036A90D9030E92
:1022A000D85D000E00D902E217D9F8D70001736B90
:1022B000746B020E005C03E0040E005C0FE1030E81
:1022C000026E0C0E036E7BD9060ED85D0C0EEBD899
:1022D00002E202D9F8D70001756B766B030E005C41
:1022E00003E0040E005C0FE1060E026E180E036E92
:1022F00066D9090ED85D180ED6D802E2EDD8F8D707
:102300000001776B786BC2D843E9E7CFD9FF1200A1
:10231000000167916783726B1200B3D881E944E8CA
:1023200046D93ADA00016305C0D9D85126DA00014E
:10233000806FFF0E805D45E0046A8051045C41E2DD
:10234000D3D80001D82B000ED923DA23030E0402C0
:10235000F3CFDBF0DC6BDD6BD851F3240001CB6FE6
:102360000001D951DC210001CC6F0001DA51DD21DF
:102370000001CD6FCBC0E6FFCCC0E6FFE66EDED934
:102380000001625D1CE1CB2B000ECC23CD233EDA95
:102390000001615D13E18151615D11E0CB2B000E05
:1023A000CC23CD2361C081F031DA00017F6F0201BF
:1023B000F96B0001678B27EC17F003D08169042AC1
:1023C000BCD727EC17F045E9E7CFD9FF120092D927
:1023D000EFCFD8F0D8C0E6FFE6D9B0D9E552E7CFC5
:1023E000D8F00001D85D1200E96EDACFEAFFEE2ADC
:1023F000000EEE22EE22120099D99EEF13F0CCD9F6
:10240000850553D9D8C0CBF0D9C0CCF0DAC0CDF017
:10241000120006EBD8F007EBD9F00001030E86EFAF
:1024200013F0C1D99AEF13F0D2D908EBE6FF09EB0C
:10243000E6FF68EC18F00001FE0EE3500624DA6FA8
:1024400041E9E5500720DB6F0A50DA25D86F000E0E
:10245000DB21D96FD807000ED95BB1D9E66A6AD9FA
:102460000A061200070E52D9090ED827240ED1D918
:10247000D85112008251EA6A600FE96E020EEA2218
:102480001200D9CFE6FFE1CFD9FF120027EC17F0F9
:10249000F28EF28C120030EC0EF043E9F3CFC7F06D
:1024A000F4CFC8F01200D959000EDA59000EDB59EA
:1024B000120080D976DC42E9ECC0D8F0EDC0D9F04A
:1024C000EEC0DAF01200CC23CDC0DAF0CD2377D9FC
:1024D000DAC0E6FF9AEF13F0E668A0D9E66A2AD9D7
:1024E000022A000E0322120001EBD8F002EBD9F011
:1024F00003EBDAF01200ECC0E4FFEDC0E4FFEEC045
:10250000E4FFEFC0E4FFF6CFE4FFF7CFE4FFF5CF41
:10251000E4FFF3CFE4FFF4CFE4FFFACFE4FF1200CF
:10252000E5CFFAFFE5CFF4FFE5CFF3FFE5CFF5FF09
:10253000E5CFF7FFE5CFF6FFE5CFEFF0E5CFEEF023
:10254000E5CFEDF0E5CFECF0120068D904EBE6FF43
:10255000F5D8FF081200CBC0E6FFCCC0E6FFCDC027
:10256000E6FF1200EA6AA00FE96E020EEA221200EC
:10257000400EE66E600EE66E020EE66EE66A010E34
:10258000E66E2AEC01F045E9F3CFFBF2F4CFFCF262
:102590001200E8D88B968A9A1200016ED951026E09
:1025A000DA51036E1200F29EF29C18EF17F0600EE3
:1025B000E66E000EE66E23EC07F042E9120002EB35
:1025C000D8F003EBD9F00001DA6BDB6B1200000EE0
:1025D000F66E100EF76E0900F5CFD8F00800F5CFB3
:1025E000D9F00001120068EC18F00001FE0EE35073
:1025F0000824DA6F41E9E5500920DB6F1200E66E2E
:102600003DDE41E9E66A1200036ED951046EDA51EB
:10261000056E12000550DA25D86F000EDB21D96F48
:10262000D8C0E6FFE66EE66A1200E552E750EF6EAC
:102630001200DACFE4FFE2CFDAFFE9CFE4FFEACF1E
:10264000E4FF1200CBC0D8F0CB2BCCC0D9F01200E5
:10265000C7C0E6FFC8C0E6FF1200E5CFEAFFE5CF3E
:10266000E9FFE5CFDAFF1200D950010FE96EDACFAA
:10267000EAFFEE501200040EDAC0D8F0DBC0D9F049
:10268000000A1200E66EEBEC09F041E91200E66E7A
:102690008DDD42E9120046E9E7CFD9FF1200C1DE25
:1026A00013EF14F0AFD8FCEF11F0E66EE66AE66ABD
:1026B000E66A9CEC18F0E552E5CFDBF0E5CFDAF006
:1026C000E5CFD9F0E7CFD8F01D0E0001D827ED0EE9
:1026D000D923010EDA23000EDB231200EA6EA5DFF8
:1026E00002EF14F0A0D8030EE7EF11F09CD8040E0F
:1026F000E7EF11F00024E96E000E0120EA6E1200EF
:1027000088D8D85181DF020EE7EF11F0D903F3CF5B
:10271000D9F0D803F3CFD8F0F450D927DA6BDB6BBC
:102720001200A8DEEFCFE6FF4BEF12F001EBE6FF61
:102730000EEF14F02AEC17F044E912007CEC17F0CD
:1027400043E9120086C06AF087C06BF088C06CF065
:1027500059EF12F00001DA6BDB6B800ED85D3E0E94
:1027600053EF12F0E66E8DEC1AF041E91200000111
:10277000D85113DFE868011812000FDF18EC17F0CA
:10278000FCEF11F000015EDF000E63EF12F0D95094
:10279000020F2ADEA5EF12F02D0EE66E010EE66E98
:1027A000E66AE66A120003EBE6FF04EBE6FF05EBE0
:1027B000E6FF1200680EE66E000EE66E1200D8C04C
:1027C000E6FFD9C0E6FF1200CDDE15EF13F0030ED1
:1027D000E66EE66A1200D95B000EDA5B850ED8253C
:1027E000E96E000ED9216EEF13F084DFEFCFE6FF24
:1027F0004FEF13F0E66E850E0124E96E000E022005
:102800006EEF13F0D950010FF4EF11F0A4DE9EEF3C
:1028100013F0D923000EDA23DB23120002EBE6FFCC
:0E28200003EBE6FF1200D950030FF4EF11F0A6
:02282E000201A5
:10283000E281E283E285E2979498949A94828B8A6B
:102840008B98F18AF08CF090F096A80ED56ED66A2F
:10285000D76AF194F294F29A010EB16EA292A1920B
:10286000A09212008B8A8B88E00EBB6E0F0EBC6E9E
:10287000A8D8010EE66EECEC1AF041E9B36AB26A30
:10288000A192A08212008B9807EC00F08B8ABB6AA1
:10289000BC6AA192A092120074DA81E946E8036A48
:1028A000046AD650066ED750056E0550E66EE66A8D
:1028B000E66A010EE66E68EC18F0E552E550046E2B
:1028C000E750036E06500326000E04220201E2A523
:1028D00003D0F19AE29502D0F18AE285E40EE96E26
:1028E000000EEA6E0001EE50035CD86FED50045804
:1028F000D96FD851016E03EBE4F004EBE5F0015021
:10290000360803E20201E271E2830201E2A31BD076
:10291000E251010B026E02EBE6FF0001E6510001FD
:10292000D96BE40FD86F020ED923D8C0E6FFD9C007
:10293000E6FFE0D843E90001E22BE72B080EE75D54
:1029400002E1E76BE62B0201E27347E9E7CFD9FF2B
:1029500012000001E32B120014DA83E942E882DF5F
:10296000010EE66EA00EE66E50D842E98CDF036AD7
:10297000046A020E035C000E04581AE207DA01E151
:10298000D95111E017D90009F9E03BDA26D942E91B
:102990000009F4E036DA94D942E9AA0EE66E53D87B
:1029A00041E9010E0AD069D8032A000E0422E1D7BA
:1029B000AA0EE66E48D841E9000E43E9E7CFD9FFF9
:1029C0001200040EE66EC2EC1AF041E9FC0EE66E4F
:1029D0003F0EE66EF7EC19F042E9300EE66EE66A5D
:1029E000CCEC07F042E9170EE66E69EC1AF041E90B
:1029F0001200C7D982E9005004E0F18A0201E285A1
:102A000003D0F19A0201E29501D2BBD983E900EB30
:102A1000E6FFEFDF41E90201E283E2910001E66BAC
:102A2000E76BE26BE36BE46BE56BF090F0860150D3
:102A3000E25D03E2050EE35DFAE3F090F096E66BEB
:102A4000E76BE251E3D19DD982E941E8026A02EBEA
:102A5000D8F00001D96BD8BFD969140ED85D000E2B
:102A6000D9590AE202EBE9FFEA6AE9BEEA68D2D97B
:102A700000EBEFFF022AEBD7D2D183D981E941E8FD
:102A8000140E016E013414E20150000811E2010439
:102A9000E96EEA6AE9BEEA68BDD9EF1CE66E010498
:102AA000E96EEA6AE9BEEA68B5D9A7D90106EAD7AC
:102AB000B6D16CD901E1D9511AE00001E651EA6AB8
:102AC000E40FE96E020EEA22EF50E7C0E7FFE7529B
:102AD00004E0E8427F0BE706FCE1010B0201E36F33
:102AE0000001E72B080EE75D02E1E62BE76B020130
:102AF000E351120046D984E901EBE9FF02EBEAFF5A
:102B0000EF90EF42005005E001EBE9FF02EBEAFF36
:102B1000EF8E7CD136D985E942E881EB06F00634A8
:102B200033E20650010830E2020E065C0001D86F65
:102B3000D96B800B01E0D9693ED9EF50010B056ECE
:102B400072D901E0DB693ED9EF407F0B50D901E03B
:102B5000D96931D952D905500AE065D901E0DB695C
:102B600031D9EF50800943D90BE0D96909D05BD93D
:102B700001E0DB6927D9EF507F0B39D901E0D96932
:102B80001AD93BD90606CBD724D9EF407F0BE66E86
:102B900020D933D9005004E01CD9EF50800903D06C
:102BA00018D9EF507F0BE66E14D927D943E9E7CF48
:102BB000D9FF1200E6D881E941E8016AE7D801E1CE
:102BC000D95109E076DF0108F8E1012A090E015C1C
:102BD000F5E1010E01D0000E22D1D3D883E947E8F8
:102BE000036A010E046E056A066A076A086A096AC2
:102BF000046E043402E20450320832E35ADF036EFA
:102C0000C5D802E1D95155E0E9D8000905E10350E2
:102C1000055C4FE1056A22D003EBE6FF050EE66E88
:102C2000F0D878DF44E905500318056ED7D8040AB8
:102C300012E0070A0CE0010A06E0030A0FE1065061
:102C40000318066E0BD007500318076E07D0085004
:102C50000318086E03D009500318096E042AC9D757
:102C600028DF065C26E125DF075C23E122DF085C24
:102C700020E11FDF095C1DE11CDF00091AE1046A85
:102C8000D890045002E6050E045C10E204EBD8F084
:102C90000001D96BD8BFD969D8510024E96ED95148
:102CA0000120EA6EEF5002E1042AEAD7050E045C27
:102CB00002E1000E01D0010E48E9E7CFD9FF120072
:102CC00060D883E948E8066A076A086A096A0A6AF6
:102CD000056A050E055C36E2070E046E036A080EEF
:102CE000035C2EE203EBD8F005500024E96E000EE1
:102CF0000120EA6EEF50D8C0E7FFE75204E0E84257
:102D00007F0BE706FCE1010B0CE0010E04EBF3FF87
:102D1000045204E0D890E836F306FCE13FD8EF1205
:102D20000CD0010E04EBF3FF045204E0D890E83617
:102D3000F306FCE1E81C32D8EF160406032ACFD7CD
:102D4000052AC7D7036A050E035C17E20001D950B4
:102D5000060FD86F0350EA6AD825E96EDA50EA22E6
:102D6000EF50E66E040ED88003540024E96E000E86
:102D70000120EA6E42D8032AE6D749E9E7CFD9FF16
:102D80001200D9CFE6FFE1CFD9FF12000001E651D2
:102D90000001D86FD96B140ED81912000001DA6F38
:102DA000D950060FD86F0550EA6AD825E96EDA5077
:102DB000EA22DA511200D8510224E96ED9510320D7
:102DC000EA6E1200DA510224E96EDB510320EA6E4A
:102DD000120002EBE9FF03EBEAFF1200050EE66EBC
:102DE00004EBE6FF44EC18F041E9E7501200E66E10
:102DF0000604D86FD96B800B1200E552E750EF6ED6
:102E0000120000EBE6FF01EBE6FF120041E9E7CF1D
:102E1000D9FF1200E40EE926020EEA22120042E96E
:102E2000E7CFD9FF12000604DA6FDB6B800B1200CC
:102E30003F0EC716C66AC56A800EC76E080EC66EFC
:102E40001D0EC86E938C9388C68A8A8EC0D0C69A8F
:102E50008A9EBDD0D9CFE6FFE1CFD9FF85E941E811
:102E6000056A0598058A059C058EB7D8100E95D879
:102E700003E000019ED8FEE1A2D8E8B00586B4D8F0
:102E8000C5A003D0FDD7C5B0FED78FD8C5BCFED72F
:102E9000A4D8080E82D803E000018BD8FEE176D8D2
:102EA000C5BCFED701EBD8F071D8C5BCFED700EB8E
:102EB000E6FFA8D8C5BCFED7C584C5A403D0FDD7FE
:102EC000C5B4FED724EC1BF0C580C5B0FED724ECFA
:102ED0001BF06BD8C5AC04D0C584C5B4FED7F2D7FF
:102EE000C584C5A403D0FDD7C5B4FED724EC1BF020
:102EF00042E9E7CFD9FF1200D9CFE6FFE1CFD9FFF2
:102F000084E942E8046A056A0598058A059C058EED
:102F100072D8100E42D803E000014BD8FEE14FD822
:102F2000E8B0058661D8C5A003D0FDD7C5B0FED7EF
:102F30003CD8C5BCFED75FD8080E2FD803E00001EF
:102F400038D8FEE123D8C5BCFED700EBD8F01ED898
:102F5000C5BCFED7C582C5B2FED724EC1BF0052840
:102F6000E66E50D8C5BCFED70CEC1BF0046E24EC0A
:102F70001BF0C584C5A403D0FDD7C5B4FED724EC8F
:102F80001BF0045043E9E7CFD9FF12000001D96BD1
:102F9000DA6BD8C0E6FF02EF18F01F0BDBC0D8F0E9
:102FA000DCC0D9F0DDC0DAF0120005EBE6FF02EF7D
:102FB00018F0D890DA33D933D833E8061200010E6E
:102FC0000001D817D96BDA6BD85105961200030EA1
:102FD000E66EDCEC1AF041E9120001EBDBF002EBEB
:102FE000DCF003EBDDF0120005920594059024EC73
:102FF0001BF0C580120000EBDBF001EBDCF002EB14
:0E300000DDF0120030EC1AF041E924EF1BF075
:02300E0042E896
:10301000D9CFE6FFDACFE6FFE1CFD9FFE2CFDAFF83
:1030200086E9036A1200F3DF038003D0F0DF01D0EA
:103030000382026A080EE76ED8900136023600500D
:10304000025C02E3026E012AE72EF7D703B21200F8
:1030500003B081EB00F003A082EB00F0E552E5CF76
:10306000DAFFE7CFD9FF43E9120042E8D9CFE6FF04
:10307000DACFE6FFE1CFD9FFE2CFDAFF86E9036AD4
:103080001200F3DF038001D0F0DF00AE03D0006C4C
:1030900003B0037E01AE02D0016C037E18EC18F081
:1030A00001BE64EF18F003AE02D0016C026C03B0F5
:1030B00081EB00F003A082EB00F0E552E5CFDAFFF0
:1030C000E7CFD9FF43E9000C03BEEFD7F0DFFF0CD9
:1030D00044E8D9CFE6FFDACFE6FFE1CFD9FFE2CF70
:1030E000DAFF8AE980EB04F081EB05F082EB06F071
:1030F00002500402F450016EF350006E0350076E4C
:103100000502F450036EF350026E07500402F350B0
:103110000126F4500222E86A032206500502F35009
:103120000126F4500222E86A0322E552E5CFDAFFD5
:10313000E7CFD9FF46E9000C44E8D9CFE6FFDACF64
:10314000E6FFE1CFD9FFE2CFDAFF8EE980EB08F0AE
:1031500081EB09F082EB0AF083EB0BF004500802DC
:10316000F350006EF450016E04500902F350012632
:10317000000EF420026E04500A02F3500226000EE4
:10318000F420036E04500B02F3500326055008028E
:10319000F3500126F4500222000E032205500902CA
:1031A000F3500226F450032205500A02F35003267E
:1031B00006500802F3500226F4500322065009027A
:1031C000F350032607500802F3500326E552E5CFDB
:0A31D000DAFFE7CFD9FF48E9000C51
:0631DA00020120511F0B51
:1031E000010801E01200245101E01200060E215DE9
:1031F0001BE12351230A18E0010A0CE0030A14E141
:103200000201310511E10201C00E416F320E426F21
:10321000090E06D00201290E416F330E426F1C0EBB
:10322000446F456BC00E436F02012051600BE842B2
:10323000E842E842E842E842010801E01200215178
:103240000B0A26E0080A19E0090A11E0080A05E05D
:103250000B0A23E0080A21E0120002015E0E416F12
:10326000020E426F010E446F456BC10E0FD002017A
:10327000800E436F23C25EF2120002015F0E416FA7
:10328000020E426F010E446F456B810E436F1200B8
:0C3290000201800E436F22C25FF21200A8
:04329C001201000219
:1032A00000000008D8043F000200010203010902E7
:1032B0002900010100C032090400000203000000DF
:1032C000092111010001221C0007058103400001B2
:1032D00007050103400001040309042A0349006EA5
:1032E000006E006F00200054006500630068006EEF
:1032F000006F006C006F0067007900200049006ECD
:103300000063002E001203410054002000470055C6
:103310000041005200440012033000300030003001
:103320000030003000300032000600FF0901A1012A
:1033300019012940150125407508954081001901A2
:0F33400029409100C0AE32D732DB32053317334C
:103350001E0EF66E000EF76E000EF86E00010900EC
:10336000F550D36F0900F550D46F03E1D36701D056
:103370003DD00900F550CE6F0900F550CF6F090020
:10338000F550D06F09000900F550E96E0900F550BD
:10339000EA6E090009000900F550D16F0900F550E7
:1033A000D26F09000900F6CFD5F0F7CFD6F0F8CFED
:1033B000D7F0CEC0F6FFCFC0F7FFD0C0F8FF0001B6
:1033C000D15302E1D25307E00900F550EE6ED10768
:1033D000F8E2D207F9D7D5C0F6FFD6C0F7FFD7C0BD
:0E33E000F8FF0001D307000ED45BBFD7120028
:0233EE00D9CF35
:1033F000E6FFDACFE6FFE1CFD9FFE2CFDAFF84E9DB
:1034000043E8F8CF05F0F6CF06F03F0E0112FC0EB0
:103410000012C00EBD100114BD6E0F0EBD100014C1
:10342000BD6E3F0E015C02E1949A10D0BF0E015CAC
:1034300003E1949A94980AD07F0E015C03E0FF0E9A
:10344000015C04E1949A94989496949405C0F8FFD2
:1034500006C0F6FF44E9E5CFDAFFE7CFD9FF120057
:10346000D9CFE6FFDACFE6FFE1CFD9FFE2CFDAFF2F
:1034700083E900EBC9FFC6AE02D0FF0E24D00F0EC9
:10348000C61408080FE00F0EC6140B080BE0C68820
:103490009EA6FED7C750040B03E1C750010B10E0F6
:1034A000000E11D00F0EC614080804E00F0EC6144B
:1034B0000B0809E1C7B0FED724EC1BF0C5AC02D065
:1034C000FE0E01D0000E41E9E5CFDAFFE7CFD9FFCC
:0234D0001200E8
:0E34D200D9CFE6FFDACFE6FFE1CFD9FFE2CF98
:1034E000DAFF83E90C0EBD12CA9400EBCBFFCA844D
:1034F00041E9E5CFDAFFE7CFD9FF1200B9B0949ADE
:10350000B9A202D094987F90B9A402D094967F94E7
:0A351000B9A602D094947F96120031
:06351A00FF0EE35000016A
:10352000F06FEE0E02D0F20E0000E76EE72E96EF7F
:103530001AF00C0E0201FF6FE76AE72E9DEF1AF0FA
:10354000FF2F9CEF1AF00001F02F93EF1AF01200FA
:10355000FE0EE3CFE9FFFF0EE3CFEAFFE9CFF3FF73
:10356000EACFF4FFFB0EE35003E1FC0EE35009E069
:10357000FB0EE30602E2FC0EE306FD0EE350EE6EE8
:04358000F1D712006D
:0C358400D9CFE6FFDACFE6FFE1CFD9FF98
:10359000E2CFDAFF83E9FB0E0014CA6ECC6A9E927A
:1035A00000AE02D09D8201D09D92CA8441E9E5CF50
:0835B000DAFFE7CFD9FF12009A
:0835B800FF0EE3500001F06F6B
:1035C000480E01D04C0EE76EE72EFED7E76AE72ED5
:0835D000FED7F02FF7D712001F
:0835D800FF0EE3500001F06F4B
:1035E0001A0E00D000D001D0200EE76EE72EFED7D5
:0835F000F02FFAD700D0120001
:0835F800000EF36E00EE00F07E
:10360000030E01D81200EA6002D0EE6AFCD7F35034
:08361000E9601200EE6AFCD72C
:083618000F0EC614080804E0BF
:103620000F0EC6140B0801E1C586C7A0FED7C9500E
:02363000120086
:0E363200FF0EE350E84E1200000000D000D062
:0836400000D0E82EFAD71200B9
:083648001F0EC514FDE1C7507F
:06365000040BFAE1120078
:07365600000001000000006C
:020000040030CA
:0100000018E7
:0100010032CC
:0100020031CC
:010003001FDD
:01000500807A
:01000600C138
:0100080000F7
:010009008076
:01000A0003F2
:01000B00E014
:01000C0003F0
:01000D0040B2
:00000001FF
