:0400000080310F2814
:100006000800803120007F08E60082318F2280318F
:1000160020006608FF0009008831DA28200042081F
:10002600013A031D17281828322840081F390038BE
:10003600031D1E281F2832282100ED172000410825
:10004600033A031D272828282E280130D7005708F1
:100056002300AB0032282300AB01322832282000CF
:100066004208031D37283828562940081F39023A06
:10007600031D3E283F28562944080F39003A031924
:1000860045284628562944080F39D700023057021A
:1000960003184E284F2856296908203A031D54286C
:1000A600552856292100ED172000C41B5B285C2823
:1000B600712844080F39643E860001308700010824
:1000C600D7005708DC0044080F39623E860001302D
:1000D60087000108D7005708DB00852844080F3938
:1000E600673E860087010108D7005708DC004408F0
:1000F6000F39603E8600013087000108D700570897
:10010600DB0085285B18882889288E28FB30D700D5
:100116005708DC058F285C15C41B922893289E2857
:100126005C08D70044080F39643E8600013087001A
:1001360057088100A8285C08D70044080F39673E95
:100146008600870157088100A8284108033A031D45
:10015600AD28AE28D1285C0886008701811FB42807
:10016600B528C928C41BB828B928C12844080F399E
:10017600623E8600013087008114C92844080F3981
:10018600603E8600013087008114C9288430D7007C
:100196005C08860087015708810456290430D70079
:1001A6005708DC065C0886008701811FDB28DC28EF
:1001B600F7287F30D7005C0886008701570881053D
:1001C6005C088600870101170530D2000030D30095
:1001D6005C08D7005708D4000130D5000030D6009F
:1001E6008A310B228031FD2820005C0886008701B9
:1001F6000117FD2804302000D7005708DC06DB185D
:10020600052906290D295C0886008701811F0C290E
:100216000D293729C41B10291129192944080F391A
:10022600623E8600013087008110202944080F397C
:10023600603E86000130870081103B30D7005C08A5
:1002460086008701570881050530D2000030D300AB
:100256005C08D7005708D4000130D5000030D6001E
:100266008A310B22803140293B302000D7005C08C0
:1002760086008701570881054029200044080F3968
:10028600983ED700D8010E30D83D5708D9005808F7
:10029600DA00FE30D700590886005A08870057084A
:1002A600810556295629080023003708031D5C29B5
:1002B600602987312F27813160292030200069028B
:1002C600031C662967298E2A3D008E1C6B296C2922
:1002D6006E298E2A8E2A23003008031D732984294D
:1002E600300886008701010D010D01392100E80063
:1002F600E90168082200E800210069082200E900F7
:1003060088292200E801E901882969086804031D93
:100316008D298E298E2A6E2A6E2A2300B701220085
:100326000E0C2100E800E80C680C0139E9002200F7
:100336000E0C890C013921006906031DA329A42985
:10034600C529003022000E1D01302100E800E80D0D
:10035600E80D22000E0821006806FB396806220017
:100366008E0000308E1D01302100E800E80DE80DFA
:10037600E80D22000E0821006806F73968062200FB
:100386008E007A2A22000E1DC929CA29CC298E156B
:100396007A2A8E117A2A7A2A7A2A23002F08031DAE
:1003A600D529E6292F0886008701010D010D01399F
:1003B6002100E800E90168082200EA002100690836
:1003C6002200EB00EA292200EA01EB01EA296B0888
:1003D6006A04031DEF29F0297A2A81302100E800FA
:1003E60068082200A00020008C1DFA29FB29FF299D
:1003F6002200A101A10A022A2200A101022A21004B
:10040600E001E00A2030E1000130E2004030E8007F
:100416006808E30001308B31082381312100E900AF
:1004260069082300AF007A2A7A2A23002F08031DC1
:100436001D2A2E2A2F0886008701010D010D01397C
:100446002100E800E90168082200EC0021006908A3
:100456002200ED00322A2200EC01ED01322A6D085D
:100466006C04031D372A382A7A2A88317A2081318A
:10047600210061082200EF01EF0721006008220039
:10048600EE01EE0737302100E80068082200A000E0
:100496006E082100E80068082200A1006F0821000C
:1004A600E80068082200A2002100E001E00A2030EE
:1004B600E1000130E2004030E8006808E300013066
:1004C6008B31082381312100E90069082300AF0040
:1004D6007A2A7A2A7A2A21002008373A0319182A12
:1004E600B73A03199029013A0319D0297A2A21002B
:1004F600E001A030E1000030E2004030E80068088A
:10050600E30001308B31082381312100E9006908BD
:100516002300B0008E2A080020006908013A031D56
:10052600952A962AA52A3D008E1A9A2A9B2AA52A3A
:1005360090011214121602302000E3006308E9004D
:10054600A52AA52A3D00101DA92AAA2AB82A121DE5
:10055600AD2AAE2AB82AFB302000E30063083D002E
:100566009005883134208231B82A3D008E1CBC2A81
:10057600BD2AC02A20001211C32B101CC32AC42A6C
:10058600D82A121CC72AC82AD82A8531C225823100
:100596002100121504302000E3006308E900FE3054
:1005A600E30063083D009005D82A101EDB2ADC2AEA
:1005B600EA2A121EDF2AE02AEA2A883161208231DD
:1005C600EF302000E30063083D009005EA2A101F83
:1005D600ED2AEE2A182B121FF12AF22A002B73306D
:1005E6002000D2000030D300D4010130D500003005
:1005F600D6008A310B228231002BBF302000E30067
:1006060063083D00900523003308031D0B2B0E2BBA
:100616000130B3020E2BB308031D122B132B182B1C
:1006260084318D248231182B182B3D00901E1C2BF3
:100636001D2B252B921E202B212B252B89310121A9
:100646008231252B3D00901C292B2A2B3E2B921CF8
:100656002D2B2E2B3E2BFF302000D2007F30D300D7
:10066600D4010130D5000030D6008A310B22823108
:100676003D0093013E2B0430200069020318442BF1
:10068600452B472B1211C32B3D00921D4B2B4C2B98
:10069600C12B2000E50104306502031C532B542BAB
:1006A600562BC12BC12B3D00901D5A2B5B2BC12B0A
:1006B6000F082000E3006308EF006F0CE300E30C73
:1006C600630C0F39E40064082200E700F7302000CD
:1006D600E30063083D00900520006F19732B742B0F
:1006E600862B22006708623E8600013087000108DB
:1006F60001392000E3000130E30601086306FE39F4
:1007060063068100982B22006708603E8600013050
:100716008700010801392000E3000130E3060108E3
:100726006306FE3963068100982B2200E708031D45
:100736009D2B9E2BA22B8D3125258231B52B723018
:100746002000D2000030D3006F30E3006308D400ED
:100756000030D5000030D6008A310B228231B52B0D
:10076600B52BC12B01302000E3006308E5070430F8
:100776006502031CBF2BC02B562BC12B2000121168
:100786000800210012113D00930190019801993053
:100796002100E2000E30E300E4016408031DD42BBF
:1007A600D62BE82BE82B62088600630887008101B8
:1007B6000130E2070030E33D0130E0006008E40765
:1007C6006408031DE72BD62BE82B16303D0091005D
:1007D6009F3097007B3092002100E50108306502CA
:1007E600031CF62BF72BF92B162C162C6508E000AC
:1007F6000130E035FF3E031DFC2B6035203E8600B0
:1008060087010030C03F0030C13F0030C23F00309A
:10081600C33F0130E0006008E50708306502031CAD
:10082600152C162CF92B3D000E1796010E120E13E1
:10083600292CF7302100E00060083D0090052100DA
:10084600ED012300A201A301A401292C3D0090196A
:100856002D2C2E2C1C2C2F2C01302100E0006008A2
:100866002300B10001302100E00060082300B2003F
:10087600AD01AE01AC012100E50102306502031CA9
:10088600452C462C482C6A2C6A2C6508673E860047
:10089600870181016508643E860001308700810179
:1008A6006508603E86000130870081016508623E6A
:1008B60086000130870081010130E0006008E5070D
:1008C60002306502031C682C692C482C6A2C2830DF
:1008D600E00060082000E70016303D009800403038
:1008E6002100E0000030E10060082000A2002100A5
:1008F60061082000A30008302100E0006008200005
:10090600A10084302100E00060082000A000ED0175
:10091600E90108002300B108031D922C932CFA2C40
:100926000130F0007008B100B208031D9B2C9C2C0E
:10093600FA2C0130F0007008B20020006A08023A72
:10094600031DA62CA72CB32C670A860087018101FC
:10095600C830F00067088600870170088100FA2C0D
:100966006A08013A031DB82CB92CFA2C2300AA01F7
:100976000830F00020006B0A8600870170088100AD
:100986004030F0000030F1006B08023E860087011F
:100996007008C03F7108C13F8430F0006B088600C4
:1009A6008701700881000130F00070082300AA005A
:1009B6000830F00020006C0A86008701700881006C
:1009C6004030F0000030F1006C08023E86008701DE
:1009D6007008C03F7108C13F8030F0006C08860087
:1009E600870170088100FA2CFA2CFA2CFA2C0800E0
:1009F600013408000800080008000034BE3405343D
:100A060039346734343403344D34003469340034B3
:100A160063340034723400346F3400346334003489
:100A260068340034693400347034003420340034BF
:100A3600543400346534003463340034683400348C
:100A46006E3400346F3400346C3400346F34003448
:100A560067340034793400342034003449340034A7
:100A66006E340034633400342E3400342E340334B0
:100A760053340034693400346D3400347034003437
:100A86006C34003465340034203400344834003487
:100A960049340034443400342034003444340034BF
:100AA60065340034763400346934003463340034F9
:100AB6006534003420340034443400346534003462
:100AC6006D3400346F340034093402342934003470
:100AD600013401340034C03432340934043400346F
:100AE6000034023403340034003400340934213431
:100AF600113401340034013422341C3400340734F8
:100B06000534813403344034003401340734053469
:100B16000134033440340034013406340034FF34E5
:100B260009340134A13401341934013429344034F0
:100B36001534013425344034753408349534403442
:100B4600813400341934013429344034913400346A
:100B5600C03412340134003402340034003400341A
:100B66000834D83404343F340034023400340134B9
:100B760002340034013404340334093404342100CB
:100B860012113D009301900198019930F2000E3048
:100B9600F300F4017408031DD12DD32DE52DE52DA9
:100BA600720886007308870081010130F207003061
:100BB600F33D0130F0007008F4077408031DE42DBE
:100BC600D32DE52D16303D0091009F3097007B30E8
:100BD6009200F50108307502031CF22DF32DF52D58
:100BE600122E122E7508F0000130F035FF3E031D5F
:100BF600F82D7035203E860087010030C03F00305A
:100C0600C13F0030C23F0030C33F0130F0007008E2
:100C1600F50708307502031C112E122EF52D3D0026
:100C26000E1796010E120E13232EF730F0007008E1
:100C360090052100ED012300A201A301A401232EAA
:100C46003D009019272E282E182E292E0130F0004F
:100C560070082300B1000130F0007008B200AD0149
:100C6600AE01AC01F50102307502031C3B2E3C2E91
:100C76003E2E602E602E7508673E86008701810134
:100C86007508643E86000130870081017508603E64
:100C960086000130870081017508623E86000130BA
:100CA600870081010130F0007008F50702307502F7
:100CB600031C5E2E5F2E3E2E602E2830F00070083C
:100CC6002000E70016303D0098004030F00000306C
:100CD600F10070082000A2007108A3000830F0009F
:100CE6007008A1008430F0007008A000ED01E90151
:100CF600080020006B0A860087010108F2007208CE
:100D0600F5007508F200F301730823002402031DA1
:100D16008E2E720823020318912E922E972E2308E8
:100D2600F2007208F500972E0330A03E86000130CF
:100D360087007508F200F301F209F309F20A0319B4
:100D4600F30A403F7207A300413F733DA400F4013C
:100D5600C02E7408483E860087010108F20020086C
:100D660086008701720881000130F2007208A00730
:100D76000130F2007208F407C02E75087402031CD5
:100D8600C52EC62EAC2EC72E0330A03E86000130DF
:100D96008700160001040319D12ED22EFE2E08302C
:100DA600F20020006C0A8600870172088100483034
:100DB600F2000030F3006C08023E860087017208DC
:100DC600C03F7308C13F6B0886008701011BEC2EEC
:100DD600ED2EF52EC830F2006C08860087017208E9
:100DE60081002E2F8830F2006C0886008701720879
:100DF60081002E2F2E2F0830F20020006C0A86006C
:100E06008701720881004030F2000030F3006C0860
:100E1600023E860087017208C03F7308C13F8430D6
:100E2600F2006C08860087017208810023002508FD
:100E3600031D1E2F222F25088731202F222FA213B4
:100E46002200E608031D282F292F2E2F84318D24FA
:100E560086312E2F2E2F0800230027082604031D77
:100E6600352F362F3A2F1030A6002730A700013035
:100E7600A6020030A73B3D008E1C422F432F642F55
:100E8600230027082604031D492F4A2FDE2F003092
:100E960022000E1D01302100E000E00DE00D2200D1
:100EA6000E0821006006FB39600622008E000E1D2A
:100EB6005D2F5E2F602F8E15DE2F8E11DE2FDE2F1B
:100EC600DE2F2000E908031D692F6A2F6E2F2200EE
:100ED6000E118E11DE2F20006908013A031D742FB2
:100EE600752F792F22000E158E15DE2F200069082A
:100EF600023A031D7F2F802F842F22000E158E119C
:100F0600DE2F20006908043A031D8A2F8B2F8F2FAE
:100F160022000E118E15DE2F20006908103A031DDF
:100F2600952F962FB02F230027082604031D9C2FEC
:100F36009D2FDE2F003022000E1D01302100E00023
:100F4600E00DE00D22000E0821006006FB39600668
:100F560022008E008E11DE2FDE2F20006908203A37
:100F6600031DB62FB72FDE2F230027082604031DE7
:100F7600BD2FBE2FDE2F003022000E1D01302100B6
:100F8600E000E00DE00D22000E0821006006FB39AE
:100F9600600622008E000E1DD12FD22FD42F8E1167
:100FA600DE2F8E15DE2FDE2FDE2FDE2FDE2FDE2F3D
:100FB600DE2FDE2FDE2F08001E302000D000500866
:100FC600F7000130893129218731F001A030F10085
:100FD6000030F20040302000D0005008F30001300D
:100FE6008A31AB2287312000D10051082300B0009E
:100FF60008008F315D27873108008B31F42B8B3148
:10100600F92B8C31342C8B31F92B8C31342C8B31E0
:10101600D62B8B31DE2B8C31192C8B31E62B8B3179
:0E102600E22B8B31FD2B8C310D2C8C31342CB8
:10103E0023008C018D018E0121008C018D018E010A
:10104E0098013C309900191327009B0188314A20E2
:10105E0088318331C423883108002300AC017430F9
:10106E002000D2000030D300D4010030D500003073
:10107E00D6008A310B2288313D001211FB30FD0063
:10108E007D0890050800F0302100E0006008220085
:10109E008E05F0302100E00060088E050D16293017
:1010AE009D00E0309E009F012300B001AF01B7010B
:1010BE00B70A08003D001215EF30FD007D089005BF
:1010CE000130FD007D082300AC0075302000D200F9
:1010DE000030D300D4010030D5000030D6008A3164
:1010EE000B22883108002100E301E4019D147F28C2
:1010FE009D18822883287F2884281B08E200620816
:10110E00E3001C08E2006208E4006408E101E10764
:10111E006308E001E00793280800F5007508F40065
:10112E007408F600A6287008F40076088600870179
:10113E00740881000130F4007408F607A628013007
:10114E00F2020030F33BFF307306031DB028FF3070
:10115E007206031DB328B4289A28B528080020006B
:10116E00E908031DBB28BC28D9283D008E01920139
:10117E00163091009F3097007B309200210012159F
:10118E000B178B17CB288E153D008E1DCF28D02820
:10119E00CA28D12801302100E00060082000E900B3
:1011AE00D928D9280800673084000030850009301E
:1011BE009731EC2788312100EA01EB01EC01ED01BA
:1011CE00EE01EF0160308400013085000830973168
:1011DE00EC278831A030840001308500173097311C
:1011EE00EC27883123008431FB248831B70020009E
:1011FE009731F22F3D00181C0529062924292000BD
:10120E006B08860087010108803A031D0F291029FB
:10121E0021296708860087010108843A031D1829D1
:10122E00192921298C30F0006B088600870170087F
:10123E00810021293D0018102429DF30F0007008AC
:10124E0090050800FC00771D2D292E293429F00168
:10125E007C088931C72189313429F71C372938296F
:10126E003F29F001F00A7C088931C72189313F29D5
:10127E007C08983EF800F9010E30F93D7808FA0026
:10128E007908FB007708F8007A0886007B0887004B
:10129E0078088100080020006A08023A031D5829C8
:1012AE0059295D2986317C2689318329EA0123005B
:1012BE00AA08031D6329642980290830F60020003E
:1012CE006C0A86008701760881004030F6000030F7
:1012DE00F7006C08023E860087017608C03F77084B
:1012EE00C13F8C30F6006C088600870176088100BD
:1012FE008329AA018329832908002100EA012200FB
:10130E00E6012300AD01AE01AA012000EA017F3003
:10131E00DE006708860087015E0881050430DE0066
:10132E005E08E7067F30DE006708860087015E08EC
:10133E0081050430DE005E08E7067F30DE006C08B3
:10134E00860087015E0881052100ED01EE01EF01A7
:10135E002300A201A301A4018B31CA2389310330DA
:10136E002000D2000030D300D4010030D500003070
:10137E00D6008A310B2289318E31CA268931080076
:10138E00F5002030F1007108F6007008F100013010
:10139E00F135890BCF297508F2000130F235FF3E89
:1013AE00031DD52972357107F3000130F335FF3E69
:1013BE00031DDD297335F4007408F60776088600E0
:1013CE0087018113F008031DED29EE29F82976080F
:1013DE00F1007508643E86000130870071088100B7
:1013EE00012A7608F1007508673E860087017108AC
:1013FE008100012A76088600870101137608043ED3
:10140E0086008701011708002C2A542A8431FE24F5
:10141E008A31542A8431FC248A31542A8431FD24A1
:10142E008A31542A8731DF278A31542A80310320AA
:10143E008A31542A8731FC278A31542A8431FF2479
:10144E008A31542A542A542A542A20005308003A26
:10145E000319352A7F3A03194F2A542A5208013AA2
:10146E000319192A033A03191D2A013A0319212ACD
:10147E00063A0319542A773A0319542A013A0319E2
:10148E000D2A073A0319152A013A0319112A542A6B
:10149E005208FF3A0319252A542A08002300AD01E9
:1014AE00AE0120006A08023A031D5E2A5F2A7A2ADC
:1014BE000830F3006C0A86008701730881004830FB
:1014CE00F3000030F4006C08023E860087017308BA
:1014DE00C03F7408C13FC830F3006C088600870116
:1014EE0073088100AA2A21006F0820004702031DFD
:1014FE00842A21006E08200046020318872A882AB3
:10150E00922A47082100EF01EF072000460821002C
:10151E00EE01EE07922A8E3137268A314830F300DB
:10152E000030F40020006708023E86008701730831
:10153E00C03F7408C13FC830F300670886008701BA
:10154E0073088100AA2A0800F6007008031DB02A4D
:10155E00B92A7608673E860087010108F4007408F0
:10156E00F700C32A7608643E860001308700010822
:10157E00F4007408F700C32AF708031DC72AC82A07
:10158E00CB2A0030072B072BFF307105F4007F307C
:10159E007205F5007708023E860087017408C03F89
:1015AE007508C13F7308F400770A86008701740836
:1015BE0081004030F40077088600870174088105A9
:1015CE008830F4007708860087017408810470085B
:1015DE00031DF22AFB2A0430F4007608673E8600CB
:1015EE00870174088106052B0430F4007608643EEA
:1015FE0086000130870074088106052B7708072BBB
:10160E0008002100E6006008031D0E2B172B66084C
:10161E00673E860087010108E4006408E700212B7D
:10162E006608643E8600013087000108E400640805
:10163E00E700212BE708031D252B262B292B003035
:10164E00652B652BFF306105E4007F306205E500F8
:10165E006708023E860087016408C03F6508C13FE7
:10166E006308E400670A8600870164088100403041
:10167E00E400670886008701640881058830E4006D
:10168E00670886008701640881046008031D502BDB
:10169E00592B0430E4006608673E86008701640813
:1016AE008106632B0430E4006608643E8600013038
:1016BE00870064088106632B6708652B08002000ED
:1016CE00C801C901AE2B2100ED17200048146F2B65
:1016DE0023002B08013A031D752B762BBA2B200005
:1016EE00C814BA2BBA2B2100ED17BA2B2100ED1717
:1016FE002000C41B832B842B8F2B44080F39643E90
:10170E008600013087000108F0007008F100992B67
:10171E0044080F39673E860087010108F000700803
:10172E00F100992B710886008701811F9F2BA02B3A
:10173E00BA2B710886008701011DA62BA72BBA2B89
:10174E000130F0007008C800BA2BBA2BBA2B400833
:10175E001F39003A03196A2B013A03197A2B033AFF
:10176E0003197D2BBA2B2100ED1FBE2BBF2BC92BCE
:10177E004830EB000030EC006D140230F0007008C1
:10178E00EE00C92B08002000400E890C0339003AE8
:10179E000319D22BD32B292C342C342C292C210099
:1017AE00ED1708302000DD005D08E900342C8C3187
:1017BE00AB248B31342C8D31A9258B31342C6D30EB
:1017CE002100EB000030EC006D1401302000DD0034
:1017DE005D082100EE00ED17342C8B3166238B3122
:1017EE00342CF92B803111208B31342C20004408FD
:1017FE006E3E2100EB000030EC006D140130200035
:10180E00DD005D082100EE00ED17342C2100ED17F0
:10181E0020004208DD0044086E3E860087015D0808
:10182E008100342C0230D2000030D300D4010030BD
:10183E00D5000030D6008A310B228B31342C342C5B
:10184E00342C342C2000410884000D30040203187F
:10185E00342C88310435003E8200080020006708D1
:10186E00860087010030011B0130F5000430F300C3
:10187E007308E7066908083A031D462C472C5A2CB4
:10188E0042083D0096001608031D4E2C542C1030B5
:10189E00F30073082000E9005A2C0430F30073089B
:1018AE002000E9005A2C6A08013A031D5F2C602CB7
:1018BE00982C4830F3000030F4006708023E860092
:1018CE0087017308C03F7408C13F8E3137268C31B3
:1018DE0021006A08023A031D752C762C7F2C843069
:1018EE00F300200067088600870173088100AA2C88
:1018FE00F508031D832C842C8D2CC830F30020009A
:10190E0067088600870173088100AA2C8830F300CF
:10191E00200067088600870173088100AA2CAA2C74
:10192E00AA2C2300A21F9C2C9D2CA72C2508031D3E
:10193E00A12CA52C25088C31A32CA52CA213A72CE9
:10194E002000EA01AA2C080020004008803A031D5E
:10195E00B12CB22C242DC030F00070082100ED0007
:10196E00172DAC302100EB008530EC001230EE006C
:10197E000030EF00242D04308400853085002000D7
:10198E00420884070318850A003F2100EB008530CA
:10199E00EC006C08F1006B08F00002307007840058
:1019AE0071080318710A85000008F2007208EE0033
:1019BE006C08F1006B08F0000330700784007108AA
:1019CE000318710A85000008F2007208EF00242D3A
:1019DE000330200042020318F52CF62C0F2D013097
:1019EE00840085308500420884070318850A003F6D
:1019FE002100EB008530EC006B0884006C0885003C
:101A0E000008F000F1017008EE007108EF00242DBF
:101A1E002100ED01242D242D2100ED01242D242D56
:101A2E0020004308013A0319B82C033A0319C22CBB
:101A3E00013A0319EF2C132D242D08002D30200010
:101A4E00DF005F082300B30020006F08FD39031D7F
:101A5E00312D322D992D6F0889363F39DF00013037
:101A6E00DF35FF3E031D372D5F35203EE000600859
:101A7E00EB006B08DF005F08EC000430DF005F084E
:101A8E00EC066B0886008701010C890C0F390D3AA4
:101A9E00031D522D532D942DE20108306202031CBA
:101AAE00592D5A2D5C2D842D842D6B08023E8600F7
:101ABE008701403FDF00413FE0005F08860060087D
:101ACE0087000108E1006208403E86008701610838
:101ADE0081006B08023E860087010130810741318B
:101AEE000318810A0130DF005F08E2070830620246
:101AFE00031C822D832D5C2D842D4030DF000030A1
:101B0E00E0006B08023E860087015F08C03F600858
:101B1E00C13F893184218D31A82D893152218D31DA
:101B2E00A82DA82DFD3020006F05DF005F08043AB8
:101B3E00031DA22DA32DA82D8C3135248D31A82D5A
:101B4E00A82D08002100ED1799302000D7000E3087
:101B5E00D800D9015908031DB52DB72DC92DC92D92
:101B6E00570886005808870081010130D7070030DA
:101B7E00D83D0130FD007D08D9075908031DC82D39
:101B8E00B72DC92D0030F0000030F1002030F200EA
:101B9E000030F3002030883194208D313D000E1737
:101BAE002000DA0102305A02031CDE2DDF2DE12D5A
:101BBE00F82DF82D5A08603E86000130870081010D
:101BCE005A08623E86000130870081010130FD0017
:101BDE007D08DA0702305A02031CF62DF72DE12D8F
:101BEE00F82D0030F0000030F1000130F20000302E
:101BFE00F3006E30883194208D313D000E13283065
:101C0E00FD007D082000E7002030FD007D08EB0080
:101C1E006B08FD007D08EC004208FD007D08ED001C
:101C2E00ED08031D1B2E1C2E212E1030FD007D08ED
:101C3E00E900362E0130D2000030D3006D30FD00A9
:101C4E007D08D4000130D5000030D6008A310B2239
:101C5E008D312030FD007D082000E900362E080071
:101C6E000830F0007008F200003021006F020830DA
:101C7E0003196E020318442E452E602E6E08F000D6
:101C8E007008F200EA08031D4D2E4E2E532E013021
:101C9E00F0007008EA00602E6A08013A031D582E03
:101CAE00592E602E0230F0007008EA00602E602E71
:101CBE00602E0330EB3E860087017208F000F101C2
:101CCE00F009F109F00A0319F10A403F7007EE001E
:101CDE00413F713DEF007208F0002000670A860058
:101CEE008701700881004830F00070082300B400AE
:101CFE0021006D18832E842EC22EA02EA02E210020
:101D0E006B0884006C0885000008F000230034087E
:101D1E00860087017008810001302100EB0700303A
:101D2E00EC3D0130F00070082300B4070130F202E0
:101D3E00A02EF208031DA42EA52E862EC92EC92E66
:101D4E00C22E21006B0884006C0885000008F0008C
:101D5E0023003408860087017008810001302100BD
:101D6E00EB070030EC3D0130F00070082300B407A3
:101D7E000130F202C22EF208031DC62EC72EA82E67
:101D8E00C92EC92E08003D000E122100ED1BD02ECB
:101D9E00D12E0D2F2300A21FD52ED62EE92E0230C6
:101DAE00F50075082000EA002300AE08031DE02EA2
:101DBE00E12EE52E8A3155228E31E52E2300B20119
:101DCE00B1015C2F0830F50020006C0A86008701F7
:101DDE00750881004030F5000030F6006C08023EB8
:101DEE00860087017508C03F7608C13F8C30F5002C
:101DFE006C0886008701750881008430F50067083D
:101E0E0086008701750881005C2F5C2F2000C01FA3
:101E1E00112F122F2E2F0130F5007508EA00230026
:101E2E00AD08031D1B2F1C2F202F8A3155228E31FA
:101E3E00202F2300B201B1012200E608031D282F36
:101E4E00292F5C2F84318D248E315C2F5C2F023034
:101E5E00F50075082000EA000830F5006C0A8600CF
:101E6E008701750881004030F5000030F6006C08DF
:101E7E00023E860087017508C03F7608C13F843058
:101E8E00F5006C0886008701750881002300B201F9
:101E9E00B1012200E608031D552F562F5C2F843109
:101EAE008D248E315C2F5C2F5C2F080020004008A3
:101EBE001F39013A0319642F652F672FFF2FFF2F4C
:101ECE004408031D6B2F6D2FFF2FFF2F4108063A7D
:101EDE00031D722F732FA72F9A2F9A2F6D08013A79
:101EEE00031D7A2F7B2FA72F79302100EB00853031
:101EFE00EC000930EE000030EF00C030F00070084A
:101F0E00ED00A72FA72F90302100EB008530EC00BD
:101F1E001C30EE000030EF00C030F0007008ED0015
:101F2E00A72FA72FA72F20004308213A0319752F9B
:101F3E00033A03198A2F013A0319A72FA72FA72FA8
:101F4E002000400E890C0339013A0319AF2FB02F30
:101F5E00EA2FFF2FFF2FEA2FFF2FFF2FB630210082
:101F6E00EB000130EC000130EE000030EF00C1302C
:101F7E00F0007008ED00FF2F8030F0007008210097
:101F8E00ED0020004308F00070082300B600FF2F7C
:101F9E00B5302100EB000130EC000130EE000030D6
:101FAE00EF008130F0007008ED00FF2F8030F00060
:101FBE0070082100ED0020004208F0007008230098
:101FCE00B500FF2FFF2F20004108013A0319FF2F04
:101FDE00033A0319B52F013A0319CF2F0A3A031901
:101FEE00FF2F033A0319C32F013A0319DD2FFF2FD9
:021FFE000800D9
:102FD800640080010131890BED2F003488311F20F6
:102FE80097318831B6209731F92F813157219731A0
:082FF800F92FF92F80310F2899
:020000040001F9
:04000E00A2C14FDF5D
:00000001FF
