:020000040000FA
:060000001DEF17F01200D5
:020006001200E6
:060008002BEF08F01200CE
:02000E000000F0
:0400100000000000EC
:0600180001EF08F01200E8
:02001E000200DE
:100020000E000000F802000006000000922E000002
:08003000C30000000B000000FA
:0800380012EC06F0A0940F0188
:100040005F6B626A536BA5EC05F0CFEC05F0016ABB
:10005000080EF36EF46AF350015C000EF45410E2E3
:100060000150040DF3CFE9FFF4CFEAFF000EE926BB
:10007000020EEA22EE6AEE6AEE6AEE6A012AE8D71A
:10008000648C0F015C6B6498649C62A607D06296D6
:100090000201436B486B496B4A6BF7D70201010EB3
:1000A0005A6F5B6F5C6B5D6B506B016A020E015C9B
:1000B0000FE2BCEC05F0EA22EE6AED6AEA6A01346E
:1000C00089EC05F0EA22EE6AED6A72EC05F0EED7F3
:1000D0000201080E3B6F020E3C6F0F01160E536FAC
:1000E0000201200E026F020E036F080E016F840ED4
:1000F000006F0201316B306B9DEF05F012EC06F0E2
:100100000201300507E164BA05D0626A6080608848
:10011000020E306F6250040B05E06050040B02E0E9
:10012000629419DB64B246D06250010B09E0605062
:10013000010B06E081DFA0840201040E306F6290A3
:100140006250100B05E06050100B02E0FADA629882
:1001500062AC0FD060AC05D0DFEC05F0730E5CEC48
:1001600005F0629C0201585101E05807585101E125
:1001700001D96250200B04E06050200B01E0D0DA7E
:100180006250020B0DE06050020B0AE0DFEC05F05C
:10019000E6687F0EE66E20EC0DF046E90F015F6B1E
:1001A000040E0201E76E301902E7E73402D0E7508F
:1001B000305D02E2A1942ED060A62BD0016A040E1D
:1001C000015C27E262A625D063CF51F202015151B2
:1001D000780BE842E842E842526F629651B504D08B
:1001E000525141EC06F003D0525146EC06F0EA229F
:1001F000EF70525102E1BBDA0AD0000EE66EE66AF9
:10020000510EE66E020EE66E720E5CEC05F0012AEF
:10021000D6D7A1949DEF05F04BEC06F000A405D0D5
:10022000E66A01EBE6FFEBD842E900A206D0010E38
:10023000E66E01EBE6FFE3D842E90150036E046A83
:10024000530E03260F0E042231EC06F000EBEFFFF5
:10025000A1EF05F04FEC05F086E942E8035003E01A
:10026000C0EC05F004D0EA6A043489EC05F0EA2217
:10027000EE50066EED50076E0650071004E1000EBA
:10028000F36EF46A29D0CAEC05F05AEC06F001EBE3
:10029000EEFF02EBEDFFCAEC05F0EE5200EBEFFFD4
:1002A0000001400ED86FCAEC05F0D851EF16880E49
:1002B000D86FCAEC05F0D851EF12035003E0C0EC40
:1002C00005F004D0EA6A043489EC05F0EA22EF7400
:1002D00006EBF3FF07EBF4FFA1EF05F04BEC06F0A4
:1002E000015003E120EC06F00CD0FBEC05F000011E
:1002F000F3247CEC05F0FBEC05F0F324010F7CEC1F
:1003000005F0A1EF05F0CBDB82E964A816D0B9DBDC
:10031000400EEE16EE6AEE6AEE6AB3DBEE7CEA6A37
:1003200000340BEC06F0EA22EF740001400ED86FA7
:10033000A8DBD851EF16A5DBEF7C41E9E7CFD9FF69
:100340001200646A6198606A0201306B1200020157
:1003500030510FE1646A606ACFEC05F0D08EA28460
:10036000A084F28E64B602D06486FCD70201010E2E
:10037000306F120002015A5122E1010E5A6F5B5197
:100380001EE1010E5B6F020E405D07E183DBEE5262
:10039000EF6A80DBC80EEF6E1200400510E1536B70
:1003A00091DBEE52080EEF6E8DDB05EC06F08ADB7A
:1003B000840EEF6E010E536F60DB800EEF6E120045
:1003C00002015C6B5D6B020E405D06E154EC06F0D1
:1003D00083DB00EC06F010D044510201265D0201DF
:1003E00045510201275904E226C244F227C245F2D0
:1003F0005BD850DB71DB4EDBC80EEF6E12004BECAE
:1004000006F0000E036E020E046EFBEC05F0F32402
:10041000040DF3500326F450042231EC06F0EF9E55
:10042000005004E1EA6A013474DB01D0A5DBEA2262
:1004300003EBEEFF04EBEDFF31EC06F0EF9C040E56
:100440000324E96E000E0420EA6EEF8C7AD36498E0
:10045000020143BF0DD048AF09D0020E406F5D517D
:1004600001E1AEDF02015B6B5A6B120020EF06F078
:10047000020120AF0DD00201010E406F5C5101E17D
:100480009FDF02015B6B5A6B59510DE1BAEF01F02E
:100490000201020E406FF1DA840EEF6E5B6B5A6B55
:1004A000595101E167DF1200BDDB080E016E020148
:1004B000445D000E45590AE24451016E3F5102E18C
:1004C000010E03D03F0502E1020E3F6F0150F36EB3
:1004D000F46AF350445FF450455BDCDAEE5201EB12
:1004E000EFFF280E4D6F020E4E6F43B10DD001503D
:1004F00017E041C2F6FF42C2F7FF412B000E422334
:100500000800F5500DDBF3D701500AE041C2E9FFC6
:1005100042C2EAFF412B000E4223EF5001DBF4D729
:100520000CD3BDDA81E942E8CDDAEE52EF50016E2C
:1005300001500201495D000E4A5902E24951016E23
:100540000150F36EF46AF350495FF4504A5B026A5B
:100550000150025C14E20250EA6A280FE96E020EB2
:10056000EA22EF50E66E46C2E9FF47C2EAFF462B99
:10057000000E4723E552E750EF6E022AE9D74951B2
:100580000008000E4A550DE28FDBA6DA9BDAEF5029
:10059000400B03E135DBC80E02D032DB880EEF6E74
:1005A0000FD06BDA840EEF6E4B514C1104E04CC24D
:1005B000FAFF4B5114000201489F595101E1DADE64
:1005C000C0D230DB0201438FC0DA200EE66EE66A4D
:1005D000E66A000EE66E020E62DB648C016A020EB1
:1005E000015C02E27FDAFBD7010EE66EE66AE66A9C
:1005F000320EE66E020E53DB649C0201080E3B6F66
:10060000020E3C6F000E336F020E346F33C235F2B0
:10061000366F22C231F2315102E1100E0BD0010EC1
:10062000E66EE66A310EE66E020EE66E010E44DA02
:100630000201200E306F81D2800E0201205D38E170
:100640000201C00E436F02012351030A1AE0010A9E
:1006500009E0030A2BE10201A80E416F2A0E426F46
:10066000120E1ED0BADA510EF6262B0EA0DA020EAA
:100670000201ACDAF5CF44F2030EA8DAF5CF45F269
:100680001200040E225D0FE2A8DA530EF6262B0E9E
:100690008EDA41C2F6FF42C2F7FF0800F5500201B0
:1006A000446F456B12000201436B12000201436B61
:1006B0001200F5D981E942E80201286B296B20512B
:1006C0001F0B020A11E0030A0CE0010A1EE10201FD
:1006D000438F0201288102014F0517E1020128839F
:1006E00014D00201438F11D00201438F020124BFB5
:1006F00002D0ADDA01D0B0DA47DAB8DA06E0E7D9ED
:10070000EF50040B02E0010E286F020143AF07D047
:10071000280E416F020E426F4381020E446F11D2C8
:100720000F0153A10CD0CED9EF50800807E1B2D908
:10073000EF50840803E1C6D98C0EEF6E5391629A94
:1007400012006084629864820201010E506F06DA22
:10075000750E5CEF05F00201506B00DA740EACD937
:100760006492609462A402D06294FCD712005ADAB8
:1007700002012D0E586FFD0E51153AE17E0E5115F6
:10078000E8407F0B040DF3CF33F2F4CF34F2000EC8
:100790003327020E342333C235F234C236F23575B4
:1007A00091D9EF503C0BE842E8420D081FE1016A85
:1007B000080E015C17E286D97DDAEE50EFCFEAFF32
:1007C000E96EEF50E66E0150EA6A200FE96E020E04
:1007D000EA22E552E750EF6E75D96CDAEE2AEF2285
:1007E000012AE6D76FD911DA09D807D022D805D067
:1007F000FD0E5115040801E12BD89FD102013F6B7A
:10080000596B5C6B5D6B536B406B44D9EF9E3B75D2
:1008100041D9EF9E3B75F4D9EF9E436B446B456B1A
:10082000486B496B4A6B4DD899D9030E45D927EFD0
:1008300002F0020E0201405D02E191EF02F0406B16
:10084000535104E11AD98C0EEF6E1200536B120053
:10085000E9D920D9EF50400B01E0010E016E0201F1
:100860003B75080E305D0BE122C25CFF0F015C514D
:1008700003E00201100E02D00201040E306F4005A9
:1008800013E108D929D910DE020E02013F5D03E110
:1008900001D9840E07D0015003E1FCD8C80E02D064
:1008A000F9D8880EEF6E0CD048AF09D04B514C11DF
:1008B00004E04CC2FAFF4B5114000201489F406B08
:1008C0003CD102012051600BE842E842E842E84294
:1008D000E842000901E0120021510C0A44E00B0A31
:1008E0003EE00C0A30E0010A22E00B0A1EE0020A98
:1008F0001CE0030A18E0080A10E0010A0CE00F0AE5
:1009000008E0030A01E012000201438F080E306F75
:1009100012001CEF03F0E1EF02F00201310E416F13
:10092000020E426F0BD059EF03F0B4EF04F02451E4
:100930000201426B320F416F020E42234381010ECE
:10094000446F438F12000201438F02012451EA6A6F
:10095000320FE96E020EEA2222C2EFFF1200FED829
:10096000020E5CEF05F012009AD881E945E8020119
:10097000220510E120511F0B00090CE10201438FF9
:10098000030E0201215D04E10201010E4F6F02D04E
:1009900002014F6B020122516CE120511F0B020832
:1009A00068E124510F0B000964E024510F0B01088A
:1009B00060E3200E0201305D5CE1438F020124BF41
:1009C00004D045D9E1D8D0D803D046D9DDD8D0D885
:1009D000EA22EF50036E08D9010B02E1019401D025
:1009E000018424BF02D033D901D036D9EA2201EBE9
:1009F000EEFF02EBEDFF030E215D10E137D907E0BA
:100A000024BF02D0B1D801D0B3D8EA22EF820001CE
:100A1000840ED86F5CD8D851EF122BD0017426D930
:100A200006E055D8EF9E53D8EF8C00D902D04FD8AE
:100A3000EF8C0174D9D8020B02E118D90BE0020146
:100A400024BF02D091D801D093D8EA22EF9212D9D4
:100A5000EDD801D00FD9020124510F0B046E056AA5
:100A6000530E04260F0E052204EBE9FF05EBEAFF07
:100A7000EF9046E9E7CFD9FF120016D9C6D800EFAC
:100A800006F0EA6A0034C7D8EA22EE50EFCFEAFF58
:100A9000E96E12003BC2E9FF3CC2EAFF1200D9CF67
:100AA000E6FFE1CFD9FF120024510F0BE96EEA6A8D
:100AB000D890E936EA361200E66EE66A20EC0DF0D0
:100AC00046E9120033C2E9FF34C2EAFF120001EB2B
:100AD000E9FF02EBEAFF1200EDD8280EEE6E020EDF
:100AE000ED6E12000150D2D8EA22EF6A0150C9D847
:100AF000EA22EF6A012A1200040D000EF324036EAD
:100B0000020EF420046E840ED86FABD8D851EF12C9
:100B10001200FE0BE96EEA36370EE926020E1200CD
:100B2000E66E4DC2E9FF4EC2EAFF4D2B000E4E238A
:100B3000E552E750EF6E0106120042E9E7CFD9FF18
:100B4000120043E9E7CFD9FF1200010EE66EE66A14
:100B5000E66A540EE66E0F0E4FEF06F0000EE66EDC
:100B6000E66AE66EE66A120024510F0B41EF06F0CA
:100B700024510F0B46EF06F0EA6A01340BEF06F042
:100B8000EA6A04340BEF06F0EA22EE50016EED50F3
:100B9000026E120006EBE9FF07EBEAFF1200160EE9
:100BA000616E0F019F0E5B6F7B0E606E1200F7226D
:100BB0000900F5CF41F20A00F5CF42F21200010E12
:100BC000E66EE66A000EE66EE66A1200F76A4125F6
:100BD000F66E4251F722080012002251F66EF76AB3
:100BE000D890F636F7361200D950030FE96EDACFF7
:100BF000EAFFEF501200040E01020050E824120038
:100C000035C2E9FF36C2EAFF120054D8200EEE6E5C
:100C1000020EED6E1200FE0BE96EEA363B0EE9267F
:100C2000020E12003CDF81E941E81200020EE66E7E
:100C3000E66A01EBE6FF02EBE6FF050E5CEF05F06E
:100C40001CDF8C0EEF6E26DF840EEF6E12002CDFA1
:100C5000370EE926020E120027DF3B0EE926020EB0
:100C6000120003EBE9FF04EBEAFF120030DFEF5064
:100C7000800B120000013B0ED86F29DFD851EF1610
:100C80001200EA6A560FE96E020E1200EA6A540F69
:100C9000E96E020E120003DF83E942E81200E66EFD
:100CA000B9EC16F045E91200ABDFEE52080EEF6E1C
:0E0CB00000EF06F0020EE926000EEA22120006
:020CBE003F0EE7
:100CC000C716C66AC56A800EC76E080EC66E1D0EB0
:100CD000C86E938C9388C68A8A8E030EE66EEDECFE
:100CE00016F041E91200C69A8A9E1200D9CFE6FF9B
:100CF000E1CFD9FF85E941E8056A0598058A059C99
:100D0000058EB1D8100E95D803E000019ED8FEE103
:100D1000A2D8E8B00586AED8C5A003D0FDD7C5B02F
:100D2000FED78FD8C5BCFED79ED8080E82D803E068
:100D300000018BD8FEE176D8C5BCFED701EBD8F018
:100D400071D8C5BCFED700EBE6FFA2D8C5BCFED764
:100D5000C584C5A403D0FDD7C5B4FED742EC17F0B7
:100D6000C580C5B0FED742EC17F06BD8C5AC04D037
:100D7000C584C5B4FED7F2D7C584C5A403D0FDD7BA
:100D8000C5B4FED742EC17F042E9E7CFD9FF120015
:100D9000D9CFE6FFE1CFD9FF84E942E8046A056ACA
:100DA0000598058A059C058E6CD8100E42D803E084
:100DB00000014BD8FEE14FD8E8B005865BD8C5A04E
:100DC00003D0FDD7C5B0FED73CD8C5BCFED759D897
:100DD000080E2FD803E0000138D8FEE123D8C5BCA7
:100DE000FED700EBD8F01ED8C5BCFED7C582C5B271
:100DF000FED742EC17F00528E66E4AD8C5BCFED7F0
:100E00002AEC17F0046E42EC17F0C584C5A403D099
:100E1000FDD7C5B4FED742EC17F0045043E9E7CF45
:100E2000D9FF12000001D96BDA6BD8C0E6FF48EF9A
:100E300007F01F0BDBC0D8F0DCC0D9F0DDC0DAF062
:100E4000120005EBE6FF48EF07F0D890DA33D9330C
:100E5000D833E8061200010E0001D817D96BDA6BFF
:100E6000D8510596120001EBDBF002EBDCF003EB4E
:100E7000DDF0120005920594059042EC17F0C58054
:100E8000120000EBDBF001EBDCF002EBDDF0120016
:0A0E900036EC16F041E942EF17F0CE
:060E9A0042E8D9CFE6FF9B
:100EA000DACFE6FFE1CFD9FFE2CFDAFF86E9036AC6
:100EB0001200F3DF038001D0F0DF00AE03D0006C3E
:100EC00003B0037E01AE02D0016C037EC5EC07F0D7
:100ED00001BE7CEF07F003AE02D0016C026C03B0E0
:100EE00081EB00F003A082EB00F0E552E5CFDAFFE2
:100EF000E7CFD9FF43E9000C03BEEFD7F0DFFF0CCB
:100F000044E8D9CFE6FFDACFE6FFE1CFD9FFE2CF61
:100F1000DAFF8AE980EB04F081EB05F082EB06F062
:100F200002500402F450016EF350006E0350076E3D
:100F30000502F450036EF350026E07500402F350A2
:100F40000126F4500222E86A032206500502F350FB
:100F50000126F4500222E86A0322E552E5CFDAFFC7
:100F6000E7CFD9FF46E9000C42E8D9CFE6FFDACF58
:100F7000E6FFE1CFD9FFE2CFDAFF86E9036A12008C
:100F8000F3DF038003D0F0DF01D00382026A080E92
:100F9000E76ED890013602360050025C02E3026E22
:100FA000012AE72EF7D703B2120003B081EB00F05D
:100FB00003A082EB00F0E552E5CFDAFFE7CFD9FFDF
:040FC00043E91200EF
:0C0FC400FF0EE3500201FF6FEE0E02D0A2
:100FD000F20E0000E76EE72EEBEF07F00C0E0201B9
:100FE000FE6FE76AE72EF2EF07F0FE2FF1EF07F052
:0A0FF0000201FF2FE8EF07F01200E6
:040FFA00BD6A1200BA
:02100000393085
:0E100200D8CFE4FFE0CFE4FFE46E62EC10F024
:1010100000EED8F00A0EE80403E3EECFE4FFFBD7BE
:10102000E652A050020B06E0A150020B03E084EC54
:1010300012F0A192E55200EEE1F00A0EE80403E39B
:10104000E5CFEDFFFBD783EC10F0E550E5CFE0FFF7
:10105000E5CFD8FF100062EC10F000EED8F00A0ED9
:10106000E80403E3EECFE4FFFBD7E6527EEC00F0AA
:10107000F250100B07E0F250020B04E0000166850D
:10108000F298F2929E50010B0EE09D50010B0BE086
:10109000800ECF6ECE6A0001602B3C0E605D02E1D7
:1010A000606B66839E90F050080B11E0F050010BCE
:1010B0000EE0020E0001C95D03E127EC12F006D03C
:1010C000C90504E182B202D0020EC96FF090E55268
:1010D00000EEE1F00A0EE80403E3E5CFEDFFFBD7F5
:1010E00083EC10F01100D9CFE6FFE1CFD9FF81E901
:1010F00041E8B4D8A7EC01F0020EE66EAAEC0DF0C0
:1011000041E90001726F010EE66EAAEC0DF041E9B3
:101110000001716F030EE66EAAEC0DF041E90001CB
:10112000736F03EC0FF0F3CF74F0F4CF75F0010E92
:10113000E66E3BD941E9C6D81FD9000166B772D027
:101140000001C90513E10DEC12F0050EE66EFDEC91
:1011500016F041E9F19AF090F086040EE66EEDEC9F
:1011600016F041E9F090F0961EEC12F0020E00012C
:10117000C95D53E1016A040E015C1DE2670EE66E73
:10118000000EE66E87EC12F042E9000912E0000161
:101190006E510001695D0AE100016F5100016A5D55
:1011A00005E10001705100016B5D03E00201E2897D
:1011B00002D0012AE0D70201E2A92FD00201E29970
:1011C00069C06EF06AC06FF06BC070F0670EE66EBB
:1011D000000EE66EF5EC0DF042E9E2C0D8F0E3C097
:1011E000D9F0E4C0DAF0E8680001D81905E1E86850
:1011F000D91902E1E868DA190CE0010EE66ED5D8DB
:1012000041E9670EE66E000EE66E30EC0FF042E943
:1012100004D0020EE66EC9D841E90001010EC96F83
:10122000030017D0040082B014D00A0EE66E37EC2B
:1012300017F041E982B00DD00001669702013051EC
:1012400002E0A1EC01F0F292F2880001010EC96FF8
:10125000030071D742E9E7CFD9FF1200948C948E36
:10126000939A94969388938C939E686A6D6A6B6A3E
:101270007E6A7F6ABD6AF2EC11F08A9A8B968A9E2A
:101280009480F292F288F18C1CEC00F00001CA6BA1
:10129000CB6BCC6BCD6B0001666B6685606B616B55
:1012A000626B010E636F646F0D0E656F800ECF6E03
:1012B000CE6A0F0ECD6E9F809E909D80D08EF28E56
:1012C000F28C1200000166A302D06693612B3C0EE3
:1012D000615D02E1616B622B180E625D02E1626B7F
:1012E000668166A148D0632B66916451040A3DE093
:1012F000020A3BE00F0A39E0020A37E0090A24E05B
:10130000030A0DE0020A0BE0060A09E0020A07E000
:101310000F0A05E0020A03E0060A01E01200200EAF
:10132000635D29E10001010EC66F0001642B0D0E03
:10133000645D21E1010E646F0001C82B3F0E0001C6
:10134000655D19E1656B12001D0E635D07E1655176
:10135000030B0AE0010E636F642B12001E0E635D27
:101360000AE1010E636F642B12001F0E635D03E13F
:10137000010E636F642B1200000166A50CD00A0EEB
:10138000E66E37EC17F041E982A005D000016695C2
:101390006687A7EC01F0200E0201305D05E1000137
:1013A0006651080B01E032D81200ECEC10F082E933
:1013B00041E80050030A18E0010A08E0030A22E1AC
:1013C0008B868A8A0A0E54EC11F01CD0026A040E35
:1013D000025C18E28B868A8A050E54EC11F0050E29
:1013E000D8EC11F0022AF3D7026A030E025C0AE27B
:1013F0008B868A8A640E54EC11F0320ED8EC11F010
:10140000022AF3D742E9E7CFD9FF1200ECEC10F043
:1014100081E946E8200E0201E76E301902E7E73461
:1014200002D0E750305D01E2D3D26450020B01E0FC
:10143000CFD20001CA51CB1102E1000E08D0CAC0C0
:10144000E9FFCBC0EAFFEF50800B01E0010E00097D
:1014500001E0BED200017A6BBF6BC06B5BEC10F099
:10146000EF500F0801E0B2D27A2B5BEC10F0EFCF17
:101470007BF061EC11F0A5EC11F000017A2B5BEC34
:1014800010F0EFCF7CF0F3CFE6FFF4CFE6FFA5EC52
:1014900011F000017A2B046A7C51045C15E25BECCC
:1014A00010F0EF50E66E0450EA6A7D0FE96E000E10
:1014B000EA2241EC11F061EC11F0A5EC11F0000111
:1014C000BD2B7A2B042AE8D75BEC10F0EF50E66EC8
:1014D000E66AE66A010EE66E80EC07F0E552E5CFBB
:1014E000C2F0E7CFC1F000017A2B5BEC10F0EF50B7
:1014F000F36EF46AF350C127F450C223C151BF19EF
:1015000001E064D2C251C01901E060D2046A400E09
:10151000045C06E2045001EC11F0EF6A042AF7D7EC
:1015200000017B51740A01E1DCD1070A01E14ED2CE
:10153000010A01E14BD2030A01E148D2010A01E1AB
:10154000CCD11F0A01E1A4D1010A01E181D1030A32
:1015500001E160D1010A01E1F5D0070A01E1DED025
:10156000010A01E1CBD0030A01E1B9D0010A01E18E
:101570007BD00F0A58E0010A13E0030A01E026D2EB
:101580002AEC11F0D9C0D8F0D85100017D6F2AECB7
:1015900011F0D85100017E6F020EE66EC90E13D213
:1015A0007D51030A0AE0010A04E0030A0DE17151CA
:1015B00005D07251056E400E03D07351056E100EAA
:1015C000066E010E046E01D0046A040401E05DD1D0
:1015D0000650055C17E2B1EC11F0E8680001D8197B
:1015E0000FE1E868D9190CE1E868DA1909E17DC072
:1015F000E6FFDDEC11F031DB43E9E66ACA0EE3D128
:10160000E66A68D07D51030A0BE0010A06E0030A8E
:1016100001E0DCD1E66AD80ED6D1E66AD90ED3D184
:10162000E66ADA0ED0D1B1EC11F0C6EC11F005E1AA
:10163000E868021802E1E86803184EE000017D51F5
:10164000030A09E0010A05E0030A01E01ED1010EC8
:1016500003D0020E01D0030EE66EAAEC11F054DBAB
:1016600044E9E66ACC0EAFD17DC069F07EC06AF075
:101670007FC06BF0E2EC10F0C6EC11F005E1E86819
:10168000021802E1E868031827E0ACEC10F0DB6B0D
:10169000300E22EC11F003E20001010E18D0ACEC88
:1016A00010F0DB6BF30E22EC11F003E20001020EEE
:1016B0000ED0ACEC10F0DB6B260ED85D010ED959C4
:1016C000000EDA59000EDB5903E20001030E7D6FB4
:1016D000010EE66ECB0E77D1E66ACD0E74D17DC0D9
:1016E00060F07EC061F07FC062F080C063F081C0B6
:1016F00064F082C065F0E66ACE0E65D160C07DF010
:1017000061C07EF062C07FF063C080F064C081F091
:1017100065C082F0060EE66ECF0E55D1786B796B00
:1017200071C07DF072C07EF073C07FF0000175C0A3
:10173000D8F0D96BD8C080F074C081F0050EE66E89
:10174000D00E41D17451785D7551795960E2F29EA5
:10175000F29C78C0D8F079C0D9F0A2EC10F036EC49
:1017600011F05FEC06F044EC10F000017D6F98EC96
:1017700011F000017E6F98EC11F000017F6F98EC82
:1017800011F00001876F98EC11F00001886F98EC60
:1017900011F00001896F98EC11F000018A6FF1ECF3
:1017A00010F00001782B000E79238751E840E840C3
:1017B0003F0B806F030E8715100DF3CF81F0883932
:1017C0000F0B81130F0E8815E824826F8945010BDA
:1017D00082138951E840E8403F0B1F0B836F030ED3
:1017E0008915040DF3CF84F0060E8AC0E7FF070BBE
:1017F00004E0E742E79EE806FCE1E75000018413BD
:101800003F0E8A15856F090EE66ED10EDCD0E66AB2
:10181000D70ED9D0F29EF29CE80E016E030E026E36
:10182000036A5FEC06F0046A070E045C09E2E668EE
:10183000AAEC11F0C2EC11F0EAEC11F0042AF4D792
:10184000F1EC10F00001746B756BE66AD20EBBD040
:101850007D51040A15E0070A0EE0010A07E0030AB9
:1018600014E1010E3CEC11F0D30EADD0020E3CECB5
:1018700011F0D40EA8D0030E3CEC11F0DB0EA3D077
:10188000040E3CEC11F0D50E9ED0E66AE00E9BD023
:101890000001020EC96F0201E299000166A70CD097
:1018A000DDEC11F087EC12F042E9000902E00201E0
:1018B000E2890201E2A9F1D70201E2A987D0E29907
:1018C000010E7DEC11F069C07DF06AC07EF06BC046
:1018D0007FF0030EE66ED60E76D0010E7DEC11F091
:1018E00075D01EEC11F000017D51050A56E0010A89
:1018F00046E0070A36E0010A26E0030A16E0010A7C
:101900005DE1016A026A036A330E18EC11F056E2D7
:10191000BBDBE66E7D0E0124E96E000E0220EA6E4E
:1019200041EC11F0EAEC11F0EFD7330E016E026AD0
:10193000036A630E18EC11F041E29BEC11F0330ED8
:1019400087EC11F0F6D7630E016E026A036A930EFC
:1019500018EC11F033E29BEC11F0630E87EC11F000
:10196000F6D7930E016E026A036AC30E18EC11F0EB
:1019700025E29BEC11F0930E87EC11F0F6D7C30E25
:10198000016E026A036AF60E18EC11F017E29BEC86
:1019900011F0C30E87EC11F0F6D7F60E016E026A55
:1019A000036A260E015C010E0258000E035806E27F
:1019B0009BEC11F0F60E87EC11F0F3D7F1EC10F080
:1019C000300EE66EE10EE66EB0DA42E907EC11F099
:1019D00047E9E7CFD9FF12001200120012001200EF
:1019E000F3EF14F012001E0EE66E010EE66E0CEC24
:1019F00001F042E907EF11F002014F0520E1020179
:101A000050051DE1A094E9DF64920201506B0201D0
:101A1000100EE06F0E0EE16FE007000EE15BE0518B
:101A2000E111FAE16484080EE06F070EE16FE00750
:101A3000000EE15BE051E111FAE16494A084120030
:101A4000CBDB87E904EBF3FF05EBF4FF050EF3189E
:101A500001E1F45036E0E868F31802E17F0EF41873
:101A60002FE0030EF31801E1F45028E0020EF31802
:101A700001E1F45021E0010EF31801E1F4501AE005
:101A8000740EF31801E1F45013E0750EF31801E140
:101A9000F4500CE0730EF31801E1F45005E0720EFF
:101AA000F3180FE1F4500DD099DF0BD095DF09D07A
:101AB00094DF07D098DF05D095DF03D091DF01D008
:101AC0008EDF010E41E9E7CFD9FF120085DB84E903
:101AD000000100EBDBF0DA6B01EBD8F0D851DA1142
:101AE000006EDB51016E0250001A000E011AFF0E4B
:101AF0000014E8380F0B001A000E011A00EBDBF09F
:101B0000DA6BF4DB06E00001D890D837D937E80467
:101B1000FBE10001D851001AD951011AFF0E00143F
:101B2000DA6FDB6BE3DB06E00001D890D837D937FA
:101B3000E804FBE10001D890D837D937D851001A12
:101B4000D951011A00EBF3FF01EBF4FF41E9E7CFB4
:101B5000D9FF120041DB82E948E80050030A0CE09B
:101B6000010A06E0030A0DE1100E056E066A08D0B0
:101B7000400E056E330E03D0100E056EF60E066E87
:101B8000076A5CDB086A096A0550085C000E0958A0
:101B900026E2030EE66EE66A08EBE6FF09EBE6FFD7
:101BA00080EC07F00001FE0EE3500624D86F41E9F7
:101BB000E5500720D96FDA6BD851026ED951036E08
:101BC000DA51046E13DB07E1E7DB05E1E5DB03E156
:101BD00008DB085006D0082A000E0922D5D701DB01
:101BE000055049E9E7CFD9FF1200F6DA83E945E865
:101BF00025DB066A076A86DB0001DA6BDB6B620EA7
:101C000021DB22E27FDB41DBF350036ED951046E0E
:101C1000DA51056E020E40DA13E1E0DB030E3CDA26
:101C20000FE1DCDB040E38DA0BE1DBDA6BDB000101
:101C30002CDBF3CFE2F0D9C0E3F0DAC0E4F009D056
:101C4000062A000E0722D7D7CCDA0001E269E36941
:101C5000E46946E9E7CFD9FF1200BEDA84E946E835
:101C60000050030A15E0010A0AE0030A1AE1100E07
:101C7000046E056A066A076A0001715111D0400EB0
:101C8000046E056A330E066E076A0001725108D0B1
:101C9000100E046E056AF60E066E076A0001735197
:101CA000086E0450085C000E055429E2C7DA030EE2
:101CB000096E09500AE009280124E96E000E02208D
:101CC000EA6EEFCFE6FF5DDAF4D7082A030E096E5D
:101CD000095003E0E66855DAFBD783DA0050030ABF
:101CE0000AE0010A05E0030A08E108EB71F005D0FB
:101CF00008EB72F002D008EB73F0010E01D0FF0E7A
:101D000047E9E7CFD9FF120067DA85E944E80050D8
:101D1000030A0EE0010A07E0030A10E10001715115
:101D2000066E076A0AD000017251066E330E04D0A7
:101D300000017351066EF60E076E086A7FDA06041C
:101D4000030DF35000010724D86F000E0820D96F4F
:101D5000DA6B0150D81905E10250D91902E103509C
:101D6000DA1930E0030E056E05502CE0030E060272
:101D7000ADDA040EDA5F000EDB5B8BDAC8EC06F03E
:101D800043E9E66E05EBDFF00001E06BE16BD95053
:101D9000010FE96EDACFEAFFEE50DF25DC6FEE507F
:101DA000E021DD6FEE50E121DE6FDC07000EDD5B30
:101DB000DE5BDCC0E6FFDDC0E6FFDEC0E6FFE2DAA8
:101DC0000506D2D7056A030E055C08E2E66806043C
:101DD000030D7CDA5EDAD6DA052AF5D702DA0606D2
:101DE0000050030A0AE0010A05E0030A08E106EBD5
:101DF00071F005D006EB72F002D006EB73F045E906
:101E0000E7CFD9FF1200E8D981E945E817DA046A7B
:101E1000056A400E045C1F0E055819E204EBD8F069
:101E200005EBD9F08FD922DA2FD9FF080CE180DA3F
:101E3000FF0809E17DDAFF0806E1D3D904EBF3FFDF
:101E400005EBF4FF09D0042A000E0522E2D7C9D918
:101E5000400EF36E1F0EF46E46E9E7CFD9FF120075
:101E6000BBD983E947E80001400E745D1F0E755928
:101E700056E26051066E040E0602F350066E61399A
:101E80000F0B06126151076E0738F00B076E6241A7
:101E90007F0B07126251086E0832086A08326351DC
:101EA000040DF35008126451E840E8403F0B08125B
:101EB0006451096E0940E842C00B096E6551091270
:101EC000F29EF29C74C0D8F075C0D9F03BD9036E75
:101ED000D951046EDA51056E5FEC06F0020E75DA28
:101EE000030E73DA040E71DA06EBE6FF1EDA07EB77
:101EF000E6FF1BDA08EBE6FF18DA09EBE6FF15DA76
:101F0000E66813DAE66811DAE668C3D873EC06F01F
:101F10000001742B000E7523F28EF28C02D0030E9A
:101F2000ECD948E9E7CFD9FF120056D983E941E857
:101F30000001BF6BC06B0001CC51CD1102E1000E5E
:101F400008D0CCC0E9FFCDC0EAFFEF50800B01E024
:101F5000010E00094EE102010F0EA06F01EBA1F28C
:101F6000B0D9A1C2E6FF27D900EBA2F2F3CFE6FF7A
:101F7000F4CFE6FFA2C2E6FF1ED9036A0050035C5D
:101F800014E20350EA6A7D0FE96E000EEA22EF5078
:101F9000E66E030E032416DA94D9030E032431D916
:101FA000EFCFE6FF08D9032AE9D70001C0C0D8F077
:101FB000D96BD851E66E030E002404DA0001BF513C
:101FC000E66E040E0024FED9050E00241AD9040E74
:101FD000EF6E400EE66EA00EE66E020EE66E010E8D
:101FE000E66EE66E2AEC01F045E9F3CFCCF0F4CFD3
:101FF000CDF042E9E7CFD9FF1200EED882E942E8FE
:102000001DD9000403E0040E005C0CE1300E026EEA
:10201000036A0250031004E0E6680001A4D8F9D76F
:102020000001716B020E005C03E0040E005C0CE129
:10203000F30E026E036A3CD9330E50D903E2E66810
:1020400092D8F9D70001726B030E005C03E0040E16
:10205000005C0DE1260E026E010E036E29D9F60E0C
:102060003DD903E2E6687FD8F9D70001736BB9D890
:1020700043E9E7CFD9FF1200E96EDACFEAFFEE2A93
:10208000000EEE22EE22120065D9C8EC06F043E9FC
:10209000120087D9C2EF11F052D9EFCFD8F0D8C0D3
:1020A000E6FF7FD9C8EC06F043E9E552E7CFD8F068
:1020B0000001D85D12007A51EA6A600FE96E020EE3
:1020C000EA221200DACFE4FFE2CFDAFFE9CFE4FF41
:1020D000EACFE4FFD9CFE4FFDACFE4FFE2C0E4FFC8
:1020E000E3C0E4FFE4C0E4FFE5C0E4FFF6CFE4FFB3
:1020F000F7CFE4FFF5CFE4FFF3CFE4FFF4CFE4FF45
:10210000FACFE4FF1200E5CFFAFFE5CFF4FFE5CF09
:10211000F3FFE5CFF5FFE5CFF7FFE5CFF6FFE5CF1E
:10212000E5F0E5CFE4F0E5CFE3F0E5CFE2F0E5CF91
:10213000DAFFE5CFD9FFE5CFEAFFE5CFE9FFE5CF4D
:10214000DAFF12000001070E14D9E80ED827030E9B
:10215000D923DA6BD851120001EBD8F002EBD9F099
:1021600003EBDAF012000204D86F000E0358D96FA7
:10217000D8C0E6FFE66EE66A05D90206000E035AED
:102180001200030E0802F35000010624DA6F000E5D
:102190000720DB6F0950DA25D86F000EDB21D96FDD
:1021A000D807000ED95BD8C0E6FFD9C0E6FFE66AC3
:1021B000E9D8090612008ADC43E9F3CFBFF0F4CF77
:1021C000C0F01200FAD811DD42E9E2C0D8F0E3C055
:1021D000D9F0E4C0DAF01200D9CFE6FFE1CFD9FFA1
:1021E000120073EC06F0F28EF28C120002EBE6FFA6
:1021F00003EBE6FF04EBE6FFC8EC06F043E9FF085B
:102200001200EA6AA00FE96E020EEA221200400EE6
:10221000E66E600EE66E020EE66EE66A010EE66E91
:102220002AEC01F045E9F3CFCAF0F4CFCBF012006D
:10223000015C000E0258000E03581200F29EF29C40
:102240005FEF06F0D85D000ED959000EDA59000E86
:10225000DB591200000EF66E100EF76E0900F5CF76
:10226000D8F00800F5CFD9F000011200016ED95165
:10227000026EDA51036E1200E66EBFDE41E9E66AD5
:102280001200E552E750EF6E1200030E72D8DA6BBF
:1022900012000550DA25D86F000EDB21D96FD8C0A7
:1022A000E6FFE66EE66A120083D88B968A9A1200E1
:1022B00002EBD8F003EBD9F00001DA6BDB6BD880CE
:1022C0001200BFC0E6FFC0C0E6FF1200F3500001DD
:1022D0000724DA6F000E0820DB6F1200D855000EBD
:1022E000D955000EDA55000EDB551200040EDAC087
:1022F000D8F0DBC0D9F0000A1200E66ED5EC09F088
:1023000041E9120006EBD8F007EBD9F0120000010A
:10231000D85F000ED95BDA5B7D0ED825E96E000E22
:10232000D921EA6EAEDFEAEF11F0B3DEEEEF11F085
:1023300051D844EF10F0A8DEE66EACEF10F00024A8
:10234000E96E000E0120EA6E1200B5DEEFCFE6FF67
:10235000DBEF10F001EBE6FF02EBE6FF03EBE6FF3D
:1023600012007EC069F07FC06AF080C06BF0E2EFBF
:1023700010F0D903F3CFD9F0D803F3CFD8F0F4504D
:10238000D927120076EC06F044E912000001D8517A
:102390006DDFE86801181200D950020F6DDEF6EF0C
:1023A00010F003EBE6FF04EBE6FF05EBE6FF12009F
:1023B000E66EE2EC07F041E91200670EE66E000EF1
:1023C000E66E12001EDF41EF11F0B9DFEFCFE6FF3E
:1023D00095EF11F0D950010F3CEF10F0D950030FD9
:0423E0003CEF10F0CE
:0C23E4000201E281E283E285E297949816
:1023F000949A94828B8A8B98F18AF08CF090F09664
:10240000A80ED56ED66AD76AF194F294F29A010EAC
:10241000B16EA292A192A09212008B8A8B88E00EDC
:10242000BB6E0F0EBC6EA8D8010EE66EFDEC16F06A
:1024300041E9B36AB26AA192A08212008B98FDECC6
:1024400007F08B8ABB6ABC6AA192A092120074DA70
:1024500081E946E8036A046AD650066ED750056ED5
:102460000550E66EE66AE66A010EE66E80EC07F05D
:10247000E552E550046EE750036E06500326000E49
:1024800004220201E2A503D0F19AE29502D0F18A7A
:10249000E285FA0EE96E020EEA6E0001EE50035C70
:1024A000D86FED500458D96FD851016E03EBFAF292
:1024B00004EBFBF20150360803E20201E271E28311
:1024C0000201E2A31BD0E251010B026E02EBE6FF18
:1024D0000201FC510001D96BE40FD86F020ED92321
:1024E000D8C0E6FFD9C0E6FFE0D843E90201F82BE7
:1024F000FD2B080EFD5D02E1FD6BFC2B0201E2737A
:1025000047E9E7CFD9FF12000201F92B120014DAD4
:1025100083E942E882DF010EE66EA00EE66E50D837
:1025200042E98CDF036A046A020E035C000E045861
:102530001AE207DA01E1D95111E017D90009F9E0EF
:102540003BDA26D942E90009F4E036DA94D942E9C7
:10255000AA0EE66E53D841E9010E0AD069D8032AC3
:10256000000E0422E1D7AA0EE66E48D841E9000E1B
:1025700043E9E7CFD9FF1200040EE66ED3EC16F064
:1025800041E9FC0EE66E3F0EE66EFDEC15F042E909
:10259000300EE66EE66A6FEC16F042E9170EE66E54
:1025A00095EC16F041E91200C7D982E9005004E029
:1025B000F18A0201E28503D0F19A0201E29501D28B
:1025C000BBD983E900EBE6FFEFDF41E90201E283DB
:1025D000E2910201FC6BFD6BF86BF96BFA6BFB6B24
:1025E000F090F0860150F85D03E2050EF95DFAE324
:1025F000F090F096FC6BFD6BF851E3D19DD982E928
:1026000041E8026A02EBD8F00001D96BD8BFD96962
:10261000140ED85D000ED9590AE202EBE9FFEA6A0E
:10262000E9BEEA68D2D900EBEFFF022AEBD7D2D19C
:1026300083D981E941E8140E016E013414E201509E
:10264000000811E20104E96EEA6AE9BEEA68BDD950
:10265000EF1CE66E0104E96EEA6AE9BEEA68B5D9E4
:10266000A7D90106EAD7B6D16CD901E1D9511AE050
:102670000201FC51EA6AE40FE96E020EEA22EF5011
:10268000FDC2E7FFE75204E0E8427F0BE706FCE10A
:10269000010B0201E36F0201FD2B080EFD5D02E15B
:1026A000FC2BFD6B0201E351120046D984E901EBDA
:1026B000E9FF02EBEAFFEF90EF42005005E001EB8B
:1026C000E9FF02EBEAFFEF8E7CD136D985E942E8DB
:1026D00081EB06F0063433E20650010830E2020EC8
:1026E000065C0001D86FD96B800B01E0D9693ED937
:1026F000EF50010B056E72D901E0DB693ED9EF4066
:102700007F0B50D901E0D96931D952D905500AE07F
:1027100065D901E0DB6931D9EF50800943D90BE07D
:10272000D96909D05BD901E0DB6927D9EF507F0B6C
:1027300039D901E0D9691AD93BD90606CBD724D9B2
:10274000EF407F0BE66E20D933D9005004E01CD94E
:10275000EF50800903D018D9EF507F0BE66E14D9E3
:1027600027D943E9E7CFD9FF1200E6D881E941E84C
:10277000016AE7D801E1D95109E076DF0108F8E103
:10278000012A090E015CF5E1010E01D0000E22D1F3
:10279000D3D883E947E8036A010E046E056A066A26
:1027A000076A086A096A046E043402E204503208B7
:1027B00032E35ADF036EC5D802E1D95155E0E9D8BA
:1027C000000905E10350055C4FE1056A22D003EBE7
:1027D000E6FF050EE66EF0D878DF44E905500318F1
:1027E000056ED7D8040A12E0070A0CE0010A06E0D9
:1027F000030A0FE106500318066E0BD007500318AA
:10280000076E07D008500318086E03D0095003184C
:10281000096E042AC9D728DF065C26E125DF075C9C
:1028200023E122DF085C20E11FDF095C1DE11CDFE2
:1028300000091AE1046AD890045002E6050E045C0F
:1028400010E204EBD8F00001D96BD8BFD969D85198
:102850000024E96ED9510120EA6EEF5002E1042A0A
:10286000EAD7050E045C02E1000E01D0010E48E932
:10287000E7CFD9FF120060D883E948E8066A076A03
:10288000086A096A0A6A056A050E055C36E2070EDF
:10289000046E036A080E035C2EE203EBD8F00550C9
:1028A0000024E96E000E0120EA6EEF50D8C0E7FF69
:1028B000E75204E0E8427F0BE706FCE1010B0CE085
:1028C000010E04EBF3FF045204E0D890E836F3065F
:1028D000FCE13FD8EF120CD0010E04EBF3FF0452E1
:1028E00004E0D890E836F306FCE1E81C32D8EF1695
:1028F0000406032ACFD7052AC7D7036A050E035C4F
:1029000017E20001D950060FD86F0350EA6AD825A4
:10291000E96EDA50EA22EF50E66E040ED8800354D6
:102920000024E96E000E0120EA6E42D8032AE6D7A1
:1029300049E9E7CFD9FF1200D9CFE6FFE1CFD9FFB0
:1029400012000201FC510001D86FD96B140ED81986
:1029500012000001DA6FD950060FD86F0550EA6AED
:10296000D825E96EDA50EA22DA511200D851022451
:10297000E96ED9510320EA6E1200DA510224E96EA1
:10298000DB510320EA6E120002EBE9FF03EBEAFFE2
:102990001200050EE66E04EBE6FF5CEC07F041E981
:1029A000E7501200E66E0604D86FD96B800B120058
:1029B000E552E750EF6E120000EBE6FF01EBE6FF99
:1029C000120041E9E7CFD9FF1200E40EE926020E1A
:1029D000EA22120042E9E7CFD9FF12000604DA6FBB
:0629E000DB6B800B12000E
:0A29E600020120511F0B010801E05F
:1029F0001200245101E01200060E215D1BE123515B
:102A0000230A18E0010A0CE0030A14E1020131056F
:102A100011E10201CC0E416F2A0E426F090E06D061
:102A20000201350E416F2B0E426F1C0E446F456B39
:102A3000C00E436F02012051600BE842E842E842B9
:102A4000E842E842010801E0120021510B0A26E0A9
:102A5000080A19E0090A11E0080A05E00B0A23E058
:102A6000080A21E0120002015E0E416F020E426F61
:102A7000010E446F456BC10E0FD00201800E436FF3
:102A800023C25EF2120002015F0E416F020E426F1E
:102A9000010E446F456B810E436F12000201800EE0
:082AA000436F22C25FF2120035
:082AA800120100020000000809
:102AB000D8043F00020001020301090229000101BC
:102AC00000C03209040000020300000009211101C6
:102AD0000001221C000705810340000107050103D6
:102AE000400001040309042A0349006E006E006FD0
:102AF00000200054006500630068006E006F006CE9
:102B0000006F0067007900200049006E0063002E0E
:102B100000120341005400200047005500410052BC
:102B2000004400120330003000300030003000302C
:102B300000300032000600FF0901A10119012940FF
:102B40001501254075089540810019012940910023
:0B2B5000C0BA2AE32AE72A112B232B2E
:042B5C001E0EF66EE5
:102B6000000EF76E000EF86E00010900F550D36FED
:102B70000900F550D46F03E1D36701D03DD00900BF
:102B8000F550CE6F0900F550CF6F0900F550D06FAA
:102B900009000900F550E96E0900F550EA6E0900D8
:102BA00009000900F550D16F0900F550D26F0900F6
:102BB0000900F6CFD5F0F7CFD6F0F8CFD7F0CEC0DA
:102BC000F6FFCFC0F7FFD0C0F8FF0001D15302E1FC
:102BD000D25307E00900F550EE6ED107F8E2D207B4
:102BE000F9D7D5C0F6FFD6C0F7FFD7C0F8FF000170
:0A2BF000D307000ED45BBFD712001C
:062BFA00D9CFE6FFDACF9F
:102C0000E6FFE1CFD9FFE2CFDAFF84E943E8F8CF6E
:102C100005F0F6CF06F03F0E0112FC0E0012C00EBA
:102C2000BD100114BD6E0F0EBD100014BD6E3F0E21
:102C3000015C02E1949A10D0BF0E015C03E1949A0A
:102C400094980AD07F0E015C03E0FF0E015C04E162
:102C5000949A94989496949405C0F8FF06C0F6FF51
:0C2C600044E9E5CFDAFFE7CFD9FF12000E
:042C6C00D9CFE6FFD7
:102C7000DACFE6FFE1CFD9FFE2CFDAFF83E900EB5D
:102C8000C9FFC6AE02D0FF0E24D00F0EC61408082E
:102C90000FE00F0EC6140B080BE0C6889EA6FED7E9
:102CA000C750040B03E1C750010B10E0000E11D018
:102CB0000F0EC614080804E00F0EC6140B0809E135
:102CC000C7B0FED742EC17F0C5AC02D0FE0E01D063
:0E2CD000000E41E9E5CFDAFFE7CFD9FF120091
:022CDE00D9CF4C
:102CE000E6FFDACFE6FFE1CFD9FFE2CFDAFF84E9F2
:102CF00042E880EB04F081EB05F0060ED890043634
:102D00000536E804FBE105EBBEFF0440E8423F0B5B
:102D1000300B0001D86FCF0EBD14D811BD6E43E942
:0A2D2000E5CFDAFFE7CFD9FF12007C
:062D2A00D9CFE6FFDACF6D
:102D3000E6FFE1CFD9FFE2CFDAFF83E90C0EBD1247
:102D4000CA9400EBCBFFCA8441E9E5CFDAFFE7CFB5
:102D5000D9FF1200B9B0949AB9A202D094987F908A
:102D6000B9A402D094967F94B9A602D094947F9689
:022D700012004F
:0E2D7200FE0EE3CFE9FFFF0EE3CFEAFFE9CF4D
:102D8000F3FFEACFF4FFFB0EE35003E1FC0EE35048
:102D900009E0FB0EE30602E2FC0EE306FD0EE35043
:062DA000EE6EF1D71200F7
:0A2DA600D9CFE6FFDACFE6FFE1CF58
:102DB000D9FFE2CFDAFF83E9FB0E0014CA6ECC6ABA
:102DC0009E9200AE02D09D8201D09D92CA8441E9BC
:0A2DD000E5CFDAFFE7CFD9FF1200CC
:062DDA00FF0EE3500201B0
:102DE000FF6F480E01D04C0EE76EE72EFED7E76A64
:0A2DF000E72EFED7FF2FF7D71200E1
:062DFA00FF0EE350020190
:102E0000FF6F1A0E00D000D001D0200EE76EE72E23
:0A2E1000FED7FF2FFAD700D0120002
:062E1A00000EF36E00EE55
:102E200000F0030E01D81200EA6002D0EE6AFCD76F
:0A2E3000F350E9601200EE6AFCD7CF
:062E3A0011EE00F021EE94
:102E400000F0F86AAEEC15F003EC00F073EC08F05B
:042E5000FBD712009A
:0C2E54000F0EC614080804E00F0EC61490
:0E2E60000B0801E1C586C7A0FED7C9501200BD
:022E6E00FF0E55
:102E7000E350E84E1200000000D000D000D0E82E51
:042E8000FAD712006B
:0C2E84001F0EC514FDE1C750040BFAE15D
:022E900012002E
:0B2E9200001410000000010000000010
:020000040030CA
:0100000018E7
:0100010032CC
:0100020001FC
:010003001FDD
:0100050000FA
:01000600C138
:0100080003F4
:01000900C036
:01000A0003F2
:01000B00E014
:01000C0003F0
:01000D0040B2
:00000001FF
