:020000040000FA
:0600000053EF04F01200B2
:020006001200E6
:060008005CEF08F012009D
:0600180001EF08F01200E8
:02001E000100DF
:0C002000F0080000EB0000000D000000E4
:04002C007BD981E912
:1000300041E8016A85D9020E71D9016EBF0E011423
:10004000E66E020E56D989D9600EE66E000EE66E97
:10005000EED842E9000163510DE0635107080AE35D
:10006000645108E064511F0805E3655103E06551E0
:100070000C0818E272D9150EE66E060E3AD9010E7A
:10008000E66E050E36D9010EE66E040E32D9E66A2A
:10009000020E2FD9E66A010E2CD9800EE66EE66AB2
:1000A00006D842E9B8EC1EF0F28EF28C45D13AD96E
:1000B00083E9F29EF29CF6EC1FF0C580C5A003D048
:1000C000FDD7C5B0FED757D9C5BCFED701EBE6FFBB
:1000D00019D9C5BCFED700EBE6FF14D9C5BCFED7C5
:1000E000C584C5A403D0FDD7C5B4FED7F6EC1FF078
:1000F000C580C5B0FED7F6EC1FF03DD9C5AC04D025
:10010000C584C5B4FED7F2D7C584C5A403D0FDD736
:10011000C5B4FED7F6EC1FF0F28EF28C15D102D9E1
:1001200082E941E8F29EF29CF6EC1FF0C580C5A082
:1001300003D0FDD7C5B0FED71ED9C5BCFED700EB96
:10014000E6FFE0D8C5BCFED7C582C5B2FED7F6EC47
:100150001FF0DF0EE66ED6D8C5BCFED760EC04F00B
:10016000026EF6EC1FF0C584C5A403D0FDD7C5B45C
:10017000FED7F6EC1FF0F28EF28C0250DDD0D2D812
:1001800083E941E8DDD8E4D8040ED1D84BE0E0D8CB
:10019000040ECDD81F0846E3DBD8030EC8D842E0D2
:1001A000D7D8030EC4D807083DE3D2D8050EBFD870
:1001B00039E0CED8050EBBD80C0834E3C9D8030EFD
:1001C0009CD8036E070E0316038603EBE6FF030EAF
:1001D000D9D8CCD8036E800E0310036E03EBE6FF74
:1001E000E66A65DF42E9B4D8EE52C0D8E66E010E89
:1001F000C9D8020E82D8036E3F0E0314036E03EBC0
:10020000E6FF020EBFD8040E78D8E66E040EBAD808
:10021000050E73D8E66E050EB5D8060E6ED8E66EDE
:10022000060E67D8F28EF28CB8EC1EF085D07AD824
:1002300083E986D8E66A73DF41E97F0B54D8E5523B
:10024000E750EF6E010E9BD8EE52E552E750EF6E8D
:10025000020E64D83F0B47D8020E59D8030E5ED861
:10026000070B41D8030E53D8040E89D8040E4FD87B
:10027000050E54D81F0B37D8050E49D8060E7FD867
:10028000060E45D8F28EF28CB8EC1EF05DD04AD83E
:1002900082E900380F0B0A0D0F0E0014F324006ED4
:1002A000005052D03FD882E941E8026A0050090864
:1002B00016E20A0EE66E00EBE6FFD1EC01F041E932
:1002C000E750100DF350026E0A0EE66E00EBE6FFEB
:1002D000D4EC01F041E9E7500210026E02D080EB4D
:1002E00002F0025029D0E66ED2DF41E9E66EA8EFB7
:1002F00001F0E66EDCDE42E91200E926000EEA2299
:10030000B6EF01F0B5EC03F041E9F6EF1FF0E92696
:10031000000EEA22E552E750EF6E1200E66EFFDEB5
:1003200041E91200D9CFE6FFE1CFD9FF1200E9265B
:10033000000EEA22EF50120042E9E7CFD9FF120087
:10034000F29EF29C97EF1EF041E9E7CFD9FF120031
:1003500000EBE9FF01EBEAFF1200030EDFDF016EA5
:10036000080E0110E66E030E79EF01F0EFCFE6FF05
:1003700099DF41E91200DE0EE66E82EF01F0CEDF7A
:0A03800073EF01F0B6DFA8EF01F003
:06038A0042E8D9CFE6FFB6
:10039000DACFE6FFE1CFD9FFE2CFDAFF86E9036AE1
:1003A0001200F3DF038003D0F0DF01D00382026A82
:1003B000080EE76ED890013602360050025C02E368
:1003C000026E012AE72EF7D703B2120003B081EBC9
:1003D00000F003A082EB00F0E552E5CFDAFFE7CFB3
:1003E000D9FF43E9120042E8D9CFE6FFDACFE6FFB2
:1003F000E1CFD9FFE2CFDAFF86E9036A1200F3DF2B
:10040000038001D0F0DF00AE03D0006C03B0037EA8
:1004100001AE02D0016C037ED6EC01F001BE22EFEA
:1004200002F003AE02D0016C026C03B081EB00F06D
:1004300003A082EB00F0E552E5CFDAFFE7CFD9FF6A
:1004400043E9000C03BEEFD7F0DFFF0C44E8D9CF3F
:10045000E6FFDACFE6FFE1CFD9FFE2CFDAFF8AE9A4
:1004600080EB04F081EB05F082EB06F00250040211
:10047000F450016EF350006E0350076E0502F45005
:10048000036EF350026E07500402F3500126F4503D
:100490000222E86A032206500502F3500126F450B6
:1004A0000222E86A0322E552E5CFDAFFE7CFD9FF5F
:1004B00046E9000C44E8D9CFE6FFDACFE6FFE1CF0A
:1004C000D9FFE2CFDAFF8EE980EB08F081EB09F08B
:1004D00082EB0AF083EB0BF004500802F350006E3D
:1004E000F450016E04500902F3500126000EF4206E
:1004F000026E04500A02F3500226000EF420036E2E
:1005000004500B02F350032605500802F350012655
:10051000F4500222000E032205500902F350022675
:10052000F450032205500A02F35003260650080235
:10053000F3500226F450032206500902F35003261A
:1005400007500802F3500326E552E5CFDAFFE7CF64
:06055000D9FF48E9000C90
:0A055600020120511F0B010801E013
:100560001200245101E01200060E215D1BE123510F
:10057000230A18E0010A0CE0030A14E10201310524
:1005800011E102013C0E416F060E426F090E06D0CA
:100590000201A50E416F060E426F1C0E446F456BA3
:1005A000C00E436F02012051600BE842E842E8426E
:1005B000E842E842010801E0120021510B0A26E05E
:1005C000080A19E0090A11E0080A05E00B0A23E00D
:1005D000080A21E012000201FC0E416F000E426F7A
:1005E000010E446F456BC10E0FD00201800E436FA8
:1005F00023C2FCF012000201FD0E416F000E426F9B
:10060000010E446F456B810E436F12000201800E94
:08061000436F22C2FDF012004D
:080618001201000200000008BD
:10062000D8043F0002000102030109022900010170
:1006300000C032090400000203000000092111017A
:100640000001221C0007058103400001070501038A
:10065000400001040309042A0349006E006E006F84
:1006600000200054006500630068006E006F006C9D
:10067000006F0067007900200049006E0063002EC3
:100680000012034100540020004700550041005271
:1006900000440012033000360038003000390033C7
:1006A00000320032000600FF0901A10119012940B2
:1006B00015012540750895408100190129409100D8
:0B06C000C02A06530657068106930669
:0406CC001E0EF66E9A
:1006D000000EF76E000EF86E02010900F550E76F8C
:1006E0000900F550E86F03E1E76701D03DD009004C
:1006F000F550E26F0900F550E36F0900F550E46F23
:1007000009000900F550E96E0900F550EA6E09008C
:1007100009000900F550E56F0900F550E66F090082
:100720000900F6CFE9F2F7CFEAF2F8CFEBF2E2C236
:10073000F6FFE3C2F7FFE4C2F8FF0201E55302E16E
:10074000E65307E00900F550EE6EE507F8E2E6072C
:10075000F9D7E9C2F6FFEAC2F7FFEBC2F8FF0201E0
:0A076000E707000EE85BBFD71200A8
:06076A00D9CFE6FFDACF53
:10077000E6FFE1CFD9FFE2CFDAFF83E900EBC9FF63
:10078000C6AE02D0FF0E24D00F0EC61408080FE02C
:100790000F0EC6140B080BE0C6889EA6FED7C750E6
:1007A000040B03E1C750010B10E0000E11D00F0E37
:1007B000C614080804E00F0EC6140B0809E1C7B000
:1007C000FED7F6EC1FF0C5AC02D0FE0E01D0000E35
:0C07D00041E9E5CFDAFFE7CFD9FF1200C6
:0407DC00FF0EE350D9
:1007E0000001FF6FEE0E02D0F20E0000E76EE72E62
:1007F000F7EF03F00C0E0001FE6FE76AE72EFEEF45
:1008000003F0FE2FFDEF03F00001FF2FF4EF03F0E4
:020810001200D4
:0E081200FE0EE3CFE9FFFF0EE3CFEAFFE9CFD2
:10082000F3FFEACFF4FFFB0EE35003E1FC0EE350CD
:1008300009E0FB0EE30602E2FC0EE306FD0EE350C8
:06084000EE6EF1D712007C
:0A084600FF0EE3500001FF6F480EA3
:1008500001D04C0EE76EE72EFED7E76AE72EFED7F3
:06086000FF2FF7D7120084
:0A086600FF0EE3500001FF6F1A0EB1
:1008700000D000D001D0200EE76EE72EFED7FF2F6C
:06088000FAD700D01200BF
:0A088600000EF36E00EE00F0030E0A
:1008900001D81200EA6002D0EE6AFCD7F350E9609A
:0608A0001200EE6AFCD715
:0A08A60011EE00F021EE00F0F86AF8
:1008B00066EC03F003EC00F0B5EC08F0FBD7120097
:1008C0000F0EC614080804E00F0EC6140B0801E151
:0A08D000C586C7A0FED7C95012006C
:0608DA00FF0EE350E84EA2
:1008E0001200000000D000D000D0E82EFAD712008D
:0D08F00000000000000000000000000000FB
:02100000393085
:0E100200D8CFE4FFE0CFE4FFE46EDACFE4FFE6
:10101000E9CFE4FFEACFE4FFE652A050020B10E074
:10102000A150020B0DE00001EC2BA19200017EA368
:1010300007D0892B2D0E895D03E17E937E81896B1C
:10104000F050080B30E0F050010B2DE0020E0001D3
:10105000E75D25E1D6CFEAF0D66AF17A7EA704D023
:10106000EA51460806E203D0EA51410802E26771FC
:10107000678367A312D044EC18F0EF90EF420001B1
:1010800067A103D044EC18F0EF8E0001EB2BF02B9E
:10109000080EF05D02E1F06BEF2B00016773E705CE
:1010A00082CFE9F0F090E552F2EC17F0E550E5CF91
:1010B000E0FFE5CFD8FF1000DACFE4FFE2CFDAFFA0
:1010C000E9CFE4FFEACFE4FFD9CFE4FFDACFE4FFD2
:1010D000F8C0E4FFF9C0E4FFFAC0E4FFFBC0E4FF9E
:1010E000F6CFE4FFF7CFE4FFF5CFE4FFF3CFE4FF63
:1010F000F4CFE4FFFACFE4FF02EEECF00A0EE804CE
:1011000003E3EECFE4FFFBD7E652B5EC18F0F25064
:10111000100B07E0F250020B04E000017E85F2980C
:10112000F292E55202EEF5F00A0EE80403E3E5CF91
:10113000EDFFFBD7E5CFFAFFE5CFF4FFE5CFF3FFF7
:10114000E5CFF5FFE5CFF7FFE5CFF6FFE5CFFBF005
:10115000E5CFFAF0E5CFF9F0E5CFF8F0E5CFDAFF2B
:10116000E5CFD9FFF2EC17F01100D9CFE6FFE1CFC0
:10117000D9FF81E941E8D3D802D900017EB7AED0CA
:101180000001F12B370E0001F15D04E10001F16B6C
:1011900082EC13F000017EAB22D00001F16B000164
:1011A000E96B040E0001E95D11E28B868A8A040E68
:1011B000E66EEEEC03F041E98B968A9A040EE66E39
:1011C000EEEC03F041E90001E92BEBD70001F22B33
:1011D000000196510001F25D02E100017E9B0001D9
:1011E000E7051AE148EC14F0030E0001E85D06E1A2
:1011F000040EE66E33EC04F041E909D00C0E000158
:10120000E85D05E10C0EE66E33EC04F041E9000107
:10121000E70502E172EC14F0020E0001E75D59E10E
:101220007F0EE66E000EE66E7FEC14F042E90009D8
:1012300002E000016789000167A946D000016799B3
:101240007F0EE66E000EE66E32EC0EF042E9F8C05C
:10125000ECF2F9C0EDF2FAC0EEF2E8680201EC1926
:1012600005E1E868ED1902E1E868EE1929E00001FE
:101270007EA921D0010EE66EA0D841E90001865179
:101280000001815D0AE1000187510001825D05E1F5
:10129000000188510001835D0DE07F0EE66E000EB7
:1012A000E66E17EC12F042E981C086F082C087F04A
:1012B00083C088F004D0020EE66E7FD841E904D0E6
:1012C000020EE66E7AD841E9030EE66EBFEC1FF01F
:1012D00041E90001010EE76F03001CD0040082B059
:1012E00019D00A0EE66E6DEC04F041E982B012D01E
:1012F00000017E970201305102E0D8EC19F0F29221
:10130000F288030EE66EBFEC1FF041E90001010E0A
:10131000E76F030031D742E9E7CFD9FF1200F29E11
:10132000F29C686A6D6A6B6A7E6A7F6ABD6A949C89
:10133000949E829C829E939E8A9E939A8A9A949669
:101340008B96948093988A98939C8A9CB9EC1FF012
:101350003FEC14F053EC18F00001F46BF56BF66BF6
:10136000F76BF292F288F18C00017E6B676B010ED5
:10137000E76F0001F16BD08EF28EF28C120000014B
:101380007EA511D00A0EE66E6DEC04F041E982A054
:101390000AD00C0EE66EBFEC1FF041E900017E950D
:1013A0007E87DFEC19F0200E0201305D05E10001BF
:1013B0007E51080B01E064D81200E7EC16F082E9D8
:1013C00041E80050030A4AE0010A16E0030A56E128
:1013D0008B868A8A16EC18F002E1030E08D00C0EF8
:1013E000E85D02E10C0E03D0E80503E1010E00EC1C
:1013F00018F08B968A9A42D0026A060E025C3EE290
:101400008B868A8A16EC18F002E1010E04D00C0ECD
:10141000E85D05E1040EE66EEEEC03F006D0E805AB
:1014200005E1040EE66E23EC04F041E98B968A9AFE
:1014300016EC18F002E1020E04D00C0EE85D05E196
:10144000050EE66EEEEC03F006D0E80505E1040EAD
:10145000E66E23EC04F041E9022ACFD7026A030EBC
:10146000025C0CE28B868A8A640E00EC18F08B9684
:101470008A9A320E00EC18F0022AF1D7C0EF17F06A
:10148000E7EC16F081E948E8200E0201E76E30191A
:1014900002E7E73402D0E750305D01E287D26450C2
:1014A000020B01E083D20001F451F51102E1000EBC
:1014B00008D0F4C0E9FFF5C0EAFFEF50800B01E06F
:1014C000010E000901E072D20001996BDE6BDF6B47
:1014D000E0EC16F0EF500F0801E066D2992BE0EC3B
:1014E00016F0EFCF9AF0E8EC17F01AEC18F00001C4
:1014F000992BE0EC16F0EFCF9BF0F3CFE6FFF4CFA3
:10150000E6FF1AEC18F00001992B046A9B51045C69
:1015100015E2E0EC16F0EF50E66E0450EA6A9C0F1C
:10152000E96E000EEA229CEC17F0E8EC17F01AECDA
:1015300018F00001DC2B992B042AE8D7E0EC16F018
:10154000EF50E66EE66AE66A010EE66E26EC02F001
:10155000E552E5CFE1F0E7CFE0F00001992BE0ECB8
:1015600016F0EF50F36EF46AF350E027F450E123E5
:10157000E051DE1901E018D2E151DF1901E014D287
:10158000400E046E045006E004043CEC17F0EF6AD1
:101590000406F8D700019A51760A01E1EED1030A58
:1015A00001E196D1010A01E188D1180A01E117D1C0
:1015B000070A01E1F4D0010A01E1DDD0030A01E1EB
:1015C000C2D0010A01E186D00F0A62E0010A13E0ED
:1015D000030A01E0E9D184EC17F0EDC2ECF2EC5122
:1015E00000019C6F84EC17F0EC5100019D6F020E1E
:1015F000E66EC90ED5D19C51030A0CE0010A06E043
:10160000030A12E18A51056E8B5107D08C51056E89
:101610008D5103D08E51056E8F51066E076A040EF0
:10162000086E010E046E01D0046A040401E0AAD120
:101630000750055C085006581AE22FEC18F0E868CD
:101640000201EC1912E1E868ED190FE1E868EE1902
:101650000CE19CC0E6FF7F0EE66E000EE66E64ECC9
:1016600010F043E9E66ACA0E9BD1E66A67D09C5146
:10167000030A0BE0010A06E0030A01E095D1E66ADD
:10168000D80E8ED1E66AD90E8BD1E66ADA0E88D1F1
:101690002FEC18F0C9EC17F005E1E868021802E138
:1016A000E86803184DE000019C51030A09E0010AB3
:1016B00005E0030A01E066D1010E03D0020E01D05D
:1016C000030EE66E1FEC18F0CEEC10F044E9E66A6B
:1016D000CC0E66D19CC081F09DC082F09EC083F08C
:1016E000F4EC16F0C9EC17F005E1E868021802E125
:1016F000E868031825E06CEC17F0000EEC5D0C0EAA
:101700000EEC17F003E20001010E15D06CEC17F09F
:10171000030EEC5D180E0EEC17F003E20001020E52
:101720000AD06CEC17F0060EEC5D240E0EEC17F0F0
:1017300003E20001030E9C6F010EE66ECB0E30D16A
:10174000E66ACD0E2DD19CC060F09DC061F09EC0B8
:1017500062F09FC063F0A0C064F0A1C065F0A2C0B9
:1017600066F0600EE66E000EE66EBFEC00F042E939
:10177000E66ACE0E15D11FEC17F060C09CF061C078
:101780009DF062C09EF063C09FF064C0A0F065C091
:10179000A1F066C0A2F0070EE66ECF0E01D1946BE9
:1017A000956B02018BC0ECF2ECC29CF08AC09DF0FC
:1017B0008DC0ECF2ECC29EF08CC09FF08FC0ECF2BA
:1017C000ECC2A0F08EC0A1F091C0ECF2ED6BECC2C7
:1017D000A2F090C0A3F0080EE66ED00EE1D09051BA
:1017E000945D9151955966E2F29EF29C94C0ECF2A0
:1017F00095C0EDF227EC17F0016EED51026EEE513F
:10180000036E97EC1EF01FEC18F030EC1FF043E96C
:1018100000019C6F8EEC16F000019D6F8EEC16F0AF
:1018200000019E6F8EEC16F00001A66F8EEC16F094
:101830000001A76F8EEC16F00001A86F8EEC16F079
:101840000001A96FEDEC17F00001942B000E952319
:10185000A651E840E8403F0B9F6F030EA615100D00
:10186000F3CFA0F0A7390F0BA0130F0EA715E82494
:10187000A16FA845010BA113A851E840E8403F0B18
:101880001F0BA26F030EA815040DF3CFA3F0060ED5
:10189000A9C0E7FF070B04E0E742E79EE806FCE18A
:1018A000E7500001A3133F0EA915A46F090EE66EC1
:1018B000D10E76D0E66AD70E73D0040E9C6F9D6B66
:1018C0009E6F9F6BA06FA16B060EE66EE10E68D057
:1018D0009C51070857E39C5155E096EC16F0ABEC91
:1018E00017F030EC1FF043E90001976FFF0E975D92
:1018F0000CE097C0ECF20201ED6BEE6BEF6B640E47
:10190000EC5D000E0EEC17F02FE2FF0E0001975D6C
:1019100001E1976B9729E66EABEC17F02BEC18F012
:10192000030E00019703F3280201EC6FED6BEE6BE1
:10193000EC510001E2270201ED510001E323020115
:10194000EE510001E4239DC0E6FFDCEC17F002EC51
:1019500017F09EC0E6FF3FEC18F09FC0E6FF3FEC9B
:1019600018F0E66AE30E02D0E66AE50EE66EBEEC1B
:1019700012F042E9B8EC1EF017D09C51070802E3C0
:101980009C5103E1E66AE00E0BD096EC16F0E66A95
:10199000ABEC17F02BEC18F0B8EC1EF0E66AE40E96
:1019A000E66EBEEC12F042E942EC17F049E9E7CFEF
:1019B000D9FF12001200120012001200ABEF02F069
:1019C00012001E0EE66E010EE66E43EC19F042E9BF
:1019D00042EF17F002014F0520E1020150051DE121
:1019E000A094E9DF64920201506B0201100EE06FD7
:1019F0000E0EE16FE007000EE15BE051E111FAE14C
:101A00006484080EE06F070EE16FE007000EE15BF3
:101A1000E051E111FAE16494A0841200E7EC16F0C1
:101A200087E904EBF3FF05EBF4FF050EF31801E182
:101A3000F45036E0E868F31802E17F0EF4182FE066
:101A4000030EF31801E1F45028E0020EF31801E14F
:101A5000F45021E0010EF31801E1F4501AE0740E85
:101A6000F31801E1F45013E0750EF31801E1F4509E
:101A70000CE0730EF31801E1F45005E0720EF31858
:101A80000FE1F4500DD098DF0BD094DF09D093DF35
:101A900007D097DF05D094DF03D090DF01D08DDF32
:101AA000010E05EF18F0E7EC16F084E9020100EBF7
:101AB000EFF2EE6B01EBECF2EC51EE11006EEF5138
:101AC000016E0250001A000E011AFF0E0014E838D1
:101AD0000F0B001A000E011A00EBEFF2EE6BF9EC9F
:101AE00017F006E00201D890EC37ED37E804FBE18F
:101AF0000201EC51001AED51011AFF0E0014EE6FB5
:101B0000EF6BF9EC17F006E00201D890EC37ED37F7
:101B1000E804FBE10201D890EC37ED37EC51001AF4
:101B2000ED51011A00EBF3FF01EBF4FF05EF18F0A4
:101B3000D9CFE6FFE1CFD9FF82E949E80050030A97
:101B400013E0010A09E0030A01E016D0056A040E59
:101B5000066E076A086A10D0056A040E066E030E48
:101B6000076E0C0E086E08D0056A040E066E060E8F
:101B7000076E180E086E00D0F29EF29C97EC1EF0D5
:101B8000096A0A6A0550095C06500A585EE20400B8
:101B9000030EE66EE66A09EBE6FF0AEBE6FF26ECCB
:101BA00002F00201FE0EE3500724EC6F41E9E5501C
:101BB0000820ED6F0201EE6B0201EC51026EED5157
:101BC000036EEE51046E02EBE6FF03EBE6FF04EB5F
:101BD000E6FF30EC1FF043E9FF0833E1D950020F74
:101BE000E96EDACFEAFFEE2A000EEE22000EEE22B8
:101BF00002EBE6FF03EBE6FF04EBE6FF30EC1FF041
:101C000043E9FF081EE1D950020FE96EDACFEAFF7F
:101C1000EE2A000EEE22000EEE2202EBE6FF03EBB0
:101C2000E6FF04EBE6FF30EC1FF043E9FF0809E1B3
:101C3000B8EC1EF0F28EF28C09EBF3FF0AEBF4FF26
:101C40000DD0092A000E0A229DD7B8EC1EF0F28EA4
:101C5000F28C05EBF3FF06EBF4FF00D04AE9E7CF87
:101C6000D9FF1200D9CFE6FFE1CFD9FF83E945E8DC
:101C7000F29EF29C97EC1EF0066A076A00018A51F8
:101C8000065C8B51075801E39CD0040006EBECF294
:101C900007EBEDF20201030EED03F3CFEDF2030EBD
:101CA000EC03F3CFECF2F450ED270201EE6BEF6B97
:101CB0000201EC51036EED51046EEE51056E020E01
:101CC0000024E96E000E0120EA6EEFCFECF2ECC2C8
:101CD000E6FF03EBE6FF04EBE6FF05EBE6FF30EC87
:101CE0001FF043E9E552E7CFECF20201EC5D65E15C
:101CF000D950030FE96EDACFEAFFEE2A000EEE228A
:101D0000000EEE22030E0024E96E000E0120EA6EA2
:101D1000EFCFECF2ECC2E6FF03EBE6FF04EBE6FFED
:101D200005EBE6FF30EC1FF043E9E552E7CFECF2BC
:101D30000201EC5D42E1D950030FE96EDACFEAFF10
:101D4000EE2A000EEE22000EEE22040E0024E96EB2
:101D5000000E0120EA6EEFCFECF2ECC2E6FF03EBDF
:101D6000E6FF04EBE6FF05EBE6FF30EC1FF043E98E
:101D7000E552E7CFECF20201EC5D1FE1B8EC1EF09A
:101D8000F28EF28C00017E8906EBECF207EBEDF2AD
:101D90000201030EED03F3CFEDF2030EEC03F3CFDC
:101DA000ECF2F450ED270201EE6BEF6BECC2F8F0B1
:101DB000EDC2F9F0EEC2FAF083D1062A000E072236
:101DC0005DD7066A076A00018C51065C8D51075881
:101DD00001E3B2D0040006EBECF207EBEDF20201F6
:101DE000030EED03F3CFEDF2030EEC03F3CFECF2B1
:101DF000F450ED270201EE6BEF6B030E0201EC27AE
:101E00000C0E0201ED23000E0201EE23000E020172
:101E1000EF230201EC51036EED51046EEE51056E9D
:101E2000020E0024E96E000E0120EA6EEFCFECF204
:101E3000ECC2E6FF03EBE6FF04EBE6FF05EBE6FF93
:101E400030EC1FF043E9E552E7CFECF20201EC5D24
:101E50006FE1D950030FE96EDACFEAFFEE2A000EE8
:101E6000EE22000EEE22030E0024E96E000E012089
:101E7000EA6EEFCFECF2ECC2E6FF03EBE6FF04EB19
:101E8000E6FF05EBE6FF30EC1FF043E9E552E7CF54
:101E9000ECF20201EC5D4CE1D950030FE96EDACFB0
:101EA000EAFFEE2A000EEE22000EEE22040E0024BF
:101EB000E96E000E0120EA6EEFCFECF2ECC2E6FF15
:101EC00003EBE6FF04EBE6FF05EBE6FF30EC1FF06B
:101ED00043E9E552E7CFECF20201EC5D29E1B8EC11
:101EE0001EF0F28EF28C06EBECF207EBEDF2020143
:101EF000030EED03F3CFEDF2030EEC03F3CFECF2A0
:101F0000F450ED270201EE6BEF6B030E0201EC279C
:101F10000C0E0201ED23000E0201EE23000E020161
:101F2000EF23ECC2F8F0EDC2F9F0EEC2FAF0C8D03F
:101F3000062A000E072247D7066A076A00018E515B
:101F4000065C8F51075801E3B2D0040006EBECF2B7
:101F500007EBEDF20201030EED03F3CFEDF2030EFA
:101F6000EC03F3CFECF2F450ED270201EE6BEF6BD4
:101F7000060E0201EC27180E0201ED23000E0201ED
:101F8000EE23000E0201EF230201EC51036EED512E
:101F9000046EEE51056E020E0024E96E000E012063
:101FA000EA6EEFCFECF2ECC2E6FF03EBE6FF04EBE8
:101FB000E6FF05EBE6FF30EC1FF043E9E552E7CF23
:101FC000ECF20201EC5D6FE1D950030FE96EDACF5C
:101FD000EAFFEE2A000EEE22000EEE22030E00248F
:101FE000E96E000E0120EA6EEFCFECF2ECC2E6FFE4
:101FF00003EBE6FF04EBE6FF05EBE6FF30EC1FF03A
:1020000043E9E552E7CFECF20201EC5D4CE1D95037
:10201000030FE96EDACFEAFFEE2A000EEE22000E81
:10202000EE22040E0024E96E000E0120EA6EEFCFCE
:10203000ECF2ECC2E6FF03EBE6FF04EBE6FF05EB98
:10204000E6FF30EC1FF043E9E552E7CFECF2020186
:10205000EC5D29E1B8EC1EF0F28EF28C06EBECF2AE
:1020600007EBEDF20201030EED03F3CFEDF2030EE9
:10207000EC03F3CFECF2F450ED270201EE6BEF6BC3
:10208000060E0201EC27180E0201ED23000E0201DC
:10209000EE23000E0201EF23ECC2F8F0EDC2F9F0DE
:1020A000EEC2FAF00DD0062A000E072247D7B8EC90
:1020B0001EF0F28EF28C0001F869F969FA6900D01D
:1020C00046E9E7CFD9FF1200E7EC16F084E947E8CC
:1020D0000050030A1AE0010A0CE0030A22E1046A34
:1020E000040E056E066A076A00018A51086E8B515C
:1020F00017D0046A040E056E030E066E0C0E076EF2
:1021000000018C51086E8D510BD0046A040E056ECF
:10211000060E066E180E076E00018E51086E8F5166
:10212000096E0450085C0550095835E209EC18F0B6
:10213000030E0A6E0A500BE00A280124E96E000E15
:102140000220EA6EEFCFE6FFBDEC16F0F3D7082AC7
:10215000000E0922030E0A6E0A5004E0E668BDEC88
:1021600016F0FAD7EDEC17F00050030A0EE0010A62
:1021700007E0030A0EE108EB8AF009EB8BF009D0C7
:1021800008EB8CF009EB8DF004D008EB8EF009EB36
:102190008FF0010E01D0FF0E0DEF18F0E7EC16F0F6
:1021A00085E945E80050030A15E0010A0AE0030A40
:1021B0001AE100018A51066E8B51076E086A096A9E
:1021C00012D000018C51066E8D51076E030E086E01
:1021D0000C0E08D000018E51066E8F51076E060E50
:1021E000086E180E096E09EC18F0030EE66EE66A2A
:1021F00002010604EF6F000E0758F06FEFC2E6FF12
:10220000E66E26EC02F00201FE0EE3500824EC6FAD
:1022100041E9E5500920ED6FEE6B0150EC1905E145
:102220000250ED1902E10350EE1938E0030E056E7D
:10223000055034E0030EE66EE66A06EBE6FF07EBB8
:10224000E6FF90EC17F0040EEE5F000EEF5BA0ECE3
:1022500017F030EC1FF043E9E66E05EBF3F20201F4
:10226000F46BF56BD950010FE96EDACFEAFFEE504F
:10227000F325F06FEE50F421F16FEE50F521F26F7F
:10228000F007000EF15BF25BF0C2E6FFF1C2E6FF81
:10229000F2C2E6FF2BEC18F00506CAD7056A030E5A
:1022A000055C15E2E668030EE66EE66A02010604C6
:1022B000F06F000E0758F16FF0C2E6FFE66E90EC8B
:1022C00017F0A0EC17F02BEC18F0052AE8D7EDEC8E
:1022D00017F00606000E075A0050030A0EE0010A26
:1022E00007E0030A0EE106EB8AF007EB8BF009D05A
:1022F00006EB8CF007EB8DF004D006EB8EF007EBCD
:102300008FF046E9E7CFD9FF1200D9CFE6FFE1CF42
:10231000D9FF81E945E8F29EF29C97EC1EF0046A31
:10232000056A04EBECF205EBEDF20201EE6BEF6BEC
:10233000800E0201EC5D3E0EED59000EEE59000ECE
:10234000EF5968E2040004EBECF205EBEDF2020158
:10235000070EED03F3CFEDF2070EEC03F3CFECF233
:10236000F450ED270201EE6BEF6B090E0201EC2732
:10237000240E0201ED23000E0201EE23000E0201E5
:10238000EF230201EC51016EED51026EEE51036E2E
:1023900001EBE6FF02EBE6FF03EBE6FF30EC1FF09C
:1023A00043E9FF0833E1D950010FE96EDACFEAFFC4
:1023B000EE2A000EEE22000EEE2201EBE6FF02EB0B
:1023C000E6FF03EBE6FF30EC1FF043E9FF081EE1F8
:1023D000D950010FE96EDACFEAFFEE2A000EEE22A5
:1023E000000EEE2201EBE6FF02EBE6FF03EBE6FF59
:1023F00030EC1FF043E9FF0809E1B8EC1EF0F28E63
:10240000F28C04EBF3FF05EBF4FF0DD0042A000E71
:10241000052287D7B8EC1EF0F28EF28C800EF36E98
:102420003E0EF46E00D046E9E7CFD9FF1200E7EC8C
:1024300016F083E947E8F29EF29C90C0ECF291C05E
:10244000EDF20201EE6BEF6B800EEC5D3E0E0EECDA
:1024500017F001E38CD01FEC17F00001635103E08B
:10246000635107080BE21FEC17F00001635103E012
:102470006351070803E2070E636F7ED0645103E0E7
:1024800064511F080BE21FEC17F00001645103E0D8
:1024900064511F0803E2070E646F6ED0655103E0BC
:1024A00065510C080BE21FEC17F00001655103E0C9
:1024B00065510C0803E2070E656F5ED06051066E31
:1024C000040E0602F350066E61390F0B06126151BD
:1024D000076E0738F00B076E62417F0B07126251DF
:1024E000086E0832086A08326451040DF35008126D
:1024F0006551E840E8403F0B08126551096E0940FC
:10250000E842C00B096E6651091290C0ECF291C00E
:10251000EDF227EC17F0036EED51046EEE51056EEF
:1025200097EC1EF0020E26EC18F0030E26EC18F0C5
:10253000040E26EC18F006EBE6FFEBDB07EBE6FFFC
:10254000E8DB08EBE6FFE5DB09EBE6FFE2DBE6684C
:10255000E0DBE668DEDBE6684BEC18F0B8EC1EF07A
:102560000001902B000E9123F28EF28C05D0030E09
:10257000E66EDDEC09F041E90DEF18F0E7EC16F03E
:1025800083E941E80001DE6BDF6B0001F651F711D2
:1025900002E1000E08D0F6C0E9FFF7C0EAFFEF50F5
:1025A000800B01E0010E000957E102010F0EA06F40
:1025B00001EBA1F2E8EC17F0A1C2E6FFECEC16F09B
:1025C00000EBA2F2F3CFE6FFF4CFE6FFA2C2E6FFF4
:1025D000ECEC16F0036A0050035C17E20350EA6A61
:1025E0009C0FE96E000EEA22EF50E66E030E032404
:1025F00048EC18F0E8EC17F0030E03243CEC17F05D
:10260000EFCFE6FFE9DB032AE6D70201DFC0ECF2F9
:10261000ED6BEC51E66E030E002448EC18F000015F
:10262000DE51E66E040E002448EC18F0050E00247E
:102630003CEC17F0040EEF6E400EE66EA00EE66E58
:10264000020EE66E010EE66EE66E61EC19F045E9EB
:10265000F3CFF6F0F4CFF7F0C0EF17F0B8DB82E974
:1026600042E809EC18F0000403E0040E005C13E1FA
:10267000026A036A010E026E036A026A036A74EC5C
:1026800017F0030EEC5D000EC9DB02E2CDDBF7D7DD
:1026900000018A6B8B6B020E005C03E0040E005C91
:1026A00010E1030E026E0C0E036E74EC17F0060EB2
:1026B000EC5D0C0EB3DB02E2B7DBF7D700018C6BED
:1026C0008D6B030E005C03E0040E005C10E1060E4F
:1026D000026E180E036E74EC17F0090EEC5D180E06
:1026E0009DDB02E2A1DBF7D700018E6B8F6BEDEC77
:1026F00017F043E9E7CFD9FF120000017E917E83F6
:10270000896B1200D9CFE6FFE1CFD9FF81E944E818
:10271000600EE66E000EE66E17EC01F042E92D0E3B
:10272000E66E010EE66EE66AE66A00016305E66E95
:10273000E66AE66AE66A5AEC02F0E552E5CFEFF2A5
:10274000E5CFEEF2E5CFEDF2E7CFECF21D0E0201A0
:10275000EC27ED0E0201ED23010E0201EE23000E27
:102760000201EF230201EC51016EED51026EEE51B8
:10277000036E97EC1EF001EBE6FF02EBE6FF03EBC6
:10278000E6FF30EC1FF043E90001976FFF0E0001F8
:10279000975D6FE0046A00019751045C6AE20400EF
:1027A00001EBECF202EBEDF203EBEEF20201EC2BAB
:1027B000000E0201ED23000E0201EE23030E0402BF
:1027C000F3CFEFF20201F06BF16B0201EC51020169
:1027D000EF250001E26F0201ED510201F02100013D
:1027E000E36F0201EE510201F1210001E46FE2C04A
:1027F000E6FFE3C0E6FFE4C0E6FF30EC1FF043E98C
:102800000001625D34E10001E22B000EE323000EC3
:10281000E423E2C0E6FFE3C0E6FFE4C0E6FF30ECFD
:102820001FF043E90001615D20E1000198510001C2
:10283000615D1AE00001E22B000EE323000EE423A9
:1028400061C098F0E2C0E6FFE3C0E6FFE4C0E6FF47
:1028500030EC1FF043E90001966F0001F26B0001BC
:102860007E8BB8EC1EF005D002D000019869042AD6
:1028700092D7B8EC1EF045E9E7CFD9FF1200948259
:102880009498949A8B8AF09CF18AF096F0901200BA
:102890008B888B8AE00EBB6E0F0EBC6ECA6A9D924F
:1028A000C5DB06E10C0EBD6E030EBE6E050E07D035
:1028B0000C0EE85D05E10C0EBD6EBE6E170ECB6E04
:1028C000CA84030EE85D02E10A0E04D00C0EE85D36
:1028D00005E1280EE66E6DEC04F041E9F18AF09016
:1028E000F08612008B988BB8FDD7BD6ACA6A8B8AB6
:1028F0008BAAFDD7BB6ABC6AF096F0901200D9CFC4
:10290000E6FFE1CFD9FF83E941E8C2DFA00EE66E22
:1029100040D841E9E7DF010EE66EBFEC1FF041E968
:10292000036A020E035C2BE204000001EF51020176
:10293000EC6FED6B0201140EEC1901E1ED5118E0A2
:1029400009D9000914E000EBE6FF01EBE6FF15D919
:1029500042E900090CE000EBE6FF01EBE6FF80D95D
:1029600042E9AA0EE66E47D841E9010E0ED0DDD746
:1029700065D80001F06B0001EF6B032AD2D7AA0ED5
:10298000E66E39D841E9000E00D042E9E7CFD9FF21
:1029900012001DDA82E941E849DB08E1020E026E0D
:1029A000C10ED56ED76AD66A010E0AD00C0EE85D4C
:1029B0000BE1060E026EC30ED56ED76AD66A210EE3
:1029C000B16EA292A192A082678367910001EF6B22
:1029D000F06BEB6BEC6BED6BEE6B0050EB5D03E2C1
:1029E0000250EC5DFAE3EF6BF06BD56AB16AF096DA
:1029F000F090EB51C5D2EBD982E943E8690E036E42
:102A0000000E046E140E026E023414E2025000082E
:102A100011E202040201EC6FED6B800B01E0ED6945
:102A2000EC510324E96EED510420EA6E00EBEFFF58
:102A30000206EAD744E9E7CFD9FF1200C8D981E9F5
:102A400041E8140E016E015009E001042CDAEF1C7C
:102A5000E66E010428DA70DA0106F5D791D24CDA75
:102A600001E1ED5114E010DBEF50F0C0E7FFE75259
:102A700004E0E8427F0BE706FCE1010B0001686F10
:102A80000001F02B080EF05D02E1EF2BF06B00016E
:102A9000685112009CD984E901EBE9FF02EBEAFFDF
:102AA000EF90EF42005005E001EBE9FF02EBEAFF97
:102AB000EF8EABD28CD985E942E881EB06F0063483
:102AC00033E20650010830E2020E065C0201EC6FB0
:102AD000ED6B800B01E0ED6945DAEF50010B056EFF
:102AE000A0DA01E0EF6945DAEF407F0B6BDA01E035
:102AF000ED6938DA21DA05500AE093DA01E0EF698E
:102B000038DAEF5080095EDA0BE0ED6909D089DA36
:102B100001E0EF692EDAEF507F0B54DA01E0ED6946
:102B200021DA0ADA0606CBD72FDAEF407F0BE66E02
:102B30002BDA02DA005004E027DAEF50800903D0E4
:102B400023DAEF507F0BE66E1FDAF6D943E9E7CFC1
:102B5000D9FF12003CD981E941E8016ACDD901E1F0
:102B6000ED5109E07CDF0108F8E1012A090E015C62
:102B7000F5E1010E01D0000E03D229D983E947E81F
:102B8000036A010E046E056A066A076A086A096A22
:102B9000046E043402E20450320835E360DF036E51
:102BA000ABD902E1ED5158E0FED9000905E103502F
:102BB000055C52E1056A25D003EBE6FF050EE66EE3
:102BC00000EBE6FF01EBE6FF75DF44E90550031873
:102BD000056EE9D9040A12E0070A0CE0010A06E0D2
:102BE000030A0FE106500318066E0BD007500318B6
:102BF000076E07D008500318086E03D00950031859
:102C0000096E042AC6D72BDF065C26E128DF075CA5
:102C100023E125DF085C20E122DF095C1DE11FDFE5
:102C200000091AE1046AD890045002E6050E045C1B
:102C300010E204EBECF20201ED6BECBFED69EC513C
:102C40000024E96EED510120EA6EEF5002E1042A02
:102C5000EAD7050E045C02E1000E01D0010EDDD1C1
:102C6000B6D883E948E8066A076A086A096A0A6A00
:102C7000056A050E055C32E2070E046E036A080E53
:102C8000035C2AE203EBECF2055013D9EF50ECC2DF
:102C9000E7FFE75204E0E8427F0BE706FCE1010BA7
:102CA0000CE0010E04EBF3FF045204E0D890E83688
:102CB000F306FCE104D9EF120CD0010E04EBF3FF94
:102CC000045204E0D890E836F306FCE1E81CF7D89B
:102CD000EF160406032AD3D7052ACBD7036A050EBD
:102CE000035C13E20201D950060FEC6F0350EA6A4D
:102CF000EC25E96EDA50EA22EF50E66E040ED88039
:102D00000354D7D819D9032AEAD749E9E7CFD9FF1D
:102D10001200C1D9D950030F37EF18F0D950010F65
:102D2000A6D98DD930EC1FF043E912002D0EE66EC6
:102D3000010EE66EE66AE66A9C05E66EE66AE66AFB
:102D4000E66A5AEC02F0E552E5CFEFF2E5CFEEF29B
:102D5000E5CFEDF2E7CFECF21D0E0201EC27ED0E10
:102D6000ED23010EEE23000EEF23ECC2E2F0EDC2E4
:102D7000E3F0EEC2E4F097EF1EF0030EE66EE66AB3
:102D800008EBE6FF09EBE6FF26EC02F00201FE0E7F
:102D9000E3500624EE6F41E9E5500720EF6F0A503B
:102DA000EE25EC6F000EEF21ED6FEC07000EED5BF2
:102DB000ECC2E6FFEDC2E6FFE66A4DD90A06120054
:102DC0009951EA6A600FE96E020EEA221200D9CF29
:102DD000E6FFE1CFD9FF120053EC0DF043E9F3CF4A
:102DE000DEF0F4CFDFF012007F0EE66E000EE66E2E
:102DF00032EC0EF042E9F8C0ECF2F9C0EDF2FAC0A4
:102E0000EEF21200E323E4C0EEF2E423ECC2E6FFAC
:102E1000EDC2E6FFEEC2E6FF2BEF18F0ED59000E13
:102E2000EE59000EEF591200E66802EBE6FF03EBE5
:102E3000E6FFE66A10D9022A000E03221200600E95
:102E4000E66E000EE66E17EC01F042E91200020198
:102E5000070EED03F3CFEDF2EC03F3CFECF2F450F9
:102E6000ED27EE6BEF6B090EEC27240EED23000E21
:102E7000EE23EF23EC511200EA6AA00FE96E020E76
:102E8000EA221200400EE66E600EE66E020EE66E5C
:102E9000E66A010EE66E61EC19F045E9F3CFF4F055
:102EA000F4CFF5F01200EA6A690FE96E000EEA222B
:102EB00012000024E96E000E0120EA6E12000201E9
:102EC000EE6FD950060FEC6F0550EA6AEC25E96EFB
:102ED000DA50EA22EE51120001EBECF202EBEDF2D5
:102EE00003EBEEF2EF6B120002EBECF203EBEDF210
:102EF0000201EE6BEF6B12000001EF510201EC6F6B
:102F0000ED6B140EEC191200000EF66E100EF76E3B
:102F10000900F5CFECF20800F5CFEDF20201120046
:102F200026EC02F00201FE0EE3500824EE6F41E9A8
:102F3000E5500920EF6F1200E552E750EF6E1200E6
:102F40000550EE25EC6F000EEF21ED6FECC2E6FFB1
:102F5000E66EE66A1200E2C0E6FFE3C0E6FFE4C008
:102F6000E6FF1200EC510224E96EED510320EA6EF7
:102F70001200EE510224E96EEF510320EA6E1200B6
:102F800042E9E7CFD9FF120002EBE9FF03EBEAFFCA
:102F900012000201EC51016EED51026EEE51036E12
:102FA000E86801181200050EE66E04EBE6FF02EC7D
:102FB00002F041E9E7501200E2C0ECF2E22BE3C07C
:102FC000EDF21200E66E0604EC6FED6B800B120062
:102FD000DEC0E6FFDFC0E6FF1200B8EC1EF0F28EA6
:102FE000F28C1200E5CFEAFFE5CFE9FFE5CFDAFF8B
:102FF0001200040EEEC2ECF2EFC2EDF2000A120073
:10300000E66EEEEC03F041E9120041E9E7CFD9FFAB
:103010001200F29EF29C97EF1EF048E9E7CFD9FF2D
:1030200012000604EE6FEF6B800B1200030E00011E
:10303000E85D1200C5DEEFCFE6FFECEF16F001EB26
:10304000E6FF02EBE6FF03EBE6FF120032DFEFCF15
:10305000E6FF89EF16F0DCEC1EF044E912009DC09B
:1030600081F09EC082F09FC083F0F4EF16F0E96E0D
:10307000DACFEAFFEE2A000EEE22EE221200000165
:103080009BDF000E02EF17F00001EF5153EF17F036
:10309000F3DE9CEF17F003EBE6FF04EBE6FF05EB36
:0630A000E6FF2BEF18F023
:0A30A6004AEC1EF0A0940F015F6BCE
:1030B000626A536BDDEC1DF007EC1EF0016A080E2E
:1030C000F36EF46AF350015C000EF45410E2015008
:1030D000040DF3CFE9FFF4CFEAFF000EE926020E5C
:1030E000EA22EE6AEE6AEE6AEE6A012AE8D7648C9A
:1030F0000F015C6B6498649C62A607D06296020123
:10310000436B486B496B4A6BF7D70201010E5A6F4C
:103110005B6F5C6B5D6B506B016A020E015C0FE2D2
:10312000F4EC1DF0EA22EE6AED6AEA6A0134C1ECC1
:103130001DF0EA22EE6AED6AAAEC1DF0EED702015C
:10314000080E3B6F020E3C6F0F01160E536F02010B
:10315000200E026F020E036F080E016F840E006FC7
:103160000201316B306BD5EF1DF04AEC1EF002010D
:10317000300507E164BA05D0626A60806088020E9B
:10318000306F6250040B05E06050040B02E0629463
:103190001ADB64B246D06250010B09E06050010BAB
:1031A00006E081DFA0840201040E306F629062505D
:1031B000100B05E06050100B02E0FBDA629862AC85
:1031C0000FD060AC05D017EC1EF0730E94EC1DF020
:1031D000629C0201585101E05807585101E102D99F
:1031E0006250200B04E06050200B01E0D1DA625005
:1031F000020B0DE06050020B0AE017EC1EF0E668CF
:103200007F0EE66E0EEC0DF046E90F015F6B040ECB
:103210000201E76E301902E7E73402D0E750305D73
:1032200002E2A1942ED060A62BD0016A040E015CAC
:1032300027E262A625D063CF51F202015151780BEB
:10324000E842E842E842526F629651B504D05251CA
:1032500079EC1EF003D052517EEC1EF0EA22EF70A2
:10326000525102E1BCDA0AD0000EE66EE66A510E57
:10327000E66E020EE66E720E94EC1DF0012AD6D7B1
:10328000A194D5EF1DF083EC1EF000A405D0E66AF2
:1032900001EBE6FFECD842E900A206D0010EE66E93
:1032A00001EBE6FFE4D842E90150036E046A530ED5
:1032B00003260F0E042269EC1EF000EBEFFFD9EF9E
:1032C0001DF087EC1DF086E942E8035003E0F8ECBE
:1032D0001DF004D0EA6A0434C1EC1DF0EA22EE507D
:1032E000066EED50076E0650071004E1000EF36EF7
:1032F000F46A29D002EC1EF092EC1EF001EBEEFF16
:1033000002EBEDFF02EC1EF0EE5200EBEFFF0201CC
:10331000400EEC6F02EC1EF0EC51EF16880EEC6FD5
:1033200002EC1EF0EC51EF12035003E0F8EC1DF03C
:1033300004D0EA6A0434C1EC1DF0EA22EF7406EB13
:10334000F3FF07EBF4FFD9EF1DF083EC1EF0015003
:1033500003E158EC1EF00CD033EC1EF00201F32414
:10336000B4EC1DF033EC1EF0F324010FB4EC1DF0AF
:10337000D9EF1DF0CCDB82E964A816D0BADB400E91
:10338000EE16EE6AEE6AEE6AB4DBEE7CEA6A0034B0
:1033900043EC1EF0EA22EF740201400EEC6FA9DB51
:1033A000EC51EF16A6DBEF7C41E9E7CFD9FF120025
:1033B000646A6198606AA0940201306B1200020195
:1033C00030510FE1646A606A07EC1EF0D08EA2846F
:1033D000A084F28E64B602D06486FCD70201010E8E
:1033E000306F120002015A5122E1010E5A6F5B51F7
:1033F0001EE1010E5B6F020E405D07E183DBEE52C2
:10340000EF6A80DBC80EEF6E1200400510E1536BCF
:1034100091DBEE52080EEF6E8DDB3DEC1EF08ADB89
:10342000840EEF6E010E536F60DB800EEF6E1200A4
:1034300002015C6B5D6B020E405D06E18CEC1EF0E0
:1034400083DB38EC1EF010D044510201265D0201EE
:1034500045510201275904E226C244F227C245F22F
:103460005BD850DB71DB4EDBC80EEF6E120083ECD5
:103470001EF0000E036E020E046E33EC1EF0F324F9
:10348000040DF3500326F450042269EC1EF0EF9E65
:10349000005004E1EA6A013474DB01D0A5DBEA22C2
:1034A00003EBEEFF04EBEDFF69EC1EF0EF9C040E66
:1034B0000324E96E000E0420EA6EEF8C7AD3649840
:1034C000020143BF0DD048AF09D0020E406F5D51DD
:1034D00001E1AEDF02015B6B5A6B120058EF1EF088
:1034E000020120AF0DD00201010E406F5C5101E1DD
:1034F0009FDF02015B6B5A6B59510DE1F2EF19F03E
:103500000201020E406FF1DA840EEF6E5B6B5A6BB4
:10351000595101E167DF1200BDDB080E016E0201A7
:10352000445D000E45590AE24451016E3F5102E1EB
:10353000010E03D03F0502E1020E3F6F0150F36E12
:10354000F46AF350445FF450455BDCDAEE5201EB71
:10355000EFFF280E4D6F020E4E6F43B10DD001509C
:1035600017E041C2F6FF42C2F7FF412B000E422393
:103570000800F5500DDBF3D701500AE041C2E9FF26
:1035800042C2EAFF412B000E4223EF5001DBF4D789
:103590000CD3BDDA81E942E8CDDAEE52EF50016E8C
:1035A00001500201495D000E4A5902E24951016E83
:1035B0000150F36EF46AF350495FF4504A5B026ABB
:1035C0000150025C14E20250EA6A280FE96E020E12
:1035D000EA22EF50E66E46C2E9FF47C2EAFF462BF9
:1035E000000E4723E552E750EF6E022AE9D7495112
:1035F0000008000E4A550DE28FDBA6DA9BDAEF5089
:10360000400B03E135DBC80E02D032DB880EEF6ED3
:103610000FD06BDA840EEF6E4B514C1104E04CC2AC
:10362000FAFF4B5114000201489F595101E1DADEC3
:10363000C0D230DB0201438FC0DA200EE66EE66AAC
:10364000E66A000EE66E020E62DB648C016A020E10
:10365000015C02E27FDAFBD7010EE66EE66AE66AFB
:10366000320EE66E020E53DB649C0201080E3B6FC5
:10367000020E3C6F000E336F020E346F33C235F210
:10368000366F22C231F2315102E1100E0BD0010E21
:10369000E66EE66A310EE66E020EE66E010E44DA62
:1036A0000201200E306F81D2800E0201205D38E1D0
:1036B0000201C00E436F02012351030A1AE0010AFE
:1036C00009E0030A2BE10201180E416F060E426F5A
:1036D000120E1ED0BADAC10EF626060EA0DA020EBF
:1036E0000201ACDAF5CF44F2030EA8DAF5CF45F2C9
:1036F0001200040E225D0FE2A8DAC30EF626060EB3
:103700008EDA41C2F6FF42C2F7FF0800F55002010F
:10371000446F456B12000201436B12000201436BC0
:103720001200F5D981E942E80201286B296B20518A
:103730001F0B020A11E0030A0CE0010A1EE102015C
:10374000438F0201288102014F0517E102012883FE
:1037500014D00201438F11D00201438F020124BF14
:1037600002D0ADDA01D0B0DA47DAB8DA06E0E7D94C
:10377000EF50040B02E0010E286F020143AF07D0A7
:10378000280E416F020E426F4381020E446F11D228
:103790000F0153A10CD0CED9EF50800807E1B2D968
:1037A000EF50840803E1C6D98C0EEF6E5391629AF4
:1037B00012006084629864820201010E506F06DA82
:1037C000750E94EF1DF00201506B00DA740EACD947
:1037D0006492609462A402D06294FCD712005ADA18
:1037E00002012D0E586FFD0E51153AE17E0E511556
:1037F000E8407F0B040DF3CF33F2F4CF34F2000E28
:103800003327020E342333C235F234C236F2357513
:1038100091D9EF503C0BE842E8420D081FE1016AE4
:10382000080E015C17E286D97DDAEE50EFCFEAFF91
:10383000E96EEF50E66E0150EA6A200FE96E020E63
:10384000EA22E552E750EF6E75D96CDAEE2AEF22E4
:10385000012AE6D76FD911DA09D807D022D805D0C6
:10386000FD0E5115040801E12BD89FD102013F6BD9
:10387000596B5C6B5D6B536B406B44D9EF9E3B7532
:1038800041D9EF9E3B75F4D9EF9E436B446B456B7A
:10389000486B496B4A6B4DD899D9030E45D95FEFF8
:1038A0001AF0020E0201405D02E1C9EF1AF0406B0E
:1038B000535104E11AD98C0EEF6E1200536B1200B3
:1038C000E9D920D9EF50400B01E0010E016E020151
:1038D0003B75080E305D0BE122C25CFF0F015C51AD
:1038E00003E00201100E02D00201040E306F400509
:1038F00013E108D929D910DE020E02013F5D03E170
:1039000001D9840E07D0015003E1FCD8C80E02D0C3
:10391000F9D8880EEF6E0CD048AF09D04B514C113E
:1039200004E04CC2FAFF4B5114000201489F406B67
:103930003CD102012051600BE842E842E842E842F3
:10394000E842000901E0120021510C0A44E00B0A90
:103950003EE00C0A30E0010A22E00B0A1EE0020AF7
:103960001CE0030A18E0080A10E0010A0CE00F0A44
:1039700008E0030A01E012000201438F080E306FD5
:10398000120054EF1BF019EF1BF00201310E416FD2
:10399000020E426F0BD091EF1BF0ECEF1CF02451A4
:1039A0000201426B320F416F020E42234381010E2E
:1039B000446F438F12000201438F02012451EA6ACF
:1039C000320FE96E020EEA2222C2EFFF1200FED889
:1039D000020E94EF1DF012009AD881E945E8020129
:1039E000220510E120511F0B00090CE10201438F59
:1039F000030E0201215D04E10201010E4F6F02D0AE
:103A000002014F6B020122516CE120511F0B020891
:103A100068E124510F0B000964E024510F0B0108E9
:103A200060E3200E0201305D5CE1438F020124BFA0
:103A300004D045D9E1D8D0D803D046D9DDD8D0D8E4
:103A4000EA22EF50036E08D9010B02E1019401D084
:103A5000018424BF02D033D901D036D9EA2201EB48
:103A6000EEFF02EBEDFF030E215D10E137D907E019
:103A700024BF02D0B1D801D0B3D8EA22EF8202012C
:103A8000840EEC6F5CD8EC51EF122BD0017426D968
:103A900006E055D8EF9E53D8EF8C00D902D04FD80E
:103AA000EF8C0174D9D8020B02E118D90BE00201A6
:103AB00024BF02D091D801D093D8EA22EF9212D934
:103AC000EDD801D00FD9020124510F0B046E056A05
:103AD000530E04260F0E052204EBE9FF05EBEAFF67
:103AE000EF9046E9E7CFD9FF120016D9C6D838EFD4
:103AF0001EF0EA6A0034C7D8EA22EE50EFCFEAFFA0
:103B0000E96E12003BC2E9FF3CC2EAFF1200D9CFC6
:103B1000E6FFE1CFD9FF120024510F0BE96EEA6AEC
:103B2000D890E936EA361200E66EE66A0EEC0DF041
:103B300046E9120033C2E9FF34C2EAFF120001EB8A
:103B4000E9FF02EBEAFF1200EDD8280EEE6E020E3E
:103B5000ED6E12000150D2D8EA22EF6A0150C9D8A6
:103B6000EA22EF6A012A1200040D000EF324036E0C
:103B7000020EF420046E840EEC6FABD8EC51EF1201
:103B80001200FE0BE96EEA36370EE926020E12002D
:103B9000E66E4DC2E9FF4EC2EAFF4D2B000E4E23EA
:103BA000E552E750EF6E0106120042E9E7CFD9FF78
:103BB000120043E9E7CFD9FF1200010EE66EE66A74
:103BC000E66A540EE66E0F0E87EF1EF0000EE66EEC
:103BD000E66AE66EE66A120024510F0B79EF1EF0DA
:103BE00024510F0B7EEF1EF0EA6A013443EF1EF002
:103BF000EA6A043443EF1EF0EA22EE50016EED5003
:103C0000026E120006EBE9FF07EBEAFF1200160E48
:103C1000616E0F019F0E5B6F7B0E606E1200F722CC
:103C20000900F5CF41F20A00F5CF42F21200010E71
:103C3000E66EE66A000EE66EE66A1200F76A412555
:103C4000F66E4251F722080012002251F66EF76A12
:103C5000D890F636F7361200D950030FE96EDACF56
:103C6000EAFFEF501200040E01020050E824120097
:103C700035C2E9FF36C2EAFF120054D8200EEE6EBC
:103C8000020EED6E1200FE0BE96EEA363B0EE926DF
:103C9000020E12003CDF81E941E81200020EE66EDE
:103CA000E66A01EBE6FF02EBE6FF050E94EF1DF07E
:103CB0001CDF8C0EEF6E26DF840EEF6E12002CDF01
:103CC000370EE926020E120027DF3B0EE926020E10
:103CD000120003EBE9FF04EBEAFF120030DFEF50C4
:103CE000800B120002013B0EEC6F29DFEC51EF1646
:103CF0001200EA6A560FE96E020E1200EA6A540FC9
:103D0000E96E020E120003DF83E942E81200E66E5C
:103D100009EC04F045E91200ABDFEE52080EEF6E3D
:0E3D200038EF1EF0020EE926000EEA22120015
:023D2E00938C74
:103D300093883F0EC716C66AC56A800EC76E080E06
:103D4000C66E0001E80502E1020E09D0030EE85D2F
:103D500002E1070E04D00C0EE85D02E11D0EC86EF4
:103D6000C68A8A8E010EE66E23EC04F041E9120049
:103D7000C66A9D969E968A988A9C9398939C8A98E8
:103D80008A9C8A9E0001E80505E1050EE66E33EC8B
:103D900004F007D0030EE85D06E1010EE66E23ECA9
:103DA00004F041E912000C0EE85D05E1030EE66E39
:103DB00023EC04F041E91200D9CFE6FFE1CFD9FFAF
:103DC00085E941E8056A0598058A059C058EBED8F7
:103DD000100E99D803E00201A2D8FEE1AFD8E8B0F6
:103DE0000586A3D8C5A003D0FDD7C5B0FED793D80C
:103DF000C5BCFED7ABD8080E86D803E002018FD829
:103E0000FEE17AD8C5BCFED701EBECF275D8C5BC93
:103E1000FED700EBE6FFA8D8C5BCFED7C584C5A475
:103E200003D0FDD7C5B4FED7F6EC1FF0C580C5B0F2
:103E3000FED7F6EC1FF06FD8C5AC04D0C584C5B46E
:103E4000FED7F2D7C584C5A403D0FDD7C5B4FED72D
:103E5000F6EC1FF0F28EF28C42E9E7CFD9FF1200A8
:103E6000D9CFE6FFE1CFD9FF84E942E8046A056AC9
:103E70000598058A059C058E70D8100E44D803E07D
:103E800002014DD8FEE15AD8E8B005864ED8C5A04B
:103E900003D0FDD7C5B0FED73ED8C5BCFED75DD890
:103EA000080E31D803E002013AD8FEE125D8C5BC9E
:103EB000FED700EBECF220D8C5BCFED7C582C5B258
:103EC000FED7F6EC1FF00528E66E4ED8C5BCFED72F
:103ED00060EC04F0046EF6EC1FF0C584C5A403D0BA
:103EE000FDD7C5B4FED7F6EC1FF0F28EF28C04506D
:103EF00043E9E7CFD9FF12000201ED6BEE6BECC294
:103F0000E6FFB4EF1FF01F0BEFC2ECF2F0C2EDF2D0
:103F1000F1C2EEF2120005EBE6FFB4EF1FF0D8900D
:103F2000EE33ED33EC33E80612000592059405906C
:103F3000F29EF29CF6EC1FF0C5801200010E020109
:103F4000EC17ED6BEE6BEC510596120001EBEFF206
:103F500002EBF0F203EBF1F2120000EBEFF201EBF7
:103F6000F0F202EBF1F21200B5EC03F041E9F6EFEA
:023F70001FF040
:0E3F7200D39E030EE66E02D841E91200D9CFAD
:103F8000E6FFE1CFD9FF82E9000408E1D39ED39098
:103F9000D382D2949B9C0001010E23D0020E005CC0
:103FA0000BE1D39ED38CD39AD398D390D382D2945F
:103FB0009B9C0001020E15D0030E005C08E1D39E0D
:103FC000D390D392D2849B9C0001030E0AD00C0E96
:103FD000005C08E1D39ED390D392D2849B8C0001E5
:0C3FE0000C0EE86F41E9E7CFD9FF12009A
:043FEC001F0EC514CB
:0A3FF000FDE1C750040BFAE11200D6
:020000040030CA
:0100000018E7
:01000100827C
:0100020039C4
:010003000BF1
:010005008872
:01000600C138
:0100080000F7
:010009008076
:01000A0003F2
:01000B00C034
:01000C0003F0
:01000D0040B2
:00000001FF
