:020000040000FA
:0600000087EF05F012007D
:020006001200E6
:0600080061EF08F0120098
:0600180001EF08F01200E8
:02001E000100DF
:0C002000580B0000EB0000000D00000079
:04002C007BD981E912
:1000300041E8016A85D9020E71D9016EBF0E011423
:10004000E66E020E56D989D9600EE66E000EE66E97
:10005000EED842E9000163510DE0635107080AE35D
:10006000645108E064511F0805E3655103E06551E0
:100070000C0818E272D9150EE66E060E3AD9010E7A
:10008000E66E050E36D9010EE66E040E32D9E66A2A
:10009000020E2FD9E66A010E2CD9800EE66EE66AB2
:1000A00006D842E9E6EC01F0F28EF28C45D13AD95D
:1000B00083E9F29EF29CF7EC1FF0C580C5A003D047
:1000C000FDD7C5B0FED757D9C5BCFED701EBE6FFBB
:1000D00019D9C5BCFED700EBE6FF14D9C5BCFED7C5
:1000E000C584C5A403D0FDD7C5B4FED7F7EC1FF077
:1000F000C580C5B0FED7F7EC1FF03DD9C5AC04D024
:10010000C584C5B4FED7F2D7C584C5A403D0FDD736
:10011000C5B4FED7F7EC1FF0F28EF28C15D102D9E0
:1001200082E941E8F29EF29CF7EC1FF0C580C5A081
:1001300003D0FDD7C5B0FED71ED9C5BCFED700EB96
:10014000E6FFE0D8C5BCFED7C582C5B2FED7F7EC46
:100150001FF0DF0EE66ED6D8C5BCFED794EC05F0D6
:10016000026EF7EC1FF0C584C5A403D0FDD7C5B45B
:10017000FED7F7EC1FF0F28EF28C0250DDD0D2D811
:1001800083E941E8DDD8E4D8040ED1D84BE0E0D8CB
:10019000040ECDD81F0846E3DBD8030EC8D842E0D2
:1001A000D7D8030EC4D807083DE3D2D8050EBFD870
:1001B00039E0CED8050EBBD80C0834E3C9D8030EFD
:1001C0009CD8036E070E0316038603EBE6FF030EAF
:1001D000D9D8CCD8036E800E0310036E03EBE6FF74
:1001E000E66A65DF42E9B4D8EE52C0D8E66E010E89
:1001F000C9D8020E82D8036E3F0E0314036E03EBC0
:10020000E6FF020EBFD8040E78D8E66E040EBAD808
:10021000050E73D8E66E050EB5D8060E6ED8E66EDE
:10022000060E67D8F28EF28CE6EC01F085D07AD813
:1002300083E986D8E66A73DF41E97F0B54D8E5523B
:10024000E750EF6E010E9BD8EE52E552E750EF6E8D
:10025000020E64D83F0B47D8020E59D8030E5ED861
:10026000070B41D8030E53D8040E89D8040E4FD87B
:10027000050E54D81F0B37D8050E49D8060E7FD867
:10028000060E45D8F28EF28CE6EC01F05DD04AD82D
:1002900082E900380F0B0A0D0F0E0014F324006ED4
:1002A000005052D03FD882E941E8026A0050090864
:1002B00016E20A0EE66E00EBE6FFF3EC02F041E90F
:1002C000E750100DF350026E0A0EE66E00EBE6FFEB
:1002D000F6EC02F041E9E7500210026E02D080EB2A
:1002E00002F0025029D0E66ED2DF41E9E66EA8EFB7
:1002F00001F0E66EDCDE42E91200E926000EEA2299
:10030000B6EF01F014EC05F041E9F7EF1FF0E92634
:10031000000EEA22E552E750EF6E1200E66EFFDEB5
:1003200041E91200D9CFE6FFE1CFD9FF1200E9265B
:10033000000EEA22EF50120042E9E7CFD9FF120087
:10034000F29EF29CC5EF01F041E9E7CFD9FF120020
:1003500000EBE9FF01EBEAFF1200030EDFDF016EA5
:10036000080E0110E66E030E79EF01F0EFCFE6FF05
:1003700099DF41E91200DE0EE66E82EF01F0CEDF7A
:0A03800073EF01F0B6DFA8EF01F003
:06038A00938C93883F0EE6
:10039000C716C66AC56A800EC76E080EC66E000113
:1003A000E80502E1020E09D0030EE85D02E1070E46
:1003B00004D00C0EE85D02E11D0EC86EC68A8A8E5E
:1003C000010EE66EE7EC1FF041E91200C66A9D9649
:1003D0009E968A988A9C9398939C8A988A9C8A9ED7
:1003E0000001E80505E1050EE66E67EC05F007D0B3
:1003F000030EE85D06E1010EE66EE7EC1FF041E951
:1004000012000C0EE85D05E1030EE66EE7EC1FF04E
:1004100041E91200D9CFE6FFE1CFD9FF85E941E8F4
:10042000056A0598058A059C058EBED8100E99D8D8
:1004300003E00201A2D8FEE1AFD8E8B00586A3D858
:10044000C5A003D0FDD7C5B0FED793D8C5BCFED795
:10045000ABD8080E86D803E002018FD8FEE17AD827
:10046000C5BCFED701EBECF275D8C5BCFED700EBDE
:10047000E6FFA8D8C5BCFED7C584C5A403D0FDD768
:10048000C5B4FED7F7EC1FF0C580C5B0FED7F7ECBA
:100490001FF06FD8C5AC04D0C584C5B4FED7F2D761
:1004A000C584C5A403D0FDD7C5B4FED7F7EC1FF0B3
:1004B000F28EF28C42E9E7CFD9FF1200D9CFE6FFE6
:1004C000E1CFD9FF84E942E8046A056A0598058A04
:1004D000059C058E70D8100E44D803E002014DD85B
:1004E000FEE15AD8E8B005864ED8C5A003D0FDD7A6
:1004F000C5B0FED73ED8C5BCFED75DD8080E31D8F2
:1005000003E002013AD8FEE125D8C5BCFED700EBD6
:10051000ECF220D8C5BCFED7C582C5B2FED7F7EC39
:100520001FF00528E66E4ED8C5BCFED794EC05F04A
:10053000046EF7EC1FF0C584C5A403D0FDD7C5B485
:10054000FED7F7EC1FF0F28EF28C045043E9E7CFB0
:10055000D9FF12000201ED6BEE6BECC2E6FFE2EF99
:1005600002F01F0BEFC2ECF2F0C2EDF2F1C2EEF2BC
:10057000120005EBE6FFE2EF02F0D890EE33ED3328
:10058000EC33E8061200059205940590F29EF29C69
:10059000F7EC1FF0C5801200010E0201EC17ED6BA5
:1005A000EE6BEC510596120001EBEFF202EBF0F26C
:1005B00003EBF1F2120000EBEFF201EBF0F202EBD1
:0E05C000F1F2120014EC05F041E9F7EF1FF024
:0205CE0042E801
:1005D000D9CFE6FFDACFE6FFE1CFD9FFE2CFDAFFEE
:1005E00086E9036A1200F3DF038003D0F0DF01D055
:1005F0000382026A080EE76ED89001360236005078
:10060000025C02E3026E012AE72EF7D703B2120062
:1006100003B081EB00F003A082EB00F0E552E5CFE0
:10062000DAFFE7CFD9FF43E9120042E8D9CFE6FF6E
:10063000DACFE6FFE1CFD9FFE2CFDAFF86E9036A3E
:100640001200F3DF038001D0F0DF00AE03D0006CB6
:1006500003B0037E01AE02D0016C037EF8EC02F021
:1006600001BE44EF03F003AE02D0016C026C03B094
:1006700081EB00F003A082EB00F0E552E5CFDAFF5A
:10068000E7CFD9FF43E9000C03BEEFD7F0DFFF0C43
:1006900044E8D9CFE6FFDACFE6FFE1CFD9FFE2CFDA
:1006A000DAFF8AE980EB04F081EB05F082EB06F0DB
:1006B00002500402F450016EF350006E0350076EB6
:1006C0000502F450036EF350026E07500402F3501B
:1006D0000126F4500222E86A032206500502F35074
:1006E0000126F4500222E86A0322E552E5CFDAFF40
:1006F000E7CFD9FF46E9000C44E8D9CFE6FFDACFCF
:10070000E6FFE1CFD9FFE2CFDAFF8EE980EB08F018
:1007100081EB09F082EB0AF083EB0BF00450080246
:10072000F350006EF450016E04500902F35001269C
:10073000000EF420026E04500A02F3500226000E4E
:10074000F420036E04500B02F350032605500802F8
:10075000F3500126F4500222000E03220550090234
:10076000F3500226F450032205500A02F3500326E8
:1007700006500802F3500226F450032206500902E4
:10078000F350032607500802F3500326E552E5CF45
:0A079000DAFFE7CFD9FF48E9000CBB
:06079A00020120511F0BBB
:1007A000010801E01200245101E01200060E215D53
:1007B0001BE12351230A18E0010A0CE0030A14E1AB
:1007C0000201310511E10201800E416F080E426FF6
:1007D000090E06D00201E90E416F080E426F1C0E91
:1007E000446F456BC00E436F02012051600BE8421D
:1007F000E842E842E842E842010801E012002151E3
:100800000B0A26E0080A19E0090A11E0080A05E0C7
:100810000B0A23E0080A21E012000201FC0E416FDE
:10082000000E426F010E446F456BC10E0FD00201E6
:10083000800E436F23C2FCF012000201FD0E416FD7
:10084000000E426F010E446F456B810E436F120024
:0C0850000201800E436F22C2FDF0120076
:04085C001201000283
:1008600000000008D8043F00020001020301090251
:100870002900010100C03209040000020300000049
:10088000092111010001221C00070581034000011C
:1008900007050103400001040309042A0349006E0F
:1008A000006E006F00200054006500630068006E59
:1008B000006F006C006F0067007900200049006E37
:1008C0000063002E00120341005400200047005531
:1008D000004100520044001203300036003800305E
:1008E0000032003100320035000600FF0901A1018D
:1008F000190129401501254075089540810019010D
:0F09000029409100C06E0897089B08C508D708CA
:100910001E0EF66E000EF76E000EF86E0201090054
:10092000F550E76F0900F550E86F03E1E76701D084
:100930003DD00900F550E26F0900F550E36F090062
:10094000F550E46F09000900F550E96E0900F55013
:10095000EA6E090009000900F550E56F0900F5503D
:10096000E66F09000900F6CFE9F2F7CFEAF2F8CF17
:10097000EBF2E2C2F6FFE3C2F7FFE4C2F8FF0201C6
:10098000E55302E1E65307E00900F550EE6EE50796
:10099000F8E2E607F9D7E9C2F6FFEAC2F7FFEBC2D1
:0E09A000F8FF0201E707000EE85BBFD7120068
:0209AE00D39ED6
:1009B000030EE66E02D841E91200D9CFE6FFE1CF7F
:1009C000D9FF82E9000408E1D39ED390D382D29468
:1009D0009B9C0001010E23D0020E005C0BE1D39E14
:1009E000D38CD39AD398D390D382D2949B9C00017A
:1009F000020E15D0030E005C08E1D39ED390D39273
:100A0000D2849B9C0001030E0AD00C0E005C08E10E
:100A1000D39ED390D392D2849B8C00010C0EE86FAE
:080A200041E9E7CFD9FF120004
:080A2800D9CFE6FFDACFE6FFAB
:100A3000E1CFD9FFE2CFDAFF83E900EBC9FFC6AE11
:100A400002D0FF0E24D00F0EC61408080FE00F0EC0
:100A5000C6140B080BE0C6889EA6FED7C750040B31
:100A600003E1C750010B10E0000E11D00F0EC614A9
:100A7000080804E00F0EC6140B0809E1C7B0FED742
:100A8000F7EC1FF0C5AC02D0FE0E01D0000E41E91C
:0A0A9000E5CFDAFFE7CFD9FF12002F
:060A9A00FE0EE3CFE9FFB0
:100AA000FF0EE3CFEAFFE9CFF3FFEACFF4FFFB0E3F
:100AB000E35003E1FC0EE35009E0FB0EE30602E223
:0E0AC000FC0EE306FD0EE350EE6EF1D71200C1
:020ACE00FF0E19
:100AD000E3500001FF6F1A0E00D000D001D0200EAD
:0E0AE000E76EE72EFED7FF2FFAD700D01200E8
:020AEE00000EF8
:100AF000F36E00EE00F0030E01D81200EA6002D09F
:0E0B0000EE6AFCD7F350E9601200EE6AFCD7F3
:020B0E0011EEE6
:100B100000F021EE00F0F86A88EC04F003EC00F03D
:080B2000BAEC08F0FBD712004B
:080B28000F0EC614080804E0DA
:100B30000F0EC6140B0801E1C586C7A0FED7C95029
:020B40001200A1
:0E0B4200FF0EE350E84E1200000000D000D07D
:080B500000D0E82EFAD71200D4
:080B5800000000000000000095
:050B6000000000000090
:02100000393085
:0E100200D8CFE4FFE0CFE4FFE46EDACFE4FFE6
:10101000E9CFE4FFEACFE4FFE652A050020B10E074
:10102000A150020B0DE00001EC2BA19200017EA368
:1010300007D0892B2D0E895D03E17E937E81896B1C
:10104000F050080B35E0F050010B32E0020E0001C9
:10105000E75D25E1D6CFEAF0D66AF17A7EA704D023
:10106000EA51460806E203D0EA51410802E26771FC
:10107000678367A312D080EC19F0EF90EF42000174
:1010800067A103D080EC19F0EF8E0001EB2BF02B61
:10109000080EF05D02E1F06BEF2B00016773E705CE
:1010A00004E182A202D0020EE76F82CFE9F0F09055
:1010B000E5523CEC19F0E550E5CFE0FFE5CFD8FF75
:1010C0001000DACFE4FFE2CFDAFFE9CFE4FFEACFA6
:1010D000E4FFD9CFE4FFDACFE4FFF8C0E4FFF9C0C2
:1010E000E4FFFAC0E4FFFBC0E4FFF6CFE4FFF7CF74
:1010F000E4FFF5CFE4FFF3CFE4FFF4CFE4FFFACF52
:10110000E4FF02EEECF00A0EE80403E3EECFE4FFA6
:10111000FBD7E652EAEC19F0F250100B07E0F25060
:10112000020B04E000017E85F298F292E55202EE95
:10113000F5F00A0EE80403E3E5CFEDFFFBD7E5CFBA
:10114000FAFFE5CFF4FFE5CFF3FFE5CFF5FFE5CFFD
:10115000F7FFE5CFF6FFE5CFFBF0E5CFFAF0E5CFFF
:10116000F9F0E5CFF8F0E5CFDAFFE5CFD9FF3CECB9
:1011700019F01100D9CFE6FFE1CFD9FF81E941E8AD
:10118000F8D8020EE66E80EC0FF041E9F3CF8CF058
:10119000F4CF8DF0010EE66E80EC0FF041E9F3CF55
:1011A0008AF0F4CF8BF0030EE66E80EC0FF041E98D
:1011B000F3CF8EF0F4CF8FF06DEC13F0F3CF90F00F
:1011C000F4CF91F0010EE66E24D941E904D9000173
:1011D0007EB7AED00001F12B370E0001F15D04E1C6
:1011E0000001F16B78EC15F000017EAB22D000011C
:1011F000F16B0001E96B040E0001E95D11E28B86E1
:101200008A8A040EE66ECCEC1FF041E98B968A9A2E
:10121000040EE66ECCEC1FF041E90001E92BEBD7A0
:101220000001F22B000196510001F25D02E1000184
:101230007E9B0001E7051AE13EEC16F0030E00016B
:10124000E85D06E1230EE66EA1EC05F041E909D068
:101250000C0E0001E85D05E10C0EE66E67EC05F092
:1012600041E90001E70502E168EC16F0020E000119
:10127000E75D59E17F0EE66E000EE66E75EC16F046
:1012800042E9000902E000016789000167A946D030
:10129000000167997F0EE66E000EE66E1AEC10F004
:1012A00042E9F8C0ECF2F9C0EDF2FAC0EEF2E868FB
:1012B0000201EC1905E1E868ED1902E1E868EE19B0
:1012C00029E000017EA921D0010EE66EA2D841E9F5
:1012D000000186510001815D0AE100018751000192
:1012E000825D05E1000188510001835D0DE07F0E04
:1012F000E66E000EE66EFFEC13F042E981C086F068
:1013000082C087F083C088F004D0020EE66E81D8D8
:1013100041E904D0020EE66E7CD841E9030EE66E88
:10132000DDEC04F041E90001010EE76F03001CD081
:10133000040082B019D00A0EE66EA1EC05F041E976
:1013400082B012D000017E970201305102E00DEC14
:101350001BF0F292F288030EE66EDDEC04F041E938
:101360000001010EE76F030031D742E9E7CFD9FF53
:101370001200F29EF29C686A6D6A6B6A7E6A7F6AEE
:10138000BD6A949C949E829C829E939E8A9E939A10
:101390008A9A94968B96948093988A98939C8A9C28
:1013A00016EC00F0D7EC04F035EC16F088EC19F0F0
:1013B0000001F46BF56BF66BF76BF292F288F18C2F
:1013C00000017E6B676B010EE76F0001F16BD08E41
:1013D000F28EF28C120000017EA511D00A0EE66E8C
:1013E000A1EC05F041E982A00AD00C0EE66EDDEC1E
:1013F00004F041E900017E957E8714EC1BF0200E7D
:101400000201305D05E100017E51080B01E064D866
:101410001200ADEC18F082E941E80050030A4AE0FE
:10142000010A16E0030A56E18B868A8A65EC19F0F8
:1014300002E1030E08D00C0EE85D02E10C0E03D0B1
:10144000E80503E1010E4AEC19F08B968A9A42D026
:10145000026A060E025C3EE28B868A8A65EC19F00F
:1014600002E1010E04D00C0EE85D05E1040EE66E0B
:10147000CCEC1FF006D0E80505E1040EE66EE7ECC3
:101480001FF041E98B968A9A65EC19F002E1020E91
:1014900004D00C0EE85D05E1050EE66ECCEC1FF005
:1014A00006D0E80505E1040EE66EE7EC1FF041E921
:1014B000022ACFD7026A030E025C0CE28B868A8A6C
:1014C000640E4AEC19F08B968A9A320E4AEC19F0A7
:1014D000022AF1D724EF19F0D9CFE6FFE1CFD9FFE7
:1014E00081E948E8200E0201E76E301902E7E7348F
:1014F00002D0E750305D03E36450020B02E0AFEF2F
:101500000EF00001F451F51102E1000E08D0F4C014
:10151000E9FFF5C0EAFFEF50800B01E0010E000982
:1015200002E0AFEF0EF00001996B0001DE6BDF6BA4
:1015300000019951EA6A600FE96E020EEA22EF504B
:101540000F0802E09FEF0EF00001992B0001995166
:10155000EA6A600FE96E020EEA22EFCF9AF0DEC06F
:10156000E6FFDFC0E6FF00019951EA6A600FE96E0D
:10157000020EEA22EFCFE6FF3BEC0FF043E9F3CF98
:10158000DEF0F4CFDFF00001992B00019951EA6AF7
:10159000600FE96E020EEA22EFCF9BF0DEC0E6FF9D
:1015A000DFC0E6FF00019951EA6A600FE96E020EA2
:1015B000EA22EFCFE6FF3BEC0FF043E9F3CFDEF09A
:1015C000F4CFDFF00001992B046A00019B51045C09
:1015D0002CE200019951EA6A600FE96E020EEA22DC
:1015E000EF50E66E0450EA6A9C0FE96E000EEA22A4
:1015F000E552E750EF6EDEC0E6FFDFC0E6FF000118
:101600009951EA6A600FE96E020EEA22EFCFE6FF17
:101610003BEC0FF043E9F3CFDEF0F4CFDFF0000155
:10162000DC2B0001992B042AD0D700019951EA6ADA
:10163000600FE96E020EEA22EF50E66EE66AE66A95
:10164000010EE66E48EC03F0E552E5CFE1F0E7CF9E
:10165000E0F00001992B00019951EA6A600FE96EF0
:10166000020EEA22EF50F36EF46AF3500001E02715
:10167000F4500001E1230001E0510001DE1904E112
:101680000001E1510001DF1901E059D3400E046E61
:10169000045009E00404EA6AA00FE96E020EEA228F
:1016A000EF6A0406F5D700019A51740A01E130D3BC
:1016B000040A01E127D31F0A01E1E4D2020A01E191
:1016C000AED2010A01E19CD1070A01E16ED1010A03
:1016D00001E14ED1030A01E12FD1010A01E1BAD0A3
:1016E0000E0A2BE0030A01E02AD3000EF66E100E5C
:1016F000F76E0900F5CFECF20800F5CFEDF202012C
:10170000EDC2ECF2ED6B0201EC5100019C6F000E9A
:10171000F66E100EF76E0900F5CFECF20800F5CF6B
:10172000EDF20201EC5100019D6F020EE66EC90E52
:10173000E66EB8EC14F042E902D300019C51030AB2
:101740001BE0010A0EE0030A01E021D000018A51EA
:10175000056E8B51066E076A040E086E010E046E4C
:1017600018D000018C51056E8D51066E076A040E6B
:10177000086E010E046E0DD000018E51056E8F5162
:10178000066E076A040E086E010E046E02D0046A2B
:1017900000D0040458E10750055C0850065834E2B4
:1017A0009DC081F09EC082F09FC083F07F0EE66EE8
:1017B000000EE66E1AEC10F042E9F8C0ECF2F9C047
:1017C000EDF2FAC0EEF2E8680201EC1905E1E86812
:1017D000ED1902E1E868EE1910E19CC0E6FF7F0E0A
:1017E000E66E000EE66E4CEC12F043E9E66ACA0EB5
:1017F000E66EB8EC14F042E906D0E66ACB0EE66E6F
:10180000B8EC14F042E91ED000019C51030A13E029
:10181000010A0AE0030A01E015D0E66AD80EE66E76
:10182000B8EC14F042E90ED0E66AD90EE66EB8ECD8
:1018300014F042E907D0E66ADA0EE66EB8EC14F06E
:1018400042E900D006D0E66AE00EE66EB8EC14F08D
:1018500042E975D29CC081F09DC082F09EC083F0A9
:101860007F0EE66E000EE66EE5DB42E9F8C0ECF2B4
:10187000F9C0EDF2FAC0EEF20201EC51016EED5149
:10188000026EEE51036EE868011805E1E86802187F
:1018900002E1E868031849E001EBECF202EBEDF23B
:1018A00003EBEEF20201EF6B000E0201EC5D0C0E99
:1018B000ED59000EEE59000EEF5904E20001010E41
:1018C0009C6F2BD001EBECF202EBEDF203EBEEF2AE
:1018D0000201EF6B030E0201EC5D180EED59000ED4
:1018E000EE59000EEF5904E20001020E9C6F15D074
:1018F00001EBECF202EBEDF203EBEEF20201EF6B27
:10190000060E0201EC5D240EED59000EEE59000E9C
:10191000EF5903E20001030E9C6F010EE66ECB0E41
:10192000E66EB8EC14F042E906D0E66ACD0EE66E3B
:10193000B8EC14F042E903D29CC060F09DC061F0A5
:101940009EC062F09FC063F0A0C064F0A1C065F0CB
:10195000A2C066F0600EE66E000EE66EBFEC00F010
:1019600042E9E66ACE0EE66EB8EC14F042E9E7D141
:10197000600EE66E000EE66E17EC01F042E960C004
:101980009CF061C09DF062C09EF063C09FF064C097
:10199000A0F065C0A1F066C0A2F0070EE66ECF0E03
:1019A000E66EB8EC14F042E9CAD10001946B956B75
:1019B00002018BC0ECF2ED6BECC29CF08AC09DF092
:1019C00002018DC0ECF2ED6BECC29EF08CC09FF07A
:1019D00002018FC0ECF2ED6BECC2A0F08EC0A1F062
:1019E000020191C0ECF2ED6BECC2A2F090C0A3F04A
:1019F000080EE66ED00EE66EB8EC14F042E99FD108
:101A0000000190510001945D000191510001955930
:101A100001E3FED0F29EF29C94C0ECF295C0EDF290
:101A20000201070EED03F3CFEDF2070EEC03F3CF47
:101A3000ECF2F450ED270201EE6BEF6B090E0201A0
:101A4000EC27240E0201ED23000E0201EE23000E0E
:101A50000201EF230201EC51016EED51026EEE51D5
:101A6000036EC5EC01F001EBE6FF02EBE6FF03EBD2
:101A7000E6FF5EEC02F043E900019C6FD950010FD4
:101A8000E96EDACFEAFFEE2A000EEE22000EEE2219
:101A900001EBE6FF02EBE6FF03EBE6FF5EEC02F094
:101AA00043E900019D6FD950010FE96EDACFEAFFDB
:101AB000EE2A000EEE22000EEE2201EBE6FF02EB14
:101AC000E6FF03EBE6FF5EEC02F043E900019E6FE8
:101AD000D950010FE96EDACFEAFFEE2A000EEE22AE
:101AE000000EEE2201EBE6FF02EBE6FF03EBE6FF62
:101AF0005EEC02F043E90001A66FD950010FE96ED8
:101B0000DACFEAFFEE2A000EEE22000EEE2201EB03
:101B1000E6FF02EBE6FF03EBE6FF5EEC02F043E9D3
:101B20000001A76FD950010FE96EDACFEAFFEE2A64
:101B3000000EEE22000EEE2201EBE6FF02EBE6FFC6
:101B400003EBE6FF5EEC02F043E90001A86FD95019
:101B5000010FE96EDACFEAFFEE2A000EEE22000E48
:101B6000EE2201EBE6FF02EBE6FF03EBE6FF5EECA5
:101B700002F043E90001A96FE6EC01F0F28EF28C6D
:101B80000001942B000E95230001A651E840E84087
:101B90003F0B00019F6F030E0001A615100DF3CF40
:101BA000A0F00001A7390F0B0001A0130F0E0001D8
:101BB000A715E8240001A16F0001A845010B000151
:101BC000A1130001A851E840E8403F0B1F0B0001A2
:101BD000A26F030E0001A815040DF3CFA3F0060EAB
:101BE000A9C0E7FF070B04E0E742E79EE806FCE137
:101BF000E7500001A3133F0E0001A9150001A46FD7
:101C0000090EE66ED10EE66EB8EC14F042E906D08D
:101C1000E66AD70EE66EB8EC14F042E990D0F29E78
:101C2000F29C090E016E240E026E036AC5EC01F0EF
:101C3000046A070E045C16E2E66801EBE6FF02EBBD
:101C4000E6FF03EBE6FF0AEC02F044E9D950010F8E
:101C5000E96EDACFEAFFEE2A000EEE22000EEE2247
:101C6000042AE7D7E6EC01F0F28EF28C0001906BCB
:101C7000916B00017E99E66AD20EE66EB8EC14F024
:101C800042E95DD073EC15F00001020EE76F000130
:101C90006799040000017EA712D000017EB10FD029
:101CA0007F0EE66E000EE66E75EC16F042E9000956
:101CB00003E0040000016789000167A9EAD7000179
:101CC00067A914D000016799010EE66E09EC0AF0CD
:101CD00041E981C09CF082C09DF083C09EF0030E5C
:101CE000E66ED60EE66EB8EC14F042E900017EA175
:101CF00008D000017E91E66AE20EE66EB8EC14F0C0
:101D000042E91DD0010EE66E09EC0AF041E917D058
:101D10000001040E9C6F00019D6B0001040E9E6F7C
:101D200000019F6B0001040EA06F0001A16B060E65
:101D3000E66EE10EE66EB8EC14F042E900D0400E1B
:101D4000E66E600EE66E020EE66EE66A010EE66E66
:101D500096EC1AF045E9F3CFF4F0F4CFF5F049E949
:101D6000E7CFD9FF12001200120012001200CDEFCF
:101D700003F012001E0EE66E010EE66E78EC1AF00D
:101D800042E9400EE66E600EE66E020EE66EE66A10
:101D9000010EE66E96EC1AF045E9F3CFF4F0F4CFBD
:101DA000F5F0120002014F0520E1020150051DE18E
:101DB000A094DADF64920201506B0201100EE06F12
:101DC0000E0EE16FE007000EE15BE051E111FAE178
:101DD0006484080EE06F070EE16FE007000EE15B20
:101DE000E051E111FAE16494A0841200ADEC18F026
:101DF00087E904EBF3FF05EBF4FF050EF31801E1AF
:101E0000F45036E0E868F31802E17F0EF4182FE092
:101E1000030EF31801E1F45028E0020EF31801E17B
:101E2000F45021E0010EF31801E1F4501AE0740EB1
:101E3000F31801E1F45013E0750EF31801E1F450CA
:101E40000CE0730EF31801E1F45005E0720EF31884
:101E50000FE1F4500DD089DF0BD085DF09D084DF8E
:101E600007D088DF05D085DF03D081DF01D07EDF9A
:101E7000010E4FEF19F0ADEC18F084E9020100EB10
:101E8000EFF2EE6B01EBECF2EC51EE11006EEF5164
:101E9000016E0250001A000E011AFF0E0014E838FD
:101EA0000F0B001A000E011A00EBEFF2EE6B43EC81
:101EB00019F006E00201D890EC37ED37E804FBE1B9
:101EC0000201EC51001AED51011AFF0E0014EE6FE1
:101ED000EF6B43EC19F006E00201D890EC37ED37D8
:101EE000E804FBE10201D890EC37ED37EC51001A21
:101EF000ED51011A00EBF3FF01EBF4FF4FEF19F086
:101F0000D9CFE6FFE1CFD9FF82E949E80050030AC3
:101F100013E0010A09E0030A01E016D0056A040E85
:101F2000066E076A086A10D0056A040E066E030E74
:101F3000076E0C0E086E08D0056A040E066E060EBB
:101F4000076E180E086E00D0F29EF29CC5EC01F0F0
:101F5000096A0A6A0550095C06500A585EE20400E4
:101F6000030EE66EE66A09EBE6FF0AEBE6FF48ECD5
:101F700003F00201FE0EE3500724EC6F41E9E55047
:101F80000820ED6F0201EE6B0201EC51026EED5183
:101F9000036EEE51046E02EBE6FF03EBE6FF04EB8B
:101FA000E6FF5EEC02F043E9FF0833E1D950020F8F
:101FB000E96EDACFEAFFEE2A000EEE22000EEE22E4
:101FC00002EBE6FF03EBE6FF04EBE6FF5EEC02F05C
:101FD00043E9FF081EE1D950020FE96EDACFEAFFAC
:101FE000EE2A000EEE22000EEE2202EBE6FF03EBDD
:101FF000E6FF04EBE6FF5EEC02F043E9FF0809E1CF
:10200000E6EC01F0F28EF28C09EBF3FF0AEBF4FF41
:102010000DD0092A000E0A229DD7E6EC01F0F28EBF
:10202000F28C05EBF3FF06EBF4FF00D04AE9E7CFB3
:10203000D9FF1200D9CFE6FFE1CFD9FF83E945E808
:10204000F29EF29CC5EC01F0066A076A00018A5113
:10205000065C8B51075801E39CD0040006EBECF2C0
:1020600007EBEDF20201030EED03F3CFEDF2030EE9
:10207000EC03F3CFECF2F450ED270201EE6BEF6BC3
:102080000201EC51036EED51046EEE51056E020E2D
:102090000024E96E000E0120EA6EEFCFECF2ECC2F4
:1020A000E6FF03EBE6FF04EBE6FF05EBE6FF5EEC85
:1020B00002F043E9E552E7CFECF20201EC5D65E1A5
:1020C000D950030FE96EDACFEAFFEE2A000EEE22B6
:1020D000000EEE22030E0024E96E000E0120EA6ECF
:1020E000EFCFECF2ECC2E6FF03EBE6FF04EBE6FF1A
:1020F00005EBE6FF5EEC02F043E9E552E7CFECF2D8
:102100000201EC5D42E1D950030FE96EDACFEAFF3C
:10211000EE2A000EEE22000EEE22040E0024E96EDE
:10212000000E0120EA6EEFCFECF2ECC2E6FF03EB0B
:10213000E6FF04EBE6FF05EBE6FF5EEC02F043E9A9
:10214000E552E7CFECF20201EC5D1FE1E6EC01F0B5
:10215000F28EF28C00017E8906EBECF207EBEDF2D9
:102160000201030EED03F3CFEDF2030EEC03F3CF08
:10217000ECF2F450ED270201EE6BEF6BECC2F8F0DD
:10218000EDC2F9F0EEC2FAF083D1062A000E072262
:102190005DD7066A076A00018C51065C8D510758AD
:1021A00001E3B2D0040006EBECF207EBEDF2020122
:1021B000030EED03F3CFEDF2030EEC03F3CFECF2DD
:1021C000F450ED270201EE6BEF6B030E0201EC27DA
:1021D0000C0E0201ED23000E0201EE23000E02019F
:1021E000EF230201EC51036EED51046EEE51056ECA
:1021F000020E0024E96E000E0120EA6EEFCFECF231
:10220000ECC2E6FF03EBE6FF04EBE6FF05EBE6FFBF
:102210005EEC02F043E9E552E7CFECF20201EC5D3F
:102220006FE1D950030FE96EDACFEAFFEE2A000E14
:10223000EE22000EEE22030E0024E96E000E0120B5
:10224000EA6EEFCFECF2ECC2E6FF03EBE6FF04EB45
:10225000E6FF05EBE6FF5EEC02F043E9E552E7CF6F
:10226000ECF20201EC5D4CE1D950030FE96EDACFDC
:10227000EAFFEE2A000EEE22000EEE22040E0024EB
:10228000E96E000E0120EA6EEFCFECF2ECC2E6FF41
:1022900003EBE6FF04EBE6FF05EBE6FF5EEC02F086
:1022A00043E9E552E7CFECF20201EC5D29E1E6EC0F
:1022B00001F0F28EF28C06EBECF207EBEDF202018C
:1022C000030EED03F3CFEDF2030EEC03F3CFECF2CC
:1022D000F450ED270201EE6BEF6B030E0201EC27C9
:1022E0000C0E0201ED23000E0201EE23000E02018E
:1022F000EF23ECC2F8F0EDC2F9F0EEC2FAF0C8D06C
:10230000062A000E072247D7066A076A00018E5187
:10231000065C8F51075801E3B2D0040006EBECF2E3
:1023200007EBEDF20201030EED03F3CFEDF2030E26
:10233000EC03F3CFECF2F450ED270201EE6BEF6B00
:10234000060E0201EC27180E0201ED23000E020119
:10235000EE23000E0201EF230201EC51036EED515A
:10236000046EEE51056E020E0024E96E000E01208F
:10237000EA6EEFCFECF2ECC2E6FF03EBE6FF04EB14
:10238000E6FF05EBE6FF5EEC02F043E9E552E7CF3E
:10239000ECF20201EC5D6FE1D950030FE96EDACF88
:1023A000EAFFEE2A000EEE22000EEE22030E0024BB
:1023B000E96E000E0120EA6EEFCFECF2ECC2E6FF10
:1023C00003EBE6FF04EBE6FF05EBE6FF5EEC02F055
:1023D00043E9E552E7CFECF20201EC5D4CE1D95064
:1023E000030FE96EDACFEAFFEE2A000EEE22000EAE
:1023F000EE22040E0024E96E000E0120EA6EEFCFFB
:10240000ECF2ECC2E6FF03EBE6FF04EBE6FF05EBC4
:10241000E6FF5EEC02F043E9E552E7CFECF20201A1
:10242000EC5D29E1E6EC01F0F28EF28C06EBECF2C9
:1024300007EBEDF20201030EED03F3CFEDF2030E15
:10244000EC03F3CFECF2F450ED270201EE6BEF6BEF
:10245000060E0201EC27180E0201ED23000E020108
:10246000EE23000E0201EF23ECC2F8F0EDC2F9F00A
:10247000EEC2FAF00DD0062A000E072247D7E6EC8E
:1024800001F0F28EF28C0001F869F969FA6900D066
:1024900046E9E7CFD9FF1200ADEC18F084E947E830
:1024A0000050030A1AE0010A0CE0030A22E1046A60
:1024B000040E056E066A076A00018A51086E8B5188
:1024C00017D0046A040E056E030E066E0C0E076E1E
:1024D00000018C51086E8D510BD0046A040E056EFC
:1024E000060E066E180E076E00018E51086E8F5193
:1024F000096E0450085C0550095835E253EC19F098
:10250000030E0A6E0A500BE00A280124E96E000E41
:102510000220EA6EEFCFE6FF8AEC18F0F3D7082A24
:10252000000E0922030E0A6E0A5004E0E6688AECE7
:1025300018F0FAD757EC19F00050030A0EE0010A20
:1025400007E0030A0EE108EB8AF009EB8BF009D0F3
:1025500008EB8CF009EB8DF004D008EB8EF009EB62
:102560008FF0010E01D0FF0E5CEF19F0ADEC18F00A
:1025700085E945E80050030A15E0010A0AE0030A6C
:102580001AE100018A51066E8B51076E086A096ACA
:1025900012D000018C51066E8D51076E030E086E2D
:1025A0000C0E08D000018E51066E8F51076E060E7C
:1025B000086E180E096E53EC19F0030EE66EE66A0B
:1025C00002010604EF6F000E0758F06FEFC2E6FF3E
:1025D000E66E48EC03F00201FE0EE3500824EC6FB7
:1025E00041E9E5500920ED6FEE6B0150EC1905E172
:1025F0000250ED1902E10350EE1938E0030E056EAA
:10260000055034E0030EE66EE66A06EBE6FF07EBE4
:10261000E6FFF9EC18F0040EEE5F000EEF5B0BEC3A
:1026200019F05EEC02F043E9E66E05EBF3F202010D
:10263000F46BF56BD950010FE96EDACFEAFFEE507B
:10264000F325F06FEE50F421F16FEE50F521F26FAB
:10265000F007000EF15BF25BF0C2E6FFF1C2E6FFAD
:10266000F2C2E6FF84EC19F00506CAD7056A030E2C
:10267000055C15E2E668030EE66EE66A02010604F2
:10268000F06F000E0758F16FF0C2E6FFE66EF9EC4E
:1026900018F00BEC19F084EC19F0052AE8D757EC88
:1026A00019F00606000E075A0050030A0EE0010A50
:1026B00007E0030A0EE106EB8AF007EB8BF009D086
:1026C00006EB8CF007EB8DF004D006EB8EF007EBF9
:1026D0008FF046E9E7CFD9FF1200D9CFE6FFE1CF6F
:1026E000D9FF81E945E8F29EF29CC5EC01F0046A4D
:1026F000056A04EBECF205EBEDF20201EE6BEF6B19
:10270000800E0201EC5D3E0EED59000EEE59000EFA
:10271000EF5968E2040004EBECF205EBEDF2020184
:10272000070EED03F3CFEDF2070EEC03F3CFECF25F
:10273000F450ED270201EE6BEF6B090E0201EC275E
:10274000240E0201ED23000E0201EE23000E020111
:10275000EF230201EC51016EED51026EEE51036E5A
:1027600001EBE6FF02EBE6FF03EBE6FF5EEC02F0B7
:1027700043E9FF0833E1D950010FE96EDACFEAFFF0
:10278000EE2A000EEE22000EEE2201EBE6FF02EB37
:10279000E6FF03EBE6FF5EEC02F043E9FF081EE113
:1027A000D950010FE96EDACFEAFFEE2A000EEE22D1
:1027B000000EEE2201EBE6FF02EBE6FF03EBE6FF85
:1027C0005EEC02F043E9FF0809E1E6EC01F0F28E6D
:1027D000F28C04EBF3FF05EBF4FF0DD0042A000E9E
:1027E000052287D7E6EC01F0F28EF28C800EF36EB4
:1027F0003E0EF46E00D046E9E7CFD9FF1200ADECF3
:1028000018F083E947E8F29EF29C90C0ECF291C088
:10281000EDF20201EE6BEF6B800EEC5D3E0E05EC0F
:1028200019F001E39ED0BDEC18F00001635103E004
:10283000635107080BE2BDEC18F00001635103E09F
:102840006351070803E2070E636F90D0645103E001
:1028500064511F080BE2BDEC18F00001645103E065
:1028600064511F0803E2070E646F80D0655103E0D6
:1028700065510C080BE2BDEC18F00001655103E056
:1028800065510C0803E2070E656F70D06051066E4B
:10289000040E0602F350066E61390F0B06126151E9
:1028A000076E0738F00B076E62417F0B071262510B
:1028B000086E0832086A08326451040DF350081299
:1028C0006551E840E8403F0B08126551096E094028
:1028D000E842C00B096E6651091290C0ECF291C03B
:1028E000EDF20201070EED03F3CFEDF2EC03F3CFAF
:1028F000ECF2F450ED27EE6BEF6B090EEC27240E93
:10290000ED23000EEE23EF23EC51036EED51046E28
:10291000EE51056EC5EC01F0020E69EC19F0030EE4
:1029200069EC19F0040E69EC19F006EBE6FFE7DB41
:1029300007EBE6FFE4DB08EBE6FFE1DB09EBE6FF94
:10294000DEDBE668DCDBE668DADBE6686EEC19F015
:10295000E6EC01F00001902B000E9123F28EF28C38
:1029600005D0030EE66E09EC0AF041E95CEF19F0C0
:10297000F4DB83E941E80001DE6BDF6B0001F65117
:10298000F71102E1000E08D0F6C0E9FFF7C0EAFF38
:10299000EF50800B01E0010E000958E102010F0E1B
:1029A000A06F01EBA1F2DEC0E6FFDFC0E6FFA1C22F
:1029B000E6FFE1EC18F000EBA2F2F3CFE6FFF4CF74
:1029C000E6FFA2C2E6FFE1EC18F0036A0050035CE8
:1029D00018E20350EA6A9C0FE96E000EEA22EF50FB
:1029E000E66E030E0324D1DBDEC0E6FFDFC0E6FFA8
:1029F000030E032476EC19F0EFCFE6FFE2DB032AA7
:102A0000E5D70201DFC0ECF2ED6BEC51E66E030E90
:102A10000024BBDB0001DE51E66E040E0024B5DBB2
:102A2000050E002476EC19F0040EEF6E400EE66EF3
:102A3000A00EE66E020EE66E010EE66EE66E96ECF7
:102A40001AF045E9F3CFF6F0F4CFF7F024EF19F0E0
:102A500084DB82E942E853EC19F0000403E0040E41
:102A6000005C12E1026A036A010E026E036A026AE6
:102A7000036AAFDB030EEC5D000EC7DB02E272DB24
:102A8000F8D700018A6B8B6B020E005C03E0040E2A
:102A9000005C0FE1030E026E0C0E036E9ADB060E55
:102AA000EC5D0C0EB2DB02E25DDBF8D700018C6B53
:102AB0008D6B030E005C03E0040E005C0FE1060E5C
:102AC000026E180E036E85DB090EEC5D180E9DDBA1
:102AD00002E248DBF8D700018E6B8F6BE8DB43E93D
:102AE000E7CFD9FF120000017E917E83896B12002F
:102AF000D9CFE6FFE1CFD9FF81E944E8600EE66E69
:102B0000000EE66E17EC01F042E92D0EE66E010EA6
:102B1000E66EE66AE66A00016305E66EE66AE66A64
:102B2000E66A7CEC03F0E552E5CFEFF2E5CFEEF29A
:102B3000E5CFEDF2E7CFECF21D0E0201EC27ED0E32
:102B40000201ED23010E0201EE23000E0201EF232C
:102B50000201EC51016EED51026EEE51036EC5ECB7
:102B600001F001EBE6FF02EBE6FF03EBE6FF5EECB4
:102B700002F043E90001976FFF0E0001975D6FE0DF
:102B8000046A00019751045C6AE2040001EBECF274
:102B900002EBEDF203EBEEF20201EC2B000E020170
:102BA000ED23000E0201EE23030E0402F3CFEFF239
:102BB0000201F06BF16B0201EC510201EF25000103
:102BC000E26F0201ED510201F0210001E36F020109
:102BD000EE510201F1210001E46FE2C0E6FFE3C023
:102BE000E6FFE4C0E6FF5EEC02F043E90001625D4F
:102BF00034E10001E22B000EE323000EE423E2C0E7
:102C0000E6FFE3C0E6FFE4C0E6FF5EEC02F043E966
:102C10000001615D20E1000198510001615D1AE051
:102C20000001E22B000EE323000EE42361C098F0C4
:102C3000E2C0E6FFE3C0E6FFE4C0E6FF5EEC02F0C0
:102C400043E90001966F0001F26B00017E8BE6EC18
:102C500001F005D002D000019869042A92D7E6EC71
:102C600001F045E9E7CFD9FF120094829498949A35
:102C70008B8AF09CF18AF096F09012008B888B8AF8
:102C8000E00EBB6E0F0EBC6ECA6A9D921EDB06E1A3
:102C90000C0EBD6E030EBE6E050E07D00C0EE85D69
:102CA00005E10C0EBD6EBE6E170ECB6ECA84030E10
:102CB000E85D02E10A0E04D00C0EE85D05E1280E85
:102CC000E66EA1EC05F041E9F18AF090F086120081
:102CD0008B988BB8FDD7BD6ACA6A8B8A8BAAFDD741
:102CE000BB6ABC6AF096F0901200D9CFE6FFE1CF44
:102CF000D9FF83E941E8C2DFA00EE66E40D841E982
:102D0000E7DF010EE66EDDEC04F041E9036A020E36
:102D1000035C2BE204000001EF510201EC6FED6B4C
:102D20000201140EEC1901E1ED5118E009D9000976
:102D300014E000EBE6FF01EBE6FF15D942E90009DC
:102D40000CE000EBE6FF01EBE6FF80D942E9AA0EBA
:102D5000E66E47D841E9010E0ED0DDD765D80001F7
:102D6000F06B0001EF6B032AD2D7AA0EE66E39D8BA
:102D700041E9000E00D042E9E7CFD9FF1200EDD9BA
:102D800082E941E8A2DA08E1020E026EC10ED56EB8
:102D9000D76AD66A010E0AD00C0EE85D0BE1060E6A
:102DA000026EC30ED56ED76AD66A210EB16EA2929C
:102DB000A192A082678367910001EF6BF06BEB6BD0
:102DC000EC6BED6BEE6B0050EB5D03E20250EC5DE3
:102DD000FAE3EF6BF06BD56AB16AF096F090EB51C5
:102DE00033D2BBD982E943E8690E036E000E046E4C
:102DF000140E026E023414E20250000811E20204C2
:102E00000201EC6FED6B800B01E0ED69EC510324E6
:102E1000E96EED510420EA6E00EBEFFF0206EAD7FF
:102E200044E9E7CFD9FF120098D981E941E8140EAF
:102E3000016E015009E00104ABD9EF1CE66E0104FC
:102E4000A7D95ADA0106F5D7FFD1CBD901E1ED5167
:102E500014E056DAEF50F0C0E7FFE75204E0E84232
:102E60007F0BE706FCE1010B0001686F0001F02B0E
:102E7000080EF05D02E1EF2BF06B000168511200CB
:102E80006CD984E901EBE9FF02EBEAFFEF90EF4236
:102E9000005005E001EBE9FF02EBEAFFEF8EFFD106
:102EA0005CD985E942E881EB06F0063433E206504E
:102EB000010830E2020E065C0201EC6FED6B800B44
:102EC00001E0ED69B3D9EF50010B056EF9D901E0CE
:102ED000EF69B3D9EF407F0BC9D901E0ED69A6D9FD
:102EE0000BDA05500AE0ECD901E0EF69A6D9EF5002
:102EF0008009BCD90BE0ED6909D0E2D901E0EF69A6
:102F00009CD9EF507F0BB2D901E0ED698FD9F4D98C
:102F10000606CBD79DD9EF407F0BE66E99D9ECD949
:102F2000005004E095D9EF50800903D091D9EF50BB
:102F30007F0BE66E8DD9E0D943E9E7CFD9FF1200C8
:102F40000CD981E941E8016A4CD901E1ED5109E070
:102F50007CDF0108F8E1012A090E015CF5E1010EB0
:102F600001D0000E71D1F9D883E947E8036A010E58
:102F7000046E056A066A076A086A096A046E043400
:102F800002E20450320835E360DF036E2AD902E121
:102F9000ED5158E062D9000905E10350055C52E1AA
:102FA000056A25D003EBE6FF050EE66E00EBE6FFB3
:102FB00001EBE6FF75DF44E905500318056E4DD9B6
:102FC000040A12E0070A0CE0010A06E0030A0FE116
:102FD00006500318066E0BD007500318076E07D073
:102FE00008500318086E03D009500318096E042A0C
:102FF000C6D72BDF065C26E128DF075C23E125DF4F
:10300000085C20E122DF095C1DE11FDF00091AE1F5
:10301000046AD890045002E6050E045C10E204EB4A
:10302000ECF20201ED6BECBFED69EC510024E96EAE
:10303000ED510120EA6EEF5002E1042AEAD7050EB5
:10304000045C02E1000E01D0010E36D186D883E97E
:1030500048E8066A076A086A096A0A6A056A050E84
:10306000055C32E2070E046E036A080E035C2AE276
:1030700003EBECF2055092D8EF50ECC2E7FFE752B9
:1030800004E0E8427F0BE706FCE1010B0CE0010ED7
:1030900004EBF3FF045204E0D890E836F306FCE1B9
:1030A00083D8EF120CD0010E04EBF3FF045204E0BE
:1030B000D890E836F306FCE1E81C76D8EF16040653
:1030C000032AD3D7052ACBD7036A050E035C13E284
:1030D0000201D950060FEC6F0350EA6AEC25E96E45
:1030E000DA50EA22EF50E66E040ED880035456D828
:1030F00003D9032AEAD749E9E7CFD9FF1200EED86E
:10310000D950030FE96EDACFEAFFEE2A000EEE2265
:10311000EE221200030EE66EE66A08EBE6FF09EB0C
:10312000E6FF48EC03F00201FE0EE3500624EE6FCA
:1031300041E9E5500720EF6F0A50EE25EC6F000ED5
:10314000EF21ED6FEC07000EED5BECC2E6FFEDC288
:10315000E6FFE66AD9D80A061200D9CFE6FFE1CF2A
:10316000D9FF1200E66802EBE6FF03EBE6FFE66A32
:10317000CBD8022A000E03221200600EE66E000E6B
:10318000E66E17EC01F042E91200B0D87CEF19F0BE
:10319000EA6A690FE96E000EEA2212000024E96E65
:1031A000000E0120EA6E12000201EE6FD950060FE8
:1031B000EC6F0550EA6AEC25E96EDA50EA22EE512E
:1031C00012003BEC0FF043E9F3CFDEF0F4CFDFF079
:1031D000120002EBECF203EBEDF20201EE6BEF6B8F
:1031E00012000001EF510201EC6FED6B140EEC19AF
:1031F000120048EC03F00201FE0EE3500824EE6FCB
:1032000041E9E5500920EF6F1200ED59000EEE592B
:10321000000EEF5912000550EE25EC6F000EEF2165
:10322000ED6FECC2E6FFE66EE66A1200EC51022496
:10323000E96EED510320EA6E1200EE510224E96EB0
:10324000EF510320EA6E120042E9E7CFD9FF1200E6
:1032500002EBE9FF03EBEAFF1200050EE66E04EB5A
:10326000E6FF24EC03F041E9E7501200E66E0604A5
:10327000EC6FED6B800B1200E5CFEAFFE5CFE9FFC5
:10328000E5CFDAFF1200040EEEC2ECF2EFC2EDF26F
:10329000000A1200E66ECCEC1FF041E9120041E991
:1032A000E7CFD9FF1200F29EF29CC5EF01F0E6ECE9
:1032B00001F0F28EF28C120048E9E7CFD9FF12003C
:1032C0000604EE6FEF6B800B1200030E0001E85D49
:1032D000120064DFEFCFE6FF7FEF18F003EBE6FFAD
:1032E00004EBE6FF05EBE6FF84EF19F0EA6AA00FB6
:1032F000E96E020EEA221200E552E750EF6E12006C
:103300000001EF51C8EF18F00AEC02F044E9120096
:103310007FEC1FF0A0940F015F6B626A536B12EC9D
:103320001FF03CEC1FF0016A080EF36EF46AF350D4
:10333000015C000EF45410E20150040DF3CFE9FFDC
:10334000F4CFEAFF000EE926020EEA22EE6AEE6AE8
:10335000EE6AEE6A012AE8D7648C0F015C6B649810
:10336000649C62A607D062960201436B486B496B6E
:103370004A6BF7D70201010E5A6F5B6F5C6B5D6B96
:10338000506B016A020E015C0FE229EC1FF0EA2289
:10339000EE6AED6AEA6A0134F6EC1EF0EA22EE6AA1
:1033A000ED6ADFEC1EF0EED70201080E3B6F020E55
:1033B0003C6F0F01160E536F0201200E026F020EBA
:1033C000036F080E016F840E006F0201316B306BCA
:1033D0000AEF1FF07FEC1FF00201300507E164BA2D
:1033E00005D0626A60806088020E306F6250040B04
:1033F00005E06050040B02E062941ADB64B246D030
:103400006250010B09E06050010B06E081DFA084EF
:103410000201040E306F62906250100B05E06050A4
:10342000100B02E0FBDA629862AC0FD060AC05D002
:103430004CEC1FF0730EC9EC1EF0629C0201585157
:1034400001E05807585101E102D96250200B04E015
:103450006050200B01E0D1DA6250020B0DE06050A9
:10346000020B0AE04CEC1FF0E6687F0EE66EF6EC0D
:103470000EF046E90F015F6B040E0201E76E301992
:1034800002E7E73402D0E750305D02E2A1942ED08B
:1034900060A62BD0016A040E015C27E262A625D04B
:1034A00063CF51F202015151780BE842E842E84201
:1034B000526F629651B504D05251AEEC1FF003D05A
:1034C0005251B3EC1FF0EA22EF70525102E1BCDA24
:1034D0000AD0000EE66EE66A510EE66E020EE66E49
:1034E000720EC9EC1EF0012AD6D7A1940AEF1FF084
:1034F000B8EC1FF000A405D0E66A01EBE6FFECD8BB
:1035000042E900A206D0010EE66E01EBE6FFE4D828
:1035100042E90150036E046A530E03260F0E042283
:103520009EEC1FF000EBEFFF0EEF1FF0BCEC1EF067
:1035300086E942E8035003E02DEC1FF004D0EA6A6C
:103540000434F6EC1EF0EA22EE50066EED50076EE3
:103550000650071004E1000EF36EF46A29D037EC30
:103560001FF0C7EC1FF001EBEEFF02EBEDFF37ECB5
:103570001FF0EE5200EBEFFF0201400EEC6F37EC54
:103580001FF0EC51EF16880EEC6F37EC1FF0EC518A
:10359000EF12035003E02DEC1FF004D0EA6A04346C
:1035A000F6EC1EF0EA22EF7406EBF3FF07EBF4FFF4
:1035B0000EEF1FF0B8EC1FF0015003E18DEC1FF08F
:1035C0000CD068EC1FF00201F324E9EC1EF068EC6B
:1035D0001FF0F324010FE9EC1EF00EEF1FF0CCDB1F
:1035E00082E964A816D0BADB400EEE16EE6AEE6AE7
:1035F000EE6AB4DBEE7CEA6A003478EC1FF0EA2273
:10360000EF740201400EEC6FA9DBEC51EF16A6DB64
:10361000EF7C41E9E7CFD9FF1200646A6198606AE4
:10362000A0940201306B1200020130510FE1646A74
:10363000606A3CEC1FF0D08EA284A084F28E64B647
:1036400002D06486FCD70201010E306F1200020125
:103650005A5122E1010E5A6F5B511EE1010E5B6F60
:10366000020E405D07E183DBEE52EF6A80DBC80E9D
:10367000EF6E1200400510E1536B91DBEE52080E25
:10368000EF6E8DDB72EC1FF08ADB840EEF6E010EA5
:10369000536F60DB800EEF6E120002015C6B5D6B9E
:1036A000020E405D06E1C1EC1FF083DB6DEC1FF004
:1036B00010D044510201265D0201455102012759F3
:1036C00004E226C244F227C245F25BD850DB71DB2C
:1036D0004EDBC80EEF6E1200B8EC1FF0000E036E4A
:1036E000020E046E68EC1FF0F324040DF350032661
:1036F000F45004229EEC1FF0EF9E005004E1EA6AB1
:10370000013474DB01D0A5DBEA2203EBEEFF04EB0E
:10371000EDFF9EEC1FF0EF9C040E0324E96E000EFB
:103720000420EA6EEF8C7AD36498020143BF0DD077
:1037300048AF09D0020E406F5D5101E1AEDF0201DA
:103740005B6B5A6B12008DEF1FF0020120AF0DD0A2
:103750000201010E406F5C5101E19FDF02015B6BD2
:103760005A6B59510DE127EF1BF00201020E406F19
:10377000F1DA840EEF6E5B6B5A6B595101E167DF32
:103780001200BDDB080E016E0201445D000E4559BA
:103790000AE24451016E3F5102E1010E03D03F05A0
:1037A00002E1020E3F6F0150F36EF46AF350445F82
:1037B000F450455BDCDAEE5201EBEFFF280E4D6F63
:1037C000020E4E6F43B10DD0015017E041C2F6FF1B
:1037D00042C2F7FF412B000E42230800F5500DDBDB
:1037E000F3D701500AE041C2E9FF42C2EAFF412B90
:1037F000000E4223EF5001DBF4D70CD3BDDA81E990
:1038000042E8CDDAEE52EF50016E01500201495DFF
:10381000000E4A5902E24951016E0150F36EF46AFA
:10382000F350495FF4504A5B026A0150025C14E2B3
:103830000250EA6A280FE96E020EEA22EF50E66EA5
:1038400046C2E9FF47C2EAFF462B000E4723E55276
:10385000E750EF6E022AE9D749510008000E4A5599
:103860000DE28FDBA6DA9BDAEF50400B03E135DB8C
:10387000C80E02D032DB880EEF6E0FD06BDA840EEA
:10388000EF6E4B514C1104E04CC2FAFF4B51140047
:103890000201489F595101E1DADEC0D230DB02015A
:1038A000438FC0DA200EE66EE66AE66A000EE66E28
:1038B000020E62DB648C016A020E015C02E27FDAB6
:1038C000FBD7010EE66EE66AE66A320EE66E020E7F
:1038D00053DB649C0201080E3B6F020E3C6F000E2E
:1038E000336F020E346F33C235F2366F22C231F2BB
:1038F000315102E1100E0BD0010EE66EE66A310E78
:10390000E66E020EE66E010E44DA0201200E306F02
:1039100081D2800E0201205D38E10201C00E436FAA
:1039200002012351030A1AE0010A09E0030A2BE10C
:1039300002015C0E416F080E426F120E1ED0BADA01
:10394000050EF626090EA0DA020E0201ACDAF5CF5A
:1039500044F2030EA8DAF5CF45F21200040E225D00
:103960000FE2A8DA070EF626090E8EDA41C2F6FF3C
:1039700042C2F7FF0800F5500201446F456B120088
:103980000201436B12000201436B1200F5D981E979
:1039900042E80201286B296B20511F0B020A11E03B
:1039A000030A0CE0010A1EE10201438F0201288193
:1039B00002014F0517E10201288314D00201438F51
:1039C00011D00201438F020124BF02D0ADDA01D031
:1039D000B0DA47DAB8DA06E0E7D9EF50040B02E0D4
:1039E000010E286F020143AF07D0280E416F020E6F
:1039F000426F4381020E446F11D20F0153A10CD0CC
:103A0000CED9EF50800807E1B2D9EF50840803E126
:103A1000C6D98C0EEF6E5391629A12006084629840
:103A200064820201010E506F06DA750EC9EF1EF0B6
:103A30000201506B00DA740EACD96492609462A4F7
:103A400002D06294FCD712005ADA02012D0E586F90
:103A5000FD0E51153AE17E0E5115E8407F0B040D25
:103A6000F3CF33F2F4CF34F2000E3327020E3423B7
:103A700033C235F234C236F2357591D9EF503C0B72
:103A8000E842E8420D081FE1016A080E015C17E2F6
:103A900086D97DDAEE50EFCFEAFFE96EEF50E66EA1
:103AA0000150EA6A200FE96E020EEA22E552E75061
:103AB000EF6E75D96CDAEE2AEF22012AE6D76FD9BC
:103AC00011DA09D807D022D805D0FD0E5115040807
:103AD00001E12BD89FD102013F6B596B5C6B5D6B91
:103AE000536B406B44D9EF9E3B7541D9EF9E3B75BC
:103AF000F4D9EF9E436B446B456B486B496B4A6B43
:103B00004DD899D9030E45D994EF1BF0020E02014E
:103B1000405D02E1FEEF1BF0406B535104E11AD906
:103B20008C0EEF6E1200536B1200E9D920D9EF50C2
:103B3000400B01E0010E016E02013B75080E305D85
:103B40000BE122C25CFF0F015C5103E00201100E89
:103B500002D00201040E306F400513E108D929D9C3
:103B600010DE020E02013F5D03E101D9840E07D091
:103B7000015003E1FCD8C80E02D0F9D8880EEF6ED0
:103B80000CD048AF09D04B514C1104E04CC2FAFFA5
:103B90004B5114000201489F406B3CD1020120515F
:103BA000600BE842E842E842E842E842000901E0EE
:103BB000120021510C0A44E00B0A3EE00C0A30E0EE
:103BC000010A22E00B0A1EE0020A1CE0030A18E0C8
:103BD000080A10E0010A0CE00F0A08E0030A01E0FD
:103BE00012000201438F080E306F120089EF1CF0A3
:103BF0004EEF1CF00201310E416F020E426F0BD0EE
:103C0000C6EF1CF021EF1EF024510201426B320F6F
:103C1000416F020E42234381010E446F438F120015
:103C20000201438F02012451EA6A320FE96E020E4B
:103C3000EA2222C2EFFF1200FED8020EC9EF1EF0E8
:103C400012009AD881E945E80201220510E12051CD
:103C50001F0B00090CE10201438F030E0201215DDD
:103C600004E10201010E4F6F02D002014F6B02010D
:103C700022516CE120511F0B020868E124510F0B07
:103C8000000964E024510F0B010860E3200E0201DB
:103C9000305D5CE1438F020124BF04D045D9E1D8F7
:103CA000D0D803D046D9DDD8D0D8EA22EF50036E61
:103CB00008D9010B02E1019401D0018424BF02D094
:103CC00033D901D036D9EA2201EBEEFF02EBEDFF4A
:103CD000030E215D10E137D907E024BF02D0B1D82F
:103CE00001D0B3D8EA22EF820201840EEC6F5CD8D7
:103CF000EC51EF122BD0017426D906E055D8EF9E77
:103D000053D8EF8C00D902D04FD8EF8C0174D9D89A
:103D1000020B02E118D90BE0020124BF02D091D8B6
:103D200001D093D8EA22EF9212D9EDD801D00FD961
:103D3000020124510F0B046E056A530E04260F0E68
:103D4000052204EBE9FF05EBEAFFEF9046E9E7CF38
:103D5000D9FF120016D9C6D86DEF1FF0EA6A0034F9
:103D6000C7D8EA22EE50EFCFEAFFE96E12003BC25D
:103D7000E9FF3CC2EAFF1200D9CFE6FFE1CFD9FF4D
:103D8000120024510F0BE96EEA6AD890E936EA3640
:103D90001200E66EE66AF6EC0EF046E9120033C257
:103DA000E9FF34C2EAFF120001EBE9FF02EBEAFF90
:103DB0001200EDD8280EEE6E020EED6E12000150CC
:103DC000D2D8EA22EF6A0150C9D8EA22EF6A012A62
:103DD0001200040D000EF324036E020EF420046E94
:103DE000840EEC6FABD8EC51EF121200FE0BE96EB3
:103DF000EA36370EE926020E1200E66E4DC2E9FFE2
:103E00004EC2EAFF4D2B000E4E23E552E750EF6EF7
:103E10000106120042E9E7CFD9FF120043E9E7CFDC
:103E2000D9FF1200010EE66EE66AE66A540EE66EEF
:103E30000F0EBCEF1FF0000EE66EE66AE66EE66A55
:103E4000120024510F0BAEEF1FF024510F0BB3EFF4
:103E50001FF0EA6A013478EF1FF0EA6A043478EF61
:103E60001FF0EA22EE50016EED50026E120006EBDA
:103E7000E9FF07EBEAFF1200160E616E0F019F0EBD
:103E80005B6F7B0E606E1200F7220900F5CF41F2E6
:103E90000A00F5CF42F21200010EE66EE66A000E4D
:103EA000E66EE66A1200F76A4125F66E4251F72285
:103EB000080012002251F66EF76AD890F636F736EF
:103EC0001200D950030FE96EDACFEAFFEF5012006B
:103ED000040E01020050E824120035C2E9FF36C288
:103EE000EAFF120054D8200EEE6E020EED6E1200A4
:103EF000FE0BE96EEA363B0EE926020E12003CDFAD
:103F000081E941E81200020EE66EE66A01EBE6FF87
:103F100002EBE6FF050EC9EF1EF01CDF8C0EEF6E04
:103F200026DF840EEF6E12002CDF370EE926020E1C
:103F3000120027DF3B0EE926020E120003EBE9FF19
:103F400004EBEAFF120030DFEF50800B1200020199
:103F50003B0EEC6F29DFEC51EF161200EA6A560FA8
:103F6000E96E020E1200EA6A540FE96E020E1200A8
:103F700003DF83E942E81200E66E4DEC05F045E907
:103F80001200ABDFEE52080EEF6E6DEF1FF0020E67
:083F9000E926000EEA221200EE
:083F9800FF0EE3500001FF6F72
:103FA000EE0E02D0F20E0000E76EE72ED5EF1FF006
:103FB0000C0E0001FE6FE76AE72EDCEF1FF0FE2F0C
:0E3FC000DBEF1FF00001FF2FD2EF1FF0120009
:023FCE00FF0EE4
:103FD000E3500001FF6F480E01D04C0EE76EE72E54
:0E3FE000FED7E76AE72EFED7FF2FF7D71200B5
:023FEE001F0EA4
:0C3FF000C514FDE1C750040BFAE11200FB
:020000040030CA
:0100000018E7
:01000100827C
:0100020039C4
:0100030011EB
:010005008872
:01000600C138
:0100080000F7
:010009008076
:01000A0003F2
:01000B00C034
:01000C0003F0
:01000D0040B2
:00000001FF
