:020000040000FA
:0600000019EF1DF01200D3
:020006001200E6
:0600080037EF08F01200C2
:02000E000000F0
:050010000000000000EB
:0600180001EF08F01200E8
:02001E000200DE
:100020007C3A00003E000000060000000E000000C8
:08003000F602000007000000C9
:0800380013EC06F0A0940F0187
:100040005F6B626A536BA6EC05F0D0EC05F0016AB9
:10005000080EF36EF46AF350015C000EF45410E2E3
:100060000150040DF3CFE9FFF4CFEAFF000EE926BB
:10007000020EEA22EE6AEE6AEE6AEE6A012AE8D71A
:10008000648C0F015C6B6498649C62A607D06296D6
:100090000201436B486B496B4A6BF7D70201010EB3
:1000A0005A6F5B6F5C6B5D6B506B016A020E015C9B
:1000B0000FE2BDEC05F0EA22EE6AED6AEA6A01346D
:1000C0008AEC05F0EA22EE6AED6A73EC05F0EED7F1
:1000D0000201080E3B6F020E3C6F0F01160E536FAC
:1000E0000201200E026F020E036F080E016F840ED4
:1000F000006F0201316B306B9EEF05F013EC06F0E0
:100100000201300507E164BA05D0626A6080608848
:10011000020E306F6250040B05E06050040B02E0E9
:1001200062941ADB64B246D06250010B09E0605061
:10013000010B06E081DFA0840201040E306F6290A3
:100140006250100B05E06050100B02E0FBDA629881
:1001500062AC0FD060AC05D0E0EC05F0730E5DEC46
:1001600005F0629C0201585101E05807585101E125
:1001700002D96250200B04E06050200B01E0D1DA7C
:100180006250020B0DE06050020B0AE0E0EC05F05B
:10019000E6687F0EE66EF4EC0FF046E90F015F6B48
:1001A000040E0201E76E301902E7E73402D0E7508F
:1001B000305D02E2A1942ED060A62BD0016A040E1D
:1001C000015C27E262A625D063CF51F202015151B2
:1001D000780BE842E842E842526F629651B504D08B
:1001E000525142EC06F003D0525147EC06F0EA229D
:1001F000EF70525102E1BCDA0AD0000EE66EE66AF8
:10020000510EE66E020EE66E720E5DEC05F0012AEE
:10021000D6D7A1949EEF05F04CEC06F000A405D0D3
:10022000E66A01EBE6FFECD842E900A206D0010E37
:10023000E66E01EBE6FFE4D842E90150036E046A82
:10024000530E03260F0E042232EC06F000EBEFFFF4
:10025000A2EF05F050EC05F086E942E8035003E018
:10026000C1EC05F004D0EA6A04348AEC05F0EA2215
:10027000EE50066EED50076E0650071004E1000EBA
:10028000F36EF46A29D0CBEC05F05BEC06F001EBE1
:10029000EEFF02EBEDFFCBEC05F0EE5200EBEFFFD3
:1002A0000201400EEC6FCBEC05F0EC51EF16880E1E
:1002B000EC6FCBEC05F0EC51EF12035003E0C1EC16
:1002C00005F004D0EA6A04348AEC05F0EA22EF74FF
:1002D00006EBF3FF07EBF4FFA2EF05F04CEC06F0A2
:1002E000015003E121EC06F00CD0FCEC05F002011A
:1002F000F3247DEC05F0FCEC05F0F324010F7DEC1C
:1003000005F0A2EF05F0CCDB82E964A816D0BADBD9
:10031000400EEE16EE6AEE6AEE6AB4DBEE7CEA6A36
:1003200000340CEC06F0EA22EF740201400EEC6F90
:10033000A9DBEC51EF16A6DBEF7C41E9E7CFD9FF53
:100340001200646A6198606AA0940201306B120026
:10035000020130510FE1646A606AD0EC05F0D08E82
:10036000A284A084F28E64B602D06486FCD7020117
:10037000010E306F120002015A5122E1010E5A6F34
:100380005B511EE1010E5B6F020E405D07E183DBF6
:10039000EE52EF6A80DBC80EEF6E1200400510E1EE
:1003A000536B91DBEE52080EEF6E8DDB06EC06F020
:1003B0008ADB840EEF6E010E536F60DB800EEF6EF2
:1003C000120002015C6B5D6B020E405D06E155ECB4
:1003D00006F083DB01EC06F010D044510201265DEB
:1003E000020145510201275904E226C244F227C204
:1003F00045F25BD850DB71DB4EDBC80EEF6E1200AE
:100400004CEC06F0000E036E020E046EFCEC05F0E0
:10041000F324040DF3500326F450042232EC06F0CA
:10042000EF9E005004E1EA6A013474DB01D0A5DBE1
:10043000EA2203EBEEFF04EBEDFF32EC06F0EF9C5B
:10044000040E0324E96E000E0420EA6EEF8C7AD3CA
:100450006498020143BF0DD048AF09D0020E406F2F
:100460005D5101E1AEDF02015B6B5A6B120021EFBF
:1004700006F0020120AF0DD00201010E406F5C5169
:1004800001E19FDF02015B6B5A6B59510DE1BBEF3C
:1004900001F00201020E406FF1DA840EEF6E5B6B29
:1004A0005A6B595101E167DF1200BDDB080E016E86
:1004B0000201445D000E45590AE24451016E3F516C
:1004C00002E1010E03D03F0502E1020E3F6F015031
:1004D000F36EF46AF350445FF450455BDCDAEE529D
:1004E00001EBEFFF280E4D6F020E4E6F43B10DD0A2
:1004F000015017E041C2F6FF42C2F7FF412B000E48
:1005000042230800F5500DDBF3D701500AE041C249
:10051000E9FF42C2EAFF412B000E4223EF5001DB0C
:10052000F4D70CD3BDDA81E942E8CDDAEE52EF50D0
:10053000016E01500201495D000E4A5902E2495123
:10054000016E0150F36EF46AF350495FF4504A5B58
:10055000026A0150025C14E20250EA6A280FE96E56
:10056000020EEA22EF50E66E46C2E9FF47C2EAFFFA
:10057000462B000E4723E552E750EF6E022AE9D7DB
:1005800049510008000E4A550DE28FDBA6DA9BDACE
:10059000EF50400B03E135DBC80E02D032DB880E92
:1005A000EF6E0FD06BDA840EEF6E4B514C1104E0FE
:1005B0004CC2FAFF4B5114000201489F595101E10E
:1005C000DADEC0D230DB0201438FC0DA200EE66EE5
:1005D000E66AE66A000EE66E020E62DB648C016A71
:1005E000020E015C02E27FDAFBD7010EE66EE66ADC
:1005F000E66A320EE66E020E53DB649C0201080EC0
:100600003B6F020E3C6F000E336F020E346F33C22D
:1006100035F2366F22C231F2315102E1100E0BD0A9
:10062000010EE66EE66A310EE66E020EE66E010E11
:1006300044DA0201200E306F81D2800E0201205D6B
:1006400038E10201C00E436F02012351030A1AE090
:10065000010A09E0030A2BE102018C0E416F360EFC
:10066000426F120E1ED0BADA350EF626370EA0DA19
:10067000020E0201ACDAF5CF44F2030EA8DAF5CF90
:1006800045F21200040E225D0FE2A8DA370EF626BC
:10069000370E8EDA41C2F6FF42C2F7FF0800F5506E
:1006A0000201446F456B12000201436B120002010C
:1006B000436B1200F5D981E942E80201286B296BEE
:1006C00020511F0B020A11E0030A0CE0010A1EE18F
:1006D0000201438F0201288102014F0517E1020147
:1006E000288314D00201438F11D00201438F0201ED
:1006F00024BF02D0ADDA01D0B0DA47DAB8DA06E0CA
:10070000E7D9EF50040B02E0010E286F020143AF5E
:1007100007D0280E416F020E426F4381020E446FD4
:1007200011D20F0153A10CD0CED9EF50800807E1B0
:10073000B2D9EF50840803E1C6D98C0EEF6E539105
:10074000629A12006084629864820201010E506F06
:1007500006DA750E5DEF05F00201506B00DA740EDB
:10076000ACD96492609462A402D06294FCD7120067
:100770005ADA02012D0E586FFD0E51153AE17E0E28
:100780005115E8407F0B040DF3CF33F2F4CF34F270
:10079000000E3327020E342333C235F234C236F250
:1007A000357591D9EF503C0BE842E8420D081FE146
:1007B000016A080E015C17E286D97DDAEE50EFCFB0
:1007C000EAFFE96EEF50E66E0150EA6A200FE96E2B
:1007D000020EEA22E552E750EF6E75D96CDAEE2A86
:1007E000EF22012AE6D76FD911DA09D807D022D82B
:1007F00005D0FD0E5115040801E12BD89FD102014F
:100800003F6B596B5C6B5D6B536B406B44D9EF9ED8
:100810003B7541D9EF9E3B75F4D9EF9E436B446B1A
:10082000456B486B496B4A6B4DD899D9030E45D936
:1008300028EF02F0020E0201405D02E192EF02F0A9
:10084000406B535104E11AD98C0EEF6E1200536BBA
:100850001200E9D920D9EF50400B01E0010E016EE2
:1008600002013B75080E305D0BE122C25CFF0F01F7
:100870005C5103E00201100E02D00201040E306F41
:10088000400513E108D929D910DE020E02013F5DAF
:1008900003E101D9840E07D0015003E1FCD8C80E52
:1008A00002D0F9D8880EEF6E0CD048AF09D04B516A
:1008B0004C1104E04CC2FAFF4B5114000201489F56
:1008C000406B3CD102012051600BE842E842E84213
:1008D000E842E842000901E0120021510C0A44E01C
:1008E0000B0A3EE00C0A30E0010A22E00B0A1EE08F
:1008F000020A1CE0030A18E0080A10E0010A0CE0F2
:100900000F0A08E0030A01E012000201438F080EFB
:10091000306F12001DEF03F0E2EF02F00201310E22
:10092000416F020E426F0BD05AEF03F0B5EF04F0A7
:1009300024510201426B320F416F020E4223438168
:10094000010E446F438F12000201438F02012451B4
:10095000EA6A320FE96E020EEA2222C2EFFF1200AB
:10096000FED8020E5DEF05F012009AD881E945E845
:100970000201220510E120511F0B00090CE10201C8
:10098000438F030E0201215D04E10201010E4F6F4E
:1009900002D002014F6B020122516CE120511F0B6A
:1009A000020868E124510F0B000964E024510F0B89
:1009B000010860E3200E0201305D5CE1438F02011B
:1009C00024BF04D045D9E1D8D0D803D046D9DDD84A
:1009D000D0D8EA22EF50036E08D9010B02E101944E
:1009E00001D0018424BF02D033D901D036D9EA2204
:1009F00001EBEEFF02EBEDFF030E215D10E137D9B5
:100A000007E024BF02D0B1D801D0B3D8EA22EF82E8
:100A10000201840EEC6F5CD8EC51EF122BD0017404
:100A200026D906E055D8EF9E53D8EF8C00D902D0D6
:100A30004FD8EF8C0174D9D8020B02E118D90BE022
:100A4000020124BF02D091D801D093D8EA22EF92BC
:100A500012D9EDD801D00FD9020124510F0B046E29
:100A6000056A530E04260F0E052204EBE9FF05EB81
:100A7000EAFFEF9046E9E7CFD9FF120016D9C6D8B2
:100A800001EF06F0EA6A0034C7D8EA22EE50EFCF51
:100A9000EAFFE96E12003BC2E9FF3CC2EAFF120026
:100AA000D9CFE6FFE1CFD9FF120024510F0BE96E39
:100AB000EA6AD890E936EA361200E66EE66AF4ECA5
:100AC0000FF046E9120033C2E9FF34C2EAFF120018
:100AD00001EBE9FF02EBEAFF1200EDD8280EEE6E03
:100AE000020EED6E12000150D2D8EA22EF6A0150D8
:100AF000C9D8EA22EF6A012A1200040D000EF3247D
:100B0000036E020EF420046E840EEC6FABD8EC5131
:100B1000EF121200FE0BE96EEA36370EE926020EDE
:100B20001200E66E4DC2E9FF4EC2EAFF4D2B000EE9
:100B30004E23E552E750EF6E0106120042E9E7CF7F
:100B4000D9FF120043E9E7CFD9FF1200010EE66E8C
:100B5000E66AE66A540EE66E0F0E50EF06F0000EDF
:100B6000E66EE66AE66EE66A120024510F0B42EF6B
:100B700006F024510F0B47EF06F0EA6A01340CEF40
:100B800006F0EA6A04340CEF06F0EA22EE50016E39
:100B9000ED50026E120006EBE9FF07EBEAFF1200D0
:100BA000160E616E0F019F0E5B6F7B0E606E120062
:100BB000F7220900F5CF41F20A00F5CF42F2120008
:100BC000010EE66EE66A000EE66EE66A1200F76A4D
:100BD0004125F66E4251F722080012002251F66EAE
:100BE000F76AD890F636F7361200D950030FE96E3F
:100BF000DACFEAFFEF501200040E01020050E824A1
:100C0000120035C2E9FF36C2EAFF120054D8200EA6
:100C1000EE6E020EED6E1200FE0BE96EEA363B0E32
:100C2000E926020E12003CDF81E941E81200020EC3
:100C3000E66EE66A01EBE6FF02EBE6FF050E5DEF0E
:100C400005F01CDF8C0EEF6E26DF840EEF6E1200B7
:100C50002CDF370EE926020E120027DF3B0EE926B5
:100C6000020E120003EBE9FF04EBEAFF120030DF93
:100C7000EF50800B120002013B0EEC6F29DFEC51AC
:100C8000EF161200EA6A560FE96E020E1200EA6AC7
:100C9000540FE96E020E120003DF83E942E81200EE
:100CA000E66EB5EC1CF045E91200ABDFEE52080E23
:100CB000EF6E01EF06F0020EE926000EEA221200A6
:100CC000F29EF29C3F0EC716C66AC56A800EC76EBA
:100CD000080EC66E1D0EC86E938C9388C68A8A8EC7
:100CE0000A0EE66EE9EC1CF041E9F28EF28C12007D
:100CF000C69A8A9E030EE66EE9EC1CF041E91200EA
:100D0000D9CFE6FFE1CFD9FF85E941E8056A05982B
:100D1000058A059C058EBED8100E99D803E0020105
:100D2000A2D8FEE1AFD8E8B00586A3D8C5A003D00D
:100D3000FDD7C5B0FED793D8C5BCFED7ABD8080E3B
:100D400086D803E002018FD8FEE17AD8C5BCFED771
:100D500001EBECF275D8C5BCFED700EBE6FFA8D8D6
:100D6000C5BCFED7C584C5A403D0FDD7C5B4FED786
:100D7000F7EC07F0C580C5B0FED7F7EC07F06FD8E9
:100D8000C5AC04D0C584C5B4FED7F2D7C584C5A40C
:100D900003D0FDD7C5B4FED7F7EC07F0F28EF28C86
:100DA00042E9E7CFD9FF1200D9CFE6FFE1CFD9FF63
:100DB00084E942E8046A056A0598058A059C058E5F
:100DC00070D8100E44D803E002014DD8FEE15AD885
:100DD000E8B005864ED8C5A003D0FDD7C5B0FED774
:100DE0003ED8C5BCFED75DD8080E31D803E002015D
:100DF0003AD8FEE125D8C5BCFED700EBECF220D8EE
:100E0000C5BCFED7C582C5B2FED7F7EC07F00528F2
:100E1000E66E4ED8C5BCFED726EC1DF0046EF7EC8E
:100E200007F0C584C5A403D0FDD7C5B4FED7F7EC41
:100E300007F0F28EF28C045043E9E7CFD9FF12009D
:100E40000201ED6BEE6BECC2E6FF58EF07F01F0BF3
:100E5000EFC2ECF2F0C2EDF2F1C2EEF2120005EBDD
:100E6000E6FF58EF07F0D890EE33ED33EC33E806A9
:100E70001200059205940590F29EF29CF7EC07F0A3
:100E8000C5801200010E0201EC17ED6BEE6BEC5108
:100E90000596120001EBEFF202EBF0F203EBF1F238
:100EA000120000EBEFF201EBF0F202EBF1F21200B4
:0A0EB000EFEC1BF041E9F7EF07F04B
:060EBA00020120511F0B94
:100EC000010801E01200245101E01200060E215D2C
:100ED0001BE12351230A18E0010A0CE0030A14E184
:100EE0000201310511E10201B00E416F360E426F71
:100EF000090E06D00201190E416F370E426F1C0E0B
:100F0000446F456BC00E436F02012051600BE842F5
:100F1000E842E842E842E842010801E012002151BB
:100F20000B0A26E0080A19E0090A11E0080A05E0A0
:100F30000B0A23E0080A21E0120002015E0E416F55
:100F4000020E426F010E446F456BC10E0FD00201BD
:100F5000800E436F23C25EF2120002015F0E416FEA
:100F6000020E426F010E446F456B810E436F1200FB
:0C0F70000201800E436F22C25FF21200EB
:040F7C00D9CFE6FFE4
:100F8000DACFE6FFE1CFD9FFE2CFDAFF84E943E829
:100F9000F8CF05F0F6CF06F03F0E0112FC0E00125E
:100FA000C00EBD100114BD6E0F0EBD100014BD6E3D
:100FB0003F0E015C02E1949A10D0BF0E015C03E188
:100FC000949A94980AD07F0E015C03E0FF0E015CB6
:100FD00004E1949A94989496949405C0F8FF06C0FE
:0E0FE000F6FF44E9E5CFDAFFE7CFD9FF1200B4
:020FEE001F0ED4
:0C0FF000C514FDE1C750040BFAE112002B
:040FFC00BD6A1200B8
:02100000393085
:0E100200D8CFE4FFE0CFE4FFE46E32EC15F04F
:10101000D9CFE4FFDACFE4FFB3EC14F002EEECF04A
:101020000A0EE80403E3EECFE4FFFBD7E652A0503C
:10103000020B06E0A150020B03E041EC16F0A19276
:10104000E55202EEF5F00A0EE80403E3E5CFEDFF0A
:10105000FBD7C8EC14F0E5CFDAFFE5CFD9FF41ECC0
:1010600015F0E550E5CFE0FFE5CFD8FF100032ECFA
:1010700015F0B3EC14F002EEECF00A0EE80403E312
:10108000EECFE4FFFBD7E65294EC14F081E941E89F
:10109000F250100B08E0F250020B05E000016785EA
:1010A000F298F2922ED09E50010B0CE09D50010B55
:1010B00009E00201F62B050EF65D02E18A7AF66B75
:1010C0009E901FD0F050080B1BE0F050010B18E071
:1010D000020E0001D25D03E1FAEC15F00DD0D2054D
:1010E0000BE182A209D0020ED26FD36BE00ECF6E5D
:1010F000640ECE6E0201F86B8250016EF09001D04A
:10110000FFD742E9E7CFD9FFE55202EEF5F00A0E2C
:10111000E80403E3E5CFEDFFFBD7C8EC14F041ECA6
:1011200015F01100D9CFE6FFE1CFD9FF81E943E8FF
:101130006BD828EC1CF0020EE66E82EC10F041E950
:10114000F3CF79F0F4CF7AF0010EE66E82EC10F076
:1011500041E9F3CF77F0F4CF78F0030EE66E82EC3E
:1011600010F041E9F3CF7BF0F4CF7CF054EC12F0B7
:10117000F3CF7DF0F4CF7EF0010EE66E8ED841E91C
:101180000001D20516E1DBEC15F0050EE66E33EC3E
:101190001DF041E9F18AF090F086080EE66EF9EC58
:1011A0001CF041E90001D20504E1F090F096EFEC6B
:1011B00015F0020E0001D25D1EE1680EE66E000E13
:1011C000E66E44EC16F042E9000912E000016F51AE
:1011D00000016A5D0AE10001705100016B5D05E1EB
:1011E0000001715100016C5D03E00001008908D02D
:1011F000000100A900D00001010ED26F0300C0D78A
:1012000044E9E7CFD9FF1200F29EF29C949C949E91
:10121000829C829E939A94968A988A9C93988A98A4
:10122000939C8A9C939E686A6D6A6B6A7E6A7F6AE9
:10123000BD6ABFEC15F028EC1CF08A9A8B968A9E4A
:101240009480F292F288F18CB0EC18F00001676B98
:101250006785CD6A9F809E909D80D08EF28EF28CA5
:10126000D36B0201F86B1200000167A50CD00A0EC7
:10127000E66E33EC1DF041E982A005D000016795D0
:101280006787A8EC01F0200E0201305D05E1000146
:101290006751080B01E032D8120094EC14F082E997
:1012A00041E80050030A18E0010A08E0030A22E1BD
:1012B0008B868A8A010E26EC15F01CD0026A060E77
:1012C000025C18E28B868A8A050E26EC15F0050E64
:1012D00098EC15F0022AF3D7026A030E025C0AE2C8
:1012E0008B868A8A640E26EC15F0320E98EC15F087
:1012F000022AF3D742E9E7CFD9FF1200D9CFE6FFA0
:10130000E1CFD9FF81E948E8200E0201E76E3019EC
:1013100002E7E73402D0E750305D03E36450020B8C
:1013200002E0ADEF0FF00201F951FA1102E1000EF7
:1013300008D0F9C2E9FFFAC2EAFFEF50800B01E0E2
:10134000010E000902E0ADEF0FF00001866B000115
:10135000CB6BCC6B00018651EA6A600FE96E020E1E
:10136000EA22EF500F0802E09DEF0FF00001862BFC
:1013700000018651EA6A600FE96E020EEA22EFCFA1
:1013800087F0CBC0E6FFCCC0E6FF00018651EA6AD9
:10139000600FE96E020EEA22EFCFE6FF3BEC10F0A1
:1013A00043E9F3CFCBF0F4CFCCF00001862B000162
:1013B0008651EA6A600FE96E020EEA22EFCF88F0EA
:1013C000CBC0E6FFCCC0E6FF00018651EA6A600FA1
:1013D000E96E020EEA22EFCFE6FF3BEC10F043E9A4
:1013E000F3CFCBF0F4CFCCF00001862B046A0001E0
:1013F0008851045C2CE200018651EA6A600FE96EB4
:10140000020EEA22EF50E66E0450EA6A890FE96E96
:10141000000EEA22E552E750EF6ECBC0E6FFCCC0EB
:10142000E6FF00018651EA6A600FE96E020EEA22C9
:10143000EFCFE6FF3BEC10F043E9F3CFCBF0F4CF76
:10144000CCF00001C92B0001862B042AD0D7000163
:101450008651EA6A600FE96E020EEA22EF50E66EEC
:10146000E66AE66A010EE66EC1EC1AF0E552E5CFD7
:10147000CEF0E7CFCDF00001862B00018651EA6A5D
:10148000600FE96E020EEA22EF50F36EF46AF35039
:101490000001CD27F4500001CE230001CD51000101
:1014A000CB1904E10001CE510001CC1902E09DEFFF
:1014B0000FF0046A400E045C09E20450EA6AA00FCF
:1014C000E96E020EEA22EF6A042AF4D7000187517E
:1014D000760A02E153EF0FF0030A02E181EF0EF00A
:1014E000010A01E1F7D3070A01E1F3D3010A01E19F
:1014F000EFD3030A01E1EBD3010A01E1E2D31F0AB2
:1015000001E1A2D3010A01E15CD3030A01E126D380
:10151000010A01E114D2070A01E1E6D1010A01E161
:10152000C6D1030A01E1A7D1010A01E131D10F0AB5
:1015300001E1BDD0010A2DE0030A02E09DEF0FF0AA
:10154000000EF66E100EF76E0900F5CFECF20800F3
:10155000F5CFEDF20201EDC2ECF2ED6B0201EC51C0
:101560000001896F000EF66E100EF76E0900F5CFC0
:10157000ECF20800F5CFEDF20201EC5100018A6FA8
:10158000020EE66EC90EE66E17EC13F042E99DEF0F
:101590000FF000018951030A1BE0010A0EE0030A63
:1015A00001E021D000017751056E7851066E076A7F
:1015B000040E086E010E046E18D000017951056EFC
:1015C0007A51066E076A040E086E010E046E0DD085
:1015D00000017B51056E7C51066E076A040E086E91
:1015E000010E046E02D0046A00D0040458E10750D2
:1015F000055C0850065834E28AC06AF08BC06BF074
:101600008CC06CF0680EE66E000EE66EDEEC10F03C
:1016100042E944C0ECF245C0EDF246C0EEF2E868A3
:101620000201EC1905E1E868ED1902E1E868EE193C
:1016300010E189C0E6FF680EE66E000EE66E4EEC25
:1016400011F043E9E66ACA0EE66E17EC13F042E9C0
:1016500006D0E66ACB0EE66E17EC13F042E91ED018
:1016600000018951030A13E0010A0AE0030A01E0BC
:1016700015D0E66AD80EE66E17EC13F042E90ED0EC
:10168000E66AD90EE66E17EC13F042E907D0E66A77
:10169000DA0EE66E17EC13F042E900D006D0E66AE7
:1016A000E00EE66E17EC13F042E99DEF0FF08AC0F2
:1016B0006AF08BC06BF08CC06CF0680EE66E000EAA
:1016C000E66EDEEC10F042E944C0ECF245C0EDF20B
:1016D00046C0EEF20201EC51016EED51026EEE5188
:1016E000036EE868011805E1E868021802E1E8689D
:1016F000031847E000018951030A29E0010A15E0B7
:10170000030A01E036D0010EE66E01EBE6FF02EBC4
:10171000E6FF03EBE6FFB5EC11F044E9E66ACC0E18
:10172000E66E17EC13F042E92BD0020EE66E01EBE9
:10173000E6FF02EBE6FF03EBE6FFB5EC11F044E950
:10174000E66ACC0EE66E17EC13F042E919D0030EF0
:10175000E66E01EBE6FF02EBE6FF03EBE6FFB5EC1E
:1017600011F044E9E66ACC0EE66E17EC13F042E99C
:1017700007D0E66AE00EE66E17EC13F042E900D0FF
:1017800006D0E66ACD0EE66E17EC13F042E9D5D32B
:1017900089C06AF08AC06BF08BC06CF0680EE66E90
:1017A000000EE66EDEEC10F042E944C0ECF245C0FB
:1017B000EDF246C0EEF20201EC51016EED51026E07
:1017C000EE51036EE868011805E1E868021802E1CD
:1017D000E868031849E001EBECF202EBEDF203EBF1
:1017E000EEF20201EF6B000E0201EC5D0C0EED5902
:1017F000000EEE59000EEF5904E20001010E896F50
:101800002BD001EBECF202EBEDF203EBEEF2020176
:10181000EF6B030E0201EC5D180EED59000EEE5950
:10182000000EEF5904E20001020E896F15D001EBA2
:10183000ECF202EBEDF203EBEEF20201EF6B060EBF
:101840000201EC5D240EED59000EEE59000EEF5929
:1018500003E20001030E896F010EE66ECB0EE66E09
:1018600017EC13F042E906D0E66ACD0EE66E17ECEF
:1018700013F042E962D389C060F08AC061F08BC086
:1018800062F08CC063F08DC064F08EC065F08FC0D4
:1018900066F0600EE66E000EE66E59EC19F042E955
:1018A000E66ACE0EE66E17EC13F042E946D3600E00
:1018B000E66E000EE66EB1EC19F042E960C089F008
:1018C00061C08AF062C08BF063C08CF064C08DF0A0
:1018D00065C08EF066C08FF0070EE66ECF0EE66E26
:1018E00017EC13F042E929D30001816B826B0201EE
:1018F00078C0ECF2ED6BECC289F077C08AF002019F
:101900007AC0ECF2ED6BECC28BF079C08CF0020186
:101910007CC0ECF2ED6BECC28DF07BC08EF002016E
:101920007EC0ECF2ED6BECC28FF07DC090F0080E43
:10193000E66ED00EE66E17EC13F042E9FED200011F
:101940007D510001815D00017E510001825901E35A
:10195000FED0F29EF29C81C0ECF282C0EDF2020158
:10196000070EED03F3CFEDF2070EEC03F3CFECF22D
:10197000F450ED270201EE6BEF6B090E0201EC272C
:10198000240E0201ED23000E0201EE23000E0201DF
:10199000EF230201EC51016EED51026EEE51036E28
:1019A00060EC06F001EBE6FF02EBE6FF03EBE6FF7F
:1019B000D4EC06F043E90001896FD950010FE96EBC
:1019C000DACFEAFFEE2A000EEE22000EEE2201EB45
:1019D000E6FF02EBE6FF03EBE6FFD4EC06F043E99B
:1019E00000018A6FD950010FE96EDACFEAFFEE2AC3
:1019F000000EEE22000EEE2201EBE6FF02EBE6FF08
:101A000003EBE6FFD4EC06F043E900018B6FD950FD
:101A1000010FE96EDACFEAFFEE2A000EEE22000E89
:101A2000EE2201EBE6FF02EBE6FF03EBE6FFD4EC70
:101A300006F043E90001936FD950010FE96EDACF48
:101A4000EAFFEE2A000EEE22000EEE2201EBE6FF88
:101A500002EBE6FF03EBE6FFD4EC06F043E90001FE
:101A6000946FD950010FE96EDACFEAFFEE2A000E2B
:101A7000EE22000EEE2201EBE6FF02EBE6FF03EBA7
:101A8000E6FFD4EC06F043E90001956FD950010F51
:101A9000E96EDACFEAFFEE2A000EEE22000EEE2209
:101AA00001EBE6FF02EBE6FF03EBE6FFD4EC06F00A
:101AB00043E90001966F78EC06F0F28EF28C00019B
:101AC000812B000E822300019351E840E8403F0B38
:101AD00000018C6F030E00019315100DF3CF8DF0F4
:101AE000000194390F0B00018D130F0E00019415A6
:101AF000E82400018E6F00019545010B00018E1353
:101B000000019551E840E8403F0B1F0B00018F6F2B
:101B1000030E00019515040DF3CF90F0060E96C04C
:101B2000E7FF070B04E0E742E79EE806FCE1E75029
:101B3000000190133F0E000196150001916F090EF0
:101B4000E66ED10EE66E17EC13F042E906D0E66AB7
:101B5000D70EE66E17EC13F042E9EFD1F29EF29C3D
:101B6000090E016E240E026E036A60EC06F0046A30
:101B7000070E045C16E2E66801EBE6FF02EBE6FF07
:101B800003EBE6FF80EC06F044E9D950010FE96E63
:101B9000DACFEAFFEE2A000EEE22000EEE22042A31
:101BA000E7D778EC06F0F28EF28C00017D6B7E6B4D
:101BB00000016799E66AD20EE66E17EC13F042E96F
:101BC000BCD100018951040A2BE0070A1DE0010A7B
:101BD0000FE0030A01E030D0010EE66E85EC13F051
:101BE00041E9E66AD30EE66E17EC13F042E92BD01A
:101BF000020EE66E85EC13F041E9E66AD40EE66E5D
:101C000017EC13F042E91FD0030EE66E85EC13F0DB
:101C100041E9E66ADB0EE66E17EC13F042E913D0F9
:101C2000040EE66E85EC13F041E9E66AD50EE66E29
:101C300017EC13F042E907D0E66AE00EE66E17EC07
:101C400013F042E900D079D1CFEC13F00001020E7D
:101C5000D26F00010099000167A712D0000167B19F
:101C60000FD0680EE66E000EE66E44EC16F042E908
:101C7000000903E0040000010089000100A9EBD77E
:101C8000000100A914D000010099010EE66E4DEC90
:101C900009F041E96AC089F06BC08AF06CC08BF032
:101CA000030EE66ED60EE66E17EC13F042E9000165
:101CB00067A106D0E66AE20EE66E17EC13F042E981
:101CC0003CD1010EE66E4DEC09F041E936D135D13B
:101CD00034D133D10001040E896F00018A6B0001F9
:101CE000040E8B6F00018C6B0001040E8D6F0001E0
:101CF0008E6B060EE66EE10EE66E17EC13F042E90F
:101D00001CD100018951070803E30001895107E153
:101D1000E66AE00EE66E17EC13F042E9C3D02D0E32
:101D2000E66E010EE66EE66AE66A00018905E66E79
:101D3000E66AE66AE66AF5EC1AF0E552E5CFEFF2FC
:101D4000E5CFEEF2E5CFEDF2E7CFECF21D0E0201AA
:101D5000EC27ED0E0201ED23010E0201EE23000E31
:101D60000201EF23ECC2CFF0EDC2D0F0EEC2D1F011
:101D700060EC06F0CFC0E6FFD0C0E6FFD1C0E6FFC2
:101D8000D4EC06F043E90001846FFF0E0001845D8E
:101D900010E084C0ECF20201ED6BEE6BEF6B640EB1
:101DA0000201EC5D000EED59000EEE59000EEF59E8
:101DB00072E2FF0E0001845D02E10001846B00010C
:101DC0008429E66ECFC0E6FFD0C0E6FFD1C0E6FFB3
:101DD00080EC06F044E9030E00018403F3280201BD
:101DE000EC6F0201ED6BEE6B0201EC510001CF27AD
:101DF0000201ED510001D0230201EE510001D12377
:101E00008AC0E6FF0001CFC0ECF2CF2BD0C0EDF2CC
:101E1000000ED023D1C0EEF2000ED123ECC2E6FFBB
:101E2000EDC2E6FFEEC2E6FF80EC06F044E98BC0AF
:101E3000E6FF0001CFC0ECF2CF2BD0C0EDF2000ED8
:101E4000D023D1C0EEF2000ED123ECC2E6FFEDC2EA
:101E5000E6FFEEC2E6FF80EC06F044E98CC0E6FF48
:101E60000001CFC0ECF2CF2BD0C0EDF2000ED0239A
:101E7000D1C0EEF2000ED123ECC2E6FFEDC2E6FFC8
:101E8000EEC2E6FF80EC06F044E9E66AE30EE66E99
:101E9000CEDB42E905D0E66AE50EE66EC8DB42E934
:101EA00078EC06F04AD000018951070803E30001ED
:101EB000895106E1E66AE00EE66EB9DB42E93CD004
:101EC0002D0EE66E010EE66EE66AE66A00018905F1
:101ED000E66EE66AE66AE66AF5EC1AF0E552E5CFE8
:101EE000EFF2E5CFEEF2E5CFEDF2E7CFECF21D0E2B
:101EF0000201EC27ED0E0201ED23010E0201EE239B
:101F0000000E0201EF23ECC2CFF0EDC2D0F0EEC222
:101F1000D1F060EC06F0E66ACFC0E6FFD0C0E6FF85
:101F2000D1C0E6FF80EC06F044E978EC06F0E66A02
:101F3000E40EE66E7CDB42E900D0400EE66E600EF9
:101F4000E66E020EE66EE66A010EE66E2AEC01F01F
:101F500045E9F3CFF9F2F4CFFAF249E9E7CFD9FF37
:101F6000120012001200120012005DEF07F01200C2
:101F70001E0EE66E010EE66E0CEC01F042E9400E1C
:101F8000E66E600EE66E020EE66EE66A010EE66E24
:101F90002AEC01F045E9F3CFF9F2F4CFFAF212009E
:101FA00002014F0520E1020150051DE1A094DADF96
:101FB00064920201506B0201100EE06F0E0EE16F91
:101FC000E007000EE15BE051E111FAE16484080EE4
:101FD000E06F070EE16FE007000EE15BE051E111F9
:101FE000FAE16494A084120094EC14F087E904EB05
:101FF000F3FF05EBF4FF050EF31801E1F45036E0B2
:10200000E868F31802E17F0EF4182FE0030EF318CE
:1020100001E1F45028E0020EF31801E1F45021E050
:10202000010EF31801E1F4501AE0740EF31801E107
:10203000F45013E0750EF31801E1F4500CE0730E48
:10204000F31801E1F45005E0720EF3180FE1F450BB
:102050000DD089DF0BD085DF09D084DF07D088DF82
:1020600005D085DF03D081DF01D07EDF010E41E99D
:10207000E7CFD9FF120094EC14F084E9020100EBE1
:10208000EFF2EE6B01EBECF2EC51EE11006EEF5162
:10209000016E0250001A000E011AFF0E0014E838FB
:1020A0000F0B001A000E011A00EBEFF2EE6B48EC7A
:1020B00015F006E00201D890EC37ED37E804FBE1BB
:1020C0000201EC51001AED51011AFF0E0014EE6FDF
:1020D000EF6B48EC15F006E00201D890EC37ED37D5
:1020E000E804FBE10201D890EC37ED37EC51001A1F
:1020F000ED51011A00EBF3FF01EBF4FF41E9E7CFEB
:10210000D9FF120094EC14F082E949E80050030A68
:1021100011E0010A08E0030A14E1056A040E066EE4
:10212000076A086A0ED0056A040E066E030E076E73
:102130000C0E06D0056A040E066E060E076E180E0B
:10214000086E05EC15F0096A0A6A0550095C06502C
:102150000A582BE29DEC15F009EBE6FF0AEBE6FFCF
:10216000C1EC1AF00201FE0EE3500724EC6F41E9C6
:10217000E5500820ED6FEE6BEC51026EED51036EF1
:10218000EE51046E60EC15F00CE1DDEC14F009E1A9
:10219000DDEC14F006E1E2DB09EBF3FF0AEBF4FF00
:1021A00009D0092A000E0A22D0D7D8DB05EBF3FFAD
:1021B00006EBF4FF4AE9E7CFD9FF1200B5DB83E96C
:1021C00045E805EC15F0066A076A00017751065CE0
:1021D0007851075816E27FDBF35015EC15F0020E2C
:1021E00065DB0BE1A1EC15F008E1A5EC15F005E1CC
:1021F000B5DB000167896FDB3FD0062A000E07229E
:10220000E4D7066A076A00017951065C7A510758DB
:1022100017E261DB030EEC270C0E66EC15F00CE107
:10222000A1EC15F009E1A5EC15F006E197DB53DB15
:10223000030EEC270C0E1ED0062A000E0722E3D751
:10224000066A076A00017B51065C7C5107581FE251
:1022500042DB060EEC27180E66EC15F014E1A1EC3B
:1022600015F011E1A5EC15F00EE178DB34DB060E7C
:10227000EC27180EB5EC15F0ECC244F0EDC245F0B9
:10228000EEC246F009D0062A000E0722DBD766DB35
:1022900000014469456946694FEF15F045DB84E963
:1022A00047E80050030A1AE0010A0CE0030A22E1A1
:1022B000046A040E056E066A076A00017751086E0B
:1022C000785117D0046A040E056E030E066E0C0ECC
:1022D000076E00017951086E7A510BD0046A040E22
:1022E000056E060E066E180E076E00017B51086E15
:1022F0007C51096E0450085C0550095831E285DBB9
:10230000030E0A6E0A500AE00A280124E96E000E44
:102310000220EA6EEFCFE6FFE6DAF4D7082A000ED5
:102320000922030E0A6E0A5003E0E668DCDAFBD7E6
:1023300015DB0050030A0EE0010A07E0030A0EE174
:1023400008EB77F009EB78F009D008EB79F009EBAE
:102350007AF004D008EB7BF009EB7CF0010E01D0A1
:10236000FF0E48E9E7CFD9FF1200DEDA85E945E83C
:102370000050030A15E0010A0AE0030A1AE100010D
:102380007751066E7851076E086A096A12D000010B
:102390007951066E7A51076E030E086E0C0E08D046
:1023A00000017B51066E7C51076E060E086E180EFA
:1023B000096E2BDBC2DB02010604EF6F000E07582B
:1023C000F06FEFC2E6FFE66EC1EC1AF00201FE0EFE
:1023D000E3500824EC6F41E9E5500920ED6FEE6B06
:1023E0000150EC1905E10250ED1902E10350EE191C
:1023F0002DE0030E056E055029E09FDB06EBE6FF9E
:1024000007EBE6FF06DB040EEE5F000EEF5B13DB6F
:10241000A8DBE66E05EBF3F20201F46BF56B2BDB48
:10242000EE50F325F06FEE50F421F16FEE50F521F0
:10243000F26FF007000EF15BF25BF0C2E6FFF1C253
:10244000E6FFF2C2E6FF70DB0506D5D7056A030E8C
:10245000055C10E2E66871DB02010604F06F000E15
:102460000758F16FF0C2E6FFE66ED3DAE4DA5CDB20
:10247000052AEDD773DA0606000E075A0050030A44
:102480000EE0010A07E0030A0EE106EB77F007EB26
:1024900078F009D006EB79F007EB7AF004D006EB80
:1024A0007BF007EB7CF0FBD23FDA81E945E8ADDA5F
:1024B000046A056A04EBECF205EBEDF227DB1BE2A4
:1024C00004EBECF205EBEDF27DDA016EED51026EFC
:1024D000EE51036E2EDAFF080AE110DB08E10EDB95
:1024E00006E13CDA04EBF3FF05EBF4FF09D0042A24
:1024F000000E0522DFD732DA800EF36E3E0EF46E48
:10250000CED212DA83E947E8F29EF29C7DC0ECF26B
:102510007EC0EDF2FBDA01E381D018DA00016351ED
:1025200003E0635107080AE211DA0001635103E096
:102530006351070803E2070E636F75D0645103E02F
:1025400064511F080AE202DA0001645103E0645199
:102550001F0803E2070E646F66D0655103E0655102
:102560000C080AE2F3D90001655103E065510C083B
:1025700003E2070E656F57D06051066E040E060227
:10258000F350066E61390F0B06126151076E073862
:10259000F00B076E62417F0B07126251086E083222
:1025A000086A08326451040DF35008126551E8407E
:1025B000E8403F0B08126551096E0940E842C00B24
:1025C000096E665109127DC0ECF27EC0EDF2020187
:1025D000F9D92BDA60EC06F0020E69DA030E67DA3D
:1025E000040E65DA06EBE6FF72D907EBE6FF6FD95A
:1025F00008EBE6FF6CD909EBE6FF69D9E66867D915
:10260000E66865D9E66873DA8FDA78EC06F00001DF
:102610007D2B000E7E23F28EF28C05D0030EE66E2B
:102620004DEC09F041E948E9E7CFD9FF12007CD928
:1026300083E941E80001CB6BCC6B0201FB51FC113B
:1026400002E1000E08D0FBC2E9FFFCC2EAFFEF5036
:10265000800B01E0010E000954E102010F0EA06F92
:1026600001EBA1F2CBC0E6FFCCC0E6FFA1C2E6FFC2
:10267000BCD900EBA2F2F3CFE6FFF4CFE6FFA2C293
:10268000E6FFB3D9036A0050035C17E20350EA6A1D
:10269000890FE96E000EEA22EF50E66E030E032466
:1026A00099D9CBC0E6FFCCC0E6FF030E032436DA8F
:1026B000EFCFE6FF9AD9032AE6D70201CCC0ECF2AD
:1026C000ED6BEC51E66E030E002484D90001CB5172
:1026D000E66E040E00247ED9050E00241FDA040ED7
:1026E000EF6E400EE66EA00EE66E020EE66E010E76
:1026F000E66EE66E2AEC01F045E9F3CFFBF2F4CF8B
:10270000FCF242E9E7CFD9FF12000ED982E942E894
:102710007CD9000403E0040E005C12E1026A036A43
:10272000010E026E036A026A036A67D9030EEC5D4A
:10273000000E55D902E202D9F8D70001776B786B09
:10274000020E005C03E0040E005C0FE1030E026E5B
:102750000C0E036E52D9060EEC5D0C0E40D902E24F
:10276000EDD8F8D70001796B7A6B030E005C03E0BB
:10277000040E005C0FE1060E026E180E036E3DD9CA
:10278000090EEC5D180E2BD902E2D8D8F8D700015B
:102790007B6B7C6BE3D843E9E7CFD9FF12000001E4
:1027A00067916783726B1200BFD881E944E8CED885
:1027B0002D0EE66E010EE66EE66AE66A000163051E
:1027C000E66EE66AE66AE66AF5EC1AF0E552E5CFEF
:1027D000EFF2E5CFEEF2E5CFEDF2E7CFECF21D0E32
:1027E0000201EC27ED0EED23010EEE23000EEF2388
:1027F000EC51016EED51026EEE51036E60EC06F08D
:1028000098D80001846FFF0E845D4AE0046A845109
:10281000045C46E201EBECF202EBEDF203EBEEF2CC
:102820000201EC2B000EED23EE23030E0402F3CF86
:10283000EFF2F06BF16BEC51F3240001CF6F02016A
:10284000ED51F0210001D06F0201EE51F1210001A4
:10285000D16FCFC0E6FFD0C0E6FFE66E82D900019F
:10286000625D1CE1CF2B000ED023D123F3D80001F1
:10287000615D13E18551615D11E0CF2B000ED02326
:10288000D12361C085F0E6D80001836F0201F76BA8
:102890000001678B78EC06F003D08569042AB7D76E
:1028A00078EC06F045E9E7CFD9FF12000024E96E85
:1028B000000E0120EA6EEFCFECF2ECC2E6FF17D972
:1028C00050D9E552E7CFECF20201EC5D12000FD9CE
:1028D0002BD953EF15F006EBECF207EBEDF202010A
:1028E000030E6CEF15F029D908EBE6FF09EBE6FFC4
:1028F000C1EC1AF00201FE0EE3500624EE6F41E92E
:10290000E5500720EF6F0A50EE25EC6F000EEF2127
:10291000ED6FEC07000EED5BECC2E6FFEDC2E6FFEB
:10292000E66A02D90A061200D9CFE6FFE1CFD9FF45
:10293000120001EBE6FF1ED9B1EF15F0E6681AD9D7
:10294000E66AF2D8022A000E03221200600EE66E3A
:10295000000EE66EB1EC19F042E9120078EC06F0D8
:10296000F28EF28C120044C0E4FF45C0E4FF46C082
:10297000E4FF47C0E4FFF6CFE4FFF7CFE4FFF5CF75
:10298000E4FFF3CFE4FFF4CFE4FFFACFE4FF12005B
:10299000E5CFFAFFE5CFF4FFE5CFF3FFE5CFF5FF95
:1029A000E5CFF7FFE5CFF6FFE5CF47F0E5CF46F0FF
:1029B000E5CF45F0E5CF44F01200D950020FC9D859
:1029C00060EF15F0070E88D8090EEC27240ECDD83D
:1029D000EC511200A3D8E552E750EF6E1200ED590A
:1029E000000EEE59000EEF5912003BEC10F043E9D7
:1029F000F3CFCBF0F4CFCCF0120002EBECF203EB10
:102A0000EDF20201EE6BEF6B1200F29EF29C60EFB2
:102A100006F0C1EC1AF00201FE0EE3500824EE6F3E
:102A200041E9E5500920EF6F1200036EED51046E8D
:102A3000EE51056E12000550EE25EC6F000EEF21F1
:102A4000ED6FECC2E6FFE66EE66A120071D88B9677
:102A50008A9A1200CFC0E6FFD0C0E6FFD1C0E6FFE1
:102A6000B1EF15F0DACFE4FFE2CFDAFFE9CFE4FF10
:102A7000EACFE4FF1200D950010FE96EDACFEAFF86
:102A80001200E5CFEAFFE5CFE9FFE5CFDAFF12005C
:102A9000040EEEC2ECF2EFC2EDF2000A120046E9BB
:102AA000E7CFD9FF1200D950030FA9EF15F000248A
:102AB000E96E000E0120EA6EEFCFE6FF67EF14F03B
:102AC00059D804EBE6FF4DD8FF0812004ED8EC5160
:102AD000ACDF020E56EF14F0ED03F3CFEDF2EC0392
:102AE000F3CFECF2F450ED27EE6BEF6B120003EB3B
:102AF000E6FF04EBE6FF05EBE6FF1200BCDFEE2A83
:102B0000000EEE22EE2215DFFF0812000201EE6B2E
:102B1000EF6B800EEC5D3E0EEFEF14F0EA6AA00F53
:102B2000E96E020EEA22120080EC06F044E912007F
:102B3000E66E9AEC1CF041E91200030EE66EE66ABE
:102B40001200B1DF030E56EF14F0ADDF040E56EFA6
:102B500014F0E96EDACFEAFFEE2A000EEE22EE2242
:102B60001200D4EC06F043E91200ED23000EEE2330
:0E2B7000EF23120002EBE6FF03EBE6FF12007C
:022B7E00000154
:102B800000810083008500979498949A94828B8AA0
:102B90008B98F18AF08CF090F096A00ED56ED66AE4
:102BA000D76AF194F294F29A010EB16EB190A292AA
:102BB000A192A09212008B8A8B88E00EBB6E0C0E45
:102BC000BC6ECA6A9D92BD6E030EBE6E050ECB6EC4
:102BD000CA84B36AB26AB180A192A08212008B98B3
:102BE000FEEC07F08B8ABB6ABC6AA192A092B190FE
:102BF0008B8A12005EDA81E946E8036A046AD650DD
:102C0000066ED750056E0550E66EE66AE66A010E5E
:102C1000E66EC1EC1AF0E552E550046EE750036E23
:102C200006500326000E0422000100A503D0F19AED
:102C3000009502D0F18A0085400EE96E000EEA6E22
:102C40000201EE50035CEC6FED500458ED6FEC5157
:102C5000016E03EB40F004EB41F000013E51EA6AE3
:102C6000020FE96E000EEA2201EBEFFF3E2B3C0E55
:102C70003E5D03E13E6B3E6BFFD747E9E7CFD9FFEF
:102C8000120000013F2B120014DA83E942E893DFBF
:102C9000010EE66EE00EE66E50D842E9A0DF036A50
:102CA000046A020E035C000E04581AE207DA01E11E
:102CB000ED5111E017D90009F9E03BDA26D942E9D4
:102CC0000009F4E036DA94D942E9AA0EE66E53D848
:102CD00041E9010E0AD069D8032A000E0422E1D787
:102CE000AA0EE66E48D841E9000E43E9E7CFD9FFC6
:102CF0001200040EE66ECFEC1CF041E9FC0EE66E0D
:102D00003F0EE66EBEEC07F042E9300EE66EE66A74
:102D100050EC1CF042E9170EE66E76EC1CF041E92F
:102D20001200C7D982E9005004E0F18A0001008551
:102D300003D0F19A0001009501D2BBD983E900EBE1
:102D4000E6FFEFDF41E90001008300910001426BE3
:102D5000436B3E6B3F6B406B416BF090F0860150D4
:102D60003E5D03E2060E3F5DFAE3F090F096426BA3
:102D7000436B3E51E3D19DD982E941E8026A02EBFF
:102D8000ECF20201ED6BECBFED693C0EEC5D000E68
:102D9000ED590AE202EBE9FFEA6AE9BEEA68D2D934
:102DA00000EBEFFF022AEBD7D2D183D981E941E8CA
:102DB0003C0E016E013414E20150000811E20104DE
:102DC000E96EEA6AE9BEEA68BDD9EF1CE66E010465
:102DD000E96EEA6AE9BEEA68B5D9A7D90106EAD779
:102DE000B6D16CD901E1ED511AE000014251EA6A15
:102DF000020FE96E000EEA22EF5043C0E7FFE752F0
:102E000004E0E8427F0BE706FCE1010B0001016FE3
:102E10000001432B080E435D02E1422B436B00018E
:102E20000151120046D984E901EBE9FF02EBEAFF08
:102E3000EF90EF42005005E001EBE9FF02EBEAFF03
:102E4000EF8E7CD136D985E942E881EB06F0063475
:102E500033E20650010830E2020E065C0201EC6F1C
:102E6000ED6B800B01E0ED693ED9EF50010B056E73
:102E700072D901E0EF693ED9EF407F0B50D901E0F4
:102E8000ED6931D952D905500AE065D901E0EF6901
:102E900031D9EF50800943D90BE0ED6909D05BD9F6
:102EA00001E0EF6927D9EF507F0B39D901E0ED69D7
:102EB0001AD93BD90606CBD724D9EF407F0BE66E53
:102EC00020D933D9005004E01CD9EF50800903D039
:102ED00018D9EF507F0BE66E14D927D943E9E7CF15
:102EE000D9FF1200E6D881E941E8016AE7D801E19B
:102EF000ED5109E076DF0108F8E1012A090E015CD5
:102F0000F5E1010E01D0000E22D1D3D883E947E8C4
:102F1000036A010E046E056A066A076A086A096A8E
:102F2000046E043402E20450320832E35ADF036EC6
:102F3000C5D802E1ED5155E0E9D8000905E103509B
:102F4000055C4FE1056A22D003EBE6FF050EE66E55
:102F5000F0D878DF44E905500318056ED7D8040A85
:102F600012E0070A0CE0010A06E0030A0FE106502E
:102F70000318066E0BD007500318076E07D00850D1
:102F80000318086E03D009500318096E042AC9D724
:102F900028DF065C26E125DF075C23E122DF085CF1
:102FA00020E11FDF095C1DE11CDF00091AE1046A52
:102FB000D890045002E6050E045C10E204EBECF23B
:102FC0000201ED6BECBFED69EC510024E96EED51AF
:102FD0000120EA6EEF5002E1042AEAD7050E045CF4
:102FE00002E1000E01D0010E48E9E7CFD9FF12003F
:102FF00060D883E948E8066A076A086A096A0A6AC3
:10300000056A050E055C36E2070E046E036A080EBB
:10301000035C2EE203EBECF205500024E96E000E97
:103020000120EA6EEF50ECC2E7FFE75204E0E8420D
:103030007F0BE706FCE1010B0CE0010E04EBF3FF54
:10304000045204E0D890E836F306FCE13FD8EF12D2
:103050000CD0010E04EBF3FF045204E0D890E836E4
:10306000F306FCE1E81C32D8EF160406032ACFD79A
:10307000052AC7D7036A050E035C17E20201D9507F
:10308000060FEC6F0350EA6AEC25E96EDA50EA228B
:10309000EF50E66E040ED88003540024E96E000E53
:1030A0000120EA6E42D8032AE6D749E9E7CFD9FFE3
:1030B0001200D9CFE6FFE1CFD9FF12000001425143
:1030C0000201EC6FED6B3C0EEC1912000201EE6F89
:1030D000D950060FEC6F0550EA6AEC25E96EDA501C
:1030E000EA22EE511200EC510224E96EED51032068
:1030F000EA6E1200EE510224E96EEF510320EA6EEF
:10310000120002EBE9FF03EBEAFF1200050EE66E88
:1031100004EBE6FF9DEC1AF041E9E7501200E66E81
:103120000604EC6FED6B800B1200E552E750EF6E7A
:10313000120000EBE6FF01EBE6FF120041E9E7CFEA
:10314000D9FF1200020EE926000EEA22120042E91F
:10315000E7CFD9FF12000604EE6FEF6B800B120071
:103160007CD981E941E8016A86D9020E72D9016EE3
:10317000BF0E0114E66E020E57D98AD9600EE66EB4
:10318000000EE66EEED842E9000163510DE0635196
:1031900007080AE3645108E064511F0805E365511C
:1031A00003E065510C0818E273D9130EE66E060EA3
:1031B0003BD9010EE66E050E37D9010EE66E040E00
:1031C00033D9E66A020E30D9E66A010E2DD9800E97
:1031D000E66EE66A06D842E978EC06F0F28EF28CEA
:1031E00046D13BD983E9F29EF29CF7EC07F0C5800B
:1031F000C5A003D0FDD7C5B0FED758D9C5BCFED7F2
:1032000001EBE6FF1AD9C5BCFED700EBE6FF15D9E6
:10321000C5BCFED7C584C5A403D0FDD7C5B4FED7B1
:10322000F7EC07F0C580C5B0FED7F7EC07F03ED944
:10323000C5AC04D0C584C5B4FED7F2D7C584C5A437
:1032400003D0FDD7C5B4FED7F7EC07F0F28EF28CB1
:1032500016D103D982E941E8F29EF29CF7EC07F01F
:10326000C580C5A003D0FDD7C5B0FED71FD9C5BC4A
:10327000FED700EBE6FFE1D8C5BCFED7C582C5B2DC
:10328000FED7F7EC07F0DF0EE66ED7D8C5BCFED749
:1032900026EC1DF0026EF7EC07F0C584C5A403D040
:1032A000FDD7C5B4FED7F7EC07F0F28EF28C0250D2
:1032B000DED0D3D883E941E8DED8E5D8040ED2D8F1
:1032C0004FE0E1D8040ECED81F084AE3DCD8030E45
:1032D000C9D846E0D8D8030EC5D8070841E3D3D8EB
:1032E000050EC0D83DE0CFD8050EBCD80C0838E399
:1032F000CAD8030E9DD8036E070E0316038603EB90
:10330000E6FF030EDAD8CDD8036E800E0310036EED
:1033100003EBE6FFE66A65DF42E9B5D8EE52C1D8B5
:10332000E66E010ECAD8020E83D8036E3F0E031458
:10333000036E03EBE6FF020EC0D8040E79D8E66EEA
:10334000040EBBD8050E74D8E66E050EB6D8060E70
:103350006FD8E66E060E68D8F28EF28C78EC06F026
:1033600086D07BD883E987D8E66A73DF41E97F0B93
:1033700055D8E552E750EF6E010E9CD8EE52E5525B
:10338000E750EF6E020E65D83F0B48D8020E5AD8B0
:10339000030E5FD8070B42D8030E54D8040E8AD808
:1033A000040E50D8050E55D81F0B38D8050E4AD834
:1033B000060E80D8060E46D8F28EF28C78EC06F017
:1033C0005ED012004AD882E900380F0B0A0D0F0EAA
:1033D0000014F324006E005052D03FD882E941E837
:1033E000026A0050090816E20A0EE66E00EBE6FFDC
:1033F0006CEC1AF041E9E750100DF350026E0A0E22
:10340000E66E00EBE6FF6FEC1AF041E9E7500210C0
:10341000026E02D080EB02F0025029D0E66ED2DFBD
:1034200041E9E66E43EF1AF0E66EDBDE42E9120098
:10343000E926000EEA2251EF1AF0EFEC1BF041E909
:10344000F7EF07F0E926000EEA22E552E750EF6EAB
:103450001200E66EFEDE41E91200D9CFE6FFE1CFB1
:10346000D9FF1200E926000EEA22EF50120042E9CD
:10347000E7CFD9FF1200F29EF29C60EF06F041E91F
:10348000E7CFD9FF120000EBE9FF01EBEAFF1200E2
:10349000030EDFDF016E080E0110E66E030E14EF5F
:1034A0001AF0EFCFE6FF99DF41E91200DE0EE66E7B
:1034B0001DEF1AF0CEDF0EEF1AF0B6DF43EF1AF071
:1034C00042E8D9CFE6FFDACFE6FFE1CFD9FFE2CF7E
:1034D000DAFF86E9036A1200F3DF038003D0F0DF2E
:1034E00001D00382026A080EE76ED89001360236D8
:1034F0000050025C02E3026E012AE72EF7D703B206
:10350000120003B081EB00F003A082EB00F0E55263
:10351000E5CFDAFFE7CFD9FF43E9120042E8D9CF80
:10352000E6FFDACFE6FFE1CFD9FFE2CFDAFF86E9A7
:10353000036A1200F3DF038001D0F0DF00AE03D096
:10354000006C03B0037E01AE02D0016C037E71EC0F
:103550001AF001BEBDEF1AF003AE02D0016C026C8E
:1035600003B081EB00F003A082EB00F0E552E5CF61
:10357000DAFFE7CFD9FF43E9000C03BEEFD7F0DF56
:10358000FF0C44E8D9CFE6FFDACFE6FFE1CFD9FF61
:10359000E2CFDAFF8AE980EB04F081EB05F082EB01
:1035A00006F002500402F450016EF350006E035016
:1035B000076E0502F450036EF350026E07500402CA
:1035C000F3500126F4500222E86A03220650050255
:1035D000F3500126F4500222E86A0322E552E5CFB7
:1035E000DAFFE7CFD9FF46E9000C44E8D9CFE6FF80
:1035F000DACFE6FFE1CFD9FFE2CFDAFF8EE980EB49
:1036000008F081EB09F082EB0AF083EB0BF0045039
:103610000802F350006EF450016E04500902F3509A
:103620000126000EF420026E04500A02F350022616
:10363000000EF420036E04500B02F35003260550D5
:103640000802F3500126F4500222000E0322055016
:103650000902F3500226F450032205500A02F350E7
:10366000032606500802F3500226F45003220650A7
:103670000902F350032607500802F3500326E552CF
:0C368000E5CFDAFFE7CFD9FF48E9000CE6
:04368C001201000225
:1036900000000008D8043F000200010203010902F3
:1036A0002900010100C032090400000203000000EB
:1036B000092111010001221C0007058103400001BE
:1036C00007050103400001040309042A0349006EB1
:1036D000006E006F00200054006500630068006EFB
:1036E000006F006C006F0067007900200049006ED9
:1036F0000063002E001203410054002000470055D3
:1037000000410052004400120330003600380030FF
:103710000039003300320032000600FF0901A10128
:1037200019012940150125407508954081001901AE
:0F37300029409100C09E36C736CB36F536073795
:103740001E0EF66E000EF76E000EF86E02010900F6
:10375000F550E76F0900F550E86F03E1E76701D026
:103760003DD00900F550E26F0900F550E36F090004
:10377000F550E46F09000900F550E96E0900F550B5
:10378000EA6E090009000900F550E56F0900F550DF
:10379000E66F09000900F6CFE9F2F7CFEAF2F8CFB9
:1037A000EBF2E2C2F6FFE3C2F7FFE4C2F8FF020168
:1037B000E55302E1E65307E00900F550EE6EE50738
:1037C000F8E2E607F9D7E9C2F6FFEAC2F7FFEBC273
:0E37D000F8FF0201E707000EE85BBFD712000A
:0237DE00D9CF41
:1037E000E6FFDACFE6FFE1CFD9FFE2CFDAFF83E9E8
:1037F00000EBC9FFC6AE02D0FF0E24D00F0EC614D8
:1038000008080FE00F0EC6140B080BE0C6889EA632
:10381000FED7C750040B03E1C750010B10E0000EA8
:1038200011D00F0EC614080804E00F0EC6140B08C2
:1038300009E1C7B0FED7F7EC07F0C5AC02D0FE0E29
:1038400001D0000E41E9E5CFDAFFE7CFD9FF120042
:10385000D39E060EE66E02D841E91200D9CFE6FFEC
:10386000E1CFD9FF82E9070E005C05E1D39ED3903A
:10387000D380D29407D0060E005C06E1D39ED3908D
:10388000D390D2849B9C08D0050E005C05E1D39EAA
:10389000D390D390D2849B8C41E9E7CFD9FF12001B
:1038A000D9CFE6FFDACFE6FFE1CFD9FFE2CFDAFFEB
:1038B00084E942E880EB04F081EB05F0060ED89035
:1038C00004360536E804FBE105EBBEFF0440E842A0
:1038D0003F0B300B0201EC6FCF0EBD14EC11BD6E2F
:0C38E00043E9E5CFDAFFE7CFD9FF120083
:0438EC00D9CFE6FF4B
:1038F000DACFE6FFE1CFD9FFE2CFDAFF83E90C0EA2
:10390000BD12CA9400EBCBFFCA8441E9E5CFDAFFD0
:10391000E7CFD9FF1200B9B0949AB9A202D0949817
:103920007F90B9A402D094967F94B9A602D09494C3
:043930007F9612006C
:0C393400FF0EE3500201FE6FEE0E02D009
:10394000F20E0000E76EE72EA3EF1CF00C0E020152
:10395000FD6FE76AE72EAAEF1CF0FD2FA9EF1CF020
:0A3960000201FE2FA0EF1CF0120080
:06396A00FE0EE3CFE9FFB1
:10397000FF0EE3CFEAFFE9CFF3FFEACFF4FFFB0E40
:10398000E35003E1FC0EE35009E0FB0EE30602E224
:0E399000FC0EE306FD0EE350EE6EF1D71200C2
:02399E00D9CF7F
:1039A000E6FFDACFE6FFE1CFD9FFE2CFDAFF83E926
:1039B000FB0E0014CA6ECC6A9E9200AE02D09D82AD
:1039C00001D09D92CA8441E9E5CFDAFFE7CFD9FF64
:0239D0001200E3
:0E39D200FF0EE3500201FE6F480E01D04C0EB6
:1039E000E76EE72EFED7E76AE72EFED7FE2FF7D762
:0239F0001200C3
:0E39F200FF0EE3500201FE6F1A0E00D000D04F
:103A000001D0200EE76EE72EFED7FE2FFAD700D0AA
:023A10001200A2
:0E3A1200000EF36E00EE00F0030E01D812005D
:103A2000EA6002D0EE6AFCD7F350E9601200EE6A59
:023A3000FCD7C1
:0E3A320011EE00F021EE00F0F86AA0EC1BF09F
:0C3A400003EC00F092EC08F0FBD7120041
:043A4C000F0EC6147F
:103A5000080804E00F0EC6140B0801E1C586C7A0D4
:063A6000FED7C950120060
:0A3A6600FF0EE350E84E12000000CE
:0C3A700000D000D000D0E82EFAD71200E1
:043A7C000000000046
:023A8000000044
:020000040030CA
:0100000018E7
:0100010002FC
:0100020038C5
:010003000FED
:01000500807A
:01000600C138
:0100080000F7
:010009008076
:01000A0003F2
:01000B00C034
:01000C0003F0
:01000D0040B2
:00000001FF
