:020000040000FA
:060000007AEF1FF0120070
:020006001200E6
:0600080061EF08F0120098
:0600180001EF08F01200E8
:02001E000100DF
:0C0020003E3F0000EB0000000D0000005F
:04002C000DEC06F0E1
:10003000A0940F015F6B626A536BA0EC05F0CAECF1
:1000400005F0016A080EF36EF46AF350015C000ECD
:10005000F45410E20150040DF3CFE9FFF4CFEAFFAE
:10006000000EE926020EEA22EE6AEE6AEE6AEE6AF7
:10007000012AE8D7648C0F015C6B6498649C62A6CB
:1000800007D062960201436B486B496B4A6BF7D706
:100090000201010E5A6F5B6F5C6B5D6B506B016A06
:1000A000020E015C0FE2B7EC05F0EA22EE6AED6A9F
:1000B000EA6A013484EC05F0EA22EE6AED6A6DEC3E
:1000C00005F0EED70201080E3B6F020E3C6F0F01E8
:1000D000160E536F0201200E026F020E036F080E00
:1000E000016F840E006F0201316B306B98EF05F0E9
:1000F0000DEC06F00201300507E164BA05D0626A32
:1001000060806088020E306F6250040B05E0605022
:10011000040B02E062941ADB64B246D06250010B19
:1001200009E06050010B06E081DFA0840201040EAB
:10013000306F62906250100B05E06050100B02E0CF
:10014000FBDA629862AC0FD060AC05D0DAEC05F057
:10015000730E57EC05F0629C0201585101E05807FC
:10016000585101E102D96250200B04E06050200B8D
:1001700001E0D1DA6250020B0DE06050020B0AE0A0
:10018000DAEC05F0E6687F0EE66EE3EC10F046E987
:100190000F015F6B040E0201E76E301902E7E734CE
:1001A00002D0E750305D02E2A1942ED060A62BD0A1
:1001B000016A040E015C27E262A625D063CF51F2EA
:1001C00002015151780BE842E842E842526F6296D0
:1001D00051B504D052513CEC06F003D0525141ECE1
:1001E00006F0EA22EF70525102E1BCDA0AD0000EAA
:1001F000E66EE66A510EE66E020EE66E720E57EC81
:1002000005F0012AD6D7A19498EF05F046EC06F048
:1002100000A405D0E66A01EBE6FFECD842E900A2B3
:1002200006D0010EE66E01EBE6FFE4D842E901508C
:10023000036E046A530E03260F0E04222CEC06F004
:1002400000EBEFFF9CEF05F04AEC05F086E942E891
:10025000035003E0BBEC05F004D0EA6A043484ECFC
:1002600005F0EA22EE50066EED50076E06500710BC
:1002700004E1000EF36EF46A29D0C5EC05F055ECEC
:1002800006F001EBEEFF02EBEDFFC5EC05F0EE52E0
:1002900000EBEFFF0201400EEC6FC5EC05F0EC51F6
:1002A000EF16880EEC6FC5EC05F0EC51EF12035021
:1002B00003E0BBEC05F004D0EA6A043484EC05F0FA
:1002C000EA22EF7406EBF3FF07EBF4FF9CEF05F077
:1002D00046EC06F0015003E11BEC06F00CD0F6EC06
:1002E00005F00201F32477EC05F0F6EC05F0F324B9
:1002F000010F77EC05F09CEF05F0CCDB82E964A8F8
:1003000016D0BADB400EEE16EE6AEE6AEE6AB4DB89
:10031000EE7CEA6A003406EC06F0EA22EF74020191
:10032000400EEC6FA9DBEC51EF16A6DBEF7C41E948
:10033000E7CFD9FF1200646A6198606AA094020155
:10034000306B1200020130510FE1646A606ACAEC3E
:1003500005F0D08EA284A084F28E64B602D06486AA
:10036000FCD70201010E306F120002015A5122E146
:10037000010E5A6F5B511EE1010E5B6F020E405D74
:1003800007E183DBEE52EF6A80DBC80EEF6E1200EE
:10039000400510E1536B91DBEE52080EEF6E8DDBE2
:1003A00000EC06F08ADB840EEF6E010E536F60DB0B
:1003B000800EEF6E120002015C6B5D6B020E405D01
:1003C00006E14FEC06F083DBFBEC05F010D0445166
:1003D0000201265D020145510201275904E226C2AD
:1003E00044F227C245F25BD850DB71DB4EDBC80E0E
:1003F000EF6E120046EC06F0000E036E020E046E65
:10040000F6EC05F0F324040DF3500326F450042217
:100410002CEC06F0EF9E005004E1EA6A013474DB34
:1004200001D0A5DBEA2203EBEEFF04EBEDFF2CECA1
:1004300006F0EF9C040E0324E96E000E0420EA6E21
:10044000EF8C7AD36498020143BF0DD048AF09D036
:10045000020E406F5D5101E1AEDF02015B6B5A6B32
:1004600012001BEF06F0020120AF0DD00201010EB9
:10047000406F5C5101E19FDF02015B6B5A6B595188
:100480000DE1B5EF01F00201020E406FF1DA840ECA
:10049000EF6E5B6B5A6B595101E167DF1200BDDBF8
:1004A000080E016E0201445D000E45590AE24451F6
:1004B000016E3F5102E1010E03D03F0502E1020E41
:1004C0003F6F0150F36EF46AF350445FF450455BA4
:1004D000DCDAEE5201EBEFFF280E4D6F020E4E6F8D
:1004E00043B10DD0015017E041C2F6FF42C2F7FF01
:1004F000412B000E42230800F5500DDBF3D70150CD
:100500000AE041C2E9FF42C2EAFF412B000E42234A
:10051000EF5001DBF4D70CD3BDDA81E942E8CDDA44
:10052000EE52EF50016E01500201495D000E4A5932
:1005300002E24951016E0150F36EF46AF350495FD3
:10054000F4504A5B026A0150025C14E20250EA6A0B
:10055000280FE96E020EEA22EF50E66E46C2E9FF6E
:1005600047C2EAFF462B000E4723E552E750EF6EE5
:10057000022AE9D749510008000E4A550DE28FDBE7
:10058000A6DA9BDAEF50400B03E135DBC80E02D050
:1005900032DB880EEF6E0FD06BDA840EEF6E4B51AC
:1005A0004C1104E04CC2FAFF4B5114000201489F69
:1005B000595101E1DADEC0D230DB0201438FC0DAEB
:1005C000200EE66EE66AE66A000EE66E020E62DB5A
:1005D000648C016A020E015C02E27FDAFBD7010E35
:1005E000E66EE66AE66A320EE66E020E53DB649C45
:1005F0000201080E3B6F020E3C6F000E336F020EBD
:10060000346F33C235F2366F22C231F2315102E11A
:10061000100E0BD0010EE66EE66A310EE66E020E8B
:10062000E66E010E44DA0201200E306F81D2800E98
:100630000201205D38E10201C00E436F0201235127
:10064000030A1AE0010A09E0030A2BE10201220E63
:10065000416F3C0E426F120E1ED0BADACB0EF62658
:100660003C0EA0DA020E0201ACDAF5CF44F2030E22
:10067000A8DAF5CF45F21200040E225D0FE2A8DAE7
:10068000CD0EF6263C0E8EDA41C2F6FF42C2F7FFCF
:100690000800F5500201446F456B12000201436BE4
:1006A00012000201436B1200F5D981E942E8020110
:1006B000286B296B20511F0B020A11E0030A0CE082
:1006C000010A1EE10201438F0201288102014F0548
:1006D00017E10201288314D00201438F11D00201D7
:1006E000438F020124BF02D0ADDA01D0B0DA47DA7D
:1006F000B8DA06E0E7D9EF50040B02E0010E286FEC
:10070000020143AF07D0280E416F020E426F4381B2
:10071000020E446F11D20F0153A10CD0CED9EF506D
:10072000800807E1B2D9EF50840803E1C6D98C0EE6
:10073000EF6E5391629A12006084629864820201A3
:10074000010E506F06DA750E57EF05F00201506B7F
:1007500000DA740EACD96492609462A402D0629400
:10076000FCD712005ADA02012D0E586FFD0E5115FA
:100770003AE17E0E5115E8407F0B040DF3CF33F2C2
:10078000F4CF34F2000E3327020E342333C235F295
:1007900034C236F2357591D9EF503C0BE842E8424D
:1007A0000D081FE1016A080E015C17E286D97DDAA7
:1007B000EE50EFCFEAFFE96EEF50E66E0150EA6AC5
:1007C000200FE96E020EEA22E552E750EF6E75D96E
:1007D0006CDAEE2AEF22012AE6D76FD911DA09D8AE
:1007E00007D022D805D0FD0E5115040801E12BD801
:1007F0009FD102013F6B596B5C6B5D6B536B406B20
:1008000044D9EF9E3B7541D9EF9E3B75F4D9EF9EDD
:10081000436B446B456B486B496B4A6B4DD899D918
:10082000030E45D922EF02F0020E0201405D02E103
:100830008CEF02F0406B535104E11AD98C0EEF6E2D
:100840001200536B1200E9D920D9EF50400B01E0A0
:10085000010E016E02013B75080E305D0BE122C2F4
:100860005CFF0F015C5103E00201100E02D0020197
:10087000040E306F400513E108D929D910DE020EAD
:1008800002013F5D03E101D9840E07D0015003E16D
:10089000FCD8C80E02D0F9D8880EEF6E0CD048AF45
:1008A00009D04B514C1104E04CC2FAFF4B511400DB
:1008B0000201489F406B3CD102012051600BE8428D
:1008C000E842E842E842E842000901E01200215112
:1008D0000C0A44E00B0A3EE00C0A30E0010A22E078
:1008E0000B0A1EE0020A1CE0030A18E0080A10E0E6
:1008F000010A0CE00F0A08E0030A01E012000201FD
:10090000438F080E306F120017EF03F0DCEF02F098
:100910000201310E416F020E426F0BD054EF03F013
:10092000AFEF04F024510201426B320F416F020E0F
:1009300042234381010E446F438F12000201438F13
:1009400002012451EA6A320FE96E020EEA2222C243
:10095000EFFF1200FED8020E57EF05F012009AD8F2
:1009600081E945E80201220510E120511F0B000931
:100970000CE10201438F030E0201215D04E102013B
:10098000010E4F6F02D002014F6B020122516CE148
:1009900020511F0B020868E124510F0B000964E08D
:1009A00024510F0B010860E3200E0201305D5CE171
:1009B000438F020124BF04D045D9E1D8D0D803D059
:1009C00046D9DDD8D0D8EA22EF50036E08D9010B02
:1009D00002E1019401D0018424BF02D033D901D0B7
:1009E00036D9EA2201EBEEFF02EBEDFF030E215DAB
:1009F00010E137D907E024BF02D0B1D801D0B3D875
:100A0000EA22EF820201840EEC6F5CD8EC51EF1207
:100A10002BD0017426D906E055D8EF9E53D8EF8C21
:100A200000D902D04FD8EF8C0174D9D8020B02E163
:100A300018D90BE0020124BF02D091D801D093D87D
:100A4000EA22EF9212D9EDD801D00FD90201245138
:100A50000F0B046E056A530E04260F0E052204EBDD
:100A6000E9FF05EBEAFFEF9046E9E7CFD9FF120077
:100A700016D9C6D8FBEF05F0EA6A0034C7D8EA22D7
:100A8000EE50EFCFEAFFE96E12003BC2E9FF3CC235
:100A9000EAFF1200D9CFE6FFE1CFD9FF12002451BF
:100AA0000F0BE96EEA6AD890E936EA361200E66E74
:100AB000E66AE3EC10F046E9120033C2E9FF34C203
:100AC000EAFF120001EBE9FF02EBEAFF1200EDD8AA
:100AD000280EEE6E020EED6E12000150D2D8EA2200
:100AE000EF6A0150C9D8EA22EF6A012A1200040D08
:100AF000000EF324036E020EF420046E840EEC6FDD
:100B0000ABD8EC51EF121200FE0BE96EEA36370E4D
:100B1000E926020E1200E66E4DC2E9FF4EC2EAFF60
:100B20004D2B000E4E23E552E750EF6E01061200EA
:100B300042E9E7CFD9FF120043E9E7CFD9FF12001E
:100B4000010EE66EE66AE66A540EE66E0F0E4AEF96
:100B500006F0000EE66EE66AE66EE66A12002451C2
:100B60000F0B3CEF06F024510F0B41EF06F0EA6A41
:100B7000013406EF06F0EA6A043406EF06F0EA22D2
:100B8000EE50016EED50026E120006EBE9FF07EB2E
:100B9000EAFF1200160E616E0F019F0E5B6F7B0E57
:100BA000606E1200F7220900F5CF41F20A00F5CF7E
:100BB00042F21200010EE66EE66A000EE66EE66A8A
:100BC0001200F76A4125F66E4251F7220800120022
:100BD0002251F66EF76AD890F636F7361200D950E1
:100BE000030FE96EDACFEAFFEF501200040E0102A4
:100BF0000050E824120035C2E9FF36C2EAFF1200B5
:100C000054D8200EEE6E020EED6E1200FE0BE96E51
:100C1000EA363B0EE926020E12003CDF81E941E88C
:100C20001200020EE66EE66A01EBE6FF02EBE6FF5B
:100C3000050E57EF05F01CDF8C0EEF6E26DF840EDD
:100C4000EF6E12002CDF370EE926020E120027DFAE
:100C50003B0EE926020E120003EBE9FF04EBEAFF6C
:100C6000120030DFEF50800B120002013B0EEC6FE0
:100C700029DFEC51EF161200EA6A560FE96E020EF8
:100C80001200EA6A540FE96E020E120003DF83E9D4
:100C900042E81200E66E30EC1FF045E91200ABDFCF
:100CA000EE52080EEF6EFBEF05F0020EE926000E85
:040CB000EA22120022
:0C0CB400938C93883F0EC716C66AC56A71
:100CC000800EC76E080EC66E0001E80502E1020E36
:100CD00009D0030EE85D02E1070E04D00C0EE85DBA
:100CE00002E11D0EC86EC68A8A8E010EE66E4AECBF
:100CF0001FF041E91200C66A9D969E968A988A9CCA
:100D00009398939C8A988A9C8A9E0001E80505E145
:100D1000050EE66E5AEC1FF007D0030EE85D06E103
:100D2000010EE66E4AEC1FF041E912000C0EE85D80
:100D300005E1030EE66E4AEC1FF041E91200D9CF3F
:100D4000E6FFE1CFD9FF85E941E8056A0598058A04
:100D5000059C058EBED8100E99D803E00201A2D8DA
:100D6000FEE1AFD8E8B00586A3D8C5A003D0FDD773
:100D7000C5B0FED793D8C5BCFED7ABD8080E86D871
:100D800003E002018FD8FEE17AD8C5BCFED701EBA3
:100D9000ECF275D8C5BCFED700EBE6FFA8D8C5BC01
:100DA000FED7C584C5A403D0FDD7C5B4FED7F8ECE3
:100DB00007F0C580C5B0FED7F8EC07F06FD8C5AC1A
:100DC00004D0C584C5B4FED7F2D7C584C5A403D06A
:100DD000FDD7C5B4FED7F8EC07F0F28EF28C42E9ED
:100DE000E7CFD9FF1200D9CFE6FFE1CFD9FF84E9E1
:100DF00042E8046A056A0598058A059C058E70D844
:100E0000100E44D803E002014DD8FEE15AD8E8B0F4
:100E100005864ED8C5A003D0FDD7C5B0FED73ED8B5
:100E2000C5BCFED75DD8080E31D803E002013AD820
:100E3000FEE125D8C5BCFED700EBECF220D8C5BC3E
:100E4000FED7C582C5B2FED7F8EC07F00528E66EDE
:100E50004ED8C5BCFED787EC1FF0046EF8EC07F047
:100E6000C584C5A403D0FDD7C5B4FED7F8EC07F000
:100E7000F28EF28C045043E9E7CFD9FF1200020151
:100E8000ED6BEE6BECC2E6FF77EF07F01F0BEFC2E6
:100E9000ECF2F0C2EDF2F1C2EEF2120005EBE6FF69
:100EA00077EF07F0D890EE33ED33EC33E80612001D
:100EB000059205940590F29EF29CF8EC07F0C5802F
:100EC0001200010E0201EC17ED6BEE6BEC51059672
:100ED000120001EBEFF202EBF0F203EBF1F2120081
:100EE00000EBEFF201EBF0F202EBF1F21200F7ECA3
:080EF0001EF041E9F8EF07F0E4
:080EF800020120511F0B01084B
:100F000001E01200245101E01200060E215D1BE1F8
:100F10002351230A18E0010A0CE0030A14E102013C
:100F2000310511E10201460E416F3C0E426F090E80
:100F300006D00201AF0E416F3C0E426F1C0E446F93
:100F4000456BC00E436F02012051600BE842E8423E
:100F5000E842E842E842010801E0120021510B0A90
:100F600026E0080A19E0090A11E0080A05E00B0A60
:100F700023E0080A21E012000201FC0E416F000E7E
:100F8000426F010E446F456BC10E0FD00201800EFF
:100F9000436F23C2FCF012000201FD0E416F000EF0
:100FA000426F010E446F456B810E436F12000201C8
:0A0FB000800E436F22C2FDF0120014
:060FBA00FF0EE3500001F0
:100FC000FF6FEE0E02D0F20E0000E76EE72EE6EFA6
:100FD00007F00C0E0001FE6FE76AE72EEDEF07F059
:100FE000FE2FECEF07F00001FF2FE3EF07F01200F8
:0E0FF0001F0EC514FDE1C750040BFAE11200FC
:02100000393085
:0E100200D8CFE4FFE0CFE4FFE46EDACFE4FFE6
:10101000E9CFE4FFEACFE4FFE652A050020B10E074
:10102000A150020B0DE00001EC2BA19200017EA368
:1010300007D0892B2D0E895D03E17E937E81896B1C
:10104000F050080B35E0F050010B32E0020E0001C9
:10105000E75D25E1D6CFEAF0D66AF17A7EA704D023
:10106000EA51460806E203D0EA51410802E26771FC
:10107000678367A312D074EC1BF0EF90EF4200017E
:1010800067A103D074EC1BF0EF8E0001EB2BF02B6B
:10109000080EF05D02E1F06BEF2B00016773E705CE
:1010A00004E182A202D0020EE76F82CFE9F0F09055
:1010B000E55234EC1BF0E550E5CFE0FFE5CFD8FF7B
:1010C0001000DACFE4FFE2CFDAFFE9CFE4FFEACFA6
:1010D000E4FFD9CFE4FFDACFE4FFF8C0E4FFF9C0C2
:1010E000E4FFFAC0E4FFFBC0E4FFF6CFE4FFF7CF74
:1010F000E4FFF5CFE4FFF3CFE4FFF4CFE4FFFACF52
:10110000E4FF02EEECF00A0EE80403E3EECFE4FFA6
:10111000FBD7E65278EC00F0F250100B07E0F250EB
:10112000020B04E000017E85F298F292E55202EE95
:10113000F5F00A0EE80403E3E5CFEDFFFBD7E5CFBA
:10114000FAFFE5CFF4FFE5CFF3FFE5CFF5FFE5CFFD
:10115000F7FFE5CFF6FFE5CFFBF0E5CFFAF0E5CFFF
:10116000F9F0E5CFF8F0E5CFDAFFE5CFD9FF34ECC1
:101170001BF01100D9CFE6FFE1CFD9FF81E941E8AB
:10118000FDD8020EE66E6DEC11F041E9F3CF8CF064
:10119000F4CF8DF0010EE66E6DEC11F041E9F3CF66
:1011A0008AF0F4CF8BF0030EE66E6DEC11F041E99E
:1011B000F3CF8EF0F4CF8FF05AEC15F0F3CF90F020
:1011C000F4CF91F0010EE66E28D941E908D900016B
:1011D0007EB7B3D00001F12B370E0001F15D04E1C1
:1011E0000001F16B66EC17F000017EAB22D000012C
:1011F000F16B0001E96B040E0001E95D11E28B86E1
:101200008A8A040EE66EDDEC07F041E98B968A9A35
:10121000040EE66EDDEC07F041E90001E92BEBD7A7
:101220000001F22B000196510001F25D02E1000184
:101230007E9B0001E7051AE123EC18F0030E000184
:10124000E85D06E1030EE66E5AEC1FF041E909D0B5
:101250000C0E0001E85D05E1280EE66E5AEC1FF069
:1012600041E90001E70502E15DEC18F0020E000122
:10127000E75D5EE17F0EE66E000EE66E66EC18F04E
:1012800042E9000902E000016789000167A946D030
:10129000000167997F0EE66E000EE66E07EC12F015
:1012A00042E9F8C0ECF2F9C0EDF2FAC0EEF2E868FB
:1012B0000201EC1905E1E868ED1902E1E868EE19B0
:1012C00029E000017EA921D0010EE66EA6D841E9F1
:1012D000000186510001815D0AE100018751000192
:1012E000825D05E1000188510001835D0DE07F0E04
:1012F000E66E000EE66EECEC15F042E981C086F079
:1013000082C087F083C088F004D0020EE66E85D8D4
:1013100041E904D0020EE66E80D841E9030EE66E84
:10132000C0EC1EF041E9640EE66E5AEC1FF041E994
:101330000001010EE76F03001CD0040082B019D039
:101340000A0EE66E94EC1FF041E982B012D0000163
:101350007E970201305102E09BEC01F0F292F2889C
:10136000030EE66EC0EC1EF041E90001010EE76FCE
:1013700003002CD742E9E7CFD9FF1200F29EF29C7E
:10138000686A6D6A6B6A7E6A7F6ABD6A949C949E85
:10139000829C829E939E8A9E939A8A9A94968B961A
:1013A0009480948293988A98939C8A9C7CEC1BF0FE
:1013B000BAEC1EF016EC00F00001F46BF56BF66B66
:1013C000F76BF292F288F18C00017E6B676B010E75
:1013D000E76F0001F16BD08EF28EF28C12000001EB
:1013E0007EA511D00A0EE66E94EC1FF041E982A0B2
:1013F0000AD00C0EE66EC0EC1EF041E900017E95AD
:101400007E87A2EC01F0200E0201305D05E10001B3
:101410007E51080B01E067D81200A5EC1AF082E9B2
:1014200041E80050030A4DE0010A17E0030A59E1C0
:101430008B868A8A030E0001E85D02E1030E08D064
:101440000C0EE85D02E10C0E03D0E80503E1010E8D
:1014500042EC1BF08B968A9A44D0026A060E025C1C
:1014600040E28B868A8A030E0001E85D02E1010EEC
:1014700004D00C0EE85D05E1040EE66EDDEC07F02D
:1014800006D0E80505E1040EE66E4AEC1FF041E9DE
:101490008B968A9A030E0001E85D02E1020E04D0E9
:1014A0000C0EE85D05E1050EE66EDDEC07F006D0FA
:1014B000E80505E1040EE66E4AEC1FF041E9022A58
:1014C000CDD7026A030E025C0CE28B868A8A640E18
:1014D00042EC1BF08B968A9A320E42EC1BF0022AE9
:1014E000F1D71CEF1BF0D9CFE6FFE1CFD9FF81E99F
:1014F00048E8200E0201E76E301902E7E73402D017
:10150000E750305D03E36450020B02E09CEF10F003
:101510000001F451F51102E1000E08D0F4C0E9FF1A
:10152000F5C0EAFFEF50800B01E0010E000902E078
:101530009CEF10F00001996B0001DE6BDF6B000186
:101540009951EA6A600FE96E020EEA22EF500F0825
:1015500002E08CEF10F00001992B00019951EA6A2A
:10156000600FE96E020EEA22EFCF9AF0DEC0E6FFCE
:10157000DFC0E6FF00019951EA6A600FE96E020ED2
:10158000EA22EFCFE6FF28EC11F043E9F3CFDEF0DB
:10159000F4CFDFF00001992B00019951EA6A600F46
:1015A000E96E020EEA22EFCF9BF0DEC0E6FFDFC05D
:1015B000E6FF00019951EA6A600FE96E020EEA2225
:1015C000EFCFE6FF28EC11F043E9F3CFDEF0F4CFE4
:1015D000DFF00001992B046A00019B51045C2CE2AE
:1015E00000019951EA6A600FE96E020EEA22EF509B
:1015F000E66E0450EA6A9C0FE96E000EEA22E5529C
:10160000E750EF6EDEC0E6FFDFC0E6FF0001995154
:10161000EA6A600FE96E020EEA22EFCFE6FF28ECDD
:1016200011F043E9F3CFDEF0F4CFDFF00001DC2B63
:101630000001992B042AD0D700019951EA6A600F62
:10164000E96E020EEA22EF50E66EE66AE66A010EE5
:10165000E66E8CEC1DF0E552E5CFE1F0E7CFE0F06F
:101660000001992B00019951EA6A600FE96E020EA0
:10167000EA22EF50F36EF46AF3500001E027F450D1
:101680000001E1230001E0510001DE1904E1000145
:10169000E1510001DF1902E08CEF10F0400E046E02
:1016A000045009E00404EA6AA00FE96E020EEA227F
:1016B000EF6A0406F5D700019A51760A02E140EF7D
:1016C00010F0030A02E16CEF0FF0010A01E1EDD323
:1016D000040A01E1E4D31F0A01E1A2D3010A01E1F6
:1016E0005CD3030A01E126D3010A01E114D2070AFF
:1016F00001E1E6D1010A01E1C6D1030A01E1A7D166
:10170000010A01E131D10F0A01E1BDD0010A2DE04A
:10171000030A02E08CEF10F0000EF66E100EF76E6A
:101720000900F5CFECF20800F5CFEDF20201EDC2B1
:10173000ECF2ED6B0201EC5100019C6F000EF66EB5
:10174000100EF76E0900F5CFECF20800F5CFEDF2C0
:101750000201EC5100019D6F020EE66EC90EE66EAD
:10176000A5EC16F042E98CEF10F000019C51030A41
:101770001BE0010A0EE0030A01E021D000018A51BA
:10178000056E8B51066E076A040E086E010E046E1C
:1017900018D000018C51056E8D51066E076A040E3B
:1017A000086E010E046E0DD000018E51056E8F5132
:1017B000066E076A040E086E010E046E02D0046AFB
:1017C00000D0040458E10750055C0850065834E284
:1017D0009DC081F09EC082F09FC083F07F0EE66EB8
:1017E000000EE66E07EC12F042E9F8C0ECF2F9C028
:1017F000EDF2FAC0EEF2E8680201EC1905E1E868E2
:10180000ED1902E1E868EE1910E19CC0E6FF7F0ED9
:10181000E66E000EE66E39EC14F043E9E66ACA0E95
:10182000E66EA5EC16F042E906D0E66ACB0EE66E4F
:10183000A5EC16F042E91ED000019C51030A13E00A
:10184000010A0AE0030A01E015D0E66AD80EE66E46
:10185000A5EC16F042E90ED0E66AD90EE66EA5ECCC
:1018600016F042E907D0E66ADA0EE66EA5EC16F04D
:1018700042E900D006D0E66AE00EE66EA5EC16F06E
:1018800042E98CEF10F09DC081F09EC082F09FC0B5
:1018900083F07F0EE66E000EE66E07EC12F042E972
:1018A000F8C0ECF2F9C0EDF2FAC0EEF20201EC5130
:1018B000016EED51026EEE51036EE868011805E10C
:1018C000E868021802E1E868031847E000019C514B
:1018D000030A29E0010A15E0030A01E036D0010EEF
:1018E000E66E01EBE6FF02EBE6FF03EBE6FFA3EC9F
:1018F00014F044E9E66ACC0EE66EA5EC16F042E977
:101900002BD0020EE66E01EBE6FF02EBE6FF03EBE7
:10191000E6FFA3EC14F044E9E66ACC0EE66EA5EC13
:1019200016F042E919D0030EE66E01EBE6FF02EB7A
:10193000E6FF03EBE6FFA3EC14F044E9E66ACC0E05
:10194000E66EA5EC16F042E907D0E66AE00EE66E18
:10195000A5EC16F042E900D006D0E66ACD0EE66EA0
:10196000A5EC16F042E9D8D39CC081F09DC082F06E
:101970009EC083F07F0EE66E000EE66E07EC12F05E
:1019800042E9F8C0ECF2F9C0EDF2FAC0EEF2020161
:10199000EC51016EED51026EEE51036EE8680118D4
:1019A00005E1E868021802E1E868031849E001EB84
:1019B000ECF202EBEDF203EBEEF20201EF6B000E44
:1019C0000201EC5D0C0EED59000EEE59000EEF59C0
:1019D00004E20001010E9C6F2BD001EBECF202EB54
:1019E000EDF203EBEEF20201EF6B030E0201EC5D90
:1019F000180EED59000EEE59000EEF5904E20001E9
:101A0000020E9C6F15D001EBECF202EBEDF203EB52
:101A1000EEF20201EF6B060E0201EC5D240EED59B1
:101A2000000EEE59000EEF5903E20001030E9C6F09
:101A3000010EE66ECB0EE66EA5EC16F042E906D07E
:101A4000E66ACD0EE66EA5EC16F042E965D39CC0C1
:101A500060F09DC061F09EC062F09FC063F0A0C0C6
:101A600064F0A1C065F0A2C066F0600EE66E000EE4
:101A7000E66E25EC1CF042E9E66ACE0EE66EA5ECB9
:101A800016F042E949D3600EE66E000EE66E7DEC7C
:101A90001CF042E960C09CF061C09DF062C09EF005
:101AA00063C09FF064C0A0F065C0A1F066C0A2F062
:101AB000070EE66ECF0EE66EA5EC16F042E92CD3CB
:101AC0000001946B956B02018BC0ECF2ED6BECC2E4
:101AD0009CF08AC09DF002018DC0ECF2ED6BECC26F
:101AE0009EF08CC09FF002018FC0ECF2ED6BECC257
:101AF000A0F08EC0A1F0020191C0ECF2ED6BECC23F
:101B0000A2F090C0A3F0080EE66ED00EE66EA5EC33
:101B100016F042E901D3000190510001945D0001EB
:101B200091510001955901E3FED0F29EF29C94C0C0
:101B3000ECF295C0EDF20201070EED03F3CFEDF2EA
:101B4000070EEC03F3CFECF2F450ED270201EE6B3D
:101B5000EF6B090E0201EC27240E0201ED23000EAB
:101B60000201EE23000E0201EF230201EC51016E8F
:101B7000ED51026EEE51036E5AEC06F001EBE6FFFA
:101B800002EBE6FF03EBE6FFF3EC06F043E90001AE
:101B90009C6FD950010FE96EDACFEAFFEE2A000EF2
:101BA000EE22000EEE2201EBE6FF02EBE6FF03EB76
:101BB000E6FFF3EC06F043E900019D6FD950010FF9
:101BC000E96EDACFEAFFEE2A000EEE22000EEE22D8
:101BD00001EBE6FF02EBE6FF03EBE6FFF3EC06F0BA
:101BE00043E900019E6FD950010FE96EDACFEAFF99
:101BF000EE2A000EEE22000EEE2201EBE6FF02EBD3
:101C0000E6FF03EBE6FFF3EC06F043E90001A66F05
:101C1000D950010FE96EDACFEAFFEE2A000EEE226C
:101C2000000EEE2201EBE6FF02EBE6FF03EBE6FF20
:101C3000F3EC06F043E90001A76FD950010FE96EFC
:101C4000DACFEAFFEE2A000EEE22000EEE2201EBC2
:101C5000E6FF02EBE6FF03EBE6FFF3EC06F043E9F9
:101C60000001A86FD950010FE96EDACFEAFFEE2A22
:101C7000000EEE22000EEE2201EBE6FF02EBE6FF85
:101C800003EBE6FFF3EC06F043E90001A96F7BEC00
:101C900006F0F28EF28C0001942B000E95230001C9
:101CA000A651E840E8403F0B00019F6F030E000182
:101CB000A615100DF3CFA0F00001A7390F0B0001FE
:101CC000A0130F0E0001A715E8240001A16F000169
:101CD000A845010B0001A1130001A851E840E8400C
:101CE0003F0B1F0B0001A26F030E0001A815040D8E
:101CF000F3CFA3F0060EA9C0E7FF070B04E0E7420D
:101D0000E79EE806FCE1E7500001A3133F0E000147
:101D1000A9150001A46F090EE66ED10EE66EA5ECC2
:101D200016F042E906D0E66AD70EE66EA5EC16F08C
:101D300042E9F2D1F29EF29C090E016E240E026E6F
:101D4000036A5AEC06F0046A070E045C16E2E668C1
:101D500001EBE6FF02EBE6FF03EBE6FF9FEC06F08C
:101D600044E9D950010FE96EDACFEAFFEE2A000EFE
:101D7000EE22000EEE22042AE7D77BEC06F0F28E6C
:101D8000F28C0001906B916B00017E99E66AD20E95
:101D9000E66EA5EC16F042E9BFD100019C51040AA1
:101DA0002BE0070A1DE0010A0FE0030A01E030D032
:101DB000010EE66E16EC17F041E9E66AD30EE66E08
:101DC000A5EC16F042E92BD0020EE66E16EC17F0E9
:101DD00041E9E66AD40EE66EA5EC16F042E91FD0A2
:101DE000030EE66E16EC17F041E9E66ADB0EE66ECE
:101DF000A5EC16F042E913D0040EE66E16EC17F0CF
:101E000041E9E66AD50EE66EA5EC16F042E907D088
:101E1000E66AE00EE66EA5EC16F042E900D07CD151
:101E200061EC17F00001020EE76F000167990400F2
:101E300000017EA711D000017EB10ED07F0EE66EAC
:101E4000000EE66E66EC18F042E9000902E00001BF
:101E50006789000167A9EBD7000167A914D00001C9
:101E60006799010EE66E0DEC0AF041E981C09CF025
:101E700082C09DF083C09EF0030EE66ED60EE66E25
:101E8000A5EC16F042E900017EA108D000017E9188
:101E9000E66AE20EE66EA5EC16F042E93DD1010ECF
:101EA000E66E0DEC0AF041E937D10001040E9C6F9B
:101EB00000019D6B0001040E9E6F00019F6B0001ED
:101EC000040EA06F0001A16B060EE66EE10EE66E39
:101ED000A5EC16F042E920D100019C51070803E36C
:101EE00000019C5107E1E66AE00EE66EA5EC16F0F3
:101EF00042E9C5D02D0EE66E010EE66EE66AE66A90
:101F000000019C05E66EE66AE66AE66AC0EC1DF032
:101F1000E552E5CFEFF2E5CFEEF2E5CFEDF2E7CF18
:101F2000ECF21D0E0201EC27ED0E0201ED23010E75
:101F30000201EE23000E0201EF23ECC2E2F0EDC23B
:101F4000E3F0EEC2E4F05AEC06F0E2C0E6FFE3C0D4
:101F5000E6FFE4C0E6FFF3EC06F043E90001976F0B
:101F6000FF0E0001975D10E097C0ECF20201ED6BEF
:101F7000EE6BEF6B640E0201EC5D000EED59000E8E
:101F8000EE59000EEF5973E2FF0E0001975D02E17A
:101F90000001976B00019729E66EE2C0E6FFE3C0FF
:101FA000E6FFE4C0E6FF9FEC06F044E9030E000103
:101FB0009703F3280201EC6F0201ED6BEE6B020157
:101FC000EC510001E2270201ED510001E32302017F
:101FD000EE510001E4239DC0E6FF0001E2C0ECF2F7
:101FE000E22BE3C0EDF2000EE323E4C0EEF2000EBC
:101FF000E423ECC2E6FFEDC2E6FFEEC2E6FF9FEC93
:1020000006F044E99EC0E6FF0001E2C0ECF2E22BDC
:10201000E3C0EDF2000EE323E4C0EEF2000EE42391
:10202000ECC2E6FFEDC2E6FFEEC2E6FF9FEC06F073
:1020300044E99FC0E6FF0001E2C0ECF2E22BE3C0FE
:10204000EDF2000EE323E4C0EEF2000EE423ECC256
:10205000E6FFEDC2E6FFEEC2E6FF9FEC06F044E9C4
:10206000E66AE30EE66EA5EC16F042E906D0E66AF3
:10207000E50EE66EA5EC16F042E97BEC06F04CD0DE
:1020800000019C51070803E300019C5107E1E66A47
:10209000E00EE66EA5EC16F042E93DD02D0EE66EA0
:1020A000010EE66EE66AE66A00019C05E66EE66AE7
:1020B000E66AE66AC0EC1DF0E552E5CFEFF2E5CF47
:1020C000EEF2E5CFEDF2E7CFECF21D0E0201EC27C8
:1020D000ED0E0201ED23010E0201EE23000E0201BE
:1020E000EF23ECC2E2F0EDC2E3F0EEC2E4F05AEC12
:1020F00006F0E66AE2C0E6FFE3C0E6FFE4C0E6FF02
:102100009FEC06F044E97BEC06F0E66AE40EE66E2E
:10211000A5EC16F042E900D0400EE66E600EE66EC9
:10212000020EE66EE66A010EE66E24EC01F045E969
:10213000F3CFF4F0F4CFF5F049E9E7CFD9FF12007F
:1021400012001200120012007CEF07F012001E0EA7
:10215000E66E010EE66E06EC01F042E9400EE66E18
:10216000600EE66E020EE66EE66A010EE66E24EC86
:1021700001F045E9F3CFF4F0F4CFF5F012000201DD
:102180004F0520E1020150051DE1A094DADF6492C1
:102190000201506B0201100EE06F0E0EE16FE007BE
:1021A000000EE15BE051E111FAE16484080EE06F9A
:1021B000070EE16FE007000EE15BE051E111FAE18B
:1021C0006494A0841200A5EC1AF087E904EBF3FFF5
:1021D00005EBF4FF050EF31801E1F45036E0E86872
:1021E000F31802E17F0EF4182FE0030EF31801E15B
:1021F000F45028E0020EF31801E1F45021E0010E42
:10220000F31801E1F4501AE0740EF31801E1F450F0
:1022100013E0750EF31801E1F4500CE0730EF3189F
:1022200001E1F45005E0720EF3180FE1F4500DD007
:1022300089DF0BD085DF09D084DF07D088DF05D0A8
:1022400085DF03D081DF01D07EDF010E47EF1BF079
:10225000A5EC1AF084E9020100EBEFF2EE6B01EB62
:10226000ECF2EC51EE11006EEF51016E0250001ACB
:10227000000E011AFF0E0014E8380F0B001A000EB2
:10228000011A00EBEFF2EE6B3BEC1BF006E00201F3
:10229000D890EC37ED37E804FBE10201EC51001A6D
:1022A000ED51011AFF0E0014EE6FEF6B3BEC1BF0CB
:1022B00006E00201D890EC37ED37E804FBE10201BB
:1022C000D890EC37ED37EC51001AED51011A00EBC4
:1022D000F3FF01EBF4FF47EF1BF0D9CFE6FFE1CFAF
:1022E000D9FF82E949E80050030A13E0010A09E036
:1022F000030A01E016D0056A040E066E076A086A32
:1023000010D0056A040E066E030E076E0C0E086EE2
:1023100008D0056A040E066E060E076E180E086ECB
:1023200000D0F29EF29C5AEC06F0096A0A6A055047
:10233000095C06500A585EE20400030EE66EE66A87
:1023400009EBE6FF0AEBE6FF8CEC1DF00201FE0E46
:10235000E3500724EC6F41E9E5500820ED6F0201DE
:10236000EE6B0201EC51026EED51036EEE51046E04
:1023700002EBE6FF03EBE6FF04EBE6FFF3EC06F00F
:1023800043E9FF0833E1D950020FE96EDACFEAFFE3
:10239000EE2A000EEE22000EEE2202EBE6FF03EB29
:1023A000E6FF04EBE6FFF3EC06F043E9FF081EE16D
:1023B000D950020FE96EDACFEAFFEE2A000EEE22C4
:1023C000000EEE2202EBE6FF03EBE6FF04EBE6FF76
:1023D000F3EC06F043E9FF0809E17BEC06F0F28E2E
:1023E000F28C09EBF3FF0AEBF4FF0DD0092A000E83
:1023F0000A229DD77BEC06F0F28EF28C05EBF3FF00
:1024000006EBF4FF00D04AE9E7CFD9FF1200D9CF9D
:10241000E6FFE1CFD9FF83E945E8F29EF29C5AEC52
:1024200006F0066A076A00018A51065C8B5107585C
:1024300001E39CD0040006EBECF207EBEDF20201A5
:10244000030EED03F3CFEDF2030EEC03F3CFECF24A
:10245000F450ED270201EE6BEF6B0201EC51036EBD
:10246000ED51046EEE51056E020E0024E96E000E71
:102470000120EA6EEFCFECF2ECC2E6FF03EBE6FFE1
:1024800004EBE6FF05EBE6FFF3EC06F043E9E5526B
:10249000E7CFECF20201EC5D65E1D950030FE96E84
:1024A000DACFEAFFEE2A000EEE22000EEE22030E35
:1024B0000024E96E000E0120EA6EEFCFECF2ECC2D0
:1024C000E6FF03EBE6FF04EBE6FF05EBE6FFF3ECCC
:1024D00006F043E9E552E7CFECF20201EC5D42E1A0
:1024E000D950030FE96EDACFEAFFEE2A000EEE2292
:1024F000000EEE22040E0024E96E000E0120EA6EAA
:10250000EFCFECF2ECC2E6FF03EBE6FF04EBE6FFF5
:1025100005EBE6FFF3EC06F043E9E552E7CFECF21A
:102520000201EC5D1FE17BEC06F0F28EF28C000103
:102530007E8906EBECF207EBEDF20201030EED03F0
:10254000F3CFEDF2030EEC03F3CFECF2F450ED27F2
:102550000201EE6BEF6BECC2F8F0EDC2F9F0EEC2E7
:10256000FAF083D1062A000E07225DD7066A076AB1
:1025700000018C51065C8D51075801E3B2D0040074
:1025800006EBECF207EBEDF20201030EED03F3CFE5
:10259000EDF2030EEC03F3CFECF2F450ED27020161
:1025A000EE6BEF6B030E0201EC270C0E0201ED2324
:1025B000000E0201EE23000E0201EF230201EC5196
:1025C000036EED51046EEE51056E020E0024E96EAD
:1025D000000E0120EA6EEFCFECF2ECC2E6FF03EB57
:1025E000E6FF04EBE6FF05EBE6FFF3EC06F043E95C
:1025F000E552E7CFECF20201EC5D6FE1D950030F39
:10260000E96EDACFEAFFEE2A000EEE22000EEE228D
:10261000030E0024E96E000E0120EA6EEFCFECF20B
:10262000ECC2E6FF03EBE6FF04EBE6FF05EBE6FF9B
:10263000F3EC06F043E9E552E7CFECF20201EC5D82
:102640004CE1D950030FE96EDACFEAFFEE2A000E13
:10265000EE22000EEE22040E0024E96E000E012090
:10266000EA6EEFCFECF2ECC2E6FF03EBE6FF04EB21
:10267000E6FF05EBE6FFF3EC06F043E9E552E7CFB2
:10268000ECF20201EC5D29E17BEC06F0F28EF28CBB
:1026900006EBECF207EBEDF20201030EED03F3CFD4
:1026A000EDF2030EEC03F3CFECF2F450ED27020150
:1026B000EE6BEF6B030E0201EC270C0E0201ED2313
:1026C000000E0201EE23000E0201EF23ECC2F8F02F
:1026D000EDC2F9F0EEC2FAF0C8D0062A000E0722C9
:1026E00047D7066A076A00018E51065C8F5107586A
:1026F00001E3B2D0040006EBECF207EBEDF20201CD
:10270000030EED03F3CFEDF2030EEC03F3CFECF287
:10271000F450ED270201EE6BEF6B060E0201EC2781
:10272000180E0201ED23000E0201EE23000E02013D
:10273000EF230201EC51036EED51046EEE51056E74
:10274000020E0024E96E000E0120EA6EEFCFECF2DB
:10275000ECC2E6FF03EBE6FF04EBE6FF05EBE6FF6A
:10276000F3EC06F043E9E552E7CFECF20201EC5D51
:102770006FE1D950030FE96EDACFEAFFEE2A000EBF
:10278000EE22000EEE22030E0024E96E000E012060
:10279000EA6EEFCFECF2ECC2E6FF03EBE6FF04EBF0
:1027A000E6FF05EBE6FFF3EC06F043E9E552E7CF81
:1027B000ECF20201EC5D4CE1D950030FE96EDACF87
:1027C000EAFFEE2A000EEE22000EEE22040E002496
:1027D000E96E000E0120EA6EEFCFECF2ECC2E6FFEC
:1027E00003EBE6FF04EBE6FF05EBE6FFF3EC06F098
:1027F00043E9E552E7CFECF20201EC5D29E17BEC25
:1028000006F0F28EF28C06EBECF207EBEDF2020131
:10281000030EED03F3CFEDF2030EEC03F3CFECF276
:10282000F450ED270201EE6BEF6B060E0201EC2770
:10283000180E0201ED23000E0201EE23000E02012C
:10284000EF23ECC2F8F0EDC2F9F0EEC2FAF00DD0D1
:10285000062A000E072247D77BEC06F0F28EF28C98
:102860000001F869F969FA6900D046E9E7CFD9FFB4
:102870001200A5EC1AF084E947E80050030A1AE0B8
:10288000010A0CE0030A22E1046A040E056E066ADE
:10289000076A00018A51086E8B5117D0046A040E32
:1028A000056E030E066E0C0E076E00018C51086E4D
:1028B0008D510BD0046A040E056E060E066E180EBE
:1028C000076E00018E51086E8F51096E0450085C2E
:1028D0000550095835E24BEC1BF0030E0A6E0A5006
:1028E0000BE00A280124E96E000E0220EA6EEFCF09
:1028F000E6FF82EC1AF0F3D7082A000E0922030E35
:102900000A6E0A5004E0E66882EC1AF0FAD74FEC3F
:102910001BF00050030A0EE0010A07E0030A0EE173
:1029200008EB8AF009EB8BF009D008EB8CF009EB8F
:102930008DF004D008EB8EF009EB8FF0010E01D082
:10294000FF0E54EF1BF0A5EC1AF085E945E80050A6
:10295000030A15E0010A0AE0030A1AE100018A519C
:10296000066E8B51076E086A096A12D000018C51FD
:10297000066E8D51076E030E086E0C0E08D0000116
:102980008E51066E8F51076E060E086E180E096E78
:102990004BEC1BF0030EE66EE66A02010604EF6FD5
:1029A000000E0758F06FEFC2E6FFE66E8CEC1DF0EC
:1029B0000201FE0EE3500824EC6F41E9E5500920C6
:1029C000ED6FEE6B0150EC1905E10250ED1902E1DB
:1029D0000350EE1938E0030E056E055034E0030E87
:1029E000E66EE66A06EBE6FF07EBE6FFF1EC1AF0AF
:1029F000040EEE5F000EEF5B03EC1BF0F3EC06F051
:102A000043E9E66E05EBF3F20201F46BF56BD95086
:102A1000010FE96EDACFEAFFEE50F325F06FEE50CA
:102A2000F421F16FEE50F521F26FF007000EF15B2B
:102A3000F25BF0C2E6FFF1C2E6FFF2C2E6FF78EC1D
:102A40001BF00506CAD7056A030E055C15E2E668A9
:102A5000030EE66EE66A02010604F06F000E0758E8
:102A6000F16FF0C2E6FFE66EF1EC1AF003EC1BF03A
:102A700078EC1BF0052AE8D74FEC1BF00606000E99
:102A8000075A0050030A0EE0010A07E0030A0EE1AC
:102A900006EB8AF007EB8BF009D006EB8CF007EB26
:102AA0008DF004D006EB8EF007EB8FF046E9E7CF10
:102AB000D9FF1200D9CFE6FFE1CFD9FF81E945E880
:102AC000F29EF29C5AEC06F0046A056A04EBECF202
:102AD00005EBEDF20201EE6BEF6B800E0201EC5D97
:102AE0003E0EED59000EEE59000EEF5968E204005B
:102AF00004EBECF205EBEDF20201070EED03F3CF70
:102B0000EDF2070EEC03F3CFECF2F450ED270201E7
:102B1000EE6BEF6B090E0201EC27240E0201ED2390
:102B2000000E0201EE23000E0201EF230201EC5120
:102B3000016EED51026EEE51036E01EBE6FF02EB0A
:102B4000E6FF03EBE6FFF3EC06F043E9FF0833E1B1
:102B5000D950010FE96EDACFEAFFEE2A000EEE221D
:102B6000000EEE2201EBE6FF02EBE6FF03EBE6FFD1
:102B7000F3EC06F043E9FF081EE1D950010FE96EBE
:102B8000DACFEAFFEE2A000EEE22000EEE2201EB73
:102B9000E6FF02EBE6FF03EBE6FFF3EC06F043E9AA
:102BA000FF0809E17BEC06F0F28EF28C04EBF3FFF8
:102BB00005EBF4FF0DD0042A000E052287D77BEC2D
:102BC00006F0F28EF28C800EF36E3E0EF46E00D0A4
:102BD00046E9E7CFD9FF1200A5EC1AF083E947E8F0
:102BE000F29EF29C90C0ECF291C0EDF20201EE6B0D
:102BF000EF6B800EEC5D3E0EFDEC1AF001E39ED013
:102C0000B5EC1AF00001635103E0635107080BE2D1
:102C1000B5EC1AF00001635103E06351070803E2C9
:102C2000070E636F90D0645103E064511F080BE2FC
:102C3000B5EC1AF00001645103E064511F0803E28F
:102C4000070E646F80D0655103E065510C080BE2FC
:102C5000B5EC1AF00001655103E065510C0803E280
:102C6000070E656F70D06051066E040E0602F350B9
:102C7000066E61390F0B06126151076E0738F00BB3
:102C8000076E62417F0B07126251086E0832086AB4
:102C900008326451040DF35008126551E840E840D1
:102CA0003F0B08126551096E0940E842C00B096EDE
:102CB0006651091290C0ECF291C0EDF20201070ECC
:102CC000ED03F3CFEDF2EC03F3CFECF2F450ED278C
:102CD000EE6BEF6B090EEC27240EED23000EEE23B6
:102CE000EF23EC51036EED51046EEE51056E5AEC7C
:102CF00006F0020E5DEC1BF0030E5DEC1BF0040E03
:102D00005DEC1BF006EBE6FFF2DB07EBE6FFEFDB2B
:102D100008EBE6FFECDB09EBE6FFE9DBE668E7DB67
:102D2000E668E5DBE66862EC1BF07BEC06F0000190
:102D3000902B000E9123F28EF28C05D0030EE66EDE
:102D40000DEC0AF041E954EF1BF0A5EC1AF083E911
:102D500041E80001DE6BDF6B0001F651F71102E183
:102D6000000E08D0F6C0E9FFF7C0EAFFEF50800B75
:102D700001E0010E000958E102010F0EA06F01EB06
:102D8000A1F2DEC0E6FFDFC0E6FFA1C2E6FFD9EC9C
:102D90001AF000EBA2F2F3CFE6FFF4CFE6FFA2C2F7
:102DA000E6FFD9EC1AF0036A0050035C18E2035006
:102DB000EA6A9C0FE96E000EEA22EF50E66E030EFF
:102DC0000324DBDBDEC0E6FFDFC0E6FF030E0324E7
:102DD0006AEC1BF0EFCFE6FFECDB032AE5D702013C
:102DE000DFC0ECF2ED6BEC51E66E030E0024C5DBA8
:102DF0000001DE51E66E040E0024BFDB050E002448
:102E00006AEC1BF0040EEF6E400EE66EA00EE66E4E
:102E1000020EE66E010EE66EE66E24EC01F045E968
:102E2000F3CFF6F0F4CFF7F01CEF1BF08EDB82E966
:102E300042E84BEC1BF0000403E0040E005C12E1DE
:102E4000026A036A010E026E036A026A036AB9DB50
:102E5000030EEC5D000ED1DB02E27CDBF8D7000153
:102E60008A6B8B6B020E005C03E0040E005C0FE1CA
:102E7000030E026E0C0E036EA4DB060EEC5D0C0E50
:102E8000BCDB02E267DBF8D700018C6B8D6B030EB5
:102E9000005C03E0040E005C0FE1060E026E180EEB
:102EA000036E8FDB090EEC5D180EA7DB02E252DB2E
:102EB000F8D700018E6B8F6BF2DB43E9E7CFD9FFC8
:102EC000120000017E917E83896B1200D9CFE6FF4C
:102ED000E1CFD9FF81E944E8600EE66E000EE66EB0
:102EE0007DEC1CF042E92D0EE66E010EE66EE66A00
:102EF000E66A00016305E66EE66AE66AE66AC0EC29
:102F00001DF0E552E5CFEFF2E5CFEEF2E5CFEDF2C1
:102F1000E7CFECF21D0E0201EC27ED0E0201ED23CE
:102F2000010E0201EE23000E0201EF230201EC511B
:102F3000016EED51026EEE51036E5AEC06F001EB9C
:102F4000E6FF02EBE6FF03EBE6FFF3EC06F043E9F6
:102F50000001976FFF0E0001975D6FE0046A0001AA
:102F60009751045C6AE2040001EBECF202EBEDF233
:102F700003EBEEF20201EC2B000E0201ED23000E3A
:102F80000201EE23030E0402F3CFEFF20201F06B15
:102F9000F16B0201EC510201EF250001E26F020129
:102FA000ED510201F0210001E36F0201EE51020137
:102FB000F1210001E46FE2C0E6FFE3C0E6FFE4C0F8
:102FC000E6FFF3EC06F043E90001625D34E1000145
:102FD000E22B000EE323000EE423E2C0E6FFE3C091
:102FE000E6FFE4C0E6FFF3EC06F043E90001615DB3
:102FF00020E1000198510001615D1AE00001E22B1F
:10300000000EE323000EE42361C098F0E2C0E6FF67
:10301000E3C0E6FFE4C0E6FFF3EC06F043E900019D
:10302000966F0001F26B00017E8B7BEC06F005D001
:1030300002D000019869042A92D77BEC06F045E99A
:10304000E7CFD9FF120094988B88949A8B8AE00E70
:10305000BB6E0C0EBC6ECA6A9D920001E80505E1CC
:103060000C0EBD6E010EBE6E10D0030EE85D06E1C3
:103070000C0EBD6E030EBE6E050E07D00C0EE85D85
:1030800005E10C0EBD6EBE6E170ECB6ECA84E80550
:1030900002E1050E09D0030EE85D02E10A0E04D03C
:1030A0000C0EE85D05E1280EE66E94EC1FF041E998
:1030B000F09CF18AF090F08612008B98BD6ACA6A83
:1030C0008B8ABB6ABC6AF096F0901200D9CFE6FFFB
:1030D000E1CFD9FF83E941E8B6DFA00EE66E45D81F
:1030E00041E9EBDF010EE66EC0EC1EF041E9640E33
:1030F000E66E5AEC1FF041E9036A020E035C2BE214
:1031000004000001EF510201EC6FED6B0201140E9F
:10311000EC1901E1ED5118E00BD9000914E000EBC6
:10312000E6FF01EBE6FF17D942E900090CE000EBEE
:10313000E6FF01EBE6FF82D942E9AA0EE66E49D826
:1031400041E9010E0ED0DDD767D80001F06B000118
:10315000EF6B032AD2D7AA0EE66E3BD841E9000EE8
:1031600000D042E9E7CFD9FF1200EFD982E941E868
:10317000030E0001E85D08E1020E026EC10ED56E7D
:10318000D76AD66A010E0AD00C0EE85D0BE1060E76
:10319000026EC30ED56ED76AD66A210EB16EA292A8
:1031A000A192A082678367910001EF6BF06BEB6BDC
:1031B000EC6BED6BEE6B0050EB5D03E20250EC5DEF
:1031C000FAE3EF6BF06BD56AB16AF096F090EB51D1
:1031D00033D2BBD982E943E8690E036E000E046E58
:1031E000140E026E023414E20250000811E20204CE
:1031F0000201EC6FED6B800B01E0ED69EC510324F3
:10320000E96EED510420EA6E00EBEFFF0206EAD70B
:1032100044E9E7CFD9FF120098D981E941E8140EBB
:10322000016E015009E00104ABD9EF1CE66E010408
:10323000A7D956DA0106F5D7FFD1CBD901E1ED5177
:1032400014E052DAEF50F0C0E7FFE75204E0E84242
:103250007F0BE706FCE1010B0001686F0001F02B1A
:10326000080EF05D02E1EF2BF06B000168511200D7
:103270006CD984E901EBE9FF02EBEAFFEF90EF4242
:10328000005005E001EBE9FF02EBEAFFEF8EFFD112
:103290005CD985E942E881EB06F0063433E206505A
:1032A000010830E2020E065C0201EC6FED6B800B50
:1032B00001E0ED69B3D9EF50010B056EF9D901E0DA
:1032C000EF69B3D9EF407F0BC9D901E0ED69A6D909
:1032D00007DA05500AE0ECD901E0EF69A6D9EF5012
:1032E0008009BCD90BE0ED6909D0E2D901E0EF69B2
:1032F0009CD9EF507F0BB2D901E0ED698FD9F0D99D
:103300000606CBD79DD9EF407F0BE66E99D9E8D959
:10331000005004E095D9EF50800903D091D9EF50C7
:103320007F0BE66E8DD9DCD943E9E7CFD9FF1200D8
:103330000CD981E941E8016A4CD901E1ED5109E07C
:103340007CDF0108F8E1012A090E015CF5E1010EBC
:1033500001D0000E71D1F9D883E947E8036A010E64
:10336000046E056A066A076A086A096A046E04340C
:1033700002E20450320835E360DF036E2AD902E12D
:10338000ED5158E062D9000905E10350055C52E1B6
:10339000056A25D003EBE6FF050EE66E00EBE6FFBF
:1033A00001EBE6FF75DF44E905500318056E4DD9C2
:1033B000040A12E0070A0CE0010A06E0030A0FE122
:1033C00006500318066E0BD007500318076E07D07F
:1033D00008500318086E03D009500318096E042A18
:1033E000C6D72BDF065C26E128DF075C23E125DF5B
:1033F000085C20E122DF095C1DE11FDF00091AE102
:10340000046AD890045002E6050E045C10E204EB56
:10341000ECF20201ED6BECBFED69EC510024E96EBA
:10342000ED510120EA6EEF5002E1042AEAD7050EC1
:10343000045C02E1000E01D0010E36D186D883E98A
:1034400048E8066A076A086A096A0A6A056A050E90
:10345000055C32E2070E046E036A080E035C2AE282
:1034600003EBECF2055092D8EF50ECC2E7FFE752C5
:1034700004E0E8427F0BE706FCE1010B0CE0010EE3
:1034800004EBF3FF045204E0D890E836F306FCE1C5
:1034900083D8EF120CD0010E04EBF3FF045204E0CA
:1034A000D890E836F306FCE1E81C76D8EF1604065F
:1034B000032AD3D7052ACBD7036A050E035C13E290
:1034C0000201D950060FEC6F0350EA6AEC25E96E51
:1034D000DA50EA22EF50E66E040ED880035456D834
:1034E000FFD8032AEAD749E9E7CFD9FF1200EAD883
:1034F000D950030FE96EDACFEAFFEE2A000EEE2272
:10350000EE221200030EE66EE66A08EBE6FF09EB18
:10351000E6FF8CEC1DF00201FE0EE3500624EE6F78
:1035200041E9E5500720EF6F0A50EE25EC6F000EE1
:10353000EF21ED6FEC07000EED5BECC2E6FFEDC294
:10354000E6FFE66AD5D80A061200D9CFE6FFE1CF3A
:10355000D9FF1200E66802EBE6FF03EBE6FFE66A3E
:10356000C7D8022A000E03221200600EE66E000E7B
:10357000E66E7DEC1CF042E91200ACD870EF1BF057
:10358000EA6A690FE96E000EEA2212000024E96E71
:10359000000E0120EA6E12000201EE6FD950060FF4
:1035A000EC6F0550EA6AEC25E96EDA50EA22EE513A
:1035B000120028EC11F043E9F3CFDEF0F4CFDFF096
:1035C000120002EBECF203EBEDF20201EE6BEF6B9B
:1035D00012000001EF510201EC6FED6B140EEC19BB
:1035E00012008CEC1DF00201FE0EE3500824EE6F79
:1035F00041E9E5500920EF6F1200ED59000EEE5938
:10360000000EEF5912000550EE25EC6F000EEF2171
:10361000ED6FECC2E6FFE66EE66A1200EC510224A2
:10362000E96EED510320EA6E1200EE510224E96EBC
:10363000EF510320EA6E120042E9E7CFD9FF1200F2
:1036400002EBE9FF03EBEAFF1200050EE66E04EB66
:10365000E6FF68EC1DF041E9E7501200E66E060453
:10366000EC6FED6B800B1200E5CFEAFFE5CFE9FFD1
:10367000E5CFDAFF1200040EEEC2ECF2EFC2EDF27B
:10368000000A1200E66EDDEC07F041E9120041E9A4
:10369000E7CFD9FF1200F29EF29C5AEF06F07BECC6
:1036A00006F0F28EF28C120048E9E7CFD9FF120043
:1036B0000604EE6FEF6B800B120068DFEFCFE6FFC2
:1036C00077EF1AF003EBE6FF04EBE6FF05EBE6FF0E
:1036D00078EF1BF0EA6AA00FE96E020EEA221200F0
:1036E000E552E750EF6E12000001EF51C0EF1AF003
:0836F0009FEC06F044E9120012
:0836F8007BD981E941E8016A78
:1037000085D9020E71D9016EBF0E0114E66E020E4C
:1037100056D989D9600EE66E000EE66EEED842E903
:10372000000163510DE0635107080AE3645108E0AA
:1037300064511F0805E3655103E065510C0818E268
:1037400072D9150EE66E060E3AD9010EE66E050E1A
:1037500036D9010EE66E040E32D9E66A020E2FD972
:10376000E66A010E2CD9800EE66EE66A06D842E9BA
:103770007BEC06F0F28EF28C45D13AD983E9F29EC9
:10378000F29CF8EC07F0C580C5A003D0FDD7C5B00A
:10379000FED757D9C5BCFED701EBE6FF19D9C5BC8A
:1037A000FED700EBE6FF14D9C5BCFED7C584C5A47F
:1037B00003D0FDD7C5B4FED7F8EC07F0C580C5B07F
:1037C000FED7F8EC07F03DD9C5AC04D0C584C5B42C
:1037D000FED7F2D7C584C5A403D0FDD7C5B4FED7A4
:1037E000F8EC07F0F28EF28C15D102D982E941E8AB
:1037F000F29EF29CF8EC07F0C580C5A003D0FDD77F
:10380000C5B0FED71ED9C5BCFED700EBE6FFE0D899
:10381000C5BCFED7C582C5B2FED7F8EC07F0DF0EF7
:10382000E66ED6D8C5BCFED787EC1FF0026EF8EC6A
:1038300007F0C584C5A403D0FDD7C5B4FED7F8EC06
:1038400007F0F28EF28C0250DDD0D2D883E941E845
:10385000DDD8E4D8040ED1D84BE0E0D8040ECDD8A2
:103860001F0846E3DBD8030EC8D842E0D7D8030EC2
:10387000C4D807083DE3D2D8050EBFD839E0CED86A
:10388000050EBBD80C0834E3C9D8030E9CD8036ED0
:10389000070E0316038603EBE6FF030ED9D8CCD838
:1038A000036E800E0310036E03EBE6FFE66A65DF2E
:1038B00042E9B4D8EE52C0D8E66E010EC9D8020E65
:1038C00082D8036E3F0E0314036E03EBE6FF020E75
:1038D000BFD8040E78D8E66E040EBAD8050E73D899
:1038E000E66E050EB5D8060E6ED8E66E060E67D8E3
:1038F000F28EF28C7BEC06F085D07AD883E986D8FC
:10390000E66A73DF41E97F0B54D8E552E750EF6E6A
:10391000010E9BD8EE52E552E750EF6E020E64D8CE
:103920003F0B47D8020E59D8030E5ED8070B41D87B
:10393000030E53D8040E89D8040E4FD8050E54D860
:103940001F0B37D8050E49D8060E7FD8060E45D86E
:10395000F28EF28C7BEC06F05DD04AD882E900381A
:103960000F0B0A0D0F0E0014F324006E005052D0FE
:103970003FD882E941E8026A0050090816E20A0EBF
:10398000E66E00EBE6FF37EC1DF041E9E750100D65
:10399000F350026E0A0EE66E00EBE6FF3AEC1DF005
:1039A00041E9E7500210026E02D080EB02F00250B3
:1039B00029D0E66ED2DF41E9E66E0EEF1DF0E66E2D
:1039C000DCDE42E91200E926000EEA221CEF1DF0BF
:1039D000F7EC1EF041E9F8EF07F0E926000EEA22C5
:1039E000E552E750EF6E1200E66EFFDE41E912008D
:1039F000D9CFE6FFE1CFD9FF1200E926000EEA2277
:103A0000EF50120042E9E7CFD9FF1200F29EF29C7C
:103A10005AEF06F041E9E7CFD9FF120000EBE9FFCA
:103A200001EBEAFF1200030EDFDF016E080E01104A
:103A3000E66E030EDFEF1CF0EFCFE6FF99DF41E902
:103A40001200DE0EE66EE8EF1CF0CEDFD9EF1CF0C0
:063A5000B6DF0EEF1DF0D1
:0A3A560042E8D9CFE6FFDACFE6FF21
:103A6000E1CFD9FFE2CFDAFF86E9036A1200F3DF84
:103A7000038003D0F0DF01D00382026A080EE76EF4
:103A8000D890013602360050025C02E3026E012A31
:103A9000E72EF7D703B2120003B081EB00F003A0CA
:103AA00082EB00F0E552E5CFDAFFE7CFD9FF43E93B
:103AB000120042E8D9CFE6FFDACFE6FFE1CFD9FF27
:103AC000E2CFDAFF86E9036A1200F3DF038001D058
:103AD000F0DF00AE03D0006C03B0037E01AE02D075
:103AE000016C037E3CEC1DF001BE88EF1DF003AEBF
:103AF00002D0016C026C03B081EB00F003A082EBFA
:103B000000F0E552E5CFDAFFE7CFD9FF43E9000C3B
:103B100003BEEFD7F0DFFF0C44E8D9CFE6FFDACFE2
:103B2000E6FFE1CFD9FFE2CFDAFF8AE980EB04F0CC
:103B300081EB05F082EB06F002500402F450016EB6
:103B4000F350006E0350076E0502F450036EF350FD
:103B5000026E07500402F3500126F4500222E86A74
:103B6000032206500502F3500126F4500222E86AAF
:103B70000322E552E5CFDAFFE7CFD9FF46E9000C93
:103B800044E8D9CFE6FFDACFE6FFE1CFD9FFE2CFB5
:103B9000DAFF8EE980EB08F081EB09F082EB0AF0A6
:103BA00083EB0BF004500802F350006EF450016EEA
:103BB00004500902F3500126000EF420026E045056
:103BC0000A02F3500226000EF420036E04500B028A
:103BD000F350032605500802F3500126F450022248
:103BE000000E032205500902F3500226F45003226E
:103BF00005500A02F350032606500802F35002262D
:103C0000F450032206500902F3500326075008021D
:103C1000F3500326E552E5CFDAFFE7CFD9FF48E9B5
:023C2000000C96
:0E3C22001201000200000008D8043F0002005A
:103C30000102030109022900010100C03209040048
:103C4000000203000000092111010001221C0007ED
:103C50000581034000010705010340000104030939
:103C6000042A0349006E006E006F002000540065B6
:103C700000630068006E006F006C006F00670079E1
:103C800000200049006E0063002E00120341005422
:103C9000002000470055004100520044001203304C
:103CA00000360038003000390033003200320006A0
:103CB00000FF0901A10119012940150125407508DE
:103CC00095408100190129409100C0343C5D3C6160
:053CD0003C8B3C9D3C13
:0A3CD6001E0EF66E000EF76E000ED3
:103CE000F86E02010900F550E76F0900F550E86F22
:103CF00003E1E76701D03DD00900F550E26F09000C
:103D0000F550E36F0900F550E46F09000900F55024
:103D1000E96E0900F550EA6E090009000900F55046
:103D2000E56F0900F550E66F09000900F6CFE9F2EA
:103D3000F7CFEAF2F8CFEBF2E2C2F6FFE3C2F7FF09
:103D4000E4C2F8FF0201E55302E1E65307E009008F
:103D5000F550EE6EE507F8E2E607F9D7E9C2F6FF9F
:103D6000EAC2F7FFEBC2F8FF0201E707000EE85BCB
:043D7000BFD71200A7
:0C3D7400D39E030EE66E02D841E9120057
:103D8000D9CFE6FFE1CFD9FF82E9000408E1D39E55
:103D9000D390D382D2949B9C0001010E23D0020EBB
:103DA000005C0BE1D39ED38CD39AD398D390D3826B
:103DB000D2949B9C0001020E15D0030E005C08E11A
:103DC000D39ED390D392D2849B9C0001030E0AD041
:103DD0000C0E005C08E1D39ED390D392D2849B8CCE
:0E3DE00000010C0EE86F41E9E7CFD9FF120099
:023DEE00D9CF2B
:103DF000E6FFDACFE6FFE1CFD9FFE2CFDAFF83E9D2
:103E000000EBC9FFC6AE02D0FF0E24D00F0EC614C1
:103E100008080FE00F0EC6140B080BE0C6889EA61C
:103E2000FED7C750040B03E1C750010B10E0000E92
:103E300011D00F0EC614080804E00F0EC6140B08AC
:103E400009E1C7B0FED7F8EC07F0C5AC02D0FE0E12
:103E500001D0000E41E9E5CFDAFFE7CFD9FF12002C
:103E6000FE0EE3CFE9FFFF0EE3CFEAFFE9CFF3FF5A
:103E7000EACFF4FFFB0EE35003E1FC0EE35009E050
:103E8000FB0EE30602E2FC0EE306FD0EE350EE6ECF
:043E9000F1D7120054
:0C3E9400FF0EE3500001FF6F480E01D04C
:103EA0004C0EE76EE72EFED7E76AE72EFED7FF2F10
:043EB000F7D712002E
:0C3EB400FF0EE3500001FF6F1A0E00D05B
:103EC00000D001D0200EE76EE72EFED7FF2FFAD7E5
:043ED00000D012000C
:0C3ED400000EF36E00EE00F0030E01D8AB
:103EE0001200EA6002D0EE6AFCD7F350E9601200DB
:043EF000EE6AFCD7A3
:0C3EF40011EE00F021EE00F0F86A6BEC1B
:0E3F00001EF003EC00F0BAEC08F0FBD7120044
:023F0E000F0E94
:103F1000C614080804E00F0EC6140B0801E1C5869C
:083F2000C7A0FED7C950120032
:083F2800FF0EE350E84E120009
:0E3F3000000000D000D000D0E82EFAD712001A
:023F3E00000081
:0B3F4000000000000000000000000076
:020000040030CA
:0100000018E7
:01000100827C
:0100020019E4
:0100030011EB
:010005008872
:01000600C138
:0100080000F7
:010009008076
:01000A0003F2
:01000B00C034
:01000C0003F0
:01000D0040B2
:00000001FF
