:020000040000FA
:0600000082EF1FF0120068
:020006001200E6
:0600080061EF08F0120098
:0600180001EF08F01200E8
:02001E000100DF
:0C0020005C3F0000EB0000000D00000041
:04002C0028EC06F0C6
:10003000A0940F015F6B626A536BB8EC05F0E2ECC1
:1000400005F0016A080EF36EF46AF350015C000ECD
:10005000F45410E20150040DF3CFE9FFF4CFEAFFAE
:10006000000EE926020EEA22EE6AEE6AEE6AEE6AF7
:10007000012AE8D7648C0F015C6B6498649C62A6CB
:1000800007D062960201436B486B496B4A6BF7D706
:100090000201010E5A6F5B6F5C6B5D6B506B016A06
:1000A000020E015C0FE2CFEC05F0EA22EE6AED6A87
:1000B000EA6A01349CEC05F0EA22EE6AED6A85EC0E
:1000C00005F0EED70201080E3B6F020E3C6F0F01E8
:1000D000160E536F0201200E026F020E036F080E00
:1000E000016F840E006F0201316B306BB0EF05F0D1
:1000F00028EC06F00201300507E164BA05D0626A17
:1001000060806088020E306F6250040B05E0605022
:10011000040B02E0629425DB64B246D06250010B0E
:1001200009E06050010B06E081DFA0840201040EAB
:10013000306F62906250100B05E06050100B02E0CF
:1001400006DB629862AC0FD060AC05D0F2EC05F033
:10015000730E6CEC05F0629C0201585101E05807E7
:10016000585101E104D96250200B04E06050200B8B
:1001700001E0DCDA6250020B0DE06050020B0AE095
:10018000F2EC05F0E6687F0EE66EDDEC10F046E975
:100190000F015F6B040E0201E76E301902E7E734CE
:1001A00002D0E750305D02E2A1942ED060A62BD0A1
:1001B000016A040E015C27E262A625D063CF51F2EA
:1001C00002015151780BE842E842E842526F6296D0
:1001D00051B504D0525157EC06F003D052515CECAB
:1001E00006F0EA22EF70525102E1C7DA0AD0000E9F
:1001F000E66EE66A510EE66E020EE66E720E6CEC6C
:1002000005F0012AD6D7A194B0EF05F061EC06F015
:1002100000A405D0E66A01EBE6FFF3D842E900A2AC
:1002200006D0010EE66E01EBE6FFEBD842E9015085
:10023000036E046A530E03260F0E042247EC06F0E9
:1002400000EBEFFFB4EF05F05FEC05F086E942E864
:10025000035003E0D3EC05F004D0EA6A04349CECCC
:1002600005F0EA22EE50066EED50076E06500710BC
:1002700004E1000EF36EF46A2BD0DDEC05F0020E03
:10028000E926000EEA2201EBEEFF02EBEDFFDDECCA
:1002900005F0EE5200EBEFFF0201400EEC6FDDECDB
:1002A00005F0EC51EF16880EEC6FDDEC05F0EC512B
:1002B000EF12035003E0D3EC05F004D0EA6A0434F3
:1002C0009CEC05F0EA22EF7406EBF3FF07EBF4FF7A
:1002D000B4EF05F061EC06F0015003E136EC06F0F6
:1002E0000CD00EEC06F00201F3248FEC05F00EECBE
:1002F00006F0F324010F8FEC05F0B4EF05F0DFDB1F
:1003000082E964A816D0CDDB400EEE16EE6AEE6AE6
:10031000EE6AC7DBEE7CEA6A003421EC06F0EA22E2
:10032000EF740201400EEC6FBCDBEC51EF16B9DB51
:10033000EF7C41E9E7CFD9FF1200646A6198606AF7
:10034000A0940201306B1200020130510FE1646A87
:10035000606AE2EC05F0D08EA284A084F28E64B6CE
:1003600002D06486FCD70201010E306F1200020138
:100370005A5122E1010E5A6F5B511EE1010E5B6F73
:10038000020E405D07E196DBEE52EF6A93DBC80E8A
:10039000EF6E1200400510E1536BA4DBEE52080E25
:1003A000EF6EA0DB18EC06F09DDB840EEF6E010E05
:1003B000536F6FDB800EEF6E120002015C6B5D6BA2
:1003C000020E405D0BE113EC06F0EE52080EEF6EEC
:1003D00013EC06F091DB13EC06F010D0445102014F
:1003E000265D020145510201275904E226C244F26A
:1003F00027C245F25BD85EDB7FDB5CDBC80EEF6EAD
:10040000120061EC06F0000E036E020E046E0EEC9C
:1004100006F0F324040DF3500326F450042247ECB5
:1004200006F0EF9E005004E1EA6A013485DB01D05A
:10043000B6DBEA2203EBEEFF04EBEDFF47EC06F040
:10044000EF9C040E0324E96E000E0420EA6EEF8C8C
:100450008BD36498020143BF0DD048AF09D0020E80
:10046000406F5D5101E1A9DF02015B6B5A6B120025
:1004700036EF06F0020120AF0DD00201010E406FF1
:100480005C5101E19ADF02015B6B5A6B59510DE13E
:10049000B7EF01F00201020E406FFBDA840EEF6E3F
:1004A0005B6B5A6B595101E162DF1200D1DB080E20
:1004B000016E0201445D000E45590AE24451016E8D
:1004C0003F5102E1010E03D03F0502E1020E3F6FF2
:1004D0000150F36EF46AF350445FF450455BEADA7E
:1004E000EE5201EBEFFF280E4D6F020E4E6F43B13F
:1004F0000DD0015017E041C2F6FF42C2F7FF412B79
:10050000000E42230800F5501EDBF3D701500AE02D
:1005100041C2E9FF42C2EAFF412B000E4223EF50E5
:1005200012DBF4D71DD3CBDA81E942E8DBDAEE52F5
:10053000EF50016E01500201495D000E4A5902E27E
:100540004951016E0150F36EF46AF350495FF45063
:100550004A5B026A0150025C14E20250EA6A280F08
:10056000E96E020EEA22EF50E66E46C2E9FF47C28C
:10057000EAFF462B000E4723E552E750EF6E022AB2
:10058000E9D749510008000E4A5511E24CDBEE5202
:10059000080EEF6E48DBB0DAA5DAEF50400B03E14E
:1005A00042DBC80E02D03FDB880EEF6E0FD071DA4F
:1005B000840EEF6E4B514C1104E04CC2FAFF4B51CC
:1005C00014000201489F595101E1D1DECDD240DB38
:1005D0000201438FCDDA200EE66EE66AE66A000E6F
:1005E000E66E020E72DB648C016A020E015C02E2AE
:1005F0008CDAFBD7010EE66EE66AE66A320EE66E2C
:10060000020E63DB649C0201080E3B6F020E3C6F1E
:10061000000E336F020E346F33C235F2366F22C2D2
:1006200031F2315102E1100E0BD0010EE66EE66A96
:10063000310EE66E020EE66E010E4EDA0201200E5B
:10064000306F8ED2800E0201205D38E10201C00EB3
:10065000436F02012351030A1AE0010A09E0030A69
:100660002BE102011C0E416F3C0E426F120E1ED098
:10067000C7DAC50EF6263C0EADDA020E0201B9DA73
:10068000F5CF44F2030EB5DAF5CF45F21200040EB1
:10069000225D0FE2B5DAC70EF6263C0E9BDA41C2A8
:1006A000F6FF42C2F7FF0800F5500201446F456BA8
:1006B00012000201436B12000201436B1200FFD9CA
:1006C00081E942E80201286B296B20511F0B020AC5
:1006D00011E0030A0CE0010A1EE10201438F02014E
:1006E000288102014F0517E10201288314D002017D
:1006F000438F11D00201438F020124BF02D0BDDA23
:1007000001D0C0DA54DAC8DA06E0F1D9EF50040BB0
:1007100002E0010E286F020143AF07D0280E416F9F
:10072000020E426F4381020E446F1ED20F0153A18D
:100730000CD0D8D9EF50800807E1BCD9EF5084081D
:1007400003E1D0D98C0EEF6E5391629A120060844F
:10075000629864820201010E506F13DA750E6CEF1D
:1007600005F00201506B0DDA740EB6D964926094F4
:1007700062A402D06294FCD712006ADA02012D0E44
:10078000586FFD0E511540E17E0E5115E8407F0B6C
:10079000040DF3CF33F2F4CF34F2000E3327020E00
:1007A000342333C235F234C236F235759BD9EF505B
:1007B0003C0BE842E8420D0825E1016A080E015CA5
:1007C0001DE290D9020EE926000EEA22EE50EFCF8C
:1007D000EAFFE96EEF50E66E0150EA6A200FE96E1B
:1007E000020EEA22E552E750EF6E7CD9020EE926AE
:1007F000000EEA22EE2AEF22012AE0D773D918DA96
:1008000009D807D022D805D0FD0E5115040801E102
:100810002BD8A6D102013F6B596B5C6B5D6B536BA0
:10082000406B48D9EF9E3B7545D9EF9E3B75FBD990
:10083000EF9E436B446B456B486B496B4A6B4DD8DD
:10084000A0D9030E49D929EF02F0020E0201405D42
:1008500002E193EF02F0406B535104E11AD98C0E80
:10086000EF6E1200536B1200F3D924D9EF50400BF6
:1008700001E0010E016E02013B75080E305D0BE1D7
:1008800022C25CFF0F015C5103E00201100E02D096
:100890000201040E306F400513E10CD92DD906DE9C
:1008A000020E02013F5D03E105D9840E07D001501D
:1008B00003E100D9C80E02D0FDD8880EEF6E0CD02F
:1008C00048AF09D04B514C1104E04CC2FAFF4B51D8
:1008D00014000201489F406B43D102012051600B7C
:1008E000E842E842E842E842E842000901E012003A
:1008F00021510C0A44E00B0A3EE00C0A30E0010AE8
:1009000022E00B0A1EE0020A1CE0030A18E0080AB3
:1009100010E0010A0CE00F0A08E0030A01E01200EF
:100920000201438F080E306F120022EF03F0E7EF51
:1009300002F00201310E416F020E426F0BD05FEFE9
:1009400003F0C0EF04F024510201426B320F416FFB
:10095000020E42234381010E446F438F12000201B5
:10096000438F02012451EA6A320FE96E020EEA2235
:1009700022C2EFFF120005D9020E6CEF05F0120043
:100980009ED881E945E80201220510E120511F0BA4
:1009900000090CE10201438F030E0201215D04E115
:1009A0000201010E4F6F02D002014F6B0201225172
:1009B0006CE120511F0B020868E124510F0B000964
:1009C00064E024510F0B010860E3200E0201305D4A
:1009D0005CE1438F020124BF04D04FD9E8D8D7D8B7
:1009E00003D050D9E4D8D7D8EA22EF50036E0FD9FC
:1009F000010B02E1019401D0018424BF02D03DD952
:100A000001D040D9EA2201EBEEFF02EBEDFF030E2D
:100A1000215D10E141D907E024BF02D0B8D801D050
:100A2000BAD8EA22EF820201840EEC6F60D8EC5152
:100A3000EF122BD0017430D906E059D8EF9E57D869
:100A4000EF8C0AD902D053D8EF8C0174E0D8020B96
:100A500002E122D90BE0020124BF02D098D801D0D4
:100A60009AD8EA22EF921CD9F7D801D019D90201FD
:100A700024510F0B046E056A530E04260F0E052237
:100A800004EBE9FF05EBEAFFEF9046E9E7CFD9FF7A
:100A90001200C9D8EE52080EEF6EC5D8C9D813EFB0
:100AA00006F0EA6A0034CDD8EA22EE50EFCFEAFF32
:100AB000E96E12003BC2E9FF3CC2EAFF1200D9CF47
:100AC000E6FFE1CFD9FF120024510F0BE96EEA6A6D
:100AD000D890E936EA361200E66EE66ADDEC10F0F0
:100AE00046E9120033C2E9FF34C2EAFF120001EB0B
:100AF000E9FF02EBEAFF1200020EE926000EEA22ED
:100B0000280EEE6E020EED6E12000150D5D8EA22CC
:100B1000EF6A0150CCD8EA22EF6A012A1200040DD4
:100B2000000EF324036E020EF420046E840EEC6FAC
:100B3000AED8EC51EF121200FE0BE96EEA36370E1A
:100B4000E926020E1200E66E4DC2E9FF4EC2EAFF30
:100B50004D2B000E4E23E552E750EF6E01061200BA
:100B600042E9E7CFD9FF120043E9E7CFD9FF1200EE
:100B7000010EE66EE66AE66A540EE66E0F0E65EF4B
:100B800006F0000EE66EE66AE66EE66A1200245192
:100B90000F0B57EF06F024510F0B5CEF06F0EA6ADB
:100BA000013421EF06F0EA6A043421EF06F0EA226C
:100BB000EE50016EED50026E120006EBE9FF07EBFE
:100BC000EAFF1200160E616E0F019F0E5B6F7B0E27
:100BD000606E1200F7220900F5CF41F20A00F5CF4E
:100BE00042F21200010EE66EE66A000EE66EE66A5A
:100BF0001200F76A4125F66E4251F72208001200F2
:100C00002251F66EF76AD890F636F7361200D950B0
:100C1000030FE96EDACFEAFFEF501200040E010273
:100C20000050E824120035C2E9FF36C2EAFF120084
:100C3000020EE926000EEA22200EEE6E020EED6E86
:100C40001200FE0BE96EEA363B0EE926020E120098
:100C500036DF81E941E81200020EE66EE66A01EB3A
:100C6000E6FF02EBE6FF050E6CEF05F012DF8C0EDF
:100C7000EF6E20DF840EEF6E120026DF370EE926BE
:100C8000020E120021DF3B0EE926020E120003EBDA
:100C9000E9FF04EBEAFF12002ADFEF50800B12009D
:100CA00002013B0EEC6F23DFEC51EF161200EA6AF3
:100CB000560FE96E020E1200EA6A540FE96E020E38
:100CC0001200FDDE83E942E81200E66E48EC1FF0F8
:040CD00045E91200E0
:0C0CD400938C93883F0EC716C66AC56A51
:100CE000800EC76E080EC66E0001E80502E1020E16
:100CF00009D0030EE85D02E1070E04D00C0EE85D9A
:100D000002E11D0EC86EC68A8A8E010EE66EEDECFB
:100D100007F041E91200C66A9D969E968A988A9CC1
:100D20009398939C8A988A9C8A9E0001E80505E125
:100D3000050EE66E62EC1FF007D0030EE85D06E1DB
:100D4000010EE66EEDEC07F041E912000C0EE85DD5
:100D500005E1030EE66EEDEC07F041E91200D9CF94
:100D6000E6FFE1CFD9FF85E941E8056A0598058AE4
:100D7000059C058EBED8100E99D803E00201A2D8BA
:100D8000FEE1AFD8E8B00586A3D8C5A003D0FDD753
:100D9000C5B0FED793D8C5BCFED7ABD8080E86D851
:100DA00003E002018FD8FEE17AD8C5BCFED701EB83
:100DB000ECF275D8C5BCFED700EBE6FFA8D8C5BCE1
:100DC000FED7C584C5A403D0FDD7C5B4FED7A7EC14
:100DD0001FF0C580C5B0FED7A7EC1FF06FD8C5AC1B
:100DE00004D0C584C5B4FED7F2D7C584C5A403D04A
:100DF000FDD7C5B4FED7A7EC1FF0F28EF28C42E906
:100E0000E7CFD9FF1200D9CFE6FFE1CFD9FF84E9C0
:100E100042E8046A056A0598058A059C058E70D823
:100E2000100E44D803E002014DD8FEE15AD8E8B0D4
:100E300005864ED8C5A003D0FDD7C5B0FED73ED895
:100E4000C5BCFED75DD8080E31D803E002013AD800
:100E5000FEE125D8C5BCFED700EBECF220D8C5BC1E
:100E6000FED7C582C5B2FED7A7EC1FF00528E66EF7
:100E70004ED8C5BCFED78FEC1FF0046EA7EC1FF058
:100E8000C584C5A403D0FDD7C5B4FED7A7EC1FF019
:100E9000F28EF28C045043E9E7CFD9FF1200020131
:100EA000ED6BEE6BECC2E6FF87EF07F01F0BEFC2B6
:100EB000ECF2F0C2EDF2F1C2EEF2120005EBE6FF49
:100EC00087EF07F0D890EE33ED33EC33E8061200ED
:100ED000059205940590F29EF29CA7EC1FF0C58048
:100EE0001200010E0201EC17ED6BEE6BEC51059652
:100EF000120001EBEFF202EBF0F203EBF1F2120061
:100F000000EBEFF201EBF0F202EBF1F21200F4EC85
:080F10001EF041E9A7EF1FF0FC
:080F1800020120511F0B01082A
:100F200001E01200245101E01200060E215D1BE1D8
:100F30002351230A18E0010A0CE0030A14E102011C
:100F4000310511E10201400E416F3C0E426F090E66
:100F500006D00201A90E416F3C0E426F1C0E446F79
:100F6000456BC00E436F02012051600BE842E8421E
:100F7000E842E842E842010801E0120021510B0A70
:100F800026E0080A19E0090A11E0080A05E00B0A40
:100F900023E0080A21E012000201FC0E416F000E5E
:100FA000426F010E446F456BC10E0FD00201800EDF
:100FB000436F23C2FCF012000201FD0E416F000ED0
:100FC000426F010E446F456B810E436F12000201A8
:0A0FD000800E436F22C2FDF01200F4
:060FDA00FF0EE3500001D0
:100FE000FF6F480E01D04C0EE76EE72EFED7E76A82
:0A0FF000E72EFED7FF2FF7D71200FF
:02100000393085
:0E100200D8CFE4FFE0CFE4FFE46EDACFE4FFE6
:10101000E9CFE4FFEACFE4FFE652A050020B10E074
:10102000A150020B0DE00001EC2BA19200017EA368
:1010300007D0892B2D0E895D03E17E937E81896B1C
:10104000F050080B35E0F050010B32E0020E0001C9
:10105000E75D25E1D6CFEAF0D66AF17A7EA704D023
:10106000EA51460806E203D0EA51410802E26771FC
:10107000678367A312D073EC1BF0EF90EF4200017F
:1010800067A103D073EC1BF0EF8E0001EB2BF02B6C
:10109000080EF05D02E1F06BEF2B00016773E705CE
:1010A00004E182A202D0020EE76F82CFE9F0F09055
:1010B000E5522DEC1BF0E550E5CFE0FFE5CFD8FF82
:1010C0001000DACFE4FFE2CFDAFFE9CFE4FFEACFA6
:1010D000E4FFD9CFE4FFDACFE4FFF8C0E4FFF9C0C2
:1010E000E4FFFAC0E4FFFBC0E4FFF6CFE4FFF7CF74
:1010F000E4FFF5CFE4FFF3CFE4FFF4CFE4FFFACF52
:10110000E4FF02EEECF00A0EE80403E3EECFE4FFA6
:10111000FBD7E65278EC00F0F250100B07E0F250EB
:10112000020B04E000017E85F298F292E55202EE95
:10113000F5F00A0EE80403E3E5CFEDFFFBD7E5CFBA
:10114000FAFFE5CFF4FFE5CFF3FFE5CFF5FFE5CFFD
:10115000F7FFE5CFF6FFE5CFFBF0E5CFFAF0E5CFFF
:10116000F9F0E5CFF8F0E5CFDAFFE5CFD9FF2DECC8
:101170001BF01100D9CFE6FFE1CFD9FF81E941E8AB
:10118000F8D8020EE66E67EC11F041E9F3CF8CF06F
:10119000F4CF8DF0010EE66E67EC11F041E9F3CF6C
:1011A0008AF0F4CF8BF0030EE66E67EC11F041E9A4
:1011B000F3CF8EF0F4CF8FF056EC15F0F3CF90F024
:1011C000F4CF91F0010EE66E24D941E904D9000173
:1011D0007EB7AED00001F12B370E0001F15D04E1C6
:1011E0000001F16B62EC17F000017EAB22D0000130
:1011F000F16B0001E96B040E0001E95D11E28B86E1
:101200008A8A040EE66E2DEC1FF041E98B968A9ACD
:10121000040EE66E2DEC1FF041E90001E92BEBD73F
:101220000001F22B000196510001F25D02E1000184
:101230007E9B0001E7051AE128EC18F0030E00017F
:10124000E85D06E1230EE66E9CEC1FF041E909D053
:101250000C0E0001E85D05E10C0EE66E62EC1FF07D
:1012600041E90001E70502E152EC18F0020E00012D
:10127000E75D59E17F0EE66E000EE66E5FEC18F05A
:1012800042E9000902E000016789000167A946D030
:10129000000167997F0EE66E000EE66E01EC12F01B
:1012A00042E9F8C0ECF2F9C0EDF2FAC0EEF2E868FB
:1012B0000201EC1905E1E868ED1902E1E868EE19B0
:1012C00029E000017EA921D0010EE66EA2D841E9F5
:1012D000000186510001815D0AE100018751000192
:1012E000825D05E1000188510001835D0DE07F0E04
:1012F000E66E000EE66EE8EC15F042E981C086F07D
:1013000082C087F083C088F004D0020EE66E81D8D8
:1013100041E904D0020EE66E7CD841E9030EE66E88
:10132000BDEC1EF041E90001010EE76F03001CD087
:10133000040082B019D00A0EE66E9CEC1FF041E961
:1013400082B012D000017E970201305102E09DEC84
:1013500001F0F292F288030EE66EBDEC1EF041E958
:101360000001010EE76F030031D742E9E7CFD9FF53
:101370001200F29EF29C686A6D6A6B6A7E6A7F6AEE
:10138000BD6A949C949E829C829E939E8A9E939A10
:101390008A9A94968B96948093988A98939C8A9C28
:1013A00077EC1BF0B7EC1EF01FEC18F016EC00F019
:1013B0000001F46BF56BF66BF76BF292F288F18C2F
:1013C00000017E6B676B010EE76F0001F16BD08E41
:1013D000F28EF28C120000017EA511D00A0EE66E8C
:1013E0009CEC1FF041E982A00AD00C0EE66EBDEC29
:1013F0001EF041E900017E957E87A4EC01F0200EED
:101400000201305D05E100017E51080B01E064D866
:1014100012009CEC1AF082E941E80050030A4AE00D
:10142000010A16E0030A56E18B868A8A56EC1BF005
:1014300002E1030E08D00C0EE85D02E10C0E03D0B1
:10144000E80503E1010E3BEC1BF08B968A9A42D033
:10145000026A060E025C3EE28B868A8A56EC1BF01C
:1014600002E1010E04D00C0EE85D05E1040EE66E0B
:101470002DEC1FF006D0E80505E1040EE66EEDEC5C
:1014800007F041E98B968A9A56EC1BF002E1020EB6
:1014900004D00C0EE85D05E1050EE66E2DEC1FF0A4
:1014A00006D0E80505E1040EE66EEDEC07F041E933
:1014B000022ACFD7026A030E025C0CE28B868A8A6C
:1014C000640E3BEC1BF08B968A9A320E3BEC1BF0C1
:1014D000022AF1D715EF1BF0D9CFE6FFE1CFD9FFF4
:1014E00081E948E8200E0201E76E301902E7E7348F
:1014F00002D0E750305D03E36450020B02E096EF48
:1015000010F00001F451F51102E1000E08D0F4C012
:10151000E9FFF5C0EAFFEF50800B01E0010E000982
:1015200002E096EF10F00001996B0001DE6BDF6BBB
:1015300000019951EA6A600FE96E020EEA22EF504B
:101540000F0802E086EF10F00001992B000199517D
:10155000EA6A600FE96E020EEA22EFCF9AF0DEC06F
:10156000E6FFDFC0E6FF00019951EA6A600FE96E0D
:10157000020EEA22EFCFE6FF22EC11F043E9F3CFAF
:10158000DEF0F4CFDFF00001992B00019951EA6AF7
:10159000600FE96E020EEA22EFCF9BF0DEC0E6FF9D
:1015A000DFC0E6FF00019951EA6A600FE96E020EA2
:1015B000EA22EFCFE6FF22EC11F043E9F3CFDEF0B1
:1015C000F4CFDFF00001992B046A00019B51045C09
:1015D0002CE200019951EA6A600FE96E020EEA22DC
:1015E000EF50E66E0450EA6A9C0FE96E000EEA22A4
:1015F000E552E750EF6EDEC0E6FFDFC0E6FF000118
:101600009951EA6A600FE96E020EEA22EFCFE6FF17
:1016100022EC11F043E9F3CFDEF0F4CFDFF000016C
:10162000DC2B0001992B042AD0D700019951EA6ADA
:10163000600FE96E020EEA22EF50E66EE66AE66A95
:10164000010EE66E89EC1DF0E552E5CFE1F0E7CF43
:10165000E0F00001992B00019951EA6A600FE96EF0
:10166000020EEA22EF50F36EF46AF3500001E02715
:10167000F4500001E1230001E0510001DE1904E112
:101680000001E1510001DF1902E086EF10F0400E89
:10169000046E045009E00404EA6AA00FE96E020E29
:1016A000EA22EF6A0406F5D700019A51760A02E1B0
:1016B0003AEF10F0030A02E166EF0FF0010A01E1D0
:1016C000EED3040A01E1E5D31F0A01E1A2D3010A26
:1016D00001E15CD3030A01E126D3010A01E114D23E
:1016E000070A01E1E6D1010A01E1C6D1030A01E1DD
:1016F000A7D1010A01E131D10F0A01E1BDD0010AF0
:101700002DE0030A02E086EF10F0000EF66E100ED8
:10171000F76E0900F5CFECF20800F5CFEDF202010B
:10172000EDC2ECF2ED6B0201EC5100019C6F000E7A
:10173000F66E100EF76E0900F5CFECF20800F5CF4B
:10174000EDF20201EC5100019D6F020EE66EC90E32
:10175000E66EA1EC16F042E986EF10F000019C5114
:10176000030A1BE0010A0EE0030A01E021D0000198
:101770008A51056E8B51066E076A040E086E010EC3
:10178000046E18D000018C51056E8D51066E076AEB
:10179000040E086E010E046E0DD000018E51056E10
:1017A0008F51066E076A040E086E010E046E02D099
:1017B000046A00D0040458E10750055C085006583C
:1017C00034E29DC081F09EC082F09FC083F07F0E06
:1017D000E66E000EE66E01EC12F042E9F8C0ECF2A3
:1017E000F9C0EDF2FAC0EEF2E8680201EC1905E189
:1017F000E868ED1902E1E868EE1910E19CC0E6FF27
:101800007F0EE66E000EE66E33EC14F043E9E66AF6
:10181000CA0EE66EA1EC16F042E906D0E66ACB0EDF
:10182000E66EA1EC16F042E91ED000019C51030ABD
:1018300013E0010A0AE0030A01E015D0E66AD80EB7
:10184000E66EA1EC16F042E90ED0E66AD90EE66E1D
:10185000A1EC16F042E907D0E66ADA0EE66EA1ECDA
:1018600016F042E900D006D0E66AE00EE66EA1EC82
:1018700016F042E986EF10F09DC081F09EC082F024
:101880009FC083F07F0EE66E000EE66E01EC12F054
:1018900042E9F8C0ECF2F9C0EDF2FAC0EEF2020152
:1018A000EC51016EED51026EEE51036EE8680118C5
:1018B00005E1E868021802E1E868031847E0000162
:1018C0009C51030A29E0010A15E0030A01E036D021
:1018D000010EE66E01EBE6FF02EBE6FF03EBE6FF2F
:1018E0009DEC14F044E9E66ACC0EE66EA1EC16F02D
:1018F00042E92BD0020EE66E01EBE6FF02EBE6FFBB
:1019000003EBE6FF9DEC14F044E9E66ACC0EE66ECC
:10191000A1EC16F042E919D0030EE66E01EBE6FFEA
:1019200002EBE6FF03EBE6FF9DEC14F044E9E66A08
:10193000CC0EE66EA1EC16F042E907D0E66AE00EA6
:10194000E66EA1EC16F042E900D006D0E66ACD0EB4
:10195000E66EA1EC16F042E9D9D39CC081F09DC09F
:1019600082F09EC083F07F0EE66E000EE66E01EC04
:1019700012F042E9F8C0ECF2F9C0EDF2FAC0EEF272
:101980000201EC51016EED51026EEE51036EE868FA
:10199000011805E1E868021802E1E868031849E067
:1019A00001EBECF202EBEDF203EBEEF20201EF6B76
:1019B000000E0201EC5D0C0EED59000EEE59000E0A
:1019C000EF5904E20001010E9C6F2BD001EBECF209
:1019D00002EBEDF203EBEEF20201EF6B030E0201FC
:1019E000EC5D180EED59000EEE59000EEF5904E2B1
:1019F0000001020E9C6F15D001EBECF202EBEDF250
:101A000003EBEEF20201EF6B060E0201EC5D240E19
:101A1000ED59000EEE59000EEF5903E20001030EDE
:101A20009C6F010EE66ECB0EE66EA1EC16F042E95D
:101A300006D0E66ACD0EE66EA1EC16F042E966D35A
:101A40009CC060F09DC061F09EC062F09FC063F0DA
:101A5000A0C064F0A1C065F0A2C066F0600EE66EA2
:101A6000000EE66E20EC1CF042E9E66ACE0EE66E51
:101A7000A1EC16F042E94AD3600EE66E000EE66E67
:101A80007DEC1CF042E960C09CF061C09DF062C03A
:101A90009EF063C09FF064C0A0F065C0A1F066C076
:101AA000A2F0070EE66ECF0EE66EA1EC16F042E94C
:101AB0002DD30001946B956B02018BC0ECF2ED6BA2
:101AC000ECC29CF08AC09DF002018DC0ECF2ED6B7F
:101AD000ECC29EF08CC09FF002018FC0ECF2ED6B67
:101AE000ECC2A0F08EC0A1F0020191C0ECF2ED6B4F
:101AF000ECC2A2F090C0A3F0080EE66ED00EE66E27
:101B0000A1EC16F042E902D3000190510001945D6E
:101B1000000191510001955901E3FED0F29EF29C23
:101B200094C0ECF295C0EDF20201070EED03F3CF85
:101B3000EDF2070EEC03F3CFECF2F450ED270201C7
:101B4000EE6BEF6B090E0201EC27240E0201ED2370
:101B5000000E0201EE23000E0201EF230201EC5100
:101B6000016EED51026EEE51036E6AEC06F001EB70
:101B7000E6FF02EBE6FF03EBE6FF03EC07F043E9C9
:101B800000019C6FD950010FE96EDACFEAFFEE2A0F
:101B9000000EEE22000EEE2201EBE6FF02EBE6FF66
:101BA00003EBE6FF03EC07F043E900019D6FD9501A
:101BB000010FE96EDACFEAFFEE2A000EEE22000EE8
:101BC000EE2201EBE6FF02EBE6FF03EBE6FF03ECA0
:101BD00007F043E900019E6FD950010FE96EDACF9B
:101BE000EAFFEE2A000EEE22000EEE2201EBE6FFE7
:101BF00002EBE6FF03EBE6FF03EC07F043E900012D
:101C0000A66FD950010FE96EDACFEAFFEE2A000E77
:101C1000EE22000EEE2201EBE6FF02EBE6FF03EB05
:101C2000E6FF03EC07F043E90001A76FD950010F6D
:101C3000E96EDACFEAFFEE2A000EEE22000EEE2267
:101C400001EBE6FF02EBE6FF03EBE6FF03EC07F038
:101C500043E90001A86FD950010FE96EDACFEAFF1E
:101C6000EE2A000EEE22000EEE2201EBE6FF02EB62
:101C7000E6FF03EBE6FF03EC07F043E90001A96F81
:101C80008BEC06F0F28EF28C0001942B000E952363
:101C90000001A651E840E8403F0B00019F6F030E92
:101CA0000001A615100DF3CFA0F00001A7390F0B0E
:101CB0000001A0130F0E0001A715E8240001A16F79
:101CC0000001A845010B0001A1130001A851E84043
:101CD000E8403F0B1F0B0001A26F030E0001A81587
:101CE000040DF3CFA3F0060EA9C0E7FF070B04E035
:101CF000E742E79EE806FCE1E7500001A3133F0E30
:101D00000001A9150001A46F090EE66ED10EE66E62
:101D1000A1EC16F042E906D0E66AD70EE66EA1EC19
:101D200016F042E9F3D1F29EF29C090E016E240EE8
:101D3000026E036A6AEC06F0046A070E045C16E29F
:101D4000E66801EBE6FF02EBE6FF03EBE6FFAFEC34
:101D500006F044E9D950010FE96EDACFEAFFEE2A26
:101D6000000EEE22000EEE22042AE7D78BEC06F0DE
:101D7000F28EF28C0001906B916B00017E99E66A05
:101D8000D20EE66EA1EC16F042E9C0D100019C51E2
:101D9000040A2BE0070A1DE0010A0FE0030A01E034
:101DA00030D0010EE66E12EC17F041E9E66AD30E70
:101DB000E66EA1EC16F042E92BD0020EE66E12ECB4
:101DC00017F041E9E66AD40EE66EA1EC16F042E99E
:101DD0001FD0030EE66E12EC17F041E9E66ADB0E47
:101DE000E66EA1EC16F042E913D0040EE66E12EC9A
:101DF00017F041E9E66AD50EE66EA1EC16F042E96D
:101E000007D0E66AE00EE66EA1EC16F042E900D0DB
:101E10007DD15DEC17F00001020EE76F00016799BC
:101E2000040000017EA712D000017EB10FD07F0E0A
:101E3000E66E000EE66E5FEC18F042E9000903E082
:101E4000040000016789000167A9EAD7000167A9BA
:101E500014D000016799010EE66E09EC0AF041E921
:101E600081C09CF082C09DF083C09EF0030EE66EA0
:101E7000D60EE66EA1EC16F042E900017EA108D074
:101E800000017E91E66AE20EE66EA1EC16F042E9F0
:101E90003DD1010EE66E09EC0AF041E937D10001AF
:101EA000040E9C6F00019D6B0001040E9E6F0001EB
:101EB0009F6B0001040EA06F0001A16B060EE66E81
:101EC000E10EE66EA1EC16F042E920D100019C5132
:101ED000070803E300019C5107E1E66AE00EE66EA5
:101EE000A1EC16F042E9C5D02D0EE66E010EE66EAD
:101EF000E66AE66A00019C05E66EE66AE66AE66A5C
:101F0000BDEC1DF0E552E5CFEFF2E5CFEEF2E5CF07
:101F1000EDF2E7CFECF21D0E0201EC27ED0E02010F
:101F2000ED23010E0201EE23000E0201EF23ECC2AD
:101F3000E2F0EDC2E3F0EEC2E4F06AEC06F0E2C0DB
:101F4000E6FFE3C0E6FFE4C0E6FF03EC07F043E989
:101F50000001976FFF0E0001975D10E097C0ECF253
:101F60000201ED6BEE6BEF6B640E0201EC5D000E97
:101F7000ED59000EEE59000EEF5973E2FF0E00010D
:101F8000975D02E10001976B00019729E66EE2C0C0
:101F9000E6FFE3C0E6FFE4C0E6FFAFEC06F044E98D
:101FA000030E00019703F3280201EC6F0201ED6BB1
:101FB000EE6B0201EC510001E2270201ED5100013C
:101FC000E3230201EE510001E4239DC0E6FF00017E
:101FD000E2C0ECF2E22BE3C0EDF2000EE323E4C03A
:101FE000EEF2000EE423ECC2E6FFEDC2E6FFEEC225
:101FF000E6FFAFEC06F044E99EC0E6FF0001E2C058
:10200000ECF2E22BE3C0EDF2000EE323E4C0EEF2CB
:10201000000EE423ECC2E6FFEDC2E6FFEEC2E6FFEF
:10202000AFEC06F044E99FC0E6FF0001E2C0ECF22D
:10203000E22BE3C0EDF2000EE323E4C0EEF2000E6B
:10204000E423ECC2E6FFEDC2E6FFEEC2E6FFAFEC32
:1020500006F044E9E66AE30EE66EA1EC16F042E90A
:1020600006D0E66AE50EE66EA1EC16F042E98BECCE
:1020700006F04CD000019C51070803E300019C517D
:1020800007E1E66AE00EE66EA1EC16F042E93DD00B
:102090002D0EE66E010EE66EE66AE66A00019C050C
:1020A000E66EE66AE66AE66ABDEC1DF0E552E5CF4B
:1020B000EFF2E5CFEEF2E5CFEDF2E7CFECF21D0E59
:1020C0000201EC27ED0E0201ED23010E0201EE23C9
:1020D000000E0201EF23ECC2E2F0EDC2E3F0EEC22B
:1020E000E4F06AEC06F0E66AE2C0E6FFE3C0E6FF71
:1020F000E4C0E6FFAFEC06F044E98BEC06F0E66ADC
:10210000E40EE66EA1EC16F042E900D0400EE66E59
:10211000600EE66E020EE66EE66A010EE66E24ECD6
:1021200001F045E9F3CFF4F0F4CFF5F049E9E7CF5A
:10213000D9FF120012001200120012008CEF07F0FB
:1021400012001E0EE66E010EE66E06EC01F042E98C
:10215000400EE66E600EE66E020EE66EE66A010E58
:10216000E66E24EC01F045E9F3CFF4F0F4CFF5F09E
:10217000120002014F0520E1020150051DE1A0946B
:10218000DADF64920201506B0201100EE06F0E0E56
:10219000E16FE007000EE15BE051E111FAE16484D8
:1021A000080EE06F070EE16FE007000EE15BE05103
:1021B000E111FAE16494A08412009CEC1AF087E922
:1021C00004EBF3FF05EBF4FF050EF31801E1F45007
:1021D00036E0E868F31802E17F0EF4182FE0030EF2
:1021E000F31801E1F45028E0020EF31801E1F45075
:1021F00021E0010EF31801E1F4501AE0740EF31817
:1022000001E1F45013E0750EF31801E1F4500CE015
:10221000730EF31801E1F45005E0720EF3180FE1AC
:10222000F4500DD089DF0BD085DF09D084DF07D0D3
:1022300088DF05D085DF03D081DF01D07EDF010E8E
:1022400040EF1BF09CEC1AF084E9020100EBEFF286
:10225000EE6B01EBECF2EC51EE11006EEF51016E02
:102260000250001A000E011AFF0E0014E8380F0B7E
:10227000001A000E011A00EBEFF2EE6B34EC1BF0CB
:1022800006E00201D890EC37ED37E804FBE10201EB
:10229000EC51001AED51011AFF0E0014EE6FEF6BB6
:1022A00034EC1BF006E00201D890EC37ED37E8047F
:1022B000FBE10201D890EC37ED37EC51001AED51FB
:1022C000011A00EBF3FF01EBF4FF40EF1BF0D9CF55
:1022D000E6FFE1CFD9FF82E949E80050030A13E0A5
:1022E000010A09E0030A01E016D0056A040E066E31
:1022F000076A086A10D0056A040E066E030E076EA0
:102300000C0E086E08D0056A040E066E060E076EE7
:10231000180E086E00D0F29EF29C6AEC06F0096A74
:102320000A6A0550095C06500A585EE20400030E72
:10233000E66EE66A09EBE6FF0AEBE6FF89EC1DF0C4
:102340000201FE0EE3500724EC6F41E9E55008203E
:10235000ED6F0201EE6B0201EC51026EED51036E66
:10236000EE51046E02EBE6FF03EBE6FF04EBE6FF43
:1023700003EC07F043E9FF0833E1D950020FE96E9F
:10238000DACFEAFFEE2A000EEE22000EEE2202EB7A
:10239000E6FF03EBE6FF04EBE6FF03EC07F043E99F
:1023A000FF081EE1D950020FE96EDACFEAFFEE2AEC
:1023B000000EEE22000EEE2202EBE6FF03EBE6FF3C
:1023C00004EBE6FF03EC07F043E9FF0809E18BECBF
:1023D00006F0F28EF28C09EBF3FF0AEBF4FF0DD05E
:1023E000092A000E0A229DD78BEC06F0F28EF28CA1
:1023F00005EBF3FF06EBF4FF00D04AE9E7CFD9FF86
:102400001200D9CFE6FFE1CFD9FF83E945E8F29E7C
:10241000F29C6AEC06F0066A076A00018A51065CC3
:102420008B51075801E39CD0040006EBECF207EB5C
:10243000EDF20201030EED03F3CFEDF2030EEC0318
:10244000F3CFECF2F450ED270201EE6BEF6B0201DB
:10245000EC51036EED51046EEE51056E020E002438
:10246000E96E000E0120EA6EEFCFECF2ECC2E6FF5F
:1024700003EBE6FF04EBE6FF05EBE6FF03EC07F0FA
:1024800043E9E552E7CFECF20201EC5D65E1D9509A
:10249000030FE96EDACFEAFFEE2A000EEE22000EFD
:1024A000EE22030E0024E96E000E0120EA6EEFCF4B
:1024B000ECF2ECC2E6FF03EBE6FF04EBE6FF05EB14
:1024C000E6FF03EC07F043E9E552E7CFECF2020147
:1024D000EC5D42E1D950030FE96EDACFEAFFEE2A54
:1024E000000EEE22000EEE22040E0024E96E000E15
:1024F0000120EA6EEFCFECF2ECC2E6FF03EBE6FF61
:1025000004EBE6FF05EBE6FF03EC07F043E9E552D9
:10251000E7CFECF20201EC5D1FE18BEC06F0F28EEE
:10252000F28C00017E8906EBECF207EBEDF2020182
:10253000030EED03F3CFEDF2030EEC03F3CFECF259
:10254000F450ED270201EE6BEF6BECC2F8F0EDC238
:10255000F9F0EEC2FAF083D1062A000E07225DD709
:10256000066A076A00018C51065C8D51075801E329
:10257000B2D0040006EBECF207EBEDF20201030E21
:10258000ED03F3CFEDF2030EEC03F3CFECF2F450D6
:10259000ED270201EE6BEF6B030E0201EC270C0E30
:1025A0000201ED23000E0201EE23000E0201EF23D3
:1025B0000201EC51036EED51046EEE51056E020EF8
:1025C0000024E96E000E0120EA6EEFCFECF2ECC2BF
:1025D000E6FF03EBE6FF04EBE6FF05EBE6FF03ECAB
:1025E00007F043E9E552E7CFECF20201EC5D6FE161
:1025F000D950030FE96EDACFEAFFEE2A000EEE2281
:10260000000EEE22030E0024E96E000E0120EA6E99
:10261000EFCFECF2ECC2E6FF03EBE6FF04EBE6FFE4
:1026200005EBE6FF03EC07F043E9E552E7CFECF2F8
:102630000201EC5D4CE1D950030FE96EDACFEAFFFD
:10264000EE2A000EEE22000EEE22040E0024E96EA9
:10265000000E0120EA6EEFCFECF2ECC2E6FF03EBD6
:10266000E6FF04EBE6FF05EBE6FF03EC07F043E9CA
:10267000E552E7CFECF20201EC5D29E18BEC06F0CC
:10268000F28EF28C06EBECF207EBEDF20201030E98
:10269000ED03F3CFEDF2030EEC03F3CFECF2F450C5
:1026A000ED270201EE6BEF6B030E0201EC270C0E1F
:1026B0000201ED23000E0201EE23000E0201EF23C2
:1026C000ECC2F8F0EDC2F9F0EEC2FAF0C8D0062A7A
:1026D000000E072247D7066A076A00018E51065C82
:1026E0008F51075801E3B2D0040006EBECF207EB80
:1026F000EDF20201030EED03F3CFEDF2030EEC0356
:10270000F3CFECF2F450ED270201EE6BEF6B060E07
:102710000201EC27180E0201ED23000E0201EE2348
:10272000000E0201EF230201EC51036EED51046E25
:10273000EE51056E020E0024E96E000E0120EA6ED5
:10274000EFCFECF2ECC2E6FF03EBE6FF04EBE6FFB3
:1027500005EBE6FF03EC07F043E9E552E7CFECF2C7
:102760000201EC5D6FE1D950030FE96EDACFEAFFA9
:10277000EE2A000EEE22000EEE22030E0024E96E79
:10278000000E0120EA6EEFCFECF2ECC2E6FF03EBA5
:10279000E6FF04EBE6FF05EBE6FF03EC07F043E999
:1027A000E552E7CFECF20201EC5D4CE1D950030FAA
:1027B000E96EDACFEAFFEE2A000EEE22000EEE22DC
:1027C000040E0024E96E000E0120EA6EEFCFECF259
:1027D000ECC2E6FF03EBE6FF04EBE6FF05EBE6FFEA
:1027E00003EC07F043E9E552E7CFECF20201EC5DC0
:1027F00029E18BEC06F0F28EF28C06EBECF207EBA3
:10280000EDF20201030EED03F3CFEDF2030EEC0344
:10281000F3CFECF2F450ED270201EE6BEF6B060EF6
:102820000201EC27180E0201ED23000E0201EE2337
:10283000000E0201EF23ECC2F8F0EDC2F9F0EEC297
:10284000FAF00DD0062A000E072247D78BEC06F0CF
:10285000F28EF28C0001F869F969FA6900D046E954
:10286000E7CFD9FF12009CEC1AF084E947E800504A
:10287000030A1AE0010A0CE0030A22E1046A040ECA
:10288000056E066A076A00018A51086E8B5117D0DF
:10289000046A040E056E030E066E0C0E076E000130
:1028A0008C51086E8D510BD0046A040E056E060E15
:1028B000066E180E076E00018E51086E8F51096E5C
:1028C0000450085C0550095835E244EC1BF0030E37
:1028D0000A6E0A500BE00A280124E96E000E02205D
:1028E000EA6EEFCFE6FF77EC1AF0F3D7082A000E76
:1028F0000922030E0A6E0A5004E0E66877EC1AF02B
:10290000FAD748EC1BF00050030A0EE0010A07E07A
:10291000030A0EE108EB8AF009EB8BF009D008EB13
:102920008CF009EB8DF004D008EB8EF009EB8FF002
:10293000010E01D0FF0E4DEF1BF09CEC1AF085E963
:1029400045E80050030A15E0010A0AE0030A1AE10B
:1029500000018A51066E8B51076E086A096A12D00F
:1029600000018C51066E8D51076E030E086E0C0E21
:1029700008D000018E51066E8F51076E060E086E4C
:10298000180E096E44EC1BF0030EE66EE66A0201B7
:102990000604EF6F000E0758F06FEFC2E6FFE66E19
:1029A00089EC1DF00201FE0EE3500824EC6F41E9B2
:1029B000E5500920ED6FEE6B0150EC1905E1025076
:1029C000ED1902E10350EE1939E0030E056E0550D2
:1029D00035E0030EE66EE66A06EBE6FF07EBE6FF80
:1029E000EAEC1AF0040EEE5F000EEF5BFCEC1AF05E
:1029F00003EC07F043E9E66E05EBF3F20201F46B3A
:102A0000F56BD950010FE96EDACFEAFFEE50F325EE
:102A1000F06FEE50F421F16FEE50F521F26FF007F8
:102A2000000EF15BF25BF0C2E6FFF1C2E6FFF2C21C
:102A3000E6FFAFEC06F044E90506C9D7056A030EC8
:102A4000055C16E2E668030EE66EE66A020106041D
:102A5000F06F000E0758F16FF0C2E6FFE66EEAEC89
:102A60001AF0FCEC1AF0AFEC06F044E9052AE7D7BF
:102A700048EC1BF00606000E075A0050030A0EE051
:102A8000010A07E0030A0EE106EB8AF007EB8BF080
:102A900009D006EB8CF007EB8DF004D006EB8EF03E
:102AA00007EB8FF046E9E7CFD9FF1200D9CFE6FF59
:102AB000E1CFD9FF81E945E8F29EF29C6AEC06F08D
:102AC000046A056A04EBECF205EBEDF20201EE6B31
:102AD000EF6B800E0201EC5D3E0EED59000EEE59DB
:102AE000000EEF5968E2040004EBECF205EBEDF2A6
:102AF0000201070EED03F3CFEDF2070EEC03F3CF67
:102B0000ECF2F450ED270201EE6BEF6B090E0201BF
:102B1000EC27240E0201ED23000E0201EE23000E2D
:102B20000201EF230201EC51016EED51026EEE51F4
:102B3000036E01EBE6FF02EBE6FF03EBE6FF03ECBF
:102B400007F043E9FF0833E1D950010FE96EDACF0E
:102B5000EAFFEE2A000EEE22000EEE2201EBE6FF67
:102B600002EBE6FF03EBE6FF03EC07F043E9FF08A7
:102B70001EE1D950010FE96EDACFEAFFEE2A000E0E
:102B8000EE22000EEE2201EBE6FF02EBE6FF03EB86
:102B9000E6FF03EC07F043E9FF0809E18BEC06F0E0
:102BA000F28EF28C04EBF3FF05EBF4FF0DD0042A58
:102BB000000E052287D78BEC06F0F28EF28C800E89
:102BC000F36E3E0EF46E00D046E9E7CFD9FF120057
:102BD0009CEC1AF083E947E8F29EF29C90C0ECF27C
:102BE00091C0EDF20201EE6BEF6B800EEC5D3E0EDC
:102BF000F6EC1AF001E39ED0AEEC1AF0000163513E
:102C000003E0635107080BE2AEEC1AF000016351D8
:102C100003E06351070803E2070E636F90D064512D
:102C200003E064511F080BE2AEEC1AF0000164519E
:102C300003E064511F0803E2070E646F80D0655102
:102C400003E065510C080BE2AEEC1AF0000165518F
:102C500003E065510C0803E2070E656F70D0605108
:102C6000066E040E0602F350066E61390F0B061253
:102C70006151076E0738F00B076E62417F0B071238
:102C80006251086E0832086A08326451040DF3502C
:102C900008126551E840E8403F0B08126551096E83
:102CA0000940E842C00B096E6651091290C0ECF26F
:102CB00091C0EDF20201070EED03F3CFEDF2EC034C
:102CC000F3CFECF2F450ED27EE6BEF6B090EEC272F
:102CD000240EED23000EEE23EF23EC51036EED5195
:102CE000046EEE51056E6AEC06F0020E5AEC1BF013
:102CF000030E5AEC1BF0040E5AEC1BF006EBE6FF39
:102D0000EBDB07EBE6FFE8DB08EBE6FFE5DB09EBD7
:102D1000E6FFE2DBE668E0DBE668DEDBE6685FEC68
:102D20001BF08BEC06F00001902B000E9123F28E2D
:102D3000F28C05D0030EE66E09EC0AF041E94DEF86
:102D40001BF09CEC1AF083E941E80001DE6BDF6BBD
:102D50000001F651F71102E1000E08D0F6C0E9FFBC
:102D6000F7C0EAFFEF50800B01E0010E000958E1C7
:102D700002010F0EA06F01EBA1F2DEC0E6FFDFC083
:102D8000E6FFA1C2E6FFD2EC1AF000EBA2F2F3CF0D
:102D9000E6FFF4CFE6FFA2C2E6FFD2EC1AF0036A28
:102DA0000050035C18E20350EA6A9C0FE96E000EC3
:102DB000EA22EF50E66E030E0324D8DBDEC0E6FF06
:102DC000DFC0E6FF030E032469EC1BF0EFCFE6FF44
:102DD000E9DB032AE5D70201DFC0ECF2ED6BEC5131
:102DE000E66E030E0024C2DB0001DE51E66E040E27
:102DF0000024BCDB050E002469EC1BF0040EEF6E12
:102E0000400EE66EA00EE66E020EE66E010EE66E57
:102E1000E66E24EC01F045E9F3CFF6F0F4CFF7F0DD
:102E200015EF1BF089DB82E942E844EC1BF000045B
:102E300003E0040E005C12E1026A036A010E026EF6
:102E4000036A026A036AB6DB030EEC5D000ECEDB9A
:102E500002E277DBF8D700018A6B8B6B020E005C15
:102E600003E0040E005C0FE1030E026E0C0E036E15
:102E7000A1DB060EEC5D0C0EB9DB02E262DBF8D7DB
:102E800000018C6B8D6B030E005C03E0040E005C94
:102E90000FE1060E026E180E036E8CDB090EEC5D60
:102EA000180EA4DB02E24DDBF8D700018E6B8F6BAE
:102EB000EFDB43E9E7CFD9FF120000017E917E836B
:102EC000896B1200D9CFE6FFE1CFD9FF81E944E851
:102ED000600EE66E000EE66E7DEC1CF042E92D0EF3
:102EE000E66E010EE66EE66AE66A00016305E66ECE
:102EF000E66AE66AE66ABDEC1DF0E552E5CFEFF260
:102F0000E5CFEEF2E5CFEDF2E7CFECF21D0E0201D8
:102F1000EC27ED0E0201ED23010E0201EE23000E5F
:102F20000201EF230201EC51016EED51026EEE51F0
:102F3000036E6AEC06F001EBE6FF02EBE6FF03EB43
:102F4000E6FF03EC07F043E90001976FFF0E000175
:102F5000975D6FE0046A00019751045C6AE2040027
:102F600001EBECF202EBEDF203EBEEF20201EC2BE3
:102F7000000E0201ED23000E0201EE23030E0402F7
:102F8000F3CFEFF20201F06BF16B0201EC510201A1
:102F9000EF250001E26F0201ED510201F021000175
:102FA000E36F0201EE510201F1210001E46FE2C082
:102FB000E6FFE3C0E6FFE4C0E6FF03EC07F043E909
:102FC0000001625D34E10001E22B000EE323000EFC
:102FD000E423E2C0E6FFE3C0E6FFE4C0E6FF03EC63
:102FE00007F043E90001615D20E100019851000113
:102FF000615D1AE00001E22B000EE323000EE423E2
:1030000061C098F0E2C0E6FFE3C0E6FFE4C0E6FF7F
:1030100003EC07F043E90001966F0001F26B000139
:103020007E8B8BEC06F005D002D000019869042A53
:1030300092D78BEC06F045E9E7CFD9FF12009482D6
:103040009498949A8B8AF09CF18AF096F0901200F2
:103050008B888B8AE00EBB6E0F0EBC6ECA6A9D9287
:1030600025DB06E10C0EBD6E030EBE6E050E07D00D
:103070000C0EE85D05E10C0EBD6EBE6E170ECB6E3C
:10308000CA84030EE85D02E10A0E04D00C0EE85D6E
:1030900005E1280EE66E9CEC1FF041E9F18AF09004
:1030A000F08612008B988BB8FDD7BD6ACA6A8B8AEE
:1030B0008BAAFDD7BB6ABC6AF096F0901200D9CFFC
:1030C000E6FFE1CFD9FF83E941E8C2DFA00EE66E5B
:1030D00043D841E9E7DF00017EB705D0010EE66E77
:1030E000BDEC1EF041E9036A020E035C2BE2040012
:1030F0000001EF510201EC6FED6B0201140EEC19AF
:1031000001E1ED5118E009D9000914E000EBE6FFF8
:1031100001EBE6FF15D942E900090CE000EBE6FF00
:1031200001EBE6FF80D942E9AA0EE66E47D841E9F5
:10313000010E0ED0DDD765D80001F06B0001EF6BFA
:10314000032AD2D7AA0EE66E39D841E9000E00D084
:1031500042E9E7CFD9FF1200EFD982E941E8A6DAC8
:1031600008E1020E026EC10ED56ED76AD66A010E54
:103170000AD00C0EE85D0BE1060E026EC30ED56E92
:10318000D76AD66A210EB16EA292A192A0826783FD
:1031900067910001EF6BF06BEB6BEC6BED6BEE6B23
:1031A0000050EB5D03E20250EC5DFAE3EF6BF06B75
:1031B000D56AB16AF096F090EB5137D2BDD982E969
:1031C00043E8690E036E000E046E140E026E0234A4
:1031D00014E20250000811E202040201EC6FED6BF0
:1031E000800B01E0ED69EC510324E96EED51042000
:1031F000EA6E00EBEFFF0206EAD744E9E7CFD9FF1A
:1032000012009AD981E941E8140E016E015009E0DB
:103210000104AFD9EF1CE66E0104ABD960DA0106F8
:10322000F5D703D2CFD901E1ED5114E05CDAEF50CC
:10323000F0C0E7FFE75204E0E8427F0BE706FCE15D
:10324000010B0001686F0001F02B080EF05D02E138
:10325000EF2BF06B0001685112006ED984E901EB8D
:10326000E9FF02EBEAFFEF90EF42005005E001EBCF
:10327000E9FF02EBEAFFEF8E03D25ED985E942E86F
:1032800081EB06F0063433E20650010830E2020E0C
:10329000065C0201EC6FED6B800B01E0ED69B7D9C4
:1032A000EF50010B056EFDD901E0EF69B7D9EF4092
:1032B0007F0BCDD901E0ED69AAD911DA05500AE0FA
:1032C000F0D901E0EF69AAD9EF508009C0D90BE02D
:1032D000ED6909D0E6D901E0EF69A0D9EF507F0B85
:1032E000B6D901E0ED6993D9FAD90606CBD7A1D9B1
:1032F000EF407F0BE66E9DD9F2D9005004E099D9DA
:10330000EF50800903D095D9EF507F0BE66E91D92D
:10331000E6D943E9E7CFD9FF12000ED981E941E8A8
:10332000016A50D901E1ED5109E07CDF0108F8E1C3
:10333000012A090E015CF5E1010E01D0000E75D1E4
:10334000FBD883E947E8036A010E046E056A066A42
:10335000076A086A096A046E043402E204503208FB
:1033600035E360DF036E2ED902E1ED5158E066D9F6
:10337000000905E10350055C52E1056A25D003EB25
:10338000E6FF050EE66E00EBE6FF01EBE6FF75DFFC
:1033900044E905500318056E51D9040A12E0070AE2
:1033A0000CE0010A06E0030A0FE106500318066E5E
:1033B0000BD007500318076E07D008500318086E8B
:1033C00003D009500318096E042AC6D72BDF065C08
:1033D00026E128DF075C23E125DF085C20E122DF0E
:1033E000095C1DE11FDF00091AE1046AD89004504E
:1033F00002E6050E045C10E204EBECF20201ED6B58
:10340000ECBFED69EC510024E96EED510120EA6E4C
:10341000EF5002E1042AEAD7050E045C02E1000E37
:1034200001D0010E3AD188D883E948E8066A076AD4
:10343000086A096A0A6A056A050E055C32E2070E27
:10344000046E036A080E035C2AE203EBECF20550FB
:1034500096D8EF50ECC2E7FFE75204E0E8427F0B5A
:10346000E706FCE1010B0CE0010E04EBF3FF045254
:1034700004E0D890E836F306FCE187D8EF120CD0D0
:10348000010E04EBF3FF045204E0D890E836F30693
:10349000FCE1E81C7AD8EF160406032AD3D7052AE4
:1034A000CBD7036A050E035C13E20201D950060F65
:1034B000EC6F0350EA6AEC25E96EDA50EA22EF502D
:1034C000E66E040ED88003545AD809D9032AEAD7E5
:1034D00049E9E7CFD9FF1200F2D8D950030FE96EBE
:1034E000DACFEAFFEE2A000EEE22EE221200030EE1
:1034F000E66EE66A08EBE6FF09EBE6FF89EC1DF0F5
:103500000201FE0EE3500624EE6F41E9E55007206C
:10351000EF6F0A50EE25EC6F000EEF21ED6FEC0718
:10352000000EED5BECC2E6FFEDC2E6FFE66AAFEC33
:1035300006F044E90A061200D9CFE6FFE1CFD9FF31
:103540001200E66802EBE6FF03EBE6FFE66AAFEC8B
:1035500006F044E9022A000E03221200600EE66E15
:10356000000EE66E7DEC1CF042E91200B2D86FEF5F
:103570001BF0EA6A690FE96E000EEA2212000024CD
:10358000E96E000E0120EA6E12000201EE6FD950C2
:10359000060FEC6F0550EA6AEC25E96EDA50EA2274
:1035A000EE51120022EC11F043E9F3CFDEF0F4CF3C
:1035B000DFF0120002EBECF203EBEDF20201EE6B36
:1035C000EF6B12000001EF510201EC6FED6B140E76
:1035D000EC19120089EC1DF00201FE0EE3500824E4
:1035E000EE6F41E9E5500920EF6F1200ED59000E32
:1035F000EE59000EEF5912000550EE25EC6F000E4B
:10360000EF21ED6FECC2E6FFE66EE66A1200EC51C8
:103610000224E96EED510320EA6E1200EE510224FD
:10362000E96EEF510320EA6E120042E9E7CFD9FFBD
:10363000120002EBE9FF03EBEAFF1200050EE66E53
:1036400004EBE6FF65EC1DF041E9E7501200E66E81
:103650000604EC6FED6B800B1200E5CFEAFFE5CFBF
:10366000E9FFE5CFDAFF1200040EEEC2ECF2EFC282
:10367000EDF2000A1200E66E2DEC1FF041E9120097
:1036800041E9E7CFD9FF1200F29EF29C6AEF06F003
:103690008BEC06F0F28EF28C120048E9E7CFD9FFEE
:1036A00012000604EE6FEF6B800B1200030E000198
:1036B000E85D120064DFEFCFE6FF6CEF1AF003EB7A
:1036C000E6FF04EBE6FF05EBE6FFAFEC06F044E9AE
:1036D0001200EA6AA00FE96E020EEA221200E55219
:0E36E000E750EF6E12000001EF51B9EF1AF043
:0236EE0080D981
:1036F00081E941E8016A8AD9020E76D9016EBF0ECE
:103700000114E66E020E5BD98ED9600EE66E000ED5
:10371000E66EF3D842E9000163510DE063510708FA
:103720000AE3645108E064511F0805E3655103E0B2
:1037300065510C0818E277D9150EE66E060E3FD9D2
:10374000010EE66E050E3BD9010EE66E040E37D96A
:10375000E66A020E34D9E66A010E31D9800EE66EB1
:10376000E66A06D842E98BEC06F0F28EF28C4AD17A
:103770003FD983E9F29EF29CA7EC1FF0C580C5A05B
:1037800003D0FDD7C5B0FED75CD9C5BCFED701EBD1
:10379000E6FF1ED9C5BCFED700EBE6FF19D9C5BCB4
:1037A000FED7C584C5A403D0FDD7C5B4FED7A7EC0A
:1037B0001FF0C580C5B0FED7A7EC1FF042D9C5AC3D
:1037C00004D0C584C5B4FED7F2D7C584C5A403D040
:1037D000FDD7C5B4FED7A7EC1FF0F28EF28C1AD13C
:1037E00007D982E941E8F29EF29CA7EC1FF0C58060
:1037F000C5A003D0FDD7C5B0FED723D9C5BCFED721
:1038000000EBE6FFE5D8C5BCFED7C582C5B2FED742
:10381000A7EC1FF0DF0EE66EDBD8C5BCFED78FEC41
:103820001FF0026EA7EC1FF0C584C5A403D0FDD71E
:10383000C5B4FED7A7EC1FF0F28EF28C0250E2D096
:10384000D7D883E941E8E2D8E9D8040ED6D850E0C9
:10385000E5D8040ED2D81F084BE3E0D8030ECDD82C
:1038600047E0DCD8030EC9D8070842E3D7D8050ED5
:10387000C4D83EE0D3D8050EC0D80C0839E3CED862
:10388000030EA1D8036E070E0316038603EBE6FFB3
:10389000030E95D8C3D8D0D8036E800E0310036EE4
:1038A00003EBE6FFE66A64DF42E9B8D8EE52C4D81B
:1038B000E66E010E84D8B2D8020E85D8036E3F0E94
:1038C0000314036E03EBE6FF020E79D8A7D8040EAB
:1038D0007AD8E66E040E73D8A1D8050E74D8E66EB9
:1038E000050E6DD89BD8060E6ED8E66E060E67D80C
:1038F000F28EF28C8BEC06F085D07AD883E986D8EC
:10390000E66A6EDF41E97F0B54D8E552E750EF6E6F
:10391000010E9BD8EE52E552E750EF6E020E64D8CE
:103920003F0B47D8020E59D8030E5ED8070B41D87B
:10393000030E53D8040E89D8040E4FD8050E54D860
:103940001F0B37D8050E49D8060E7FD8060E45D86E
:10395000F28EF28C8BEC06F05DD04AD882E900380A
:103960000F0B0A0D0F0E0014F324006E005052D0FE
:103970003FD882E941E8026A0050090816E20A0EBF
:10398000E66E00EBE6FF34EC1DF041E9E750100D68
:10399000F350026E0A0EE66E00EBE6FF37EC1DF008
:1039A00041E9E7500210026E02D080EB02F00250B3
:1039B00029D0E66ED2DF41E9E66E0EEF1DF0E66E2D
:1039C000D7DE42E91200E926000EEA221CEF1DF0C4
:1039D000F4EC1EF041E9A7EF1FF0E926000EEA2201
:1039E000E552E750EF6E1200E66EFADE41E9120092
:1039F000D9CFE6FFE1CFD9FF1200E926000EEA2277
:103A0000EF50120042E9E7CFD9FF1200F29EF29C7C
:103A10006AEF06F041E9E7CFD9FF120000EBE9FFBA
:103A200001EBEAFF1200030EDFDF016E080E01104A
:103A3000E66E030EDFEF1CF0EFCFE6FF99DF41E902
:103A40001200DE0EE66EE8EF1CF0CEDFD9EF1CF0C0
:103A500042E8D9CFE6FFDACFE6FFE1CFD9FFE2CFE8
:103A6000DAFF86E9036A1200F3DF038003D0F0DF98
:103A700001D00382026A080EE76ED8900136023642
:103A80000050025C02E3026E012AE72EF7D703B270
:103A9000120003B081EB00F003A082EB00F0E552CE
:103AA000E5CFDAFFE7CFD9FF43E9120042E8D9CFEB
:103AB000E6FFDACFE6FFE1CFD9FFE2CFDAFF86E912
:103AC000036A1200F3DF038001D0F0DF00AE03D001
:103AD000006C03B0037E01AE02D0016C037E39ECB2
:103AE0001DF001BE85EF1DF003AE02D0016C026C2B
:103AF00003B081EB00F003A082EB00F0E552E5CFCC
:103B0000DAFFE7CFD9FF43E9000C03BEEFD7F0DFC0
:103B1000FF0C44E8D9CFE6FFDACFE6FFE1CFD9FFCB
:103B2000E2CFDAFF8AE980EB04F081EB05F082EB6B
:103B300006F002500402F450016EF350006E035080
:103B4000076E0502F450036EF350026E0750040234
:103B5000F3500126F4500222E86A032206500502BF
:103B6000F3500126F4500222E86A0322E552E5CF21
:103B7000DAFFE7CFD9FF46E9000C44E8D9CFE6FFEA
:103B8000DACFE6FFE1CFD9FFE2CFDAFF8EE980EBB3
:103B900008F081EB09F082EB0AF083EB0BF00450A4
:103BA0000802F350006EF450016E04500902F35005
:103BB0000126000EF420026E04500A02F350022681
:103BC000000EF420036E04500B02F3500326055040
:103BD0000802F3500126F4500222000E0322055081
:103BE0000902F3500226F450032205500A02F35052
:103BF000032606500802F3500226F4500322065012
:103C00000902F350032607500802F3500326E55239
:0C3C1000E5CFDAFFE7CFD9FF48E9000C50
:043C1C00120100028F
:103C200000000008D8043F0002000102030109025D
:103C30002900010100C03209040000020300000055
:103C4000092111010001221C000705810340000128
:103C500007050103400001040309042A0349006E1B
:103C6000006E006F00200054006500630068006E65
:103C7000006F006C006F0067007900200049006E43
:103C80000063002E0012034100540020004700553D
:103C9000004100520044001203300036003800306A
:103CA0000032003100320035000600FF0901A10199
:103CB0001901294015012540750895408100190119
:0F3CC00029409100C02E3C573C5B3C853C973C13
:103CD0001E0EF66E000EF76E000EF86E0201090061
:103CE000F550E76F0900F550E86F03E1E76701D091
:103CF0003DD00900F550E26F0900F550E36F09006F
:103D0000F550E46F09000900F550E96E0900F5501F
:103D1000EA6E090009000900F550E56F0900F55049
:103D2000E66F09000900F6CFE9F2F7CFEAF2F8CF23
:103D3000EBF2E2C2F6FFE3C2F7FFE4C2F8FF0201D2
:103D4000E55302E1E65307E00900F550EE6EE507A2
:103D5000F8E2E607F9D7E9C2F6FFEAC2F7FFEBC2DD
:0E3D6000F8FF0201E707000EE85BBFD7120074
:023D6E00D39EE2
:103D7000030EE66E02D841E91200D9CFE6FFE1CF8B
:103D8000D9FF82E9000408E1D39ED390D382D29474
:103D90009B9C0001010E23D0020E005C0BE1D39E20
:103DA000D38CD39AD398D390D382D2949B9C000186
:103DB000020E15D0030E005C08E1D39ED390D3927F
:103DC000D2849B9C0001030E0AD00C0E005C08E11B
:103DD000D39ED390D392D2849B8C00010C0EE86FBB
:083DE00041E9E7CFD9FF120011
:083DE800D9CFE6FFDACFE6FFB8
:103DF000E1CFD9FFE2CFDAFF83E900EBC9FFC6AE1E
:103E000002D0FF0E24D00F0EC61408080FE00F0ECC
:103E1000C6140B080BE0C6889EA6FED7C750040B3D
:103E200003E1C750010B10E0000E11D00F0EC614B5
:103E3000080804E00F0EC6140B0809E1C7B0FED74E
:103E4000A7EC1FF0C5AC02D0FE0E01D0000E41E978
:0A3E5000E5CFDAFFE7CFD9FF12003B
:063E5A00FF0EE350000121
:103E6000FF6FEE0E02D0F20E0000E76EE72E36EF87
:103E70001FF00C0E0001FE6FE76AE72E3DEF1FF00A
:103E8000FE2F3CEF1FF00001FF2F33EF1FF0120059
:103E9000FE0EE3CFE9FFFF0EE3CFEAFFE9CFF3FF2A
:103EA000EACFF4FFFB0EE35003E1FC0EE35009E020
:103EB000FB0EE30602E2FC0EE306FD0EE350EE6E9F
:043EC000F1D7120024
:0C3EC400FF0EE3500001FF6F1A0E00D04B
:103ED00000D001D0200EE76EE72EFED7FF2FFAD7D5
:043EE00000D01200FC
:0C3EE400000EF36E00EE00F0030E01D89B
:103EF0001200EA6002D0EE6AFCD7F350E9601200CB
:043F0000EE6AFCD792
:0C3F040011EE00F021EE00F0F86A68EC0D
:0E3F10001EF003EC00F0BAEC08F0FBD7120034
:023F1E000F0E84
:103F2000C614080804E00F0EC6140B0801E1C5868C
:083F3000C7A0FED7C950120022
:083F3800FF0EE350E84E1200F9
:0E3F4000000000D000D000D0E82EFAD712000A
:023F4E001F0E44
:0C3F5000C514FDE1C750040BFAE112009B
:043F5C000000000061
:093F600000000000000000000058
:020000040030CA
:0100000018E7
:01000100827C
:0100020019E4
:0100030011EB
:010005008872
:01000600C138
:0100080000F7
:010009008076
:01000A0003F2
:01000B00C034
:01000C0003F0
:01000D0040B2
:00000001FF
