:020000040000FA
:0600000086EF04F012007F
:020006001200E6
:0600080051EF08F01200A8
:02000E00BD6AC9
:020010001200DC
:0600180001EF08F01200E8
:02001E000100DF
:0C00200064090000E20200000D00000076
:04002C007CD981E911
:1000300041E8016A86D9020E72D9016EBF0E011421
:10004000E66E020E57D98AD9600EE66E000EE66E95
:10005000EED842E9000163510DE0635107080AE35D
:10006000645108E064511F0805E3655103E06551E0
:100070000C0818E273D9150EE66E060E3BD9010E78
:10008000E66E050E37D9010EE66E040E33D9E66A28
:10009000020E30D9E66A010E2DD9800EE66EE66AB0
:1000A00006D842E90BEC1FF0F28EF28C46D13BD918
:1000B00083E9F29EF29CABEC04F0C580C5A003D0AE
:1000C000FDD7C5B0FED758D9C5BCFED701EBE6FFBA
:1000D0001AD9C5BCFED700EBE6FF15D9C5BCFED7C3
:1000E000C584C5A403D0FDD7C5B4FED7ABEC04F0DE
:1000F000C580C5B0FED7ABEC04F03ED9C5AC04D08A
:10010000C584C5B4FED7F2D7C584C5A403D0FDD736
:10011000C5B4FED7ABEC04F0F28EF28C16D103D945
:1001200082E941E8F29EF29CABEC04F0C580C5A0E8
:1001300003D0FDD7C5B0FED71FD9C5BCFED700EB95
:10014000E6FFE1D8C5BCFED7C582C5B2FED7ABEC91
:1001500004F0DF0EE66ED7D8C5BCFED793EC04F0F2
:10016000026EABEC04F0C584C5A403D0FDD7C5B4C2
:10017000FED7ABEC04F0F28EF28C0250DED0D3D876
:1001800083E941E8DED8E5D8040ED2D84FE0E1D8C3
:10019000040ECED81F084AE3DCD8030EC9D846E0C7
:1001A000D8D8030EC5D8070841E3D3D8050EC0D868
:1001B0003DE0CFD8050EBCD80C0838E3CAD8030EF2
:1001C0009DD8036E070E0316038603EBE6FF030EAE
:1001D000DAD8CDD8036E800E0310036E03EBE6FF72
:1001E000E66A65DF42E9B5D8EE52C1D8E66E010E87
:1001F000CAD8020E83D8036E3F0E0314036E03EBBE
:10020000E6FF020EC0D8040E79D8E66E040EBBD805
:10021000050E74D8E66E050EB6D8060E6FD8E66EDB
:10022000060E68D8F28EF28C0BEC1FF086D07BD8CD
:1002300083E987D8E66A73DF41E97F0B55D8E55239
:10024000E750EF6E010E9CD8EE52E552E750EF6E8C
:10025000020E65D83F0B48D8020E5AD8030E5FD85D
:10026000070B42D8030E54D8040E8AD8040E50D877
:10027000050E55D81F0B38D8050E4AD8060E80D863
:10028000060E46D8F28EF28C0BEC1FF05ED01200F8
:100290004AD882E900380F0B0A0D0F0E0014F32420
:1002A000006E005052D03FD882E941E8026A005007
:1002B000090816E20A0EE66E00EBE6FFD2EC01F04A
:1002C00041E9E750100DF350026E0A0EE66E00EBA6
:1002D000E6FFD5EC01F041E9E7500210026E02D0D2
:1002E00080EB02F0025029D0E66ED2DF41E9E66EE3
:1002F000A9EF01F0E66EDBDE42E91200E926000E0E
:10030000EA22B7EF01F0B6EC03F041E9ABEF04F0FD
:10031000E926000EEA22E552E750EF6E1200E66E83
:10032000FEDE41E91200D9CFE6FFE1CFD9FF12008E
:10033000E926000EEA22EF50120042E9E7CFD9FF8A
:100340001200F29EF29CE8EF1EF041E9E7CFD9FFE0
:10035000120000EBE9FF01EBEAFF1200030EDFDF02
:10036000016E080E0110E66E030E7AEF01F0EFCF7A
:10037000E6FF99DF41E91200DE0EE66E83EF01F041
:0C038000CEDF74EF01F0B6DFA9EF01F052
:04038C0042E8D9CF9B
:10039000E6FFDACFE6FFE1CFD9FFE2CFDAFF86E969
:1003A000036A1200F3DF038003D0F0DF01D0038281
:1003B000026A080EE76ED890013602360050025CE1
:1003C00002E3026E012AE72EF7D703B2120003B050
:1003D00081EB00F003A082EB00F0E552E5CFDAFFFD
:1003E000E7CFD9FF43E9120042E8D9CFE6FFDACFE1
:1003F000E6FFE1CFD9FFE2CFDAFF86E9036A120018
:10040000F3DF038001D0F0DF00AE03D0006C03B057
:10041000037E01AE02D0016C037ED7EC01F001BE79
:1004200023EF02F003AE02D0016C026C03B081EB4B
:1004300000F003A082EB00F0E552E5CFDAFFE7CF52
:10044000D9FF43E9000C03BEEFD7F0DFFF0C44E80F
:10045000D9CFE6FFDACFE6FFE1CFD9FFE2CFDAFF6F
:100460008AE980EB04F081EB05F082EB06F00250A4
:100470000402F450016EF350006E0350076E050243
:10048000F450036EF350026E07500402F35001263D
:10049000F4500222E86A032206500502F3500126B6
:1004A000F4500222E86A0322E552E5CFDAFFE7CFF3
:1004B000D9FF46E9000C44E8D9CFE6FFDACFE6FFE2
:1004C000E1CFD9FFE2CFDAFF8EE980EB08F081EBD4
:1004D00009F082EB0AF083EB0BF004500802F350B2
:1004E000006EF450016E04500902F3500126000E14
:1004F000F420026E04500A02F3500226000EF4208B
:10050000036E04500B02F350032605500802F3500B
:100510000126F4500222000E032205500902F35076
:100520000226F450032205500A02F3500326065017
:100530000802F3500226F450032206500902F35039
:10054000032607500802F3500326E552E5CFDAFFF1
:08055000E7CFD9FF48E9000CD8
:08055800020120511F0B0108F4
:1005600001E01200245101E01200060E215D1BE1A2
:100570002351230A18E0010A0CE0030A14E10201E6
:10058000310511E102013E0E416F060E426F090E68
:1005900006D00201A70E416F060E426F1C0E446F7B
:1005A000456BC00E436F02012051600BE842E842E8
:1005B000E842E842E842010801E0120021510B0A3A
:1005C00026E0080A19E0090A11E0080A05E00B0A0A
:1005D00023E0080A21E0120002015E0E416F020EC4
:1005E000426F010E446F456BC10E0FD00201800EA9
:1005F000436F23C25EF2120002015F0E416F020ED2
:10060000426F010E446F456B810E436F1200020171
:0A061000800E436F22C25FF2120059
:06061A00120100020000C5
:100620000008D8043F00020001020301090229006A
:10063000010100C03209040000020300000009218A
:1006400011010001221C000705810340000107057C
:100650000103400001040309042A0349006E006EEF
:10066000006F00200054006500630068006E006F9A
:10067000006C006F0067007900200049006E006385
:10068000002E001203410054002000470055004195
:1006900000520044001203300036003800300039A8
:1006A000003300320032000600FF0901A1011901E8
:1006B0002940150125407508954081001901294000
:0D06C0009100C02C065506590683069506CC
:0206CE001E0EFE
:1006D000F66E000EF76E000EF86E00010900F55080
:1006E000FA6F0900F550FB6F03E1FA6701D03DD0C6
:1006F0000900F550F56F0900F550F66F0900F55047
:10070000F76F09000900F550E96E0900F550EA6E2F
:10071000090009000900F550F86F0900F550F96F5C
:1007200009000900F6CFFCF0F7CFFDF0F8CFFEF09E
:10073000F5C0F6FFF6C0F7FFF7C0F8FF0001F85369
:1007400002E1F95307E00900F550EE6EF807F8E210
:10075000F907F9D7FCC0F6FFFDC0F7FFFEC0F8FFB0
:0C0760000001FA07000EFB5BBFD712007F
:04076C00D9CFE6FFFC
:10077000DACFE6FFE1CFD9FFE2CFDAFF83E900EB82
:10078000C9FFC6AE02D0FF0E24D00F0EC614080853
:100790000FE00F0EC6140B080BE0C6889EA6FED70E
:1007A000C750040B03E1C750010B10E0000E11D03D
:1007B0000F0EC614080804E00F0EC6140B0809E15A
:1007C000C7B0FED7ABEC04F0C5AC02D0FE0E01D032
:0E07D000000E41E9E5CFDAFFE7CFD9FF1200B6
:0207DE00D39EA8
:1007E000D39CD38AD388020EE66E02D841E9120068
:1007F000D9CFE6FFE1CFD9FF82E9000408E1D39E1B
:10080000D390D382D2949B9C0001010E15D0020E8E
:10081000005C08E1D39ED390D392D2849B9C0001CC
:10082000020E0AD0030E005C08E1D39ED390D3924F
:10083000D2849B8C0001030EF26F41E9E7CFD9FF10
:020840001200A4
:0E084200FF0EE3500201FD6FEE0E02D0F20E2B
:100850000000E76EE72E2AEF04F00C0E0001FF6F98
:10086000E76AE72E31EF04F0FF2F30EF04F00201CA
:08087000FD2F27EF04F0120038
:08087800FE0EE3CFE9FFFF0EC5
:10088000E3CFEAFFE9CFF3FFEACFF4FFFB0EE3503B
:1008900003E1FC0EE35009E0FB0EE30602E2FC0E6E
:0C08A000E306FD0EE350EE6EF1D71200EF
:0408AC00FF0EE35008
:1008B0000201FD6F480E01D04C0EE76EE72EFED709
:0C08C000E76AE72EFED7FD2FF7D71200E5
:0408CC00FF0EE350E8
:1008D0000201FD6F1A0E00D000D001D0200EE76E8D
:0C08E000E72EFED7FD2FFAD700D0120043
:0408EC00000EF36E99
:1008F00000EE00F0030E01D81200EA6002D0EE6AAA
:0C090000FCD7F350E9601200EE6AFCD74F
:04090C0011EE00F0F8
:1009100021EE00F0F86A67EC03F003EC00F0AFECB6
:0609200008F0FBD71200F5
:0A0926000F0EC614080804E00F0EBF
:10093000C6140B0801E1C586C7A0FED7C950120036
:10094000FF0EE350E84E1200000000D000D000D0AF
:06095000E82EFAD71200A8
:0A0956001F0EC514FDE1C750040B8D
:04096000FAE11200A6
:0C09640000000000000000000000000087
:010970000086
:02100000393085
:0E100200D8CFE4FFE0CFE4FFE46EDACFE4FFE6
:10101000E9CFE4FFEACFE4FFE652A050020B06E07E
:10102000A150020B03E00201E32BA192F050080B48
:101030002FE0F050010B2CE0020E0001F15D1FE1EA
:10104000D6CFF4F0D66AF17AF451410802E2677122
:10105000678367A312D06FEC18F0EF90EF420001A6
:1010600067A103D06FEC18F0EF8E0201E22BE72BA3
:10107000080EE75D02E1E76BE62B00016773F105FF
:1010800004E182A202D0020EF16F82CFF3F0F09061
:10109000E552FBEC17F0E550E5CFE0FFE5CFD8FFD8
:1010A0001000DACFE4FFE2CFDAFFE9CFE4FFEACFC6
:1010B000E4FFD9CFE4FFDACFE4FFF9C2E4FFFAC2DC
:1010C000E4FFFBC2E4FFFCC2E4FFF6CFE4FFF7CF8E
:1010D000E4FFF5CFE4FFF3CFE4FFF4CFE4FFFACF72
:1010E000E4FF02EEEFF00A0EE80403E3EECFE4FFC4
:1010F000FBD7E65206EC19F0F250100B07E0F25065
:10110000020B04E000018885F298F2929EA603D0BB
:1011100082CFF3F09E96E55202EEF8F00A0EE80454
:1011200003E3E5CFEDFFFBD7E5CFFAFFE5CFF4FF13
:10113000E5CFF3FFE5CFF5FFE5CFF7FFE5CFF6FF0E
:10114000E5CFFCF2E5CFFBF2E5CFFAF2E5CFF9F21D
:10115000E5CFDAFFE5CFD9FFFBEC17F01100D9CFCF
:10116000E6FFE1CFD9FF81E941E89FD8EFEC03F03A
:10117000020EE66ED2EC10F041E9F3CF96F0F4CF18
:1011800097F0010EE66ED2EC10F041E9F3CF94F047
:10119000F4CF95F0030EE66ED2EC10F041E9F3CFF8
:1011A00098F0F4CF99F0C2EC12F0F3CF9AF0F4CFAC
:1011B0009BF0010EE66EC7D841E90001010EF16F08
:1011C0009DD8000188B750D00001F10516E1E8EC88
:1011D00014F0050EE66EA0EC04F041E9F18AF090FF
:1011E000F0860C0EE66E66EC04F041E90001F105B4
:1011F00004E1F090F09618EC15F0020E0001F15D9C
:101200002EE10400016A050E015C1EE20400890E55
:10121000E66E000EE66E21EC15F042E9000912E0E0
:101220000001905100018B5D0AE100019151000124
:101230008C5D05E10001925100018D5D03E000012C
:10124000678902D0012ADFD7000167A908D0000111
:1012500067998BC090F08CC091F08DC092F0000126
:10126000010EF16F03001CD0040082B019D00A0EE9
:10127000E66EA0EC04F041E982B012D0000188973C
:101280000201305102E029EC1AF0F292F288020ECB
:10129000E66EF8EC03F041E90001010EF16F030086
:1012A0008FD742E9E7CFD9FF1200F29EF29C949CBF
:1012B000949E829C829E939A94968A988A9C9398F4
:1012C0008A98939C8A9C939E686A6D6A6B6A7E6A10
:1012D0007F6ABD6AD7EC14F0EFEC03F08A9A8B9624
:1012E0008A9E9480F292F288F18C16EC00F0000154
:1012F000886B8895D08EF28EF28C1200000188A542
:1013000018D00A0EE66EA0EC04F041E982A011D0DC
:10131000030EE66EF8EC03F041E9A4EC18F00201CC
:10132000EB6BEC6BED6BEE6B00018895888730EC16
:101330001AF0200E0201305D05E100018851080B12
:1013400001E02FD812007CEC18F041E80050030AAD
:1013500018E0010A08E0030A22E18B868A8A020E5D
:10136000C7EC17F01CD0026A060E025C18E28B86EE
:101370008A8A050EC7EC17F0050E73EC18F0022AE6
:10138000F3D7026A030E025C0AE28B868A8A640E35
:10139000C7EC17F0320E73EC18F0022AF3D7A2EF65
:1013A00017F0D9CFE6FFE1CFD9FF81E948E8200E59
:1013B0000201E76E301902E7E73402D0E750305DF2
:1013C00003E36450020B02E001EF10F00201EB5165
:1013D000EC1102E1000E08D0EBC2E9FFECC2EAFF1B
:1013E000EF50800B01E0010E000902E001EF10F068
:1013F0000001A36B0001E86BE96B0001A351EA6AED
:10140000600FE96E020EEA22EF500F0802E0F1EFE2
:101410000FF00001A32B0001A351EA6A600FE96EEF
:10142000020EEA22EFCFA4F0E8C0E6FFE9C0E6FF33
:101430000001A351EA6A600FE96E020EEA22EFCFC3
:10144000E6FF8DEC10F043E9F3CFE8F0F4CFE9F0DC
:101450000001A32B0001A351EA6A600FE96E020E9E
:10146000EA22EFCFA5F0E8C0E6FFE9C0E6FF000101
:10147000A351EA6A600FE96E020EEA22EFCFE6FF9F
:101480008DEC10F043E9F3CFE8F0F4CFE9F0000180
:10149000A32B046A0001A551045C2CE20001A351B6
:1014A000EA6A600FE96E020EEA22EF50E66E04501F
:1014B000EA6AA60FE96E000EEA22E552E750EF6EE7
:1014C000E8C0E6FFE9C0E6FF0001A351EA6A600F49
:1014D000E96E020EEA22EFCFE6FF8DEC10F043E951
:1014E000F3CFE8F0F4CFE9F00001E62B0001A32BE5
:1014F000042AD0D70001A351EA6A600FE96E020EF8
:10150000EA22EF50E66EE66AE66A010EE66E27EC26
:1015100002F0E552E5CFEBF0E7CFEAF00001A32BB4
:101520000001A351EA6A600FE96E020EEA22EF5051
:10153000F36EF46AF3500001EA27F4500001EB2344
:101540000001EA510001E81904E10001EB5100013A
:10155000E91902E0F1EF0FF0400E046E045009E0CB
:101560000404EA6AA00FE96E020EEA22EF6A04069A
:10157000F5D70001A451760A02E1A7EF0FF0030AA4
:1015800002E1D4EF0EF0010A01E1F7D3070A01E10D
:10159000F3D3010A01E1EFD3030A01E1EBD3010A1E
:1015A00001E1E2D31F0A01E1A2D3010A01E15CD308
:1015B000030A01E126D3010A01E114D2070A01E17D
:1015C000E6D1010A01E1C6D1030A01E1A7D1010A6E
:1015D00001E131D10F0A01E1BDD0010A2DE0030A7A
:1015E00002E0F1EF0FF0000EF66E100EF76E09003C
:1015F000F5CFEFF20800F5CFF0F20201F0C2EFF202
:10160000F06B0201EF510001A66F000EF66E100E96
:10161000F76E0900F5CFEFF20800F5CFF0F2020106
:10162000EF510001A76F020EE66EC90EE66E99EC4F
:1016300013F042E9F1EF0FF00001A651030A1BE09D
:10164000010A0EE0030A01E021D000019451056E69
:101650009551066E076A040E086E010E046E18D0CE
:1016600000019651056E9751066E076A040E086ECA
:10167000010E046E0DD000019851056E9951066E51
:10168000076A040E086E010E046E02D0046A00D0D0
:10169000040458E10750055C0850065834E2A7C01E
:1016A0008BF0A8C08CF0A9C08DF0890EE66E000EFC
:1016B000E66E2FEC11F042E9F9C2EFF2FAC2F0F255
:1016C000FBC2F1F2E8680201EF1905E1E868F019E0
:1016D00002E1E868F11910E1A6C0E6FF890EE66EA6
:1016E000000EE66EAAEC11F043E9E66ACA0EE66E59
:1016F00099EC13F042E906D0E66ACB0EE66E99EC5F
:1017000013F042E91ED00001A651030A13E0010ABA
:101710000AE0030A01E015D0E66AD80EE66E99ECFD
:1017200013F042E90ED0E66AD90EE66E99EC13F09A
:1017300042E907D0E66ADA0EE66E99EC13F042E968
:1017400000D006D0E66AE00EE66E99EC13F042E9AE
:10175000F1EF0FF0A7C08BF0A8C08CF0A9C08DF0FE
:10176000890EE66E000EE66E2FEC11F042E9F9C22A
:10177000EFF2FAC2F0F2FBC2F1F20201EF51016E98
:10178000F051026EF151036EE868011805E1E86856
:10179000021802E1E868031847E00001A651030AB5
:1017A00029E0010A15E0030A01E036D0010EE66ED9
:1017B00001EBE6FF02EBE6FF03EBE6FF14EC12F0B1
:1017C00044E9E66ACC0EE66E99EC13F042E92BD0C0
:1017D000020EE66E01EBE6FF02EBE6FF03EBE6FF2F
:1017E00014EC12F044E9E66ACC0EE66E99EC13F0C4
:1017F00042E919D0030EE66E01EBE6FF02EBE6FFCD
:1018000003EBE6FF14EC12F044E9E66ACC0EE66E58
:1018100099EC13F042E907D0E66AE00EE66E99EC27
:1018200013F042E900D006D0E66ACD0EE66E99ECE0
:1018300013F042E9D6D3A6C08BF0A7C08CF0A8C0A5
:101840008DF0890EE66E000EE66E2FEC11F042E987
:10185000F9C2EFF2FAC2F0F2FBC2F1F20201EF516B
:10186000016EF051026EF151036EE868011805E156
:10187000E868021802E1E868031849E001EBEFF2BA
:1018800002EBF0F203EBF1F20201F26B000E020147
:10189000EF5D0C0EF059000EF159000EF25904E202
:1018A0000001010EA66F2BD001EBEFF202EBF0F27C
:1018B00003EBF1F20201F26B030E0201EF5D180E71
:1018C000F059000EF159000EF25904E20001020E27
:1018D000A66F15D001EBEFF202EBF0F203EBF1F2A1
:1018E0000201F26B060E0201EF5D240EF059000EAC
:1018F000F159000EF25903E20001030EA66F010E2A
:10190000E66ECB0EE66E99EC13F042E906D0E66A7D
:10191000CD0EE66E99EC13F042E963D3A6C060F0F9
:10192000A7C061F0A8C062F0A9C063F0AAC064F0CB
:10193000ABC065F0ACC066F0600EE66E000EE66E01
:10194000BFEC00F042E9E66ACE0EE66E99EC13F0C9
:1019500042E947D3600EE66E000EE66E17EC01F02A
:1019600042E960C0A6F061C0A7F062C0A8F063C001
:10197000A9F064C0AAF065C0ABF066C0ACF0070E79
:10198000E66ECF0EE66E99EC13F042E92AD3000121
:101990009E6B9F6B020195C0EFF2F06BEFC2A6F059
:1019A00094C0A7F0020197C0EFF2F06BEFC2A8F06D
:1019B00096C0A9F0020199C0EFF2F06BEFC2AAF055
:1019C00098C0ABF002019BC0EFF2F06BEFC2ACF03D
:1019D0009AC0ADF0080EE66ED00EE66E99EC13F0EC
:1019E00042E9FFD200019A5100019E5D00019B5126
:1019F00000019F5901E3FED0F29EF29C9EC0EFF2DF
:101A00009FC0F0F20201070EF003F3CFF0F2070ED1
:101A1000EF03F3CFEFF2F450F0270201F16BF26B1A
:101A2000090E0201EF27240E0201F023000E02012D
:101A3000F123000E0201F2230201EF51016EF05179
:101A4000026EF151036EE8EC1EF001EBE6FF02EBD3
:101A5000E6FF03EBE6FF71EC1FF043E90001A66F20
:101A6000D950010FE96EDACFEAFFEE2A000EEE221E
:101A7000000EEE2201EBE6FF02EBE6FF03EBE6FFD2
:101A800071EC1FF043E90001A76FD950010FE96E17
:101A9000DACFEAFFEE2A000EEE22000EEE2201EB74
:101AA000E6FF02EBE6FF03EBE6FF71EC1FF043E914
:101AB0000001A86FD950010FE96EDACFEAFFEE2AD4
:101AC000000EEE22000EEE2201EBE6FF02EBE6FF37
:101AD00003EBE6FF71EC1FF043E90001B06FD95052
:101AE000010FE96EDACFEAFFEE2A000EEE22000EB9
:101AF000EE2201EBE6FF02EBE6FF03EBE6FF71EC03
:101B00001FF043E90001B16FD950010FE96EDACF40
:101B1000EAFFEE2A000EEE22000EEE2201EBE6FFB7
:101B200002EBE6FF03EBE6FF71EC1FF043E9000177
:101B3000B26FD950010FE96EDACFEAFFEE2A000E3C
:101B4000EE22000EEE2201EBE6FF02EBE6FF03EBD6
:101B5000E6FF71EC1FF043E90001B36F0BEC1FF0DF
:101B6000F28EF28C00019E2B000E9F230001B051DB
:101B7000E840E8403F0B0001A96F030E0001B015DB
:101B8000100DF3CFAAF00001B1390F0B0001AA1319
:101B90000F0E0001B115E8240001AB6F0001B24542
:101BA000010B0001AB130001B251E840E8403F0BCC
:101BB0001F0B0001AC6F030E0001B215040DF3CF33
:101BC000ADF0060EB3C0E7FF070B04E0E742E79E67
:101BD000E806FCE1E7500001AD133F0E0001B3152C
:101BE0000001AE6F090EE66ED10EE66E99EC13F0B1
:101BF00042E906D0E66AD70EE66E99EC13F042E9A8
:101C0000F0D1F29EF29C090E016E240E026E036A60
:101C1000E8EC1EF0046A070E045C16E2E66801EBCD
:101C2000E6FF02EBE6FF03EBE6FF1DEC1FF044E9E5
:101C3000D950010FE96EDACFEAFFEE2A000EEE224C
:101C4000000EEE22042AE7D70BEC1FF0F28EF28C86
:101C500000019A6B9B6B00018899E66AD20EE66ED2
:101C600099EC13F042E9BDD10001A651040A2BE022
:101C7000070A1DE0010A0FE0030A01E030D0010E5F
:101C8000E66E06EC14F041E9E66AD30EE66E99ECD6
:101C900013F042E92BD0020EE66E06EC14F041E997
:101CA000E66AD40EE66E99EC13F042E91FD0030EFB
:101CB000E66E06EC14F041E9E66ADB0EE66E99EC9E
:101CC00013F042E913D0040EE66E06EC14F041E97D
:101CD000E66AD50EE66E99EC13F042E907D0E66AA3
:101CE000E00EE66E99EC13F042E900D07AD150ECA8
:101CF00014F00001020EEF6F00016799000188A740
:101D000012D0000188B10FD0890EE66E000EE66E8B
:101D100021EC15F042E9000903E0040000016789A5
:101D2000000167A9EBD7000167A914D000016799EA
:101D3000010EE66EA3EC09F041E98BC0A6F08CC061
:101D4000A7F08DC0A8F0030EE66ED60EE66E99ECF5
:101D500013F042E9000188A106D0E66AE20EE66EC1
:101D600099EC13F042E93DD1010EE66EA3EC09F0C7
:101D700041E937D136D135D134D10001040EA66FF7
:101D80000001A76B0001040EA86F0001A96B000100
:101D9000040EAA6F0001AB6B060EE66EE10EE66E56
:101DA00099EC13F042E91DD10001A651070803E3A5
:101DB0000001A65107E1E66AE00EE66E99EC13F029
:101DC00042E9C4D02D0EE66E010EE66EE66AE66AC2
:101DD0000001A605E66EE66AE66AE66A5BEC02F0DA
:101DE000E552E5CFF2F2E5CFF1F2E5CFF0F2E7CF41
:101DF000EFF21D0E0201EF27ED0E0201F023010E9E
:101E00000201F123000E0201F223EFC2ECF0F0C256
:101E1000EDF0F1C2EEF0E8EC1EF0ECC0E6FFEDC034
:101E2000E6FFEEC0E6FF71EC1FF043E90001A16F91
:101E3000FF0E0001A15D10E0A1C0EFF20201F06B06
:101E4000F16BF26B640E0201EF5D000EF059000EB3
:101E5000F159000EF25973E2FF0E0001A15D02E19B
:101E60000001A16B0001A129E66EECC0E6FFEDC008
:101E7000E6FFEEC0E6FF1DEC1FF044E9030E000193
:101E8000A103F3280201EF6F0201F06BF16B020175
:101E9000EF510001EC270201F0510001ED23020196
:101EA000F1510001EE23A7C0E6FF0001ECC0EFF204
:101EB000EC2BEDC0F0F2000EED23EEC0F1F2000EBF
:101EC000EE23EFC2E6FFF0C2E6FFF1C2E6FF1DEC33
:101ED0001FF044E9A8C0E6FF0001ECC0EFF2EC2BD4
:101EE000EDC0F0F2000EED23EEC0F1F2000EEE2395
:101EF000EFC2E6FFF0C2E6FFF1C2E6FF1DEC1FF005
:101F000044E9A9C0E6FF0001ECC0EFF2EC2BEDC004
:101F1000F0F2000EED23EEC0F1F2000EEE23EFC260
:101F2000E6FFF0C2E6FFF1C2E6FF1DEC1FF044E958
:101F3000E66AE30EE66E99EC13F042E905D0E66A34
:101F4000E50EE66EF6DB42E90BEC1FF04AD000012D
:101F5000A651070803E30001A65106E1E66AE00E78
:101F6000E66EE7DB42E93CD02D0EE66E010EE66E32
:101F7000E66AE66A0001A605E66EE66AE66AE66AD1
:101F80005BEC02F0E552E5CFF2F2E5CFF1F2E5CFFE
:101F9000F0F2E7CFEFF21D0E0201EF27ED0E020186
:101FA000F023010E0201F123000E0201F223EFC221
:101FB000ECF0F0C2EDF0F1C2EEF0E8EC1EF0E66AF3
:101FC000ECC0E6FFEDC0E6FFEEC0E6FF1DEC1FF043
:101FD00044E90BEC1FF0E66AE40EE66EAADB42E988
:101FE00000D0400EE66E600EE66E020EE66EE66A09
:101FF000010EE66EB2EC19F045E9F3CFEBF2F4CF47
:10200000ECF249E9E7CFD9FF1200120012001200EA
:102010001200ACEF02F012001E0EE66E010EE66E2C
:1020200094EC19F042E9400EE66E600EE66E020E88
:10203000E66EE66A010EE66EB2EC19F045E9F3CF02
:10204000EBF2F4CFECF2120002014F0520E10201A5
:1020500050051DE1A094DADF64920201506B020189
:10206000100EE06F0E0EE16FE007000EE15BE05135
:10207000E111FAE16484080EE06F070EE16FE007FA
:10208000000EE15BE051E111FAE16494A0841200DA
:1020900021EC17F087E904EBF3FF05EBF4FF050EE5
:1020A000F31801E1F45036E0E868F31802E17F0E1E
:1020B000F4182FE0030EF31801E1F45028E0020EAB
:1020C000F31801E1F45021E0010EF31801E1F4509E
:1020D0001AE0740EF31801E1F45013E0750EF318D2
:1020E00001E1F4500CE0730EF31801E1F45005E047
:1020F000720EF3180FE1F4500DD089DF0BD085DF9D
:1021000009D084DF07D088DF05D085DF03D081DFE9
:1021100001D07EDF010E10EF18F021EC17F084E9FA
:10212000020100EBF2F2F16B01EBEFF2EF51F11172
:10213000006EF251016E0250001A000E011AFF0EDD
:102140000014E8380F0B001A000E011A00EBF2F22F
:10215000F16B02EC18F006E00201D890EF37F0378F
:10216000E804FBE10201EF51001AF051011AFF0EE1
:102170000014F16FF26B02EC18F006E00201D89047
:10218000EF37F037E804FBE10201D890EF37F03782
:10219000EF51001AF051011A00EBF3FF01EBF4FFCD
:1021A00010EF18F07CEC18F049E80050030A11E039
:1021B000010A08E0030A14E1056A040E066E076AC4
:1021C000086A0ED0056A040E066E030E076E0C0E2A
:1021D00006D0056A040E066E060E076E180E086E0F
:1021E000A6EC17F0096A0A6A0550095C06500A58FD
:1021F0002CE27FEC18F009EBE6FF0AEBE6FF27EC98
:1022000002F00201FE0EE3500724EF6F41E9E550B2
:102210000820F06FF16BEF51026EF051036EF15137
:10222000046E30EC18F00DE161EC17F00AE161EC9E
:1022300017F007E15CEC17F009EBF3FF0AEBF4FF92
:102240000AD0092A000E0A22CFD75CEC17F005EB62
:10225000F3FF06EBF4FF4AE9E7CFD9FF120068EC81
:1022600018F045E8A6EC17F0066A076A00019451D9
:10227000065C955107581AE219EC17F0F350B6ECCA
:1022800017F0020E08EC17F00DE183EC18F00AE1EC
:1022900087EC18F007E15CEC17F00001888919EC75
:1022A00017F045D0062A000E0722E0D7066A076A13
:1022B00000019651065C975107581AE219EC17F085
:1022C000030EEF270C0E36EC18F00EE183EC18F03D
:1022D0000BE187EC18F008E15CEC17F019EC17F053
:1022E000030EEF270C0E21D0062A000E0722E0D79E
:1022F000066A076A00019851065C9951075822E264
:1023000019EC17F0060EEF27180E36EC18F016E150
:1023100083EC18F013E187EC18F010E15CEC17F097
:1023200019EC17F0060EEF27180E97EC18F0EFC215
:10233000F9F2F0C2FAF2F1C2FBF20AD0062A000E5C
:102340000722D8D75CEC17F00201F969FA69FB693A
:1023500014EF18F021EC17F084E947E80050030A65
:102360001AE0010A0CE0030A22E1046A040E056E79
:10237000066A076A00019451086E955117D0046AE5
:10238000040E056E030E066E0C0E076E00019651CC
:10239000086E97510BD0046A040E056E060E066E89
:1023A000180E076E00019851086E9951096E04507D
:1023B000085C0550095835E2A6EC17F0030E0A6ECA
:1023C0000A500BE00A280124E96E000E0220EA6E92
:1023D000EFCFE6FF26EC17F0F3D7082A000E09220C
:1023E000030E0A6E0A5004E0E66826EC17F0FAD7EE
:1023F0005CEC17F00050030A0EE0010A07E0030A44
:102400000EE108EB94F009EB95F009D008EB96F09B
:1024100009EB97F004D008EB98F009EB99F0010E66
:1024200001D0FF0E18EF18F021EC17F085E945E810
:102430000050030A15E0010A0AE0030A1AE100014C
:102440009451066E9551076E086A096A12D0000110
:102450009651066E9751076E030E086E0C0E08D04B
:1024600000019851066E9951076E060E086E180EFF
:10247000096EA6EC17F07FEC18F002010604F26F6B
:10248000000E0758F36FF2C2E6FFE66E27EC02F08B
:102490000201FE0EE3500824EF6F41E9E5500920E8
:1024A000F06FF16B0150EF1905E10250F01902E1F4
:1024B0000350F11933E0030E056E05502FE07FEC59
:1024C00018F006EBE6FF07EBE6FFAAEC17F0040EA8
:1024D000F15F000EF25BBCEC17F093EC18F0E66EC7
:1024E00005EBF6F20201F76BF86BEFEC17F0EE502C
:1024F000F625F36FEE50F721F46FEE50F821F56FEB
:10250000F307000EF45BF55BF3C2E6FFF4C2E6FFEF
:10251000F5C2E6FF6BEC18F00506CFD7056A030E8F
:10252000055C14E2E6687FEC18F002010604F36F24
:10253000000E0758F46FF3C2E6FFE66EAAEC17F040
:10254000BCEC17F06BEC18F0052AE9D75CEC17F03F
:102550000606000E075A0050030A0EE0010A07E0C3
:10256000030A0EE106EB94F007EB95F009D006EBB9
:1025700096F007EB97F004D006EB98F007EB99F094
:1025800014EF18F021EC17F081E945E8A6EC17F0FC
:10259000046A056A04EBEFF205EBF0F256EC18F072
:1025A00020E204EBEFF205EBF0F266EC17F0016EBF
:1025B000F051026EF151036E47EC17F0FF080DE188
:1025C0004EEC18F00AE14EEC18F007E15CEC17F065
:1025D00004EBF3FF05EBF4FF0AD0042A000E0522FA
:1025E000D9D75CEC17F0800EF36E3E0EF46E14EF4C
:1025F00018F068EC18F047E8F29EF29C9AC0EFF2EF
:102600009BC0F0F256EC18F001E38CD054EC17F0BC
:102610000001635103E0635107080BE254EC17F02B
:102620000001635103E06351070803E2070E636F83
:102630007ED0645103E064511F080BE254EC17F0A4
:102640000001645103E064511F0803E2070E646F48
:102650006ED0655103E065510C080BE254EC17F0A5
:102660000001655103E065510C0803E2070E656F38
:102670005ED06051066E040E0602F350066E61399C
:102680000F0B06126151076E0738F00B076E62419F
:102690007F0B07126251086E0832086A08326451D3
:1026A000040DF35008126551E840E8403F0B081252
:1026B0006551096E0940E842C00B096E6651091266
:1026C0009AC0EFF29BC0F0F2020166EC17F0B6EC94
:1026D00017F0E8EC1EF0020E9CEC18F0030E9CECD8
:1026E00018F0040E9CEC18F006EBE6FF9EDB07EBFF
:1026F000E6FF9BDB08EBE6FF98DB09EBE6FF95DBEB
:10270000E66893DBE66891DBE66847EC18F06BEC73
:1027100018F00BEC1FF000019A2B000E9B23F28E99
:10272000F28C05D0030EE66EA3EC09F041E918EF38
:1027300018F068EC18F041E80001E86BE96B020161
:10274000ED51EE1102E1000E08D0EDC2E9FFEEC23C
:10275000EAFFEF50800B01E0010E000956E1020193
:102760000F0EA06F01EBA1F2E8C0E6FFE9C0E6FFA3
:10277000A1C2E6FFD7DB00EBA2F2F3CFE6FFF4CF76
:10278000E6FFA2C2E6FFCEDB036A0050035C18E25C
:102790000350EA6AA60FE96E000EEA22EF50E66ED9
:1027A000030E0324A3DBE8C0E6FFE9C0E6FF030E47
:1027B00003245EEC18F0EFCFE6FFB4DB032AE5D785
:1027C0000201E9C0EFF2F06BEF51E66E030E002458
:1027D0008DDB0001E851E66E040E002487DB050E58
:1027E00000245EEC18F0040EEF6E400EE66EA00EB4
:1027F000E66E020EE66E010EE66EE66EB2EC19F0C3
:1028000045E9F3CFEDF2F4CFEEF29CD37CEC18F077
:1028100042E89CDB000403E0040E005C12E1026A63
:10282000036A010E026E036A026A036A83DB030E07
:10283000EF5D000E64DB02E22FDBF8D70001946B42
:10284000956B020E005C03E0040E005C0FE1030ECA
:10285000026E0C0E036E6EDB060EEF5D0C0E4FDB90
:1028600002E21ADBF8D70001966B976B030E005C4F
:1028700003E0040E005C0FE1060E026E180E036EFC
:1028800059DB090EEF5D180E3ADB02E205DBF8D7E3
:102890000001986B996B10DB43E9E7CFD9FF120079
:1028A000000188918883936B1200CBDA81E944E8B8
:1028B000FBDA2D0EE66E010EE66EE66AE66A0001B0
:1028C0006305E66EE66AE66AE66A5BEC02F0E552EC
:1028D000E5CFF2F2E5CFF1F2E5CFF0F2E7CFEFF29C
:1028E0001D0E0201EF27ED0EF023010EF123000E65
:1028F000F223EF51016EF051026EF151036EE8ECDC
:102900001EF0C5DA0001A16FFF0EA15D4AE0046A66
:10291000A151045C46E201EBEFF202EBF0F203EBB3
:10292000F1F20201EF2B000EF023F123030E04025B
:10293000F3CFF2F2F36BF46BEF51F3240001EC6F81
:102940000201F051F3210001ED6F0201F151F42178
:102950000001EE6FECC0E6FFEDC0E6FFE66EE3DBE4
:102960000001625D1CE1EC2B000EED23EE2326DB63
:102970000001615D13E1A251615D11E0EC2B000EDD
:10298000ED23EE2361C0A2F019DB0001A06F02016C
:10299000E96B0001888B0BEC1FF003D0A269042ABD
:1029A000B7D70BEC1FF045E9E7CFD9FF1200949899
:1029B000949A94828B8A8B98F18AF09CF090F0968E
:1029C000410ED56ED76AD66AF194F294F29A12004B
:1029D000948294988B88949A8B8A1BDB0001F20571
:1029E00005E10C0EBD6E010EBE6E10D0020EF25D42
:1029F00006E10C0EBD6E030EBE6E050E07D0030E73
:102A0000F25D05E10C0EBD6EBE6E170ECB6ECA8474
:102A100012008B8A8B88FDDABD6E030EBE6E050E2A
:102A2000CB6ECA84B36AB26AB180A192A08212004E
:102A30008B9807EC00F0949282928B8ABB6ABC6AF6
:102A4000120046DB41E8C4DFF00EE66E27D841E90C
:102A5000EFDF036A020E035C1BE240DA01E1F05192
:102A600011E0FCD80009F9E0E7DA0BD942E90009E6
:102A7000F4E0E2DA75D942E9AA0EE66E41D841E9FE
:102A8000010E0BD05FD80201E76BE66B032AE2D799
:102A9000AA0EE66E35D841E9000E54D22DDB41E88E
:102AA0000001F20512E0020EF25D0DE1020E026E6F
:102AB000C10ED56ED76AD66A010EB16EB180A292F0
:102AC000A192A09202D0030EF25DF18A6783679112
:102AD0000201E66BE76BE26BE36BE46BE56BD56AD7
:102AE000B16AF090F0860050E25D03E20250E35DCF
:102AF000FAE3F090F096E66BE76BD56AE25122D2EA
:102B0000FBDA43E8690E036E000E046E1E0E026EC1
:102B1000023414E20250000811E202040201EF6FD5
:102B2000F06B800B01E0F069EF510324E96EF05186
:102B30000420EA6E00EBEFFF0206EAD744E9E7CF94
:102B4000D9FF12007ED981E941E81E0E016E0150C5
:102B500009E00104CED9EF1CE66E0104CAD9B4DA4B
:102B60000106F5D7EFD1BAD901E1F05114E0B7DA97
:102B7000EF50E7C2E7FFE75204E0E8427F0BE706C9
:102B8000FCE1010B0001686F0201E72B080EE75D15
:102B900002E1E62BE76B00016851120052D984E98B
:102BA00001EBE9FF02EBEAFFEF90EF42005005E096
:102BB00001EBE9FF02EBEAFFEF8E32D242D985E961
:102BC00042E881EB06F0063433E20650010830E2B9
:102BD000020E065C0201EF6FF06B800B01E0F06902
:102BE000DAD9EF50010B056E2CDA01E0F269DAD97F
:102BF000EF407F0BFAD901E0F069CDD965DA0550D5
:102C00000AE01FDA01E0F269CDD9EF508009EDD971
:102C10000BE0F06909D015DA01E0F269C3D9EF5091
:102C20007F0BE3D901E0F069B6D94EDA0606CBD7BF
:102C3000C0D9EF407F0BE66EBCD946DA005004E005
:102C4000B8D9EF50800903D0B4D9EF507F0BE66EAE
:102C5000B0D93ADA43E9E7CFD9FF1200F2D881E9D7
:102C600041E8016A3BD901E1F05109E07CDF01084C
:102C7000F8E1012A090E015CF5E1010E01D0000E18
:102C800061D126DA47E8036A010E046E056A066A16
:102C9000076A086A096A046E043402E204503208C2
:102CA00032E361DF036E1AD902E1F05155E08ED9AB
:102CB000000905E10350055C4FE1056A22D003EBF2
:102CC000E6FF050EE66EB8D979DF44E90550031832
:102CD000056E7CD9040A12E0070A0CE0010A06E03E
:102CE000030A0FE106500318066E0BD007500318B5
:102CF000076E07D008500318086E03D00950031858
:102D0000096E042AC9D72FDF065C26E12CDF075C99
:102D100023E129DF085C20E126DF095C1DE123DFD8
:102D200000091AE1046AD890045002E6050E045C1A
:102D300010E204EBEFF20201F06BEFBFF069EF512C
:102D40000024E96EF0510120EA6EEF5002E1042AFE
:102D5000EAD7050E045C02E1000E01D0010E68D135
:102D6000B7D948E8066A076A086A096A0A6A056AFA
:102D7000050E055C32E2070E046E036A080E035C62
:102D80002AE203EBEFF2055065D9EF50EFC2E7FFFF
:102D9000E75204E0E8427F0BE706FCE1010B0CE0A0
:102DA000010E04EBF3FF045204E0D890E836F3067A
:102DB000FCE1ABD8EF120CD0010E04EBF3FF045290
:102DC00004E0D890E836F306FCE1E81C9ED8EF1644
:102DD0000406032AD3D7052ACBD7036A050E035C62
:102DE00013E20201D950060FEF6F0350EA6AEF2594
:102DF000E96EDA50EA22EF50E66E040ED8800354F2
:102E000029D962D9032AEAD749E9E7CFD9FF1200C5
:102E100021D9EFCFEFF2EFC2E6FF39D984D9E552DD
:102E2000E7CFEFF20201EF5D120031D954D926EF5E
:102E300018F006EBEFF207EBF0F20201030E3CEFA5
:102E400018F0D9CFE6FFE1CFD9FF120058D908EB2F
:102E5000E6FF09EBE6FF27EC02F00201FE0EE3506D
:102E60000624F16F41E9E5500720F26F0A50F12581
:102E7000EF6F000EF221F06FEF07000EF05BEFC274
:102E8000E6FFF0C2E6FFE66A26D90A06120001EB69
:102E9000E6FF55D993EF18F0E66851D9E66A1BD9D9
:102EA000022A000E03221200600EE66E000EE66E8D
:102EB00017EC01F042E912000BEC1FF0F28EF28CDD
:102EC0001200D950020F27D930EF18F0070ED4D8CE
:102ED000090EEF27240E2BD9EF5112000201E65103
:102EE0000201EF6FF06B1E0EEF191200E7D864EFCE
:102EF00018F0EA6A690FE96E000EEA221200F05932
:102F0000000EF159000EF25912000201F16FD95072
:102F1000060FEF6F0550EA6AEF25E96EDA50EA22F4
:102F2000F15112008DEC10F043E9F3CFE8F0F4CF4B
:102F3000E9F0120002EBEFF203EBF0F20201F16BA9
:102F4000F26B120042E9E7CFD9FF1200F29EF29C29
:102F5000E8EF1EF027EC02F00201FE0EE350082419
:102F6000F16F41E9E5500920F26F1200036EF05154
:102F7000046EF151056E12000550F125EF6F000E41
:102F8000F221F06FEFC2E6FFE66EE66A1200ABD800
:102F90008B968A9A1200EF510224E96EF0510320B9
:102FA000EA6E1200F1510224E96EF2510320EA6E3A
:102FB000120002EBE9FF03EBEAFF1200ECC0E6FFB0
:102FC000EDC0E6FFEEC0E6FF93EF18F0050EE66EEB
:102FD00004EBE6FF03EC02F041E9E7501200D950A0
:102FE000010FE96EDACFEAFF1200E66E0604EF6F1A
:102FF000F06B800B1200E5CFEAFFE5CFE9FFE5CFEC
:10300000DAFF1200040EF1C2EFF2F2C2F0F2000A8F
:103010001200E00EBB6E0C0EBC6ECA6A9D921200CE
:1030200041E9E7CFD9FF120046E9E7CFD9FF120007
:1030300048E9E7CFD9FF120000EBE6FF01EBE6FF1E
:1030400012000604F16FF26B800B1200D950030FCF
:103050008BEF18F00024E96E000E0120EA6E1200DA
:103060006ED804EBE6FF5FD8FF08120060D8EF517E
:103070007DDF020E08EF17F0F003F3CFF0F2EF035D
:10308000F3CFEFF2F450F027F16BF26B120003EB89
:10309000E6FF04EBE6FF05EBE6FF1200A0DFEE2AF9
:1030A000000EEE22EE22F3DEFF0812000201F16BA9
:1030B000F26B800EEF5D3E0E7FEF17F0EA6AA00F15
:1030C000E96E020EEA221200E552E750EF6E12009E
:1030D000B8DE83E912001DEC1FF044E91200020182
:1030E000E65179EF17F0E66E21EC04F041E91200A9
:1030F000EFCFE6FF15EF17F0A4DE82E91200030E12
:10310000E66EE66A1200A2DF030E08EF17F09EDFFC
:10311000040E08EF17F0E96EDACFEAFFEE2A000E90
:10312000EE22EE22120071EC1FF043E91200F023B0
:10313000000EF123F22312008DDF78EF18F002EB7E
:08314000E6FF03EBE6FF1200BD
:083148009BEC1EF0A0940F01A6
:103150005F6B626A536B2EEC1EF058EC1EF0016A36
:10316000080EF36EF46AF350015C000EF45410E2A2
:103170000150040DF3CFE9FFF4CFEAFF000EE9267A
:10318000020EEA22EE6AEE6AEE6AEE6A012AE8D7D9
:10319000648C0F015C6B6498649C62A607D0629695
:1031A0000201436B486B496B4A6BF7D70201010E72
:1031B0005A6F5B6F5C6B5D6B506B016A020E015C5A
:1031C0000FE245EC1EF0EA22EE6AED6AEA6A01348B
:1031D00012EC1EF0EA22EE6AED6AFBEC1DF0EED76F
:1031E0000201080E3B6F020E3C6F0F01160E536F6B
:1031F0000201200E026F020E036F080E016F840E93
:10320000006F0201316B306B26EF1EF09BEC1EF05D
:103210000201300507E164BA05D0626A6080608807
:10322000020E306F6250040B05E06050040B02E0A8
:1032300062941ADB64B246D06250010B09E0605020
:10324000010B06E081DFA0840201040E306F629062
:103250006250100B05E06050100B02E0FBDA629840
:1032600062AC0FD060AC05D068EC1EF0730EE5ECDC
:103270001DF0629C0201585101E05807585101E1CC
:1032800002D96250200B04E06050200B01E0D1DA3B
:103290006250020B0DE06050020B0AE068EC1EF079
:1032A000E6687F0EE66E48EC10F046E90F015F6BB2
:1032B000040E0201E76E301902E7E73402D0E7504E
:1032C000305D02E2A1942ED060A62BD0016A040EDC
:1032D000015C27E262A625D063CF51F20201515171
:1032E000780BE842E842E842526F629651B504D04A
:1032F0005251CAEC1EF003D05251CFEC1EF0EA221C
:10330000EF70525102E1BCDA0AD0000EE66EE66AB6
:10331000510EE66E020EE66E720EE5EC1DF0012A0D
:10332000D6D7A19426EF1EF0D4EC1EF000A405D051
:10333000E66A01EBE6FFECD842E900A206D0010EF6
:10334000E66E01EBE6FFE4D842E90150036E046A41
:10335000530E03260F0E0422BAEC1EF000EBEFFF13
:103360002AEF1EF0D8EC1DF086E942E8035003E096
:1033700049EC1EF004D0EA6A043412EC1EF0EA2292
:10338000EE50066EED50076E0650071004E1000E79
:10339000F36EF46A29D053EC1EF0E3EC1EF001EB5F
:1033A000EEFF02EBEDFF53EC1EF0EE5200EBEFFFF1
:1033B0000201400EEF6F53EC1EF0EF51EF16880E36
:1033C000EF6F53EC1EF0EF51EF12035003E049ECA6
:1033D0001EF004D0EA6A043412EC1EF0EA22EF7404
:1033E00006EBF3FF07EBF4FF2AEF1EF0D4EC1EF020
:1033F000015003E1A9EC1EF00CD084EC1EF0020198
:10340000F32405EC1EF084EC1EF0F324010F05EC10
:103410001EF02AEF1EF0CCDB82E964A816D0BADBDE
:10342000400EEE16EE6AEE6AEE6AB4DBEE7CEA6AF5
:10343000003494EC1EF0EA22EF740201400EEF6FAC
:10344000A9DBEF51EF16A6DBEF7C41E9E7CFD9FF0F
:103450001200646A6198606AA0940201306B1200E5
:10346000020130510FE1646A606A58EC1EF0D08EA0
:10347000A284A084F28E64B602D06486FCD70201D6
:10348000010E306F120002015A5122E1010E5A6FF3
:103490005B511EE1010E5B6F020E405D07E183DBB5
:1034A000EE52EF6A80DBC80EEF6E1200400510E1AD
:1034B000536B91DBEE52080EEF6E8DDB8EEC1EF03F
:1034C0008ADB840EEF6E010E536F60DB800EEF6EB1
:1034D000120002015C6B5D6B020E405D06E1DDECEB
:1034E0001EF083DB89EC1EF010D044510201265DF2
:1034F000020145510201275904E226C244F227C2C3
:1035000045F25BD850DB71DB4EDBC80EEF6E12006C
:10351000D4EC1EF0000E036E020E046E84EC1EF05E
:10352000F324040DF3500326F4500422BAEC1EF0E9
:10353000EF9E005004E1EA6A013474DB01D0A5DBA0
:10354000EA2203EBEEFF04EBEDFFBAEC1EF0EF9C7A
:10355000040E0324E96E000E0420EA6EEF8C7AD389
:103560006498020143BF0DD048AF09D0020E406FEE
:103570005D5101E1AEDF02015B6B5A6B1200A9EFF6
:103580001EF0020120AF0DD00201010E406F5C5110
:1035900001E19FDF02015B6B5A6B59510DE143EF73
:1035A0001AF00201020E406FF1DA840EEF6E5B6BCF
:1035B0005A6B595101E167DF1200BDDB080E016E45
:1035C0000201445D000E45590AE24451016E3F512B
:1035D00002E1010E03D03F0502E1020E3F6F0150F0
:1035E000F36EF46AF350445FF450455BDCDAEE525C
:1035F00001EBEFFF280E4D6F020E4E6F43B10DD061
:10360000015017E041C2F6FF42C2F7FF412B000E06
:1036100042230800F5500DDBF3D701500AE041C208
:10362000E9FF42C2EAFF412B000E4223EF5001DBCB
:10363000F4D70CD3BDDA81E942E8CDDAEE52EF508F
:10364000016E01500201495D000E4A5902E24951E2
:10365000016E0150F36EF46AF350495FF4504A5B17
:10366000026A0150025C14E20250EA6A280FE96E15
:10367000020EEA22EF50E66E46C2E9FF47C2EAFFB9
:10368000462B000E4723E552E750EF6E022AE9D79A
:1036900049510008000E4A550DE28FDBA6DA9BDA8D
:1036A000EF50400B03E135DBC80E02D032DB880E51
:1036B000EF6E0FD06BDA840EEF6E4B514C1104E0BD
:1036C0004CC2FAFF4B5114000201489F595101E1CD
:1036D000DADEC0D230DB0201438FC0DA200EE66EA4
:1036E000E66AE66A000EE66E020E62DB648C016A30
:1036F000020E015C02E27FDAFBD7010EE66EE66A9B
:10370000E66A320EE66E020E53DB649C0201080E7E
:103710003B6F020E3C6F000E336F020E346F33C2EC
:1037200035F2366F22C231F2315102E1100E0BD068
:10373000010EE66EE66A310EE66E020EE66E010ED0
:1037400044DA0201200E306F81D2800E0201205D2A
:1037500038E10201C00E436F02012351030A1AE04F
:10376000010A09E0030A2BE102011A0E416F060E5D
:10377000426F120E1ED0BADAC30EF626060EA0DA7B
:10378000020E0201ACDAF5CF44F2030EA8DAF5CF4F
:1037900045F21200040E225D0FE2A8DAC50EF626ED
:1037A000060E8EDA41C2F6FF42C2F7FF0800F5505E
:1037B0000201446F456B12000201436B12000201CB
:1037C000436B1200F5D981E942E80201286B296BAD
:1037D00020511F0B020A11E0030A0CE0010A1EE14E
:1037E0000201438F0201288102014F0517E1020106
:1037F000288314D00201438F11D00201438F0201AC
:1038000024BF02D0ADDA01D0B0DA47DAB8DA06E088
:10381000E7D9EF50040B02E0010E286F020143AF1D
:1038200007D0280E416F020E426F4381020E446F93
:1038300011D20F0153A10CD0CED9EF50800807E16F
:10384000B2D9EF50840803E1C6D98C0EEF6E5391C4
:10385000629A12006084629864820201010E506FC5
:1038600006DA750EE5EF1DF00201506B00DA740EFA
:10387000ACD96492609462A402D06294FCD7120026
:103880005ADA02012D0E586FFD0E51153AE17E0EE7
:103890005115E8407F0B040DF3CF33F2F4CF34F22F
:1038A000000E3327020E342333C235F234C236F20F
:1038B000357591D9EF503C0BE842E8420D081FE105
:1038C000016A080E015C17E286D97DDAEE50EFCF6F
:1038D000EAFFE96EEF50E66E0150EA6A200FE96EEA
:1038E000020EEA22E552E750EF6E75D96CDAEE2A45
:1038F000EF22012AE6D76FD911DA09D807D022D8EA
:1039000005D0FD0E5115040801E12BD89FD102010D
:103910003F6B596B5C6B5D6B536B406B44D9EF9E97
:103920003B7541D9EF9E3B75F4D9EF9E436B446BD9
:10393000456B486B496B4A6B4DD899D9030E45D9F5
:10394000B0EF1AF0020E0201405D02E11AEF1BF027
:10395000406B535104E11AD98C0EEF6E1200536B79
:103960001200E9D920D9EF50400B01E0010E016EA1
:1039700002013B75080E305D0BE122C25CFF0F01B6
:103980005C5103E00201100E02D00201040E306F00
:10399000400513E108D929D910DE020E02013F5D6E
:1039A00003E101D9840E07D0015003E1FCD8C80E11
:1039B00002D0F9D8880EEF6E0CD048AF09D04B5129
:1039C0004C1104E04CC2FAFF4B5114000201489F15
:1039D000406B3CD102012051600BE842E842E842D2
:1039E000E842E842000901E0120021510C0A44E0DB
:1039F0000B0A3EE00C0A30E0010A22E00B0A1EE04E
:103A0000020A1CE0030A18E0080A10E0010A0CE0B0
:103A10000F0A08E0030A01E012000201438F080EBA
:103A2000306F1200A5EF1BF06AEF1BF00201310EA0
:103A3000416F020E426F0BD0E2EF1BF03DEF1DF025
:103A400024510201426B320F416F020E4223438127
:103A5000010E446F438F12000201438F0201245173
:103A6000EA6A320FE96E020EEA2222C2EFFF12006A
:103A7000FED8020EE5EF1DF012009AD881E945E864
:103A80000201220510E120511F0B00090CE1020187
:103A9000438F030E0201215D04E10201010E4F6F0D
:103AA00002D002014F6B020122516CE120511F0B29
:103AB000020868E124510F0B000964E024510F0B48
:103AC000010860E3200E0201305D5CE1438F0201DA
:103AD00024BF04D045D9E1D8D0D803D046D9DDD809
:103AE000D0D8EA22EF50036E08D9010B02E101940D
:103AF00001D0018424BF02D033D901D036D9EA22C3
:103B000001EBEEFF02EBEDFF030E215D10E137D973
:103B100007E024BF02D0B1D801D0B3D8EA22EF82A7
:103B20000201840EEF6F5CD8EF51EF122BD00174BD
:103B300026D906E055D8EF9E53D8EF8C00D902D095
:103B40004FD8EF8C0174D9D8020B02E118D90BE0E1
:103B5000020124BF02D091D801D093D8EA22EF927B
:103B600012D9EDD801D00FD9020124510F0B046EE8
:103B7000056A530E04260F0E052204EBE9FF05EB40
:103B8000EAFFEF9046E9E7CFD9FF120016D9C6D871
:103B900089EF1EF0EA6A0034C7D8EA22EE50EFCF70
:103BA000EAFFE96E12003BC2E9FF3CC2EAFF1200E5
:103BB000D9CFE6FFE1CFD9FF120024510F0BE96EF8
:103BC000EA6AD890E936EA361200E66EE66A48EC10
:103BD00010F046E9120033C2E9FF34C2EAFF1200D6
:103BE00001EBE9FF02EBEAFF1200EDD8280EEE6EC2
:103BF000020EED6E12000150D2D8EA22EF6A015097
:103C0000C9D8EA22EF6A012A1200040D000EF3243B
:103C1000036E020EF420046E840EEF6FABD8EF51EA
:103C2000EF121200FE0BE96EEA36370EE926020E9D
:103C30001200E66E4DC2E9FF4EC2EAFF4D2B000EA8
:103C40004E23E552E750EF6E0106120042E9E7CF3E
:103C5000D9FF120043E9E7CFD9FF1200010EE66E4B
:103C6000E66AE66A540EE66E0F0ED8EF1EF0000EFE
:103C7000E66EE66AE66EE66A120024510F0BCAEFA2
:103C80001EF024510F0BCFEF1EF0EA6A013494EFBF
:103C90001EF0EA6A043494EF1EF0EA22EE50016E40
:103CA000ED50026E120006EBE9FF07EBEAFF12008F
:103CB000160E616E0F019F0E5B6F7B0E606E120021
:103CC000F7220900F5CF41F20A00F5CF42F21200C7
:103CD000010EE66EE66A000EE66EE66A1200F76A0C
:103CE0004125F66E4251F722080012002251F66E6D
:103CF000F76AD890F636F7361200D950030FE96EFE
:103D0000DACFEAFFEF501200040E01020050E8245F
:103D1000120035C2E9FF36C2EAFF120054D8200E65
:103D2000EE6E020EED6E1200FE0BE96EEA363B0EF1
:103D3000E926020E12003CDF81E941E81200020E82
:103D4000E66EE66A01EBE6FF02EBE6FF050EE5EF45
:103D50001DF01CDF8C0EEF6E26DF840EEF6E12005E
:103D60002CDF370EE926020E120027DF3B0EE92674
:103D7000020E120003EBE9FF04EBEAFF120030DF52
:103D8000EF50800B120002013B0EEF6F29DFEF5165
:103D9000EF161200EA6A560FE96E020E1200EA6A86
:103DA000540FE96E020E120003DF83E942E81200AD
:103DB000E66E3CEC04F045E91200ABDFEE52080E73
:103DC000EF6E89EF1EF0020EE926000EEA221200C5
:103DD000F29EF29C3F0EC716C66AC56A800EC76E79
:103DE000080EC66E0001F20502E1020E09D0020EB5
:103DF000F25D02E1070E04D0030EF25D02E11D0E3A
:103E0000C86E938C9388C68A8A8E0A0EE66E56EC2C
:103E100004F041E91200C66A9D969E968A988A9C93
:103E20009398939C8A988A9C8A9E030EE66E56EC21
:103E300004F041E9F28EF28C1200D9CFE6FFE1CF17
:103E4000D9FF85E941E8056A0598058A059C058E34
:103E5000BED8100E99D803E00201A2D8FEE1AFD877
:103E6000E8B00586A3D8C5A003D0FDD7C5B0FED75E
:103E700093D8C5BCFED7ABD8080E86D803E00201A4
:103E80008FD8FEE17AD8C5BCFED701EBEFF275D82A
:103E9000C5BCFED700EBE6FFA8D8C5BCFED7C584DD
:103EA000C5A403D0FDD7C5B4FED7ABEC04F0C580E4
:103EB000C5B0FED7ABEC04F06FD8C5AC04D0C58458
:103EC000C5B4FED7F2D7C584C5A403D0FDD7C5B409
:103ED000FED7ABEC04F0F28EF28C42E9E7CFD9FFCB
:103EE0001200D9CFE6FFE1CFD9FF84E942E8046AA6
:103EF000056A0598058A059C058E70D8100E44D871
:103F000003E002014DD8FEE15AD8E8B005864ED84C
:103F1000C5A003D0FDD7C5B0FED73ED8C5BCFED7DF
:103F20005DD8080E31D803E002013AD8FEE125D869
:103F3000C5BCFED700EBEFF220D8C5BCFED7C582CA
:103F4000C5B2FED7ABEC04F00528E66E4ED8C5BC72
:103F5000FED793EC04F0046EABEC04F0C584C5A46A
:103F600003D0FDD7C5B4FED7ABEC04F0F28EF28CD3
:103F7000045043E9E7CFD9FF12000201F06BF16B67
:103F8000EFC2E6FFF5EF1FF01F0BF2C2EFF2F3C234
:103F9000F0F2F4C2F1F2120005EBE6FFF5EF1FF0CC
:103FA000D890F133F033EF33E80612000592059410
:103FB0000590F29EF29CABEC04F0C5801200010E5D
:103FC0000201EF17F06BF16BEF510596120001EB58
:103FD000F2F202EBF3F203EBF4F2120000EBF2F276
:103FE00001EBF3F202EBF4F21200B6EC03F041E95C
:043FF000ABEF04F03F
:020000040030CA
:0100000018E7
:0100010002FC
:0100020039C4
:0100030011EB
:01000500807A
:01000600C138
:0100080000F7
:010009008076
:01000A0003F2
:01000B00C034
:01000C0003F0
:01000D0040B2
:00000001FF
