:020000040000FA
:0600000086EF04F012007F
:020006001200E6
:0600080051EF08F01200A8
:0600180001EF08F01200E8
:02001E000100DF
:0C00200056090000E20200000D00000084
:04002C007CD981E911
:1000300041E8016A86D9020E72D9016EBF0E011421
:10004000E66E020E57D98AD9600EE66E000EE66E95
:10005000EED842E9000163510DE0635107080AE35D
:10006000645108E064511F0805E3655103E06551E0
:100070000C0818E273D9150EE66E060E3BD9010E78
:10008000E66E050E37D9010EE66E040E33D9E66A28
:10009000020E30D9E66A010E2DD9800EE66EE66AB0
:1000A00006D842E9F7EC1EF0F28EF28C46D13BD92D
:1000B00083E9F29EF29CF7EC1FF0C580C5A003D047
:1000C000FDD7C5B0FED758D9C5BCFED701EBE6FFBA
:1000D0001AD9C5BCFED700EBE6FF15D9C5BCFED7C3
:1000E000C584C5A403D0FDD7C5B4FED7F7EC1FF077
:1000F000C580C5B0FED7F7EC1FF03ED9C5AC04D023
:10010000C584C5B4FED7F2D7C584C5A403D0FDD736
:10011000C5B4FED7F7EC1FF0F28EF28C16D103D9DE
:1001200082E941E8F29EF29CF7EC1FF0C580C5A081
:1001300003D0FDD7C5B0FED71FD9C5BCFED700EB95
:10014000E6FFE1D8C5BCFED7C582C5B2FED7F7EC45
:100150001FF0DF0EE66ED7D8C5BCFED793EC04F0D7
:10016000026EF7EC1FF0C584C5A403D0FDD7C5B45B
:10017000FED7F7EC1FF0F28EF28C0250DED0D3D80F
:1001800083E941E8DED8E5D8040ED2D84FE0E1D8C3
:10019000040ECED81F084AE3DCD8030EC9D846E0C7
:1001A000D8D8030EC5D8070841E3D3D8050EC0D868
:1001B0003DE0CFD8050EBCD80C0838E3CAD8030EF2
:1001C0009DD8036E070E0316038603EBE6FF030EAE
:1001D000DAD8CDD8036E800E0310036E03EBE6FF72
:1001E000E66A65DF42E9B5D8EE52C1D8E66E010E87
:1001F000CAD8020E83D8036E3F0E0314036E03EBBE
:10020000E6FF020EC0D8040E79D8E66E040EBBD805
:10021000050E74D8E66E050EB6D8060E6FD8E66EDB
:10022000060E68D8F28EF28CF7EC1EF086D07BD8E2
:1002300083E987D8E66A73DF41E97F0B55D8E55239
:10024000E750EF6E010E9CD8EE52E552E750EF6E8C
:10025000020E65D83F0B48D8020E5AD8030E5FD85D
:10026000070B42D8030E54D8040E8AD8040E50D877
:10027000050E55D81F0B38D8050E4AD8060E80D863
:10028000060E46D8F28EF28CF7EC1EF05ED012000D
:100290004AD882E900380F0B0A0D0F0E0014F32420
:1002A000006E005052D03FD882E941E8026A005007
:1002B000090816E20A0EE66E00EBE6FFD2EC01F04A
:1002C00041E9E750100DF350026E0A0EE66E00EBA6
:1002D000E6FFD5EC01F041E9E7500210026E02D0D2
:1002E00080EB02F0025029D0E66ED2DF41E9E66EE3
:1002F000A9EF01F0E66EDBDE42E91200E926000E0E
:10030000EA22B7EF01F0B6EC03F041E9F7EF1FF096
:10031000E926000EEA22E552E750EF6E1200E66E83
:10032000FEDE41E91200D9CFE6FFE1CFD9FF12008E
:10033000E926000EEA22EF50120042E9E7CFD9FF8A
:100340001200F29EF29CF1EF1EF041E9E7CFD9FFD7
:10035000120000EBE9FF01EBEAFF1200030EDFDF02
:10036000016E080E0110E66E030E7AEF01F0EFCF7A
:10037000E6FF99DF41E91200DE0EE66E83EF01F041
:0C038000CEDF74EF01F0B6DFA9EF01F052
:04038C0042E8D9CF9B
:10039000E6FFDACFE6FFE1CFD9FFE2CFDAFF86E969
:1003A000036A1200F3DF038003D0F0DF01D0038281
:1003B000026A080EE76ED890013602360050025CE1
:1003C00002E3026E012AE72EF7D703B2120003B050
:1003D00081EB00F003A082EB00F0E552E5CFDAFFFD
:1003E000E7CFD9FF43E9120042E8D9CFE6FFDACFE1
:1003F000E6FFE1CFD9FFE2CFDAFF86E9036A120018
:10040000F3DF038001D0F0DF00AE03D0006C03B057
:10041000037E01AE02D0016C037ED7EC01F001BE79
:1004200023EF02F003AE02D0016C026C03B081EB4B
:1004300000F003A082EB00F0E552E5CFDAFFE7CF52
:10044000D9FF43E9000C03BEEFD7F0DFFF0C44E80F
:10045000D9CFE6FFDACFE6FFE1CFD9FFE2CFDAFF6F
:100460008AE980EB04F081EB05F082EB06F00250A4
:100470000402F450016EF350006E0350076E050243
:10048000F450036EF350026E07500402F35001263D
:10049000F4500222E86A032206500502F3500126B6
:1004A000F4500222E86A0322E552E5CFDAFFE7CFF3
:1004B000D9FF46E9000C44E8D9CFE6FFDACFE6FFE2
:1004C000E1CFD9FFE2CFDAFF8EE980EB08F081EBD4
:1004D00009F082EB0AF083EB0BF004500802F350B2
:1004E000006EF450016E04500902F3500126000E14
:1004F000F420026E04500A02F3500226000EF4208B
:10050000036E04500B02F350032605500802F3500B
:100510000126F4500222000E032205500902F35076
:100520000226F450032205500A02F3500326065017
:100530000802F3500226F450032206500902F35039
:10054000032607500802F3500326E552E5CFDAFFF1
:08055000E7CFD9FF48E9000CD8
:08055800020120511F0B0108F4
:1005600001E01200245101E01200060E215D1BE1A2
:100570002351230A18E0010A0CE0030A14E10201E6
:10058000310511E102013E0E416F060E426F090E68
:1005900006D00201A70E416F060E426F1C0E446F7B
:1005A000456BC00E436F02012051600BE842E842E8
:1005B000E842E842E842010801E0120021510B0A3A
:1005C00026E0080A19E0090A11E0080A05E00B0A0A
:1005D00023E0080A21E012000201FE0E416F000E26
:1005E000426F010E446F456BC10E0FD00201800EA9
:1005F000436F23C2FEF012000201FF0E416F000E96
:10060000426F010E446F456B810E436F1200020171
:0A061000800E436F22C2FFF01200BB
:06061A00120100020000C5
:100620000008D8043F00020001020301090229006A
:10063000010100C03209040000020300000009218A
:1006400011010001221C000705810340000107057C
:100650000103400001040309042A0349006E006EEF
:10066000006F00200054006500630068006E006F9A
:10067000006C006F0067007900200049006E006385
:10068000002E001203410054002000470055004195
:1006900000520044001203300036003800300039A8
:1006A000003300320032000600FF0901A1011901E8
:1006B0002940150125407508954081001901294000
:0D06C0009100C02C065506590683069506CC
:0206CE001E0EFE
:1006D000F66E000EF76E000EF86E00010900F55080
:1006E000F96F0900F550FA6F03E1F96701D03DD0C9
:1006F0000900F550F46F0900F550F56F0900F55049
:10070000F66F09000900F550E96E0900F550EA6E30
:10071000090009000900F550F76F0900F550F86F5E
:1007200009000900F6CFFBF0F7CFFCF0F8CFFDF0A1
:10073000F4C0F6FFF5C0F7FFF6C0F8FF0001F7536D
:1007400002E1F85307E00900F550EE6EF707F8E212
:10075000F807F9D7FBC0F6FFFCC0F7FFFDC0F8FFB4
:0C0760000001F907000EFA5BBFD7120081
:04076C00D9CFE6FFFC
:10077000DACFE6FFE1CFD9FFE2CFDAFF83E900EB82
:10078000C9FFC6AE02D0FF0E24D00F0EC614080853
:100790000FE00F0EC6140B080BE0C6889EA6FED70E
:1007A000C750040B03E1C750010B10E0000E11D03D
:1007B0000F0EC614080804E00F0EC6140B0809E15A
:1007C000C7B0FED7F7EC1FF0C5AC02D0FE0E01D0CB
:0E07D000000E41E9E5CFDAFFE7CFD9FF1200B6
:0207DE00D39EA8
:1007E000D39CD38AD388020EE66E02D841E9120068
:1007F000D9CFE6FFE1CFD9FF82E9000408E1D39E1B
:10080000D390D382D2949B9C0001010E15D0020E8E
:10081000005C08E1D39ED390D392D2849B9C0001CC
:10082000020E0AD0030E005C08E1D39ED390D3924F
:10083000D2849B8C0001030EF16F41E9E7CFD9FF11
:020840001200A4
:0E084200FF0EE35002015F6FEE0E02D0F20EC9
:100850000000E76EE72E2AEF04F00C0E02015E6F37
:10086000E76AE72E31EF04F05E2F30EF04F002016B
:080870005F2F27EF04F01200D6
:08087800FE0EE3CFE9FFFF0EC5
:10088000E3CFEAFFE9CFF3FFEACFF4FFFB0EE3503B
:1008900003E1FC0EE35009E0FB0EE30602E2FC0E6E
:0C08A000E306FD0EE350EE6EF1D71200EF
:0408AC00FF0EE35008
:1008B00002015F6F480E01D04C0EE76EE72EFED7A7
:0C08C000E76AE72EFED75F2FF7D7120083
:0408CC00FF0EE350E8
:1008D00002015F6F1A0E00D000D001D0200EE76E2B
:0C08E000E72EFED75F2FFAD700D01200E1
:0408EC00000EF36E99
:1008F00000EE00F0030E01D81200EA6002D0EE6AAA
:0C090000FCD7F350E9601200EE6AFCD74F
:04090C0011EE00F0F8
:1009100021EE00F0F86A67EC03F003EC00F0B6ECAF
:0609200008F0FBD71200F5
:0A0926000F0EC614080804E00F0EBF
:10093000C6140B0801E1C586C7A0FED7C950120036
:10094000FF0EE350E84E1200000000D000D000D0AF
:06095000E82EFAD71200A8
:0A0956000000000000000000000097
:0309600000000094
:02100000393085
:0E100200D8CFE4FFE0CFE4FFE46EDACFE4FFE6
:10101000E9CFE4FFEACFE4FFE652A050020B06E07E
:10102000A150020B03E00201E32BA192F050080B48
:101030002FE0F050010B2CE0020E0001F05D1FE1EB
:10104000D6CFF3F0D66AF17AF351410802E2677124
:10105000678367A312D078EC18F0EF90EF4200019D
:1010600067A103D078EC18F0EF8E0201E22BE72B9A
:10107000080EE75D02E1E76BE62B00016773F00500
:1010800004E182A202D0020EF06F82CFF2F0F09063
:10109000E5520FEC18F0E550E5CFE0FFE5CFD8FFC3
:1010A0001000DACFE4FFE2CFDAFFE9CFE4FFEACFC6
:1010B000E4FFD9CFE4FFDACFE4FFF9C2E4FFFAC2DC
:1010C000E4FFFBC2E4FFFCC2E4FFF6CFE4FFF7CF8E
:1010D000E4FFF5CFE4FFF3CFE4FFF4CFE4FFFACF72
:1010E000E4FF02EEEFF00A0EE80403E3EECFE4FFC4
:1010F000FBD7E6520FEC19F0F250100B07E0F2505C
:10110000020B04E000018785F298F2929E50010BD9
:1011100004E09D50010B01E09E909EA603D082CF7B
:10112000F2F09E96E55202EEF8F00A0EE80403E3B0
:10113000E5CFEDFFFBD7E5CFFAFFE5CFF4FFE5CF35
:10114000F3FFE5CFF5FFE5CFF7FFE5CFF6FFE5CFFE
:10115000FCF2E5CFFBF2E5CFFAF2E5CFF9F2E5CF0D
:10116000DAFFE5CFD9FF0FEC18F01100D9CFE6FF79
:10117000E1CFD9FF81E941E8CBD8EFEC03F0020ED3
:10118000E66E08EC11F041E9F3CF95F0F4CF96F05C
:10119000010EE66E08EC11F041E9F3CF93F0F4CFC5
:1011A00094F0030EE66E08EC11F041E9F3CF97F0EE
:1011B000F4CF98F0F8EC12F0F3CF99F0F4CF9AF066
:1011C000010EE66EF6D841E90001010EF06FCCD8B1
:1011D000F1EC1EF0016A080E015C0CE2040001EB68
:1011E000E6FF01EBE6FFE66AE66A02EC1FF044E97F
:1011F000012AF1D7016A080E015C14E2040001EB38
:10120000E6FFE66AE66A56EC1FF043E9E66E015037
:10121000EA6A690FE96E000EEA22E552E750EF6EC6
:10122000012AE9D7F7EC1EF0000187B750D0000182
:10123000F00516E123EC15F0050EE66EA0EC04F0C7
:1012400041E9F18AF090F0860C0EE66E66EC04F04F
:1012500041E90001F00504E1F090F09637EC15F05B
:10126000020E0001F05D2EE10400016A050E015C32
:101270001EE20400880EE66E000EE66E42EC15F0EB
:1012800042E9000912E000018F5100018A5D0AE184
:101290000001905100018B5D05E1000191510001B9
:1012A0008C5D03E00001678902D0012ADFD70001CD
:1012B00067A908D0000167998AC08FF08BC090F0B1
:1012C0008CC091F00001010EF06F03001CD00400EF
:1012D00082B019D00A0EE66EA0EC04F041E982B0AB
:1012E00012D0000187970201305102E032EC1AF06F
:1012F000F292F288020EE66EF8EC03F041E900018A
:10130000010EF06F030063D742E9E7CFD9FF120067
:10131000F29EF29C949C949E829C829E939A9496B8
:101320008A988A9C93988A98939C8A9C939E686AD0
:101330006D6A6B6A7E6A7F6ABD6A0CEC15F0EFEC31
:1013400003F08A9A8B968A9E9480F292F288F18CAE
:1013500016EC00F00001876B8795D08EF28EF28C30
:10136000EF6B0201EA6B1200000187A518D00A0E8C
:10137000E66EA0EC04F041E982A011D0030EE66E07
:10138000F8EC03F041E9ADEC18F00201EB6BEC6B0B
:10139000ED6BEE6B00018795878739EC1AF0200E14
:1013A0000201305D05E100018751080B01E02FD8F3
:1013B000120085EC18F041E80050030A18E0010A19
:1013C00008E0030A22E18B868A8A020ED3EC17F02A
:1013D0001CD0026A060E025C18E28B868A8A050E11
:1013E000D3EC17F0050E7CEC18F0022AF3D7026A52
:1013F000030E025C0AE28B868A8A640ED3EC17F035
:10140000320E7CEC18F0022AF3D7E5EF17F0D9CFB3
:10141000E6FFE1CFD9FF81E948E8200E0201E76E3F
:10142000301902E7E73402D0E750305D03E364503F
:10143000020B02E037EF10F00201EB51EC1102E178
:10144000000E08D0EBC2E9FFECC2EAFFEF50800BC0
:1014500001E0010E000902E037EF10F00001A26B7D
:101460000001E76BE86B0001A251EA6A600FE96EC8
:10147000020EEA22EF500F0802E027EF10F0000101
:10148000A22B0001A251EA6A600FE96E020EEA2265
:10149000EFCFA3F0E7C0E6FFE8C0E6FF0001A251EE
:1014A000EA6A600FE96E020EEA22EFCFE6FFC3ECB4
:1014B00010F043E9F3CFE7F0F4CFE8F00001A22BFE
:1014C0000001A251EA6A600FE96E020EEA22EFCF34
:1014D000A4F0E7C0E6FFE8C0E6FF0001A251EA6A17
:1014E000600FE96E020EEA22EFCFE6FFC3EC10F0C8
:1014F00043E9F3CFE7F0F4CFE8F00001A22B046A50
:101500000001A451045C2CE20001A251EA6A600FC0
:10151000E96E020EEA22EF50E66E0450EA6AA50F69
:10152000E96E000EEA22E552E750EF6EE7C0E6FFF3
:10153000E8C0E6FF0001A251EA6A600FE96E020E00
:10154000EA22EFCFE6FFC3EC10F043E9F3CFE7F078
:10155000F4CFE8F00001E52B0001A22B042AD0D73C
:101560000001A251EA6A600FE96E020EEA22EF5012
:10157000E66EE66AE66A010EE66E27EC02F0E552D8
:10158000E5CFEAF0E7CFE9F00001A22B0001A2517C
:10159000EA6A600FE96E020EEA22EF50F36EF46A17
:1015A000F3500001E927F4500001EA230001E9515A
:1015B0000001E71904E10001EA510001E81902E025
:1015C00027EF10F0046A400E045C09E20450EA6A56
:1015D000A00FE96E020EEA22EF6A042AF4D7000196
:1015E000A351760A02E1DDEF0FF0030A02E10AEFF0
:1015F0000FF0010A01E1F7D3070A01E1F3D3010A71
:1016000001E1EFD3030A01E1EBD3010A01E1E2D3E7
:101610001F0A01E1A2D3010A01E15CD3030A01E13F
:1016200026D3010A01E114D2070A01E1E6D1010A39
:1016300001E1C6D1030A01E1A7D1010A01E131D1DB
:101640000F0A01E1BDD0010A2DE0030A02E027EFF5
:1016500010F0000EF66E100EF76E0900F5CFEFF2E7
:101660000800F5CFF0F20201F0C2EFF2F06B0201D8
:10167000EF510001A56F000EF66E100EF76E090017
:10168000F5CFEFF20800F5CFF0F20201EF510001C3
:10169000A66F020EE66EC90EE66ECEEC13F042E9BE
:1016A00027EF10F00001A551030A1BE0010A0EE02C
:1016B000030A01E021D000019351056E9451066E9A
:1016C000076A040E086E010E046E18D000019551D1
:1016D000056E9651066E076A040E086E010E046EC2
:1016E0000DD000019751056E9851066E076A040EE1
:1016F000086E010E046E02D0046A00D0040458E1A2
:101700000750055C0850065834E2A6C08AF0A7C00E
:101710008BF0A8C08CF0880EE66E000EE66E65ECCD
:1017200011F042E9F9C2EFF2FAC2F0F2FBC2F1F2B3
:10173000E8680201EF1905E1E868F01902E1E868DC
:10174000F11910E1A5C0E6FF880EE66E000EE66E08
:10175000E0EC11F043E9E66ACA0EE66ECEEC13F057
:1017600042E906D0E66ACB0EE66ECEEC13F042E913
:101770001ED00001A551030A13E0010A0AE0030A82
:1017800001E015D0E66AD80EE66ECEEC13F042E921
:101790000ED0E66AD90EE66ECEEC13F042E907D021
:1017A000E66ADA0EE66ECEEC13F042E900D006D01F
:1017B000E66AE00EE66ECEEC13F042E927EF10F099
:1017C000A6C08AF0A7C08BF0A8C08CF0880EE66E89
:1017D000000EE66E65EC11F042E9F9C2EFF2FAC2D2
:1017E000F0F2FBC2F1F20201EF51016EF051026E14
:1017F000F151036EE868011805E1E868021802E19A
:10180000E868031847E00001A551030A29E0010A2E
:1018100015E0030A01E036D0010EE66E01EBE6FFAB
:1018200002EBE6FF03EBE6FF4AEC12F044E9E66A5E
:10183000CC0EE66ECEEC13F042E92BD0020EE66E33
:1018400001EBE6FF02EBE6FF03EBE6FF4AEC12F0EA
:1018500044E9E66ACC0EE66ECEEC13F042E919D00C
:10186000030EE66E01EBE6FF02EBE6FF03EBE6FF9D
:101870004AEC12F044E9E66ACC0EE66ECEEC13F0C8
:1018800042E907D0E66AE00EE66ECEEC13F042E9DC
:1018900000D006D0E66ACD0EE66ECEEC13F042E93B
:1018A000D6D3A5C08AF0A6C08BF0A7C08CF0880E56
:1018B000E66E000EE66E65EC11F042E9F9C2EFF259
:1018C000FAC2F0F2FBC2F1F20201EF51016EF051E7
:1018D000026EF151036EE868011805E1E86802182C
:1018E00002E1E868031849E001EBEFF202EBF0F2E5
:1018F00003EBF1F20201F26B000E0201EF5D0C0E40
:10190000F059000EF159000EF25904E20001010EE7
:10191000A56F2BD001EBEFF202EBF0F203EBF1F24B
:101920000201F26B030E0201EF5D180EF059000E7A
:10193000F159000EF25904E20001020EA56F15D014
:1019400001EBEFF202EBF0F203EBF1F20201F26BCA
:10195000060E0201EF5D240EF059000EF159000E43
:10196000F25903E20001030EA56F010EE66ECB0EE5
:10197000E66ECEEC13F042E906D0E66ACD0EE66ED6
:10198000CEEC13F042E963D3A5C060F0A6C061F0CD
:10199000A7C062F0A8C063F0A9C064F0AAC065F057
:1019A000ABC066F0600EE66E000EE66EBFEC00F0B7
:1019B00042E9E66ACE0EE66ECEEC13F042E947D37A
:1019C000600EE66E000EE66E17EC01F042E960C0B4
:1019D000A5F061C0A6F062C0A7F063C0A8F064C023
:1019E000A9F065C0AAF066C0ABF0070EE66ECF0E98
:1019F000E66ECEEC13F042E92AD300019D6B9E6B9C
:101A0000020194C0EFF2F06BEFC2A5F093C0A6F014
:101A1000020196C0EFF2F06BEFC2A7F095C0A8F0FC
:101A2000020198C0EFF2F06BEFC2A9F097C0AAF0E4
:101A300002019AC0EFF2F06BEFC2ABF099C0ACF0CC
:101A4000080EE66ED00EE66ECEEC13F042E9FFD241
:101A50000001995100019D5D00019A5100019E59BC
:101A600001E3FED0F29EF29C9DC0EFF29EC0F0F228
:101A70000201070EF003F3CFF0F2070EEF03F3CFEE
:101A8000EFF2F450F0270201F16BF26B090E020144
:101A9000EF27240E0201F023000E0201F123000EB5
:101AA0000201F2230201EF51016EF051026EF15179
:101AB000036EF4EC1EF001EBE6FF02EBE6FF03EB36
:101AC000E6FF56EC1FF043E90001A56FD950010F66
:101AD000E96EDACFEAFFEE2A000EEE22000EEE22C9
:101AE00001EBE6FF02EBE6FF03EBE6FF56EC1FF02F
:101AF00043E90001A66FD950010FE96EDACFEAFF82
:101B0000EE2A000EEE22000EEE2201EBE6FF02EBC3
:101B1000E6FF03EBE6FF56EC1FF043E90001A76F79
:101B2000D950010FE96EDACFEAFFEE2A000EEE225D
:101B3000000EEE2201EBE6FF02EBE6FF03EBE6FF11
:101B400056EC1FF043E90001AF6FD950010FE96E69
:101B5000DACFEAFFEE2A000EEE22000EEE2201EBB3
:101B6000E6FF02EBE6FF03EBE6FF56EC1FF043E96E
:101B70000001B06FD950010FE96EDACFEAFFEE2A0B
:101B8000000EEE22000EEE2201EBE6FF02EBE6FF76
:101B900003EBE6FF56EC1FF043E90001B16FD950AB
:101BA000010FE96EDACFEAFFEE2A000EEE22000EF8
:101BB000EE2201EBE6FF02EBE6FF03EBE6FF56EC5D
:101BC0001FF043E90001B26FF7EC1EF0F28EF28CC9
:101BD00000019D2B000E9E230001AF51E840E8401C
:101BE0003F0B0001A86F030E0001AF15100DF3CFDE
:101BF000A9F00001B0390F0B0001A9130F0E00016D
:101C0000B015E8240001AA6F0001B145010B0001E5
:101C1000AA130001B151E840E8403F0B1F0B00013F
:101C2000AB6F030E0001B115040DF3CFACF0060E3F
:101C3000B2C0E7FF070B04E0E742E79EE806FCE1DD
:101C4000E7500001AC133F0E0001B2150001AD6F6B
:101C5000090EE66ED10EE66ECEEC13F042E906D028
:101C6000E66AD70EE66ECEEC13F042E9F0D1F29EB2
:101C7000F29C090E016E240E026E036AF4EC1EF053
:101C8000046A070E045C16E2E66801EBE6FF02EB6D
:101C9000E6FF03EBE6FF02EC1FF044E9D950010F29
:101CA000E96EDACFEAFFEE2A000EEE22000EEE22F7
:101CB000042AE7D7F7EC1EF0F28EF28C0001996B44
:101CC0009A6B00018799E66AD20EE66ECEEC13F0AD
:101CD00042E9BDD10001A551040A2BE0070A1DE02D
:101CE000010A0FE0030A01E030D0010EE66E3BEC82
:101CF00014F041E9E66AD30EE66ECEEC13F042E949
:101D00002BD0020EE66E3BEC14F041E9E66AD40EED
:101D1000E66ECEEC13F042E91FD0030EE66E3BEC0C
:101D200014F041E9E66ADB0EE66ECEEC13F042E910
:101D300013D0040EE66E3BEC14F041E9E66AD50ED2
:101D4000E66ECEEC13F042E907D0E66AE00EE66EEE
:101D5000CEEC13F042E900D07AD185EC14F000010A
:101D6000040EEE6F00016799000187A712D00001F1
:101D700087B10FD0880EE66E000EE66E42EC15F0CD
:101D800042E9000903E0040000016789000167A936
:101D9000EBD7000167A914D000016799010EE66E28
:101DA000D9EC09F041E98AC0A5F08BC0A6F08CC03F
:101DB000A7F0030EE66ED60EE66ECEEC13F042E907
:101DC000000187A106D0E66AE20EE66ECEEC13F0C3
:101DD00042E93DD1010EE66ED9EC09F041E937D177
:101DE00036D135D134D10001040EA56F0001A66BA8
:101DF0000001040EA76F0001A86B0001040EA96F7B
:101E00000001AA6B060EE66EE10EE66ECEEC13F054
:101E100042E91DD10001A551070803E30001A551C6
:101E200007E1E66AE00EE66ECEEC13F042E9C4D0BC
:101E30002D0EE66E010EE66EE66AE66A0001A50565
:101E4000E66EE66AE66AE66A5BEC02F0E552E5CF2A
:101E5000F2F2E5CFF1F2E5CFF0F2E7CFEFF21D0EAF
:101E60000201EF27ED0E0201F023010E0201F12322
:101E7000000E0201F223EFC2EBF0F0C2ECF0F1C26F
:101E8000EDF0F4EC1EF0EBC0E6FFECC0E6FFEDC0B9
:101E9000E6FF56EC1FF043E90001A06FFF0E0001C2
:101EA000A05D10E0A0C0EFF20201F06BF16BF26BED
:101EB000640E0201EF5D000EF059000EF159000EA4
:101EC000F25973E2FF0E0001A05D02E10001A06B78
:101ED0000001A029E66EEBC0E6FFECC0E6FFEDC016
:101EE000E6FF02EC1FF044E9030E0001A003F32813
:101EF0000201EF6F0201F06BF16B0201EF51000183
:101F0000EB270201F0510001EC230201F151000125
:101F1000ED23A6C0E6FF0001EBC0EFF2EB2BECC017
:101F2000F0F2000EEC23EDC0F1F2000EED23EFC253
:101F3000E6FFF0C2E6FFF1C2E6FF02EC1FF044E963
:101F4000A7C0E6FF0001EBC0EFF2EB2BECC0F0F214
:101F5000000EEC23EDC0F1F2000EED23EFC2E6FF20
:101F6000F0C2E6FFF1C2E6FF02EC1FF044E9A8C0B0
:101F7000E6FF0001EBC0EFF2EB2BECC0F0F2000E3D
:101F8000EC23EDC0F1F2000EED23EFC2E6FFF0C24C
:101F9000E6FFF1C2E6FF02EC1FF044E9E66AE30E59
:101FA000E66ECEEC13F042E905D0E66AE50EE66E89
:101FB000F5DB42E9F7EC1EF04AD00001A551070815
:101FC00003E30001A55106E1E66AE00EE66EE6DBFA
:101FD00042E93CD02D0EE66E010EE66EE66AE66A38
:101FE0000001A505E66EE66AE66AE66A5BEC02F0C9
:101FF000E552E5CFF2F2E5CFF1F2E5CFF0F2E7CF2F
:10200000EFF21D0E0201EF27ED0E0201F023010E8B
:102010000201F123000E0201F223EFC2EBF0F0C245
:10202000ECF0F1C2EDF0F4EC1EF0E66AEBC0E6FF76
:10203000ECC0E6FFEDC0E6FF02EC1FF044E9F7EC70
:102040001EF0E66AE40EE66EA9DB42E900D0400E1F
:10205000E66E600EE66E020EE66EE66A010EE66E53
:10206000BBEC19F045E9F3CFEBF2F4CFECF249E920
:10207000E7CFD9FF12001200120012001200ACEFDD
:1020800002F012001E0EE66E010EE66E9DEC19F0D7
:1020900042E9400EE66E600EE66E020EE66EE66AFD
:1020A000010EE66EBBEC19F045E9F3CFEBF2F4CF8D
:1020B000ECF2120002014F0520E1020150051DE182
:1020C000A094DADF64920201506B0201100EE06FFF
:1020D0000E0EE16FE007000EE15BE051E111FAE165
:1020E0006484080EE06F070EE16FE007000EE15B0D
:1020F000E051E111FAE16494A084120031EC17F090
:1021000087E904EBF3FF05EBF4FF050EF31801E19B
:10211000F45036E0E868F31802E17F0EF4182FE07F
:10212000030EF31801E1F45028E0020EF31801E168
:10213000F45021E0010EF31801E1F4501AE0740E9E
:10214000F31801E1F45013E0750EF31801E1F450B7
:102150000CE0730EF31801E1F45005E0720EF31871
:102160000FE1F4500DD089DF0BD085DF09D084DF7B
:1021700007D088DF05D085DF03D081DF01D07EDF87
:10218000010E0BEF18F031EC17F084E9020100EBBF
:10219000F2F2F16B01EBEFF2EF51F111006EF2513F
:1021A000016E0250001A000E011AFF0E0014E838EA
:1021B0000F0B001A000E011A00EBF2F2F16B16EC95
:1021C00018F006E00201D890EF37F037E804FBE1A1
:1021D0000201EF51001AF051011AFF0E0014F16FC5
:1021E000F26B16EC18F006E00201D890EF37F037EA
:1021F000E804FBE10201D890EF37F037EF51001A05
:10220000F051011A00EBF3FF01EBF4FF0BEF18F0B4
:1022100085EC18F049E80050030A11E0010A08E0D3
:10222000030A14E1056A040E066E076A086A0ED0F6
:10223000056A040E066E030E076E0C0E06D0056AC4
:10224000040E066E060E076E180E086EB2EC17F03E
:10225000096A0A6A0550095C06500A582CE288ECA3
:1022600018F009EBE6FF0AEBE6FF27EC02F00201AB
:10227000FE0EE3500724EF6F41E9E5500820F06FB0
:10228000F16BEF51026EF051036EF151046E39ECB7
:1022900018F00DE171EC17F00AE171EC17F007E1AD
:1022A0006CEC17F009EBF3FF0AEBF4FF0AD0092AF4
:1022B000000E0A22CFD76CEC17F005EBF3FF06EB0C
:1022C000F4FF4AE9E7CFD9FF120071EC18F045E8B6
:1022D000B2EC17F0066A076A00019351065C94514C
:1022E00007581AE229EC17F0F350C2EC17F0020E6F
:1022F00018EC17F00DE18CEC18F00AE190EC18F0F6
:1023000007E16CEC17F00001878929EC17F045D044
:10231000062A000E0722E0D7066A076A00019551D7
:10232000065C965107581AE229EC17F0030EEF27C6
:102330000C0E3FEC18F00EE18CEC18F00BE190EC79
:1023400018F008E16CEC17F029EC17F0030EEF27FA
:102350000C0E21D0062A000E0722E0D7066A076A73
:1023600000019751065C9851075822E229EC17F0BA
:10237000060EEF27180E3FEC18F016E18CEC18F063
:1023800013E190EC18F010E16CEC17F029EC17F069
:10239000060EEF27180EA0EC18F0EFC2F9F2F0C20B
:1023A000FAF2F1C2FBF20AD0062A000E0722D8D7B1
:1023B0006CEC17F00201F969FA69FB691DEF18F07E
:1023C00031EC17F084E947E80050030A1AE0010AEB
:1023D0000CE0030A22E1046A040E056E066A076A2D
:1023E00000019351086E945117D0046A040E056ED3
:1023F000030E066E0C0E076E00019551086E965185
:102400000BD0046A040E056E060E066E180E076EDB
:1024100000019751086E9851096E0450085C0550F0
:10242000095835E2B2EC17F0030E0A6E0A500BE0C1
:102430000A280124E96E000E0220EA6EEFCFE6FFC3
:1024400036EC17F0F3D7082A000E0922030E0A6EA5
:102450000A5004E0E66836EC17F0FAD76CEC17F097
:102460000050030A0EE0010A07E0030A0EE108EB40
:1024700093F009EB94F009D008EB95F009EB96F096
:1024800004D008EB97F009EB98F0010E01D0FF0E95
:1024900021EF18F031EC17F085E945E80050030A08
:1024A00015E0010A0AE0030A1AE100019351066EE1
:1024B0009451076E086A096A12D000019551066EA0
:1024C0009651076E030E086E0C0E08D0000197514E
:1024D000066E9851076E060E086E180E096EB2EC65
:1024E00017F088EC18F002010604F26F000E07588E
:1024F000F36FF2C2E6FFE66E27EC02F00201FE0E79
:10250000E3500824EF6F41E9E5500920F06FF16BCB
:102510000150EF1905E10250F01902E10350F119E1
:1025200033E0030E056E05502FE088EC18F006EB43
:10253000E6FF07EBE6FFB6EC17F0040EF15F000EC6
:10254000F25BC8EC17F09CEC18F0E66E05EBF6F2C7
:102550000201F76BF86BFFEC17F0EE50F625F36F06
:10256000EE50F721F46FEE50F821F56FF307000EEF
:10257000F45BF55BF3C2E6FFF4C2E6FFF5C2E6FFEB
:1025800074EC18F00506CFD7056A030E055C14E25B
:10259000E66888EC18F002010604F36F000E075895
:1025A000F46FF3C2E6FFE66EB6EC17F0C8EC17F076
:1025B00074EC18F0052AE9D76CEC17F00606000E4B
:1025C000075A0050030A0EE0010A07E0030A0EE171
:1025D00006EB93F007EB94F009D006EB95F007EBD0
:1025E00096F004D006EB97F007EB98F01DEF18F08B
:1025F00031EC17F081E945E8B2EC17F0046A056A9E
:1026000004EBEFF205EBF0F25FEC18F020E204EBE4
:10261000EFF205EBF0F276EC17F0016EF051026E7E
:10262000F151036E57EC17F0FF080DE157EC18F06D
:102630000AE157EC18F007E16CEC17F004EBF3FF3C
:1026400005EBF4FF0AD0042A000E0522D9D76CEC62
:1026500017F0800EF36E3E0EF46E1DEF18F071EC65
:1026600018F047E8F29EF29C99C0EFF29AC0F0F29F
:102670005FEC18F001E38BD064EC17F000016351BC
:1026800003E0635107080BE264EC17F000016351AB
:1026900003E06351070803E2070E636F7DD06451C6
:1026A00003E064511F080BE264EC17F00001645171
:1026B00003E064511F0803E2070E646F6DD065519B
:1026C00003E065510C080BE264EC17F00001655162
:1026D00003E065510C0803E2070E656F5DD06051A1
:1026E000066E040E0602F350066E61390F0B0612D9
:1026F0006151076E0738F00B076E62417F0B0712BE
:102700006251086E0832086A08326451040DF350B1
:1027100008126551E840E8403F0B08126551096E08
:102720000940E842C00B096E6651091299C0EFF2E8
:102730009AC0F0F20201DADBC2EC17F0F4EC1EF002
:10274000020EA5EC18F0030EA5EC18F0040EA5EC93
:1027500018F006EBE6FF79DB07EBE6FF76DB08EB2C
:10276000E6FF73DB09EBE6FF70DBE6686EDBE6682D
:102770006CDBE66850EC18F074EC18F0F7EC1EF027
:102780000001992B000E9A23F28EF28C05D0030ED5
:10279000E66ED9EC09F041E921EF18F071EC18F080
:1027A00041E80001E76BE86B0201ED51EE1102E137
:1027B000000E08D0EDC2E9FFEEC2EAFFEF50800B39
:1027C00001E0010E000956E102010F0EA06F01EBBE
:1027D000A1F2E7C0E6FFE8C0E6FFA1C2E6FFB2DB78
:1027E00000EBA2F2F3CFE6FFF4CFE6FFA2C2E6FFD2
:1027F000A9DB036A0050035C18E20350EA6AA50FE4
:10280000E96E000EEA22EF50E66E030E03247EDB33
:10281000E7C0E6FFE8C0E6FF030E032467EC18F00C
:10282000EFCFE6FF8FDB032AE5D70201E8C0EFF226
:10283000F06BEF51E66E030E002468DB0001E751F8
:10284000E66E040E002462DB050E002467EC18F02F
:10285000040EEF6E400EE66EA00EE66E020EE66E01
:10286000010EE66EE66EBBEC19F045E9F3CFEDF232
:10287000F4CFEEF2AAD385EC18F042E873DB000443
:1028800003E0040E005C12E1026A036A010E026EAC
:10289000036A026A036A5EDB030EEF5D000E3FDB34
:1028A00002E20ADBF8D70001936B946B020E005C26
:1028B00003E0040E005C0FE1030E026E0C0E036ECB
:1028C00049DB060EEF5D0C0E2ADB02E2F5DAF8D7E3
:1028D0000001956B966B030E005C03E0040E005C38
:1028E0000FE1060E026E180E036E34DB090EEF5D6B
:1028F000180E15DB02E2E0DAF8D70001976B986B4F
:10290000EBDA43E9E7CFD9FF120000018791878313
:10291000926B1200A6DA81E944E8D6DA2D0EE66E53
:10292000010EE66EE66AE66A00016305E66EE66A97
:10293000E66AE66A5BEC02F0E552E5CFF2F2E5CF3B
:10294000F1F2E5CFF0F2E7CFEFF21D0E0201EF2733
:10295000ED0EF023010EF123000EF223EF51016E74
:10296000F051026EF151036EF4EC1EF0A0DA00019A
:10297000A06FFF0EA05D4AE0046AA051045C46E22D
:1029800001EBEFF202EBF0F203EBF1F20201EF2BBD
:10299000000EF023F123030E0402F3CFF2F2F36BE7
:1029A000F46BEF51F3240001EB6F0201F051F321BE
:1029B0000001EC6F0201F151F4210001ED6FEBC059
:1029C000E6FFECC0E6FFE66EB7DB0001625D1CE1EE
:1029D000EB2B000EEC23ED2301DB0001615D13E125
:1029E000A151615D11E0EB2B000EEC23ED2361C0E2
:1029F000A1F0F4DA00019F6F0201E96B0001878BFF
:102A0000F7EC1EF003D0A169042AB7D7F7EC1EF04B
:102A100045E9E7CFD9FF12009498949A94828B8A63
:102A20008B98F18AF09CF090F096410ED56ED76AA3
:102A3000D66AF194F294F29A010EB16EB190A2921C
:102A4000A192A09212008B8A8B88E00EBB6E0C0EB6
:102A5000BC6ECA6A9D92BD6E030EBE6E050ECB6E35
:102A6000CA84B36AB26AB180A192A08212008B9824
:102A7000FEEC1FF08B8ABB6ABC6AA192A092B19057
:102A80008B8A12002EDB41E8DEDFF00EE66E27D8DF
:102A900041E9EDDF036A020E035C1BE22FDA01E17C
:102AA000F05111E0EBD80009F9E0CFDAFAD842E9A9
:102AB0000009F4E0CADA64D942E9AA0EE66E30D819
:102AC00041E9010E0BD04ED80201E76BE66B032AF9
:102AD000E2D7AA0EE66E24D841E9000E76D215DBC5
:102AE000C10ED56ED76AD66AF18A000167836791F5
:102AF0000201E66BE76BE26BE36BE46BE56BF09076
:102B0000F0860050E25D03E2020EE35DFAE3F0902E
:102B1000F096E66BE76BD56AD76AD66AE2517BD24C
:102B2000F4DA43E8690E036E000E046E1E0E026EA8
:102B3000023414E20250000811E202040201EF6FB5
:102B4000F06B800B01E0F069EF510324E96EF05166
:102B50000420EA6E00EBEFFF0206EAD744E9E7CF74
:102B6000D9FF12007ED981E941E81E0E016E0150A5
:102B700009E00104CED9EF1CE66E0104CAD9ADDA32
:102B80000106F5D722D2BAD901E1F05114E0B0DA4A
:102B9000EF50E7C2E7FFE75204E0E8427F0BE706A9
:102BA000FCE1010B0001686F0201E72B080EE75DF5
:102BB00002E1E62BE76B00016851120052D984E96B
:102BC00001EBE9FF02EBEAFFEF90EF42005005E076
:102BD00001EBE9FF02EBEAFFEF8E1DD242D985E956
:102BE00042E881EB06F0063433E20650010830E299
:102BF000020E065C0201EF6FF06B800B01E0F069E2
:102C0000D6D9EF50010B056E25DA01E0F269D6D96D
:102C1000EF407F0BFAD901E0F069C9D95EDA0550BF
:102C20000AE018DA01E0F269C9D9EF508009EDD95C
:102C30000BE0F06909D00EDA01E0F269BFD9EF507C
:102C40007F0BE3D901E0F069B2D947DA0606CBD7AA
:102C5000C0D9EF407F0BE66EBCD93FDA005004E0EC
:102C6000B8D9EF50800903D0B4D9EF507F0BE66E8E
:102C7000B0D933DA43E9E7CFD9FF1200F2D881E9BE
:102C800041E8016A3BD901E1F05109E07CDF01082C
:102C9000F8E1012A090E015CF5E1010E01D0000EF8
:102CA00094D11FDA47E8036A010E046E056A066ACA
:102CB000076A086A096A046E043402E204503208A2
:102CC00032E361DF036E1AD902E1F05155E08ED98B
:102CD000000905E10350055C4FE1056A22D003EBD2
:102CE000E6FF050EE66EB1D979DF44E90550031819
:102CF000056E7CD9040A12E0070A0CE0010A06E01E
:102D0000030A0FE106500318066E0BD00750031894
:102D1000076E07D008500318086E03D00950031837
:102D2000096E042AC9D72FDF065C26E12CDF075C79
:102D300023E129DF085C20E126DF095C1DE123DFB8
:102D400000091AE1046AD890045002E6050E045CFA
:102D500010E204EBEFF20201F06BEFBFF069EF510C
:102D60000024E96EF0510120EA6EEF5002E1042ADE
:102D7000EAD7050E045C02E1000E01D0010E61D11C
:102D8000B0D948E8066A076A086A096A0A6A056AE1
:102D9000050E055C32E2070E046E036A080E035C42
:102DA0002AE203EBEFF205505ED9EF50EFC2E7FFE6
:102DB000E75204E0E8427F0BE706FCE1010B0CE080
:102DC000010E04EBF3FF045204E0D890E836F3065A
:102DD000FCE1ABD8EF120CD0010E04EBF3FF045270
:102DE00004E0D890E836F306FCE1E81C9ED8EF1624
:102DF0000406032AD3D7052ACBD7036A050E035C42
:102E000013E20201D950060FEF6F0350EA6AEF2573
:102E1000E96EDA50EA22EF50E66E040ED8800354D1
:102E200022D95BD9032AEAD749E9E7CFD9FF1200B3
:102E30001AD9EFCFEFF2EFC2E6FF32D97DD9E552D2
:102E4000E7CFEFF20201EF5D12002AD94DD92FEF43
:102E500018F006EBEFF207EBF0F20201030E45EF7C
:102E600018F0D9CFE6FFE1CFD9FF120051D908EB16
:102E7000E6FF09EBE6FF27EC02F00201FE0EE3504D
:102E80000624F16F41E9E5500720F26F0A50F12561
:102E9000EF6F000EF221F06FEF07000EF05BEFC254
:102EA000E6FFF0C2E6FFE66A1FD90A06120001EB50
:102EB000E6FF4ED99CEF18F0E6684AD9E66A14D9C5
:102EC000022A000E03221200600EE66E000EE66E6D
:102ED00017EC01F042E91200F7EC1EF0F28EF28CD2
:102EE0001200D950020F20D939EF18F0070ECDD8B3
:102EF000090EEF27240E24D9EF5112000201E651EA
:102F00000201EF6FF06B1E0EEF191200E0D86DEFAB
:102F100018F0EA6A690FE96E000EEA221200F05911
:102F2000000EF159000EF25912000201F16FD95052
:102F3000060FEF6F0550EA6AEF25E96EDA50EA22D4
:102F4000F1511200C3EC10F043E9F3CFE7F0F4CFF6
:102F5000E8F0120002EBEFF203EBF0F20201F16B8A
:102F6000F26B1200F29EF29CF4EF1EF027EC02F0DE
:102F70000201FE0EE3500824F16F41E9E5500920FB
:102F8000F26F1200036EF051046EF151056E1200E3
:102F90000550F125EF6F000EF221F06FEFC2E6FF52
:102FA000E66EE66A1200A8D88B968A9A1200EF5154
:102FB0000224E96EF0510320EA6E1200F15102245E
:102FC000E96EF2510320EA6E120042E9E7CFD9FF21
:102FD000120002EBE9FF03EBEAFF1200EBC0E6FF91
:102FE000ECC0E6FFEDC0E6FF9CEF18F0050EE66EC4
:102FF00004EBE6FF03EC02F041E9E7501200D95080
:10300000010FE96EDACFEAFF1200E66E0604EF6FF9
:10301000F06B800B120041E9E7CFD9FF1200E5CF3A
:10302000EAFFE5CFE9FFE5CFDAFF1200040EF1C2B7
:10303000EFF2F2C2F0F2000A120046E9E7CFD9FF40
:10304000120048E9E7CFD9FF120000EBE6FF01EBE1
:10305000E6FF12000604F16FF26B800B1200D950EC
:10306000030F94EF18F00024E96E000E0120EA6EC1
:1030700012006ED804EBE6FF5FD8FF08120060D89C
:10308000EF5180DF020E18EF17F0F003F3CFF0F2EC
:10309000EF03F3CFEFF2F450F027F16BF26B120075
:1030A00003EBE6FF04EBE6FF05EBE6FF1200A7DF0C
:1030B000EE2A000EEE22EE22FADEFF0812000201D6
:1030C000F16BF26B800EEF5D3E0E8FEF17F0EA6A48
:1030D000A00FE96E020EEA221200E552E750EF6EF1
:1030E0001200BFDE83E9120002EC1FF044E9120077
:1030F0000201E65189EF17F0E66E21EC04F041E998
:103100001200EFCFE6FF25EF17F0ABDE82E91200E9
:10311000030EE66EE66A1200A2DF030E18EF17F048
:103120009EDF040E18EF17F0E96EDACFEAFFEE2A01
:10313000000EEE22EE22120056EC1FF043E91200C0
:10314000F023000EF123F22312008DDF81EF18F03F
:0A31500002EBE6FF03EBE6FF1200BE
:06315A00A4EC1EF0A0949D
:103160000F015F6B626A536B37EC1EF061EC1EF06F
:10317000016A080EF36EF46AF350015C000EF45419
:1031800010E20150040DF3CFE9FFF4CFEAFF000E87
:10319000E926020EEA22EE6AEE6AEE6AEE6A012A79
:1031A000E8D7648C0F015C6B6498649C62A607D0BE
:1031B00062960201436B486B496B4A6BF7D7020179
:1031C000010E5A6F5B6F5C6B5D6B506B016A020E98
:1031D000015C0FE24EEC1EF0EA22EE6AED6AEA6A4A
:1031E00001341BEC1EF0EA22EE6AED6A04EC1EF0DC
:1031F000EED70201080E3B6F020E3C6F0F01160E58
:10320000536F0201200E026F020E036F080E016F52
:10321000840E006F0201316B306B2FEF1EF0A4ECB7
:103220001EF00201300507E164BA05D0626A6080D1
:103230006088020E306F6250040B05E06050040B92
:1032400002E062941ADB64B246D06250010B09E0DE
:103250006050010B06E081DFA0840201040E306F94
:1032600062906250100B05E06050100B02E0FBDA38
:10327000629862AC0FD060AC05D071EC1EF0730E9A
:10328000EEEC1DF0629C0201585101E058075851C4
:1032900001E102D96250200B04E06050200B01E0F4
:1032A000D1DA6250020B0DE06050020B0AE071ECC3
:1032B0001EF0E6687F0EE66E7EEC10F046E90F0128
:1032C0005F6B040E0201E76E301902E7E73402D0AB
:1032D000E750305D02E2A1942ED060A62BD0016AA7
:1032E000040E015C27E262A625D063CF51F20201F1
:1032F0005151780BE842E842E842526F629651B56C
:1033000004D05251D3EC1EF003D05251D8EC1EF031
:10331000EA22EF70525102E1BCDA0AD0000EE66EEA
:10332000E66A510EE66E020EE66E720EEEEC1DF0CF
:10333000012AD6D7A1942FEF1EF0DDEC1EF000A4D9
:1033400005D0E66A01EBE6FFECD842E900A206D020
:10335000010EE66E01EBE6FFE4D842E90150036E90
:10336000046A530E03260F0E0422C3EC1EF000EB7A
:10337000EFFF33EF1EF0E1EC1DF086E942E8035069
:1033800003E052EC1EF004D0EA6A04341BEC1EF099
:10339000EA22EE50066EED50076E0650071004E16B
:1033A000000EF36EF46A29D05CEC1EF0ECEC1EF01B
:1033B00001EBEEFF02EBEDFF5CEC1EF0EE5200EBDA
:1033C000EFFF0201400EEF6F5CEC1EF0EF51EF16C5
:1033D000880EEF6F5CEC1EF0EF51EF12035003E02C
:1033E00052EC1EF004D0EA6A04341BEC1EF0EA2210
:1033F000EF7406EBF3FF07EBF4FF33EF1EF0DDECA9
:103400001EF0015003E1B2EC1EF00CD08DEC1EF06A
:103410000201F3240EEC1EF08DEC1EF0F324010FDC
:103420000EEC1EF033EF1EF0CCDB82E964A816D060
:10343000BADB400EEE16EE6AEE6AEE6AB4DBEE7CA4
:10344000EA6A00349DEC1EF0EA22EF740201400E9D
:10345000EF6FA9DBEF51EF16A6DBEF7C41E9E7CF79
:10346000D9FF1200646A6198606AA0940201306B0F
:103470001200020130510FE1646A606A61EC1EF0D3
:10348000D08EA284A084F28E64B602D06486FCD76B
:103490000201010E306F120002015A5122E1010EA9
:1034A0005A6F5B511EE1010E5B6F020E405D07E13A
:1034B00083DBEE52EF6A80DBC80EEF6E1200400530
:1034C00010E1536B91DBEE52080EEF6E8DDB97EC43
:1034D0001EF08ADB840EEF6E010E536F60DB800EF0
:1034E000EF6E120002015C6B5D6B020E405D06E147
:1034F000E6EC1EF083DB92EC1EF010D0445102018A
:10350000265D020145510201275904E226C244F218
:1035100027C245F25BD850DB71DB4EDBC80EEF6E85
:103520001200DDEC1EF0000E036E020E046E8DEC38
:103530001EF0F324040DF3500326F4500422C3ECD0
:103540001EF0EF9E005004E1EA6A013474DB01D002
:10355000A5DBEA2203EBEEFF04EBEDFFC3EC1EF06C
:10356000EF9C040E0324E96E000E0420EA6EEF8C3B
:103570007AD36498020143BF0DD048AF09D0020E40
:10358000406F5D5101E1AEDF02015B6B5A6B1200CF
:10359000B2EF1EF0020120AF0DD00201010E406F0C
:1035A0005C5101E19FDF02015B6B5A6B59510DE1E8
:1035B0004CEF1AF00201020E406FF1DA840EEF6E4A
:1035C0005B6B5A6B595101E167DF1200BDDB080EDE
:1035D000016E0201445D000E45590AE24451016E3C
:1035E0003F5102E1010E03D03F0502E1020E3F6FA1
:1035F0000150F36EF46AF350445FF450455BDCDA3B
:10360000EE5201EBEFFF280E4D6F020E4E6F43B1ED
:103610000DD0015017E041C2F6FF42C2F7FF412B27
:10362000000E42230800F5500DDBF3D701500AE0ED
:1036300041C2E9FF42C2EAFF412B000E4223EF5094
:1036400001DBF4D70CD3BDDA81E942E8CDDAEE52E2
:10365000EF50016E01500201495D000E4A5902E22D
:103660004951016E0150F36EF46AF350495FF45012
:103670004A5B026A0150025C14E20250EA6A280FB7
:10368000E96E020EEA22EF50E66E46C2E9FF47C23B
:10369000EAFF462B000E4723E552E750EF6E022A61
:1036A000E9D749510008000E4A550DE28FDBA6DA32
:1036B0009BDAEF50400B03E135DBC80E02D032DB62
:1036C000880EEF6E0FD06BDA840EEF6E4B514C11FB
:1036D00004E04CC2FAFF4B5114000201489F5951BB
:1036E00001E1DADEC0D230DB0201438FC0DA200E06
:1036F000E66EE66AE66A000EE66E020E62DB648C37
:10370000016A020E015C02E27FDAFBD7010EE66E6F
:10371000E66AE66A320EE66E020E53DB649C020134
:10372000080E3B6F020E3C6F000E336F020E346FBB
:1037300033C235F2366F22C231F2315102E1100E3E
:103740000BD0010EE66EE66A310EE66E020EE66EF4
:10375000010E44DA0201200E306F81D2800E020188
:10376000205D38E10201C00E436F02012351030ABC
:103770001AE0010A09E0030A2BE102011A0E416F67
:10378000060E426F120E1ED0BADAC30EF626060ED1
:10379000A0DA020E0201ACDAF5CF44F2030EA8DA89
:1037A000F5CF45F21200040E225D0FE2A8DAC50E35
:1037B000F626060E8EDA41C2F6FF42C2F7FF080077
:1037C000F5500201446F456B12000201436B120079
:1037D0000201436B1200F5D981E942E80201286B2E
:1037E000296B20511F0B020A11E0030A0CE0010AA9
:1037F0001EE10201438F0201288102014F0517E1FA
:103800000201288314D00201438F11D00201438F9B
:10381000020124BF02D0ADDA01D0B0DA47DAB8DA5B
:1038200006E0E7D9EF50040B02E0010E286F020119
:1038300043AF07D0280E416F020E426F4381020E44
:10384000446F11D20F0153A10CD0CED9EF50800894
:1038500007E1B2D9EF50840803E1C6D98C0EEF6EB0
:103860005391629A12006084629864820201010E90
:10387000506F06DA750EEEEF1DF00201506B00DAA4
:10388000740EACD96492609462A402D06294FCD7A6
:1038900012005ADA02012D0E586FFD0E51153AE151
:1038A0007E0E5115E8407F0B040DF3CF33F2F4CFB9
:1038B00034F2000E3327020E342333C235F234C201
:1038C00036F2357591D9EF503C0BE842E8420D08CD
:1038D0001FE1016A080E015C17E286D97DDAEE501D
:1038E000EFCFEAFFE96EEF50E66E0150EA6A200F73
:1038F000E96E020EEA22E552E750EF6E75D96CDAF6
:10390000EE2AEF22012AE6D76FD911DA09D807D0BB
:1039100022D805D0FD0E5115040801E12BD89FD106
:1039200002013F6B596B5C6B5D6B536B406B44D911
:10393000EF9E3B7541D9EF9E3B75F4D9EF9E436BEB
:10394000446B456B486B496B4A6B4DD899D9030E54
:1039500045D9B9EF1AF0020E0201405D02E123EFF2
:103960001BF0406B535104E11AD98C0EEF6E12001C
:10397000536B1200E9D920D9EF50400B01E0010E42
:10398000016E02013B75080E305D0BE122C25CFF47
:103990000F015C5103E00201100E02D00201040E7F
:1039A000306F400513E108D929D910DE020E02015B
:1039B0003F5D03E101D9840E07D0015003E1FCD83B
:1039C000C80E02D0F9D8880EEF6E0CD048AF09D0DF
:1039D0004B514C1104E04CC2FAFF4B511400020150
:1039E000489F406B3CD102012051600BE842E84205
:1039F000E842E842E842000901E0120021510C0AC5
:103A000044E00B0A3EE00C0A30E0010A22E00B0A17
:103A10001EE0020A1CE0030A18E0080A10E0010A8E
:103A20000CE00F0A08E0030A01E012000201438FD4
:103A3000080E306F1200AEEF1BF073EF1BF00201A7
:103A4000310E416F020E426F0BD0EBEF1BF046EFD1
:103A50001DF024510201426B320F416F020E4223CE
:103A60004381010E446F438F12000201438F020114
:103A70002451EA6A320FE96E020EEA2222C2EFFFF7
:103A80001200FED8020EEEEF1DF012009AD881E966
:103A900045E80201220510E120511F0B00090CE14D
:103AA0000201438F030E0201215D04E10201010EB8
:103AB0004F6F02D002014F6B020122516CE1205185
:103AC0001F0B020868E124510F0B000964E0245128
:103AD0000F0B010860E3200E0201305D5CE1438FB3
:103AE000020124BF04D045D9E1D8D0D803D046D9AB
:103AF000DDD8D0D8EA22EF50036E08D9010B02E1DD
:103B0000019401D0018424BF02D033D901D036D929
:103B1000EA2201EBEEFF02EBEDFF030E215D10E167
:103B200037D907E024BF02D0B1D801D0B3D8EA22F8
:103B3000EF820201840EEF6F5CD8EF51EF122BD0B1
:103B4000017426D906E055D8EF9E53D8EF8C00D9E2
:103B500002D04FD8EF8C0174D9D8020B02E118D9EA
:103B60000BE0020124BF02D091D801D093D8EA2201
:103B7000EF9212D9EDD801D00FD9020124510F0BC9
:103B8000046E056A530E04260F0E052204EBE9FFAE
:103B900005EBEAFFEF9046E9E7CFD9FF120016D90F
:103BA000C6D892EF1EF0EA6A0034C7D8EA22EE5077
:103BB000EFCFEAFFE96E12003BC2E9FF3CC2EAFF29
:103BC0001200D9CFE6FFE1CFD9FF120024510F0B2D
:103BD000E96EEA6AD890E936EA361200E66EE66ADD
:103BE0007EEC10F046E9120033C2E9FF34C2EAFF6E
:103BF000120001EBE9FF02EBEAFF1200EDD8280EFC
:103C0000EE6E020EED6E12000150D2D8EA22EF6A7B
:103C10000150C9D8EA22EF6A012A1200040D000EF1
:103C2000F324036E020EF420046E840EEF6FABD803
:103C3000EF51EF121200FE0BE96EEA36370EE9265D
:103C4000020E1200E66E4DC2E9FF4EC2EAFF4D2B96
:103C5000000E4E23E552E750EF6E0106120042E9D6
:103C6000E7CFD9FF120043E9E7CFD9FF1200010ED9
:103C7000E66EE66AE66A540EE66E0F0EE1EF1EF09F
:103C8000000EE66EE66AE66EE66A120024510F0B3D
:103C9000D3EF1EF024510F0BD8EF1EF0EA6A013467
:103CA0009DEF1EF0EA6A04349DEF1EF0EA22EE500A
:103CB000016EED50026E120006EBE9FF07EBEAFF22
:103CC0001200160E616E0F019F0E5B6F7B0E606E11
:103CD0001200F7220900F5CF41F20A00F5CF42F2B7
:103CE0001200010EE66EE66A000EE66EE66A12004B
:103CF000F76A4125F66E4251F72208001200225160
:103D0000F66EF76AD890F636F7361200D950030FE0
:103D1000E96EDACFEAFFEF501200040E0102005004
:103D2000E824120035C2E9FF36C2EAFF120054D877
:103D3000200EEE6E020EED6E1200FE0BE96EEA36FC
:103D40003B0EE926020E12003CDF81E941E8120039
:103D5000020EE66EE66A01EBE6FF02EBE6FF050EF9
:103D6000EEEF1DF01CDF8C0EEF6E26DF840EEF6E83
:103D700012002CDF370EE926020E120027DF3B0E61
:103D8000E926020E120003EBE9FF04EBEAFF120042
:103D900030DFEF50800B120002013B0EEF6F29DF86
:103DA000EF51EF161200EA6A560FE96E020E12008A
:103DB000EA6A540FE96E020E120003DF83E942E85B
:103DC0001200E66E3CEC04F045E91200ABDFEE5267
:103DD000080EEF6E92EF1EF0020EE926000EEA22A8
:023DE0001200CF
:0E3DE200D6D8070EBDD0D3D81D0EBAD0C69AC3
:103DF000C66A9D969E968A9E030EE66E56EC04F069
:103E000041E91200D9CFE6FFE1CFD9FF85E941E8CA
:103E1000056A0598058A059C058ED6D8100E99D896
:103E200003E00201AFD8FEE1C7D8E8B00586BBD8F1
:103E3000C5A003D0FDD7C5B0FED7A0D8C5BCFED75E
:103E4000C3D8080E86D803E002019CD8FEE17AD8D8
:103E5000C5BCFED701EBEFF275D8C5BCFED700EBB1
:103E6000E6FFC0D8C5BCFED7C584C5A403D0FDD726
:103E7000C5B4FED7F7EC1FF0C580C5B0FED7F7EC90
:103E80001FF07CD8C5AC04D0C584C5B4FED7F2D72A
:103E9000C584C5A403D0FDD7C5B4FED7F7EC1FF089
:103EA000F28EF28C42E9E7CFD9FF1200D9CFE6FFBC
:103EB000E1CFD9FF84E942E8046A056A0598058ADA
:103EC000059C058E88D8100E44D803E002015AD80C
:103ED000FEE172D8E8B0058666D8C5A003D0FDD74C
:103EE000C5B0FED74BD8C5BCFED775D8080E31D8A3
:103EF00003E0020147D8FEE125D8C5BCFED700EBA0
:103F0000EFF220D8C5BCFED7C582C5B2FED7F7EC0C
:103F10001FF00528E66E66D8C5BCFED793EC04F00A
:103F2000046EF7EC1FF0C584C5A403D0FDD7C5B45B
:103F3000FED7F7EC1FF0F28EF28C045043E9E7CF86
:103F4000D9FF12000201F06BF16BEFC2E6FFF2EF56
:103F50001FF01F0BF2C2EFF2F3C2F0F2F4C2F1F263
:103F60001200C86E938C9388C68A8A8E0A0EE66EFB
:103F700056EC04F041E9F28EF28C120005EBE6FFFC
:103F8000F2EF1FF0D890F133F033EF33E806120070
:103F9000F29EF29C3F0EC716C66AC56A800EC76EB7
:103FA000080EC66E1200059205940590F29EF29CD2
:103FB000F7EC1FF0C5801200010E0201EF17F06B45
:103FC000F16BEF510596120001EBF2F202EBF3F206
:103FD00003EBF4F2120000EBF2F201EBF3F202EB6E
:0E3FE000F4F21200B6EC03F041E9F7EF1FF027
:023FEE001F0EA4
:0C3FF000C514FDE1C750040BFAE11200FB
:043FFC00BD6A120088
:020000040030CA
:0100000018E7
:0100010002FC
:0100020019E4
:0100030011EB
:01000500807A
:01000600C138
:0100080000F7
:010009008076
:01000A0003F2
:01000B00C034
:01000C0003F0
:01000D0040B2
:00000001FF
