:020000040000FA
:0600000005EF1DF01200E7
:020006001200E6
:0600080037EF08F01200C2
:02000E000000F0
:050010000000000000EB
:0600180001EF08F01200E8
:02001E000200DE
:10002000543A000044020000060000000E000000E8
:08003000F802000007000000C7
:0800380013EC06F0A0940F0187
:100040005F6B626A536BA6EC05F0D0EC05F0016AB9
:10005000080EF36EF46AF350015C000EF45410E2E3
:100060000150040DF3CFE9FFF4CFEAFF000EE926BB
:10007000020EEA22EE6AEE6AEE6AEE6A012AE8D71A
:10008000648C0F015C6B6498649C62A607D06296D6
:100090000001E36BE86BE96BEA6BF7D70001010E37
:1000A000FA6FFB6FFC6BFD6BF06B016A020E015C7B
:1000B0000FE2BDEC05F0EA22EE6AED6AEA6A01346D
:1000C0008AEC05F0EA22EE6AED6A73EC05F0EED7F1
:1000D0000001080EDB6F020EDC6F0F01160E536F6E
:1000E0000201200E026F020E036F080E016F840ED4
:1000F000006F0001D16BD06B9EEF05F013EC06F0A2
:100100000001D00507E164BA05D0626A60806088AA
:10011000020ED06F6250040B05E06050040B02E049
:1001200062941ADB64B246D06250010B09E0605061
:10013000010B06E081DFA0840001040ED06F629005
:100140006250100B05E06050100B02E0FBDA629881
:1001500062AC0FD060AC05D0E0EC05F0730E5DEC46
:1001600005F0629C0001F85101E0F807F85101E147
:1001700002D96250200B04E06050200B01E0D1DA7C
:100180006250020B0DE06050020B0AE0E0EC05F05B
:10019000E6687F0EE66ECCEC0FF046E90F015F6B70
:1001A000040E0001E76ED01902E7E73402D0E750F1
:1001B000D05D02E2A1942ED060A62BD0016A040E7D
:1001C000015C27E262A625D063CFF1F00001F15176
:1001D000780BE842E842E842F26F6296F1B504D04B
:1001E000F25142EC06F003D0F25147EC06F0EA225D
:1001F000EF70F25102E1BCDA0AD0000EE66EE66A58
:10020000F10EE66E000EE66E720E5DEC05F0012A50
:10021000D6D7A1949EEF05F04CEC06F000A405D0D3
:10022000E66A01EBE6FFECD842E900A206D0010E37
:10023000E66E01EBE6FFE4D842E90150036E046A82
:10024000530E03260F0E042232EC06F000EBEFFFF4
:10025000A2EF05F050EC05F086E942E8035003E018
:10026000C1EC05F004D0EA6A04348AEC05F0EA2215
:10027000EE50066EED50076E0650071004E1000EBA
:10028000F36EF46A29D0CBEC05F05BEC06F001EBE1
:10029000EEFF02EBEDFFCBEC05F0EE5200EBEFFFD3
:1002A0000201400E3A6FCBEC05F03A51EF16880E82
:1002B0003A6FCBEC05F03A51EF12035003E0C1EC7A
:1002C00005F004D0EA6A04348AEC05F0EA22EF74FF
:1002D00006EBF3FF07EBF4FFA2EF05F04CEC06F0A2
:1002E000015003E121EC06F00CD0FCEC05F002011A
:1002F000F3247DEC05F0FCEC05F0F324010F7DEC1C
:1003000005F0A2EF05F0CCDB82E964A816D0BADBD9
:10031000400EEE16EE6AEE6AEE6AB4DBEE7CEA6A36
:1003200000340CEC06F0EA22EF740201400E3A6F42
:10033000A9DB3A51EF16A6DBEF7C41E9E7CFD9FF05
:100340001200646A6198606AA0940001D06B120088
:100350000001D0510FE1646A606AD0EC05F0D08EE4
:10036000A284A084F28E64B602D06486FCD7000119
:10037000010ED06F12000001FA5122E1010EFA6F56
:10038000FB511EE1010EFB6F020EE05D07E183DB16
:10039000EE52EF6A80DBC80EEF6E1200E00510E14E
:1003A000F36B91DBEE52080EEF6E8DDB06EC06F080
:1003B0008ADB840EEF6E010EF36F60DB800EEF6E52
:1003C00012000001FC6BFD6B020EE05D06E155ECD6
:1003D00006F083DB01EC06F010D0E4510201265D4B
:1003E0000001E5510201275904E226C2E4F027C2C8
:1003F000E5F05BD850DB71DB4EDBC80EEF6E120010
:100400004CEC06F0000E036E020E046EFCEC05F0E0
:10041000F324040DF3500326F450042232EC06F0CA
:10042000EF9E005004E1EA6A013474DB01D0A5DBE1
:10043000EA2203EBEEFF04EBEDFF32EC06F0EF9C5B
:10044000040E0324E96E000E0420EA6EEF8C7AD3CA
:1004500064980001E3BF0DD0E8AF09D0020EE06F51
:10046000FD5101E1AEDF0001FB6BFA6B120021EFE1
:1004700006F0020120AF0DD00001010EE06FFC512B
:1004800001E19FDF0001FB6BFA6BF9510DE1BBEF5E
:1004900001F00001020EE06FF1DA840EEF6EFB6BEB
:1004A000FA6BF95101E167DF1200BDDB080E016E46
:1004B0000001E45D000EE5590AE2E451016EDF51EE
:1004C00002E1010E03D0DF0502E1020EDF6F0150F1
:1004D000F36EF46AF350E45FF450E55BDCDAEE525D
:1004E00001EBEFFF280EED6F020EEE6FE3B10DD0C2
:1004F000015017E0E1C0F6FFE2C0F7FFE12B000E6C
:10050000E2230800F5500DDBF3D701500AE0E1C00B
:10051000E9FFE2C0EAFFE12B000EE223EF5001DB2E
:10052000F4D70CD3BDDA81E942E8CDDAEE52EF50D0
:10053000016E01500001E95D000EEA5902E2E95145
:10054000016E0150F36EF46AF350E95FF450EA5B18
:10055000026A0150025C14E20250EA6A280FE96E56
:10056000020EEA22EF50E66EE6C0E9FFE7C0EAFFBE
:10057000E62B000EE723E552E750EF6E022AE9D79B
:10058000E9510008000EEA550DE28FDBA6DA9BDA8E
:10059000EF50400B03E135DBC80E02D032DB880E92
:1005A000EF6E0FD06BDA840EEF6EEB51EC1104E0BE
:1005B000ECC0FAFFEB5114000001E89FF95101E192
:1005C000DADEC0D230DB0001E38FC0DA200EE66E47
:1005D000E66AE66A000EE66E020E62DB648C016A71
:1005E000020E015C02E27FDAFBD7010EE66EE66ADC
:1005F000E66AD20EE66E000E53DB649C0001080E24
:10060000DB6F020EDC6F000ED36F020ED46FD3C00F
:10061000D5F0D66F22C2D1F0D15102E1100E0BD02D
:10062000010EE66EE66AD10EE66E000EE66E010E73
:1006300044DA0001200ED06F81D2800E0201205DCD
:1006400038E10001C00EE36F02012351030A1AE0F2
:10065000010A09E0030A2BE100016A0EE16F360E80
:10066000E26F120E1ED0BADA130EF626370EA0DA9B
:10067000020E0001ACDAF5CFE4F0030EA8DAF5CFF4
:10068000E5F01200040E225D0FE2A8DA150EF62640
:10069000370E8EDAE1C0F6FFE2C0F7FF0800F55032
:1006A0000001E46FE56B12000001E36B1200000132
:1006B000E36B1200F5D981E942E80201286B296B4E
:1006C00020511F0B020A11E0030A0CE0010A1EE18F
:1006D0000001E38F020128810001EF0517E102010B
:1006E000288314D00001E38F11D00001E38F0201B1
:1006F00024BF02D0ADDA01D0B0DA47DAB8DA06E0CA
:10070000E7D9EF50040B02E0010E286F0001E3AFC0
:1007100007D0280EE16F020EE26FE381020EE46F54
:1007200011D20F0153A10CD0CED9EF50800807E1B0
:10073000B2D9EF50840803E1C6D98C0EEF6E539105
:10074000629A12006084629864820001010EF06F68
:1007500006DA750E5DEF05F00001F06B00DA740E3D
:10076000ACD96492609462A402D06294FCD7120067
:100770005ADA00012D0EF86FFD0EF1153AE17E0EEA
:10078000F115E8407F0B040DF3CFD3F0F4CFD4F094
:10079000000ED327020ED423D3C0D5F0D4C0D6F098
:1007A000D57591D9EF503C0BE842E8420D081FE1A6
:1007B000016A080E015C17E286D97DDAEE50EFCFB0
:1007C000EAFFE96EEF50E66E0150EA6A200FE96E2B
:1007D000020EEA22E552E750EF6E75D96CDAEE2A86
:1007E000EF22012AE6D76FD911DA09D807D022D82B
:1007F00005D0FD0EF115040801E12BD89FD10001B1
:10080000DF6BF96BFC6BFD6BF36BE06B44D9EF9E18
:10081000DB7541D9EF9EDB75F4D9EF9EE36BE46B9A
:10082000E56BE86BE96BEA6B4DD899D9030E45D9B6
:1008300028EF02F0020E0001E05D02E192EF02F00B
:10084000E06BF35104E11AD98C0EEF6E1200F36BDA
:100850001200E9D920D9EF50400B01E0010E016EE2
:100860000001DB75080ED05D0BE122C25CFF0F01B9
:100870005C5103E00001100E02D00001040ED06FA5
:10088000E00513E108D929D910DE020E0001DF5D71
:1008900003E101D9840E07D0015003E1FCD8C80E52
:1008A00002D0F9D8880EEF6E0CD0E8AF09D0EB512A
:1008B000EC1104E0ECC0FAFFEB5114000001E89FDA
:1008C000E06B3CD102012051600BE842E842E84273
:1008D000E842E842000901E0120021510C0A44E01C
:1008E0000B0A3EE00C0A30E0010A22E00B0A1EE08F
:1008F000020A1CE0030A18E0080A10E0010A0CE0F2
:100900000F0A08E0030A01E012000001E38F080E5D
:10091000D06F12001DEF03F0E2EF02F00001D10EE4
:10092000E16F000EE26F0BD05AEF03F0B5EF04F069
:1009300024510001E26BD20FE16F000EE223E3814C
:10094000010EE46FE38F12000001E38F02012451D6
:10095000EA6AD20FE96E000EEA2222C2EFFF12000D
:10096000FED8020E5DEF05F012009AD881E945E845
:100970000201220510E120511F0B00090CE10001CA
:10098000E38F030E0201215D04E10001010EEF6F10
:1009900002D00001EF6B020122516CE120511F0BCC
:1009A000020868E124510F0B000964E024510F0B89
:1009B000010860E3200E0001D05D5CE1E38F0201DD
:1009C00024BF04D045D9E1D8D0D803D046D9DDD84A
:1009D000D0D8EA22EF50036E08D9010B02E101944E
:1009E00001D0018424BF02D033D901D036D9EA2204
:1009F00001EBEEFF02EBEDFF030E215D10E137D9B5
:100A000007E024BF02D0B1D801D0B3D8EA22EF82E8
:100A10000201840E3A6F5CD83A51EF122BD0017468
:100A200026D906E055D8EF9E53D8EF8C00D902D0D6
:100A30004FD8EF8C0174D9D8020B02E118D90BE022
:100A4000020124BF02D091D801D093D8EA22EF92BC
:100A500012D9EDD801D00FD9020124510F0B046E29
:100A6000056A530E04260F0E052204EBE9FF05EB81
:100A7000EAFFEF9046E9E7CFD9FF120016D9C6D8B2
:100A800001EF06F0EA6A0034C7D8EA22EE50EFCF51
:100A9000EAFFE96E1200DBC0E9FFDCC0EAFF1200EA
:100AA000D9CFE6FFE1CFD9FF120024510F0BE96E39
:100AB000EA6AD890E936EA361200E66EE66ACCECCD
:100AC0000FF046E91200D3C0E9FFD4C0EAFF1200DC
:100AD00001EBE9FF02EBEAFF1200EDD8280EEE6E03
:100AE000020EED6E12000150D2D8EA22EF6A0150D8
:100AF000C9D8EA22EF6A012A1200040D000EF3247D
:100B0000036E020EF420046E840E3A6FABD83A5195
:100B1000EF121200FE0BE96EEA36D70EE926000E40
:100B20001200E66EEDC0E9FFEEC0EAFFED2B000E0D
:100B3000EE23E552E750EF6E0106120042E9E7CFDF
:100B4000D9FF120043E9E7CFD9FF1200010EE66E8C
:100B5000E66AE66A540EE66E0F0E50EF06F0000EDF
:100B6000E66EE66AE66EE66A120024510F0B42EF6B
:100B700006F024510F0B47EF06F0EA6A01340CEF40
:100B800006F0EA6A04340CEF06F0EA22EE50016E39
:100B9000ED50026E120006EBE9FF07EBEAFF1200D0
:100BA000160E616E0F019F0E5B6F7B0E606E120062
:100BB000F7220900F5CFE1F00A00F5CFE2F01200CC
:100BC000010EE66EE66A000EE66EE66A1200F76A4D
:100BD000E125F66EE251F722080012002251F66E6E
:100BE000F76AD890F636F7361200D950030FE96E3F
:100BF000DACFEAFFEF501200040E01020050E824A1
:100C00001200D5C0E9FFD6C0EAFF120054D8200E6A
:100C1000EE6E020EED6E1200FE0BE96EEA36DB0E92
:100C2000E926000E12003CDF81E941E81200020EC5
:100C3000E66EE66A01EBE6FF02EBE6FF050E5DEF0E
:100C400005F01CDF8C0EEF6E26DF840EEF6E1200B7
:100C50002CDFD70EE926000E120027DFDB0EE92677
:100C6000000E120003EBE9FF04EBEAFF120030DF95
:100C7000EF50800B120002013B0E3A6F29DF3A5110
:100C8000EF161200EA6AF60FE96E000E1200EA6A29
:100C9000F40FE96E000E120003DF83E942E8120050
:100CA000E66EA1EC1CF045E91200ABDFEE52080E37
:100CB000EF6E01EF06F0020EE926000EEA221200A6
:100CC000F29EF29C3F0EC716C66AC56A800EC76EBA
:100CD000080EC66E1D0EC86E938C9388C68A8A8EC7
:100CE0000A0EE66ED5EC1CF041E9F28EF28C120091
:100CF000C69A8A9E030EE66ED5EC1CF041E91200FE
:100D0000D9CFE6FFE1CFD9FF85E941E8056A05982B
:100D1000058A059C058EBED8100E99D803E0020105
:100D2000A2D8FEE1AFD8E8B00586A3D8C5A003D00D
:100D3000FDD7C5B0FED793D8C5BCFED7ABD8080E3B
:100D400086D803E002018FD8FEE17AD8C5BCFED771
:100D500001EB3AF275D8C5BCFED700EBE6FFA8D888
:100D6000C5BCFED7C584C5A403D0FDD7C5B4FED786
:100D7000F7EC07F0C580C5B0FED7F7EC07F06FD8E9
:100D8000C5AC04D0C584C5B4FED7F2D7C584C5A40C
:100D900003D0FDD7C5B4FED7F7EC07F0F28EF28C86
:100DA00042E9E7CFD9FF1200D9CFE6FFE1CFD9FF63
:100DB00084E942E8046A056A0598058A059C058E5F
:100DC00070D8100E44D803E002014DD8FEE15AD885
:100DD000E8B005864ED8C5A003D0FDD7C5B0FED774
:100DE0003ED8C5BCFED75DD8080E31D803E002015D
:100DF0003AD8FEE125D8C5BCFED700EB3AF220D8A0
:100E0000C5BCFED7C582C5B2FED7F7EC07F00528F2
:100E1000E66E4ED8C5BCFED712EC1DF0046EF7ECA2
:100E200007F0C584C5A403D0FDD7C5B4FED7F7EC41
:100E300007F0F28EF28C045043E9E7CFD9FF12009D
:100E400002013B6B3C6B3AC2E6FF58EF07F01F0B09
:100E50003DC23AF23EC23BF23FC23CF2120005EB09
:100E6000E6FF58EF07F0D8903C333B333A33E806BF
:100E70001200059205940590F29EF29CF7EC07F0A3
:100E8000C5801200010E02013A173B6B3C6B3A51D0
:100E90000596120001EB3DF202EB3EF203EB3FF24E
:100EA000120000EB3DF201EB3EF202EB3FF21200CA
:0A0EB000DEEC1BF041E9F7EF07F05C
:060EBA00020120511F0B94
:100EC000010801E01200245101E01200060E215D2C
:100ED0001BE12351230A18E0010A0CE0030A14E184
:100EE0000001D10511E100018E0EE16F360EE26FB7
:100EF000090E06D00001F70EE16F360EE26F1C0EF0
:100F0000E46FE56BC00EE36F02012051600BE84215
:100F1000E842E842E842E842010801E012002151BB
:100F20000B0A26E0080A19E0090A11E0080A05E0A0
:100F30000B0A23E0080A21E012000001FE0EE16F17
:100F4000000EE26F010EE46FE56BC10E0FD00001E1
:100F5000800EE36F23C2FEF012000001FF0EE16F6E
:100F6000000EE26F010EE46FE56B810EE36F12007D
:0C0F70000001800EE36F22C2FFF01200AF
:040F7C00D9CFE6FFE4
:100F8000DACFE6FFE1CFD9FFE2CFDAFF84E943E829
:100F9000F8CF05F0F6CF06F03F0E0112FC0E00125E
:100FA000C00EBD100114BD6E0F0EBD100014BD6E3D
:100FB0003F0E015C02E1949A10D0BF0E015C03E188
:100FC000949A94980AD07F0E015C03E0FF0E015CB6
:100FD00004E1949A94989496949405C0F8FF06C0FE
:0E0FE000F6FF44E9E5CFDAFFE7CFD9FF1200B4
:020FEE001F0ED4
:0C0FF000C514FDE1C750040BFAE112002B
:040FFC00BD6A1200B8
:02100000393085
:0E100200D8CFE4FFE0CFE4FFE46E0AEC15F077
:10101000D9CFE4FFDACFE4FF8BEC14F002EE3AF024
:101020000A0EE80403E3EECFE4FFFBD7E652A0503C
:10103000020B06E0A150020B03E02DEC16F0A1928A
:10104000E55202EE43F00A0EE80403E3E5CFEDFFBC
:10105000FBD7A0EC14F0E5CFDAFFE5CFD9FF19EC10
:1010600015F0E550E5CFE0FFE5CFD8FF10000AEC22
:1010700015F08BEC14F002EE3AF00A0EE80403E3EC
:10108000EECFE4FFFBD7E6526CEC14F081E941E8C7
:10109000F250100B07E0F250020B04E000016785EC
:1010A000F298F2929E50010B0BE09D50010B08E06C
:1010B0000201F82B050EF85D02E18A7AF86B9E902A
:1010C000F050080B18E0F050010B15E0020E000183
:1010D000CE5D03E1D0EC15F00DD0CE050BE18BA277
:1010E00009D0020ECE6FCF6BE00ECF6E640ECE6EC7
:1010F0000201FA6BF09042E9E7CFD9FFE55202EE28
:1011000043F00A0EE80403E3E5CFEDFFFBD7A0ECC4
:1011100014F019EC15F01100D9CFE6FFE1CFD9FF9B
:1011200081E943E848D83DEC1CF0020EE66E5AEC2B
:1011300010F041E9F3CF75F0F4CF76F0010EE66ED2
:101140005AEC10F041E9F3CF73F0F4CF74F0030ED2
:10115000E66E5AEC10F041E9F3CF77F0F4CF78F077
:101160002CEC12F0F3CF79F0F4CF7AF0010EE66EAA
:101170006CD841E904000001010ECE6F0001CE05DC
:1011800014E1B3EC15F0F18AF090F086050EE66EEE
:10119000D5EC1CF041E90001010ECE6F0001CE0537
:1011A00004E1F090F096C5EC15F00300E3D744E9B4
:1011B000E7CFD9FF1200F29EF29C949C949E829CF1
:1011C000829E939A94968A988A9C93988A98939CE4
:1011D0008A9C939E686A6D6A6B6A7E6A7F6ABD6A42
:1011E00097EC15F03DEC1CF08A9A8B968A9E9480C1
:1011F000F292F288F18C9FEC18F00001676B678522
:10120000010ECD6E9F809E909D80D08EF28EF28CCE
:10121000CF6B0201FA6B1200000167A50CD00A0E19
:10122000E66E1FEC1DF041E98BA005D0000167952B
:101230006787A8EC01F0200E0001D05D05E10001F8
:101240006751080B01E032D812006CEC14F082E90F
:1012500041E80050030A18E0010A08E0030A22E10D
:101260008B868A8A010EFEEC14F01CD0026A060EF0
:10127000025C18E28B868A8A050EFEEC14F0050EDD
:1012800070EC15F0022AF3D7026A030E025C0AE240
:101290008B868A8A640EFEEC14F0320E70EC15F028
:1012A000022AF3D742E9E7CFD9FF1200D9CFE6FFF0
:1012B000E1CFD9FF81E948E8200E0001E76ED0199F
:1012C00002E7E73402D0E750D05D03E36450020B3D
:1012D00002E085EF0FF00201FB51FC1102E1000E6C
:1012E00008D0FBC2E9FFFCC2EAFFEF50800B01E02F
:1012F000010E000902E085EF0FF00001826B000192
:10130000C76BC86B00018251EA6A600FE96E020E7A
:10131000EA22EF500F0802E075EF0FF00001822B78
:1013200000018251EA6A600FE96E020EEA22EFCFF5
:1013300083F0C7C0E6FFC8C0E6FF00018251EA6A39
:10134000600FE96E020EEA22EFCFE6FF13EC10F019
:1013500043E9F3CFC7F0F4CFC8F00001822B0001BE
:101360008251EA6A600FE96E020EEA22EFCF84F042
:10137000C7C0E6FFC8C0E6FF00018251EA6A600FFD
:10138000E96E020EEA22EFCFE6FF13EC10F043E91C
:10139000F3CFC7F0F4CFC8F00001822B046A00013C
:1013A0008451045C2CE200018251EA6A600FE96E0C
:1013B000020EEA22EF50E66E0450EA6A850FE96EEB
:1013C000000EEA22E552E750EF6EC7C0E6FFC8C044
:1013D000E6FF00018251EA6A600FE96E020EEA221E
:1013E000EFCFE6FF13EC10F043E9F3CFC7F0F4CFF3
:1013F000C8F00001C52B0001822B042AD0D70001C0
:101400008251EA6A600FE96E020EEA22EF50E66E40
:10141000E66AE66A010EE66EB0EC1AF0E552E5CF38
:10142000CAF0E7CFC9F00001822B00018251EA6ABD
:10143000600FE96E020EEA22EF50F36EF46AF35089
:101440000001C927F4500001CA230001C95100015D
:10145000C71904E10001CA510001C81902E075EF83
:101460000FF0046A400E045C09E20450EA6AA00F1F
:10147000E96E020EEA22EF6A042AF4D700018351D2
:10148000760A02E12BEF0FF0030A02E159EF0EF0AA
:10149000010A01E1F7D3070A01E1F3D3010A01E1EF
:1014A000EFD3030A01E1EBD3010A01E1E2D31F0A02
:1014B00001E1A2D3010A01E15CD3030A01E126D3D1
:1014C000010A01E114D2070A01E1E6D1010A01E1B2
:1014D000C6D1030A01E1A7D1010A01E131D10F0A06
:1014E00001E1BDD0010A2DE0030A02E075EF0FF023
:1014F000000EF66E100EF76E0900F5CF3AF20800F6
:10150000F5CF3BF202013BC23AF23B6B02013A518A
:101510000001856F000EF66E100EF76E0900F5CF14
:101520003AF20800F5CF3BF202013A510001866F12
:10153000020EE66EC90EE66EEFEC12F042E975EFB0
:101540000FF000018551030A1BE0010A0EE0030AB7
:1015500001E021D000017351056E7451066E076AD7
:10156000040E086E010E046E18D000017551056E50
:101570007651066E076A040E086E010E046E0DD0D9
:1015800000017751056E7851066E076A040E086EE9
:10159000010E046E02D0046A00D0040458E1075022
:1015A000055C0850065834E286C06AF087C06BF0CC
:1015B00088C06CF0680EE66E000EE66EB6EC10F0B9
:1015C00042E94AC23AF24BC23BF24CC23CF2E868F2
:1015D00002013A1905E1E8683B1902E1E8683C19A3
:1015E00010E185C0E6FF680EE66E000EE66E26ECA2
:1015F00011F043E9E66ACA0EE66EEFEC12F042E93A
:1016000006D0E66ACB0EE66EEFEC12F042E91ED091
:1016100000018551030A13E0010A0AE0030A01E010
:1016200015D0E66AD80EE66EEFEC12F042E90ED065
:10163000E66AD90EE66EEFEC12F042E907D0E66AF0
:10164000DA0EE66EEFEC12F042E900D006D0E66A60
:10165000E00EE66EEFEC12F042E975EF0FF086C097
:101660006AF087C06BF088C06CF0680EE66E000E02
:10167000E66EB6EC10F042E94AC23AF24BC23BF2D7
:101680004CC23CF202013A51016E3B51026E3C5198
:10169000036EE868011805E1E868021802E1E868ED
:1016A000031847E000018551030A29E0010A15E00B
:1016B000030A01E036D0010EE66E01EBE6FF02EB15
:1016C000E6FF03EBE6FF8DEC11F044E9E66ACC0E91
:1016D000E66EEFEC12F042E92BD0020EE66E01EB63
:1016E000E6FF02EBE6FF03EBE6FF8DEC11F044E9C9
:1016F000E66ACC0EE66EEFEC12F042E919D0030E6A
:10170000E66E01EBE6FF02EBE6FF03EBE6FF8DEC96
:1017100011F044E9E66ACC0EE66EEFEC12F042E915
:1017200007D0E66AE00EE66EEFEC12F042E900D078
:1017300006D0E66ACD0EE66EEFEC12F042E9D5D3A4
:1017400085C06AF086C06BF087C06CF0680EE66EEC
:10175000000EE66EB6EC10F042E94AC23AF24BC215
:101760003BF24CC23CF202013A51016E3B51026E17
:101770003C51036EE868011805E1E868021802E1CF
:10178000E868031849E001EB3AF202EB3BF203EBA5
:101790003CF202013D6B000E02013A5D0C0E3B591A
:1017A000000E3C59000E3D5904E20001010E856F08
:1017B0002BD001EB3AF202EB3BF203EB3CF20201DD
:1017C0003D6B030E02013A5D180E3B59000E3C5969
:1017D000000E3D5904E20001020E856F15D001EBA9
:1017E0003AF202EB3BF203EB3CF202013D6B060ED8
:1017F00002013A5D240E3B59000E3C59000E3D5942
:1018000003E20001030E856F010EE66ECB0EE66E5D
:10181000EFEC12F042E906D0E66ACD0EE66EEFEC90
:1018200012F042E962D385C060F086C061F087C0E3
:1018300062F088C063F089C064F08AC065F08BC034
:1018400066F0600EE66E000EE66E48EC19F042E9B6
:10185000E66ACE0EE66EEFEC12F042E946D3600E79
:10186000E66E000EE66EA0EC19F042E960C085F06D
:1018700061C086F062C087F063C088F064C089F000
:1018800065C08AF066C08BF0070EE66ECF0EE66E7E
:10189000EFEC12F042E929D300017D6B7E6B02016F
:1018A00074C03AF23B6B3AC285F073C086F0020115
:1018B00076C03AF23B6B3AC287F075C088F00201FD
:1018C00078C03AF23B6B3AC289F077C08AF00201E5
:1018D0007AC03AF23B6B3AC28BF079C08CF0080EBA
:1018E000E66ED00EE66EEFEC12F042E9FED2000199
:1018F000795100017D5D00017A5100017E5901E3BB
:10190000FED0F29EF29C7DC03AF27EC03BF2020114
:10191000070E3B03F3CF3BF2070E3A03F3CF3AF245
:10192000F4503B2702013C6B3D6B090E02013A2744
:10193000240E02013B23000E02013C23000E020193
:101940003D2302013A51016E3B51026E3C51036E40
:1019500060EC06F001EBE6FF02EBE6FF03EBE6FFCF
:10196000D4EC06F043E90001856FD950010FE96E10
:10197000DACFEAFFEE2A000EEE22000EEE2201EB95
:10198000E6FF02EBE6FF03EBE6FFD4EC06F043E9EB
:101990000001866FD950010FE96EDACFEAFFEE2A17
:1019A000000EEE22000EEE2201EBE6FF02EBE6FF58
:1019B00003EBE6FFD4EC06F043E90001876FD95052
:1019C000010FE96EDACFEAFFEE2A000EEE22000EDA
:1019D000EE2201EBE6FF02EBE6FF03EBE6FFD4ECC1
:1019E00006F043E900018F6FD950010FE96EDACF9D
:1019F000EAFFEE2A000EEE22000EEE2201EBE6FFD9
:101A000002EBE6FF03EBE6FFD4EC06F043E900014E
:101A1000906FD950010FE96EDACFEAFFEE2A000E7F
:101A2000EE22000EEE2201EBE6FF02EBE6FF03EBF7
:101A3000E6FFD4EC06F043E90001916FD950010FA5
:101A4000E96EDACFEAFFEE2A000EEE22000EEE2259
:101A500001EBE6FF02EBE6FF03EBE6FFD4EC06F05A
:101A600043E90001926F78EC06F0F28EF28C0001EF
:101A70007D2B000E7E2300018F51E840E8403F0B94
:101A80000001886F030E00018F15100DF3CF89F050
:101A9000000190390F0B000189130F0E0001901502
:101AA000E82400018A6F00019145010B00018A13AF
:101AB00000019151E840E8403F0B1F0B00018B6F84
:101AC000030E00019115040DF3CF8CF0060E92C0A9
:101AD000E7FF070B04E0E742E79EE806FCE1E7507A
:101AE00000018C133F0E0001921500018D6F090E4D
:101AF000E66ED10EE66EEFEC12F042E906D0E66A31
:101B0000D70EE66EEFEC12F042E9EFD1F29EF29CB6
:101B1000090E016E240E026E036A60EC06F0046A80
:101B2000070E045C16E2E66801EBE6FF02EBE6FF57
:101B300003EBE6FF80EC06F044E9D950010FE96EB3
:101B4000DACFEAFFEE2A000EEE22000EEE22042A81
:101B5000E7D778EC06F0F28EF28C0001796B7A6BA5
:101B600000016799E66AD20EE66EEFEC12F042E9E8
:101B7000BCD100018551040A2BE0070A1DE0010ACF
:101B80000FE0030A01E030D0010EE66E5DEC13F0C9
:101B900041E9E66AD30EE66EEFEC12F042E92BD093
:101BA000020EE66E5DEC13F041E9E66AD40EE66ED5
:101BB000EFEC12F042E91FD0030EE66E5DEC13F07D
:101BC00041E9E66ADB0EE66EEFEC12F042E913D073
:101BD000040EE66E5DEC13F041E9E66AD50EE66EA2
:101BE000EFEC12F042E907D0E66AE00EE66EEFECA9
:101BF00012F042E900D079D1A7EC13F00001020EF7
:101C0000CE6F0201E299000167A712D0000167B10F
:101C10000FD0680EE66E000EE66E30EC16F042E96C
:101C2000000903E004000201E2890201E2A9EBD706
:101C30000201E2A914D00201E299010EE66E25EC40
:101C400009F041E96AC085F06BC086F06CC087F08E
:101C5000030EE66ED60EE66EEFEC12F042E90001DE
:101C600067A106D0E66AE20EE66EEFEC12F042E9FA
:101C70003CD1010EE66E25EC09F041E936D135D1B3
:101C800034D133D10001040E856F0001866B000151
:101C9000040E876F0001886B0001040E896F00013C
:101CA0008A6B060EE66EE10EE66EEFEC12F042E98C
:101CB0001CD100018551070803E30001855107E1AC
:101CC000E66AE00EE66EEFEC12F042E9C3D02D0EAC
:101CD000E66E010EE66EE66AE66A00018505E66ECE
:101CE000E66AE66AE66AE4EC1AF0E552E5CF3DF210
:101CF000E5CF3CF2E5CF3BF2E7CF3AF21D0E020111
:101D00003A27ED0E02013B23010E02013C23000E97
:101D100002013D233AC2CBF03BC2CCF03CC2CDF035
:101D200060EC06F0CBC0E6FFCCC0E6FFCDC0E6FF1E
:101D3000D4EC06F043E90001806FFF0E0001805DE6
:101D400010E080C03AF202013B6B3C6B3D6B640ECD
:101D500002013A5D000E3B59000E3C59000E3D5900
:101D600072E2FF0E0001805D02E10001806B000164
:101D70008029E66ECBC0E6FFCCC0E6FFCDC0E6FF13
:101D800080EC06F044E9030E00018003F328020111
:101D90003A6F02013B6B3C6B02013A510001CB27C9
:101DA00002013B510001CC2302013C510001CD2333
:101DB00086C0E6FF0001CBC03AF2CB2BCCC03BF291
:101DC000000ECC23CDC03CF2000ECD233AC2E6FF7C
:101DD0003BC2E6FF3CC2E6FF80EC06F044E987C068
:101DE000E6FF0001CBC03AF2CB2BCCC03BF2000E99
:101DF000CC23CDC03CF2000ECD233AC2E6FF3BC25D
:101E0000E6FF3CC2E6FF80EC06F044E988C0E6FF4E
:101E10000001CBC03AF2CB2BCCC03BF2000ECC235E
:101E2000CDC03CF2000ECD233AC2E6FF3BC2E6FF36
:101E30003CC2E6FF80EC06F044E9E66AE30EE66E9B
:101E4000CEDB42E905D0E66AE50EE66EC8DB42E984
:101E500078EC06F04AD000018551070803E3000141
:101E6000855106E1E66AE00EE66EB9DB42E93CD058
:101E70002D0EE66E010EE66EE66AE66A0001850545
:101E8000E66EE66AE66AE66AE4EC1AF0E552E5CF49
:101E90003DF2E5CF3CF2E5CF3BF2E7CF3AF21D0E43
:101EA00002013A27ED0E02013B23010E02013C2301
:101EB000000E02013D233AC2CBF03BC2CCF03CC243
:101EC000CDF060EC06F0E66ACBC0E6FFCCC0E6FFE2
:101ED000CDC0E6FF80EC06F044E978EC06F0E66A57
:101EE000E40EE66E7CDB42E900D0400EE66E600E4A
:101EF000E66E020EE66EE66A010EE66E2AEC01F070
:101F000045E9F3CFFBF2F4CFFCF249E9E7CFD9FF83
:101F1000120012001200120012005DEF07F0120012
:101F20001E0EE66E010EE66E0CEC01F042E9400E6C
:101F3000E66E600EE66E020EE66EE66A010EE66E74
:101F40002AEC01F045E9F3CFFBF2F4CFFCF21200EA
:101F50000001EF0520E10001F0051DE1A094DADFAA
:101F600064920001F06B0201100EE06F0E0EE16F43
:101F7000E007000EE15BE051E111FAE16484080E34
:101F8000E06F070EE16FE007000EE15BE051E11149
:101F9000FAE16494A08412006CEC14F087E904EB7D
:101FA000F3FF05EBF4FF050EF31801E1F45036E002
:101FB000E868F31802E17F0EF4182FE0030EF3181F
:101FC00001E1F45028E0020EF31801E1F45021E0A1
:101FD000010EF31801E1F4501AE0740EF31801E158
:101FE000F45013E0750EF31801E1F4500CE0730E99
:101FF000F31801E1F45005E0720EF3180FE1F4500C
:102000000DD089DF0BD085DF09D084DF07D088DFD2
:1020100005D085DF03D081DF01D07EDF010E41E9ED
:10202000E7CFD9FF12006CEC14F084E9020100EB59
:102030003DF23C6B01EB3AF23A513C11006E3D51DE
:10204000016E0250001A000E011AFF0E0014E8384B
:102050000F0B001A000E011A00EB3DF23C6B20EC56
:1020600015F006E00201D8903A373B37E804FBE16F
:1020700002013A51001A3B51011AFF0E00143C6F45
:102080003D6B20EC15F006E00201D8903A373B3763
:10209000E804FBE10201D8903A373B373A51001A85
:1020A0003B51011A00EBF3FF01EBF4FF41E9E7CFED
:1020B000D9FF12006CEC14F082E949E80050030AE1
:1020C00011E0010A08E0030A14E1056A040E066E35
:1020D000076A086A0ED0056A040E066E030E076EC4
:1020E0000C0E06D0056A040E066E060E076E180E5C
:1020F000086EDDEC14F0096A0A6A0550095C0650A6
:102100000A582BE275EC15F009EBE6FF0AEBE6FF47
:10211000B0EC1AF00201FE0EE35007243A6F41E9D9
:10212000E55008203B6F3C6B3A51026E3B51036E09
:102130003C51046E38EC15F00CE1B5EC14F009E1FB
:10214000B5EC14F006E1E2DB09EBF3FF0AEBF4FF78
:1021500009D0092A000E0A22D0D7D8DB05EBF3FFFD
:1021600006EBF4FF4AE9E7CFD9FF1200B5DB83E9BC
:1021700045E8DDEC14F0066A076A00017351065C5D
:102180007451075816E27FDBF350EDEC14F0020EA9
:1021900065DB0BE179EC15F008E17DEC15F005E16C
:1021A000B5DB000167896FDB3FD0062A000E0722EE
:1021B000E4D7066A076A00017551065C7651075834
:1021C00017E261DB030E3A270C0E3EEC15F00CE132
:1021D00079EC15F009E17DEC15F006E197DB53DBB6
:1021E000030E3A270C0E1ED0062A000E0722E3D754
:1021F000066A076A00017751065C785107581FE2AA
:1022000042DB060E3A27180E3EEC15F014E179EC8D
:1022100015F011E17DEC15F00EE178DB34DB060EF4
:102220003A27180E8DEC15F03AC24AF23BC24BF237
:102230003CC24CF209D0062A000E0722DBD766DB2F
:1022400002014A694B694C6927EF15F045DB84E9C7
:1022500047E80050030A1AE0010A0CE0030A22E1F1
:10226000046A040E056E066A076A00017351086E5F
:10227000745117D0046A040E056E030E066E0C0E20
:10228000076E00017551086E76510BD0046A040E7A
:10229000056E060E066E180E076E00017751086E69
:1022A0007851096E0450085C0550095831E285DB0D
:1022B000030E0A6E0A500AE00A280124E96E000E95
:1022C0000220EA6EEFCFE6FFE6DAF4D7082A000E26
:1022D0000922030E0A6E0A5003E0E668DCDAFBD737
:1022E00015DB0050030A0EE0010A07E0030A0EE1C5
:1022F00008EB73F009EB74F009D008EB75F009EB0B
:1023000076F004D008EB77F009EB78F0010E01D0FD
:10231000FF0E48E9E7CFD9FF1200DEDA85E945E88C
:102320000050030A15E0010A0AE0030A1AE100015D
:102330007351066E7451076E086A096A12D0000163
:102340007551066E7651076E030E086E0C0E08D09E
:1023500000017751066E7851076E060E086E180E52
:10236000096E2BDBC2DB020106043D6F000E07582D
:102370003E6F3DC2E6FFE66EB0EC1AF00201FE0EC3
:10238000E35008243A6F41E9E55009203B6F3C6B6C
:1023900001503A1905E102503B1902E103503C1982
:1023A0002DE0030E056E055029E09FDB06EBE6FFEE
:1023B00007EBE6FF06DB040E3C5F000E3D5B13DB24
:1023C000A8DBE66E05EB41F20201426B436B2BDBAF
:1023D000EE5041253E6FEE5042213F6FEE504321BB
:1023E000406F3E07000E3F5B405B3EC2E6FF3FC2D0
:1023F000E6FF40C2E6FF70DB0506D5D7056A030E8F
:10240000055C10E2E66871DB020106043E6F000E17
:1024100007583F6F3EC2E6FFE66ED3DAE4DA5CDBD4
:10242000052AEDD773DA0606000E075A0050030A94
:102430000EE0010A07E0030A0EE106EB73F007EB7A
:1024400074F009D006EB75F007EB76F004D006EBDC
:1024500077F007EB78F0FBD23FDA81E945E8ADDAB7
:10246000046A056A04EB3AF205EB3BF227DB1BE258
:1024700004EB3AF205EB3BF27DDA016E3B51026E62
:102480003C51036E2EDAFF080AE110DB08E10EDB97
:1024900006E13CDA04EBF3FF05EBF4FF09D0042A74
:1024A000000E0522DFD732DA800EF36E3E0EF46E98
:1024B000CED212DA83E947E8F29EF29C79C03AF272
:1024C0007AC03BF2FBDA01E381D018DA00016351F4
:1024D00003E0635107080AE211DA0001635103E0E7
:1024E0006351070803E2070E636F75D0645103E080
:1024F00064511F080AE202DA0001645103E06451EA
:102500001F0803E2070E646F66D0655103E0655152
:102510000C080AE2F3D90001655103E065510C088B
:1025200003E2070E656F57D06051066E040E060277
:10253000F350066E61390F0B06126151076E0738B2
:10254000F00B076E62417F0B07126251086E083272
:10255000086A08326451040DF35008126551E840CE
:10256000E8403F0B08126551096E0940E842C00B74
:10257000096E6651091279C03AF27AC03BF2020143
:10258000F9D92BDA60EC06F0020E69DA030E67DA8D
:10259000040E65DA06EBE6FF72D907EBE6FF6FD9AA
:1025A00008EBE6FF6CD909EBE6FF69D9E66867D965
:1025B000E66865D9E66873DA8FDA78EC06F0000130
:1025C000792B000E7A23F28EF28C05D0030EE66E84
:1025D00025EC09F041E948E9E7CFD9FF12007CD9A1
:1025E00083E941E80001C76BC86B0201FD51FE1190
:1025F00002E1000E08D0FDC2E9FFFEC2EAFFEF5083
:10260000800B01E0010E000954E102010F0EA06FE2
:1026100001EBA1F2C7C0E6FFC8C0E6FFA1C2E6FF1A
:10262000BCD900EBA2F2F3CFE6FFF4CFE6FFA2C2E3
:10263000E6FFB3D9036A0050035C17E20350EA6A6D
:10264000850FE96E000EEA22EF50E66E030E0324BA
:1026500099D9C7C0E6FFC8C0E6FF030E032436DAE7
:10266000EFCFE6FF9AD9032AE6D70201C8C03AF2B3
:102670003B6B3A51E66E030E002484D90001C7512A
:10268000E66E040E00247ED9050E00241FDA040E27
:10269000EF6E400EE66EA00EE66E020EE66E010EC6
:1026A000E66EE66E2AEC01F045E9F3CFFDF2F4CFD9
:1026B000FEF242E9E7CFD9FF12000ED982E942E8E3
:1026C0007CD9000403E0040E005C12E1026A036A94
:1026D000010E026E036A026A036A67D9030E3A5D4D
:1026E000000E55D902E202D9F8D70001736B746B62
:1026F000020E005C03E0040E005C0FE1030E026EAC
:102700000C0E036E52D9060E3A5D0C0E40D902E251
:10271000EDD8F8D70001756B766B030E005C03E013
:10272000040E005C0FE1060E026E180E036E3DD91A
:10273000090E3A5D180E2BD902E2D8D8F8D700015D
:10274000776B786BE3D843E9E7CFD9FF120000013C
:1027500067916783726B1200BFD881E944E8CED8D5
:102760002D0EE66E010EE66EE66AE66A000163056E
:10277000E66EE66AE66AE66AE4EC1AF0E552E5CF50
:102780003DF2E5CF3CF2E5CF3BF2E7CF3AF21D0E4A
:1027900002013A27ED0E3B23010E3C23000E3D23A0
:1027A0003A51016E3B51026E3C51036E60EC06F0F3
:1027B00098D80001806FFF0E805D4AE0046A805166
:1027C000045C46E201EB3AF202EB3BF203EB3CF233
:1027D00002013A2B000E3B233C23030E0402F3CFED
:1027E0003DF23E6B3F6B3A51F3240001CB6F020187
:1027F0003B513E210001CC6F02013C513F210001C1
:10280000CD6FCBC0E6FFCCC0E6FFE66E82D90001FB
:10281000625D1CE1CB2B000ECC23CD23F3D800014D
:10282000615D13E18151615D11E0CB2B000ECC2382
:10283000CD2361C081F0E6D800017F6F0201F96B02
:102840000001678B78EC06F003D08169042AB7D7C2
:1028500078EC06F045E9E7CFD9FF12000024E96ED5
:10286000000E0120EA6EEFCF3AF23AC2E6FF17D926
:1028700050D9E552E7CF3AF202013A5D12000FD982
:102880002BD92BEF15F006EB3AF207EB3BF20201E6
:10289000030E44EF15F029D908EBE6FF09EBE6FF3C
:1028A000B0EC1AF00201FE0EE35006243C6F41E941
:1028B000E55007203D6F0A503C253A6F000E3D2140
:1028C0003B6F3A07000E3B5B3AC2E6FF3BC2E6FFB6
:1028D000E66A02D90A061200D9CFE6FFE1CFD9FF96
:1028E000120001EBE6FF1ED989EF15F0E6681AD950
:1028F000E66AF2D8022A000E03221200600EE66E8B
:10290000000EE66EA0EC19F042E9120078EC06F039
:10291000F28EF28C12004AC2E4FF4BC2E4FF4CC2BA
:10292000E4FF4DC2E4FFF6CFE4FFF7CFE4FFF5CFBD
:10293000E4FFF3CFE4FFF4CFE4FFFACFE4FF1200AB
:10294000E5CFFAFFE5CFF4FFE5CFF3FFE5CFF5FFE5
:10295000E5CFF7FFE5CFF6FFE5CF4DF2E5CF4CF23F
:10296000E5CF4BF2E5CF4AF21200D950020FC9D899
:1029700038EF15F0070E88D8090E3A27240ECDD867
:102980003A511200A3D8E552E750EF6E12003B59BE
:10299000000E3C59000E3D59120013EC10F043E9B3
:1029A000F3CFC7F0F4CFC8F0120002EB3AF203EB1A
:1029B0003BF202013C6B3D6B1200F29EF29C60EF19
:1029C00006F0B0EC1AF00201FE0EE35008243C6F52
:1029D00041E9E55009203D6F1200036E3B51046E42
:1029E0003C51056E120005503C253A6F000E3D210A
:1029F0003B6F3AC2E6FFE66EE66A120071D88B962C
:102A00008A9A1200CBC0E6FFCCC0E6FFCDC0E6FF3D
:102A100089EF15F0DACFE4FFE2CFDAFFE9CFE4FF88
:102A2000EACFE4FF1200D950010FE96EDACFEAFFD6
:102A30001200E5CFEAFFE5CFE9FFE5CFDAFF1200AC
:102A4000040E3CC23AF23DC23BF2000A120046E9D3
:102A5000E7CFD9FF1200D950030F81EF15F0002402
:102A6000E96E000E0120EA6EEFCFE6FF3FEF14F0B3
:102A700059D804EBE6FF4DD8FF0812004ED83A5162
:102A8000ACDF020E2EEF14F03B03F3CF3BF23A0320
:102A9000F3CF3AF2F4503B273C6B3D6B120003EB53
:102AA000E6FF04EBE6FF05EBE6FF1200BCDFEE2AD3
:102AB000000EEE22EE2215DFFF08120002013C6B31
:102AC0003D6B800E3A5D3E0EC7EF14F0EA6AA00F30
:102AD000E96E020EEA22120080EC06F044E91200D0
:102AE000E66E86EC1CF041E91200030EE66EE66A23
:102AF0001200B1DF030E2EEF14F0ADDF040E2EEF47
:102B000014F0E96EDACFEAFFEE2A000EEE22EE2292
:102B10001200D4EC06F043E912003B23000E3C23E4
:0E2B20003D23120002EBE6FF03EBE6FF12007E
:022B2E000201A2
:102B3000E281E283E285E2979498949A94828B8A68
:102B40008B98F18AF08CF090F096290ED56ED66AAB
:102B5000D76AF194F294F29A010EB16EB190A292FA
:102B6000A192A09212008B8A8B88E00EBB6E0F0E92
:102B7000BC6EABD8010EE66EE5EC1CF041E9B36A21
:102B8000B26AB180A192A08212008B98FEEC07F08D
:102B90008B8ABB6ABC6AA192A092B1908B8A120008
:102BA00073DA81E946E8036A046AD650066ED750A4
:102BB000056E0550E66EE66AE66A010EE66EB0EC5A
:102BC0001AF0E552E550046EE750036E06500326F6
:102BD000000E04220201E2A503D0F19AE29502D090
:102BE000F18AE285460EE96E020EEA6E0201EE50AF
:102BF000035C3A6FED5004583B6F3A51016E03EBA2
:102C000046F204EB47F20150320803E20201E2719E
:102C1000E2830201E2A31BD0E251010B026E02EB40
:102C2000E6FF0201485102013B6BE40F3A6F020ECE
:102C30003B233AC2E6FF3BC2E6FFE1D843E902018B
:102C4000442B492B080E495D02E1496B482B0201D8
:102C5000E27347E9E7CFD9FF12000201452B1200CA
:102C600013DA83E942E87FDF010EE66EA00EE66E1E
:102C700053D842E98ADF036A046A020E035C000E3D
:102C800004581AE206DA01E13B5111E018D90009B3
:102C9000F9E03EDA25D942E90009F4E039DA93D9BE
:102CA00042E9AA0EE66E56D841E9010E0AD06CD868
:102CB000032A000E0422E1D7AA0EE66E4BD841E9A2
:102CC000000E43E9E7CFD9FF120035DA0128016E83
:102CD000040EE66EBBEC1CF041E9FC0EE66E3F0E06
:102CE000E66EBEEC07F042E9300EE66EE66A17ECDF
:102CF0001CF042E9170EE66E62EC1CF041E900D2CE
:102D0000C3D982E9005004E0F18A0201E28503D0D0
:102D1000F19A0201E29501D2B7D983E900EBE6FF0F
:102D2000EFDF41E90201E283E2910201486B496B66
:102D3000446B456B466B476BF090F0860150445DE9
:102D400003E2060E455DFAE3F090F096486B496B9E
:102D50004451E3D199D982E941E8026A02EB3AF29F
:102D600002013B6B3ABF3B69140E3A5D000E3B59C2
:102D70000AE202EBE9FFEA6AE9BEEA68D2D900EBAF
:102D8000EFFF022AEBD7BCD1D6D9140E016E013465
:102D900014E20150000811E20104E96EEA6AE9BE9A
:102DA000EA68BFD9EF1CE66E0104E96EEA6AE9BE83
:102DB000EA68B7D9A9D90106EAD7A2D16AD901E14F
:102DC0003B511AE002014851EA6AE40FE96E020E33
:102DD000EA22EF5049C2E7FFE75204E0E8427F0BE6
:102DE000E706FCE1010B0201E36F0201492B080E2B
:102DF000495D02E1482B496B0201E351120044D9BD
:102E000084E901EBE9FF02EBEAFFEF90EF420050AB
:102E100005E001EBE9FF02EBEAFFEF8E7ED134D94A
:102E200085E942E881EB06F0063433E206500108FA
:102E300030E2020E065C02013A6F3B6B800B01E050
:102E40003B693CD9EF50010B056E70D901E03D693B
:102E50003CD9EF407F0B4ED901E03B692FD954D9C3
:102E600005500AE063D901E03D692FD9EF50800990
:102E700041D90BE03B6909D059D901E03D6925D919
:102E8000EF507F0B37D901E03B6918D93DD90606D1
:102E9000CBD722D9EF407F0BE66E1ED935D9005033
:102EA00004E01AD9EF50800903D016D9EF507F0BF8
:102EB000E66E12D929D943E9E7CFD9FF12003BD9F1
:102EC000016AE7D801E13B5109E078DF0108F8E148
:102ED000012A090E015CF5E1010E01D0000E10D1AE
:102EE000D3D883E947E8036A010E046E056A066ACF
:102EF000076A086A096A046E043402E20450320860
:102F000032E35CDF036EC5D802E13B5155E0E9D8FE
:102F1000000905E10350055C4FE1056A22D003EB8F
:102F2000E6FF050EE66EF4D87ADF44E90550031893
:102F3000056ED7D8040A12E0070A0CE0010A06E081
:102F4000030A0FE106500318066E0BD00750031852
:102F5000076E07D008500318086E03D009500318F5
:102F6000096E042AC9D72ADF065C26E127DF075C41
:102F700023E124DF085C20E121DF095C1DE11EDF85
:102F800000091AE1046AD890045002E6050E045CB8
:102F900010E204EB3AF202013B6B3ABF3B693A5153
:102FA0000024E96E3B510120EA6EEF5002E1042A51
:102FB000EAD7050E045C02E1000E01D0010E48E9DB
:102FC000E7CFD9FF120060D883E948E8066A076AAC
:102FD000086A096A0A6A056A050E055C36E2070E88
:102FE000046E036A080E035C2EE203EB3AF205500E
:102FF0000024E96E000E0120EA6EEF503AC2E7FFAE
:10300000E75204E0E8427F0BE706FCE1010B0CE02D
:10301000010E04EBF3FF045204E0D890E836F30607
:10302000FCE13FD8EF120CD0010E04EBF3FF045289
:1030300004E0D890E836F306FCE1E81C32D8EF163D
:103040000406032ACFD7052AC7D7036A050E035CF7
:1030500017E20201D950060F3A6F0350EA6A3A2587
:10306000E96EDA50EA22EF50E66E040ED88003547F
:103070000024E96E000E0120EA6E46D8032AE6D746
:1030800049E9E7CFD9FF1200D9CFE6FFE1CFD9FF59
:1030900012000201485102013A6F3B6B140E3A19BB
:1030A000120002013C6FD950060F3A6F0550EA6AD0
:1030B0003A25E96EDA50EA223C5112003A510224D4
:1030C000E96E3B510320EA6E12003C510224E96E86
:1030D0003D510320EA6E120002EBE9FF03EBEAFF29
:1030E0001200050EE66E04EBE6FF8CEC1AF041E9E7
:1030F000E7501200E66E06043A6F3B6B800B12003D
:1031000042E9E7CFD9FF1200E552E750EF6E120017
:1031100000EBE6FF01EBE6FF120041E9E7CFD9FF44
:103120001200E40EE926020EEA22120006043C6FA9
:0E3130003D6B800B1200A8DF81E941E8120020
:02313E007CD93A
:1031400081E941E8016A86D9020E72D9016EBF0E8B
:103150000114E66E020E57D98AD9600EE66E000E93
:10316000E66EEED842E9000163510DE063510708B5
:103170000AE3645108E064511F0805E3655103E068
:1031800065510C0818E273D9130EE66E060E3BD992
:10319000010EE66E050E37D9010EE66E040E33D928
:1031A000E66A020E30D9E66A010E2DD9800EE66E6F
:1031B000E66A06D842E978EC06F0F28EF28C46D147
:1031C0003BD983E9F29EF29CF7EC07F0C580C5A0DD
:1031D00003D0FDD7C5B0FED758D9C5BCFED701EB8B
:1031E000E6FF1AD9C5BCFED700EBE6FF15D9C5BC72
:1031F000FED7C584C5A403D0FDD7C5B4FED7F7EC70
:1032000007F0C580C5B0FED7F7EC07F03ED9C5ACD6
:1032100004D0C584C5B4FED7F2D7C584C5A403D0F5
:10322000FDD7C5B4FED7F7EC07F0F28EF28C16D1BD
:1032300003D982E941E8F29EF29CF7EC07F0C580E1
:10324000C5A003D0FDD7C5B0FED71FD9C5BCFED7DA
:1032500000EBE6FFE1D8C5BCFED7C582C5B2FED7FC
:10326000F7EC07F0DF0EE66ED7D8C5BCFED712EC40
:103270001DF0026EF7EC07F0C584C5A403D0FDD79E
:10328000C5B4FED7F7EC07F0F28EF28C0250DED018
:10329000D3D883E941E8DED8E5D8040ED2D84FE090
:1032A000E1D8040ECED81F084AE3DCD8030EC9D8F3
:1032B00046E0D8D8030EC5D8070841E3D3D8050E99
:1032C000C0D83DE0CFD8050EBCD80C0838E3CAD82A
:1032D000030E9DD8036E070E0316038603EBE6FF6D
:1032E000030EDAD8CDD8036E800E0310036E03EB05
:1032F000E6FFE66A65DF42E9B5D8EE52C1D8E66E70
:10330000010ECAD8020E83D8036E3F0E0314036E5B
:1033100003EBE6FF020EC0D8040E79D8E66E040E69
:10332000BBD8050E74D8E66E050EB6D8060E6FD85B
:10333000E66E060E68D8F28EF28C78EC06F086D037
:103340007BD883E987D8E66A73DF41E97F0B55D8DC
:10335000E552E750EF6E010E9CD8EE52E552E75071
:10336000EF6E020E65D83F0B48D8020E5AD8030EF6
:103370005FD8070B42D8030E54D8040E8AD8040E27
:1033800050D8050E55D81F0B38D8050E4AD8060E52
:1033900080D8060E46D8F28EF28C78EC06F05ED01D
:1033A00012004AD882E900380F0B0A0D0F0E0014E4
:1033B000F324006E005052D03FD882E941E8026AFF
:1033C0000050090816E20A0EE66E00EBE6FF5BEC21
:1033D0001AF041E9E750100DF350026E0A0EE66E46
:1033E00000EBE6FF5EEC1AF041E9E7500210026ED6
:1033F00002D080EB02F0025029D0E66ED2DF41E924
:10340000E66E32EF1AF0E66EDBDE42E91200E926E4
:10341000000EEA2240EF1AF0DEEC1BF041E9F7EF74
:1034200007F0E926000EEA22E552E750EF6E12009F
:10343000E66EFEDE41E91200D9CFE6FFE1CFD9FF0B
:103440001200E926000EEA22EF50120042E9E7CF0F
:10345000D9FF1200F29EF29C60EF06F041E9E7CF3F
:10346000D9FF120000EBE9FF01EBEAFF1200030EA7
:10347000DFDF016E080E0110E66E030E03EF1AF097
:10348000EFCFE6FF99DF41E91200DE0EE66E0CEFAA
:0E3490001AF0CEDFFDEF19F0B6DF32EF1AF0C2
:02349E0042E802
:1034A000D9CFE6FFDACFE6FFE1CFD9FFE2CFDAFFEF
:1034B00086E9036A1200F3DF038003D0F0DF01D056
:1034C0000382026A080EE76ED89001360236005079
:1034D000025C02E3026E012AE72EF7D703B2120064
:1034E00003B081EB00F003A082EB00F0E552E5CFE2
:1034F000DAFFE7CFD9FF43E9120042E8D9CFE6FF70
:10350000DACFE6FFE1CFD9FFE2CFDAFF86E9036A3F
:103510001200F3DF038001D0F0DF00AE03D0006CB7
:1035200003B0037E01AE02D0016C037E60EC1AF0A2
:1035300001BEACEF1AF003AE02D0016C026C03B016
:1035400081EB00F003A082EB00F0E552E5CFDAFF5B
:10355000E7CFD9FF43E9000C03BEEFD7F0DFFF0C44
:1035600044E8D9CFE6FFDACFE6FFE1CFD9FFE2CFDB
:10357000DAFF8AE980EB04F081EB05F082EB06F0DC
:1035800002500402F450016EF350006E0350076EB7
:103590000502F450036EF350026E07500402F3501C
:1035A0000126F4500222E86A032206500502F35075
:1035B0000126F4500222E86A0322E552E5CFDAFF41
:1035C000E7CFD9FF46E9000C44E8D9CFE6FFDACFD0
:1035D000E6FFE1CFD9FFE2CFDAFF8EE980EB08F01A
:1035E00081EB09F082EB0AF083EB0BF00450080248
:1035F000F350006EF450016E04500902F35001269E
:10360000000EF420026E04500A02F3500226000E4F
:10361000F420036E04500B02F350032605500802F9
:10362000F3500126F4500222000E03220550090235
:10363000F3500226F450032205500A02F3500326E9
:1036400006500802F3500226F450032206500902E5
:10365000F350032607500802F3500326E552E5CF46
:0A366000DAFFE7CFD9FF48E9000CBC
:06366A0012010002000045
:103670000008D8043F0002000102030109022900EA
:10368000010100C03209040000020300000009210A
:1036900011010001221C00070581034000010705FC
:1036A0000103400001040309042A0349006E006E6F
:1036B000006F00200054006500630068006E006F1A
:1036C000006C006F0067007900200049006E006305
:1036D000002E001203410054002000470055004115
:1036E0000052004400120330003600380030003928
:1036F000003300320032000600FF0901A101190168
:10370000294015012540750895408100190129407F
:0D3710009100C07C36A536A936D336E536CB
:02371E001E0E7D
:10372000F66E000EF76E000EF86E02010900F550FD
:10373000356F0900F550366F03E1356701D03DD094
:103740000900F550306F0900F550316F0900F55050
:10375000326F09000900F550E96E0900F550EA6E74
:10376000090009000900F550336F0900F550346F66
:1037700009000900F6CF37F2F7CF38F2F8CF39F267
:1037800030C2F6FF31C2F7FF32C2F8FF02013353F5
:1037900002E1345307E00900F550EE6E3307F8E21A
:1037A0003407F9D737C2F6FF38C2F7FF39C2F8FF3E
:0C37B00002013507000E365BBFD7120087
:0437BC00D9CFE6FF7C
:1037C000DACFE6FFE1CFD9FFE2CFDAFF83E900EB02
:1037D000C9FFC6AE02D0FF0E24D00F0EC6140808D3
:1037E0000FE00F0EC6140B080BE0C6889EA6FED78E
:1037F000C750040B03E1C750010B10E0000E11D0BD
:103800000F0EC614080804E00F0EC6140B0809E1D9
:10381000C7B0FED7F7EC07F0C5AC02D0FE0E01D062
:0E382000000E41E9E5CFDAFFE7CFD9FF120035
:02382E00D9CFF0
:10383000E6FFDACFE6FFE1CFD9FFE2CFDAFF84E996
:1038400042E880EB04F081EB05F0060ED8900436D8
:103850000536E804FBE105EBBEFF0440E8423F0B00
:10386000300B02013A6FCF0EBD143A11BD6E43E921
:0A387000E5CFDAFFE7CFD9FF120021
:06387A00D39E060EE66E6F
:1038800002D841E91200D9CFE6FFE1CFD9FF82E9A2
:10389000050E005C05E1D390D392D2849B8C0ED0B0
:1038A000050E005C04E1D390D392D28406D0070EBB
:1038B000005C04E1D390D382D2949B9C41E9E7CF92
:0438C000D9FF12001A
:0C38C400D9CFE6FFDACFE6FFE1CFD9FF55
:1038D000E2CFDAFF83E90C0EBD12CA9400EBCBFFF6
:1038E000CA8441E9E5CFDAFFE7CFD9FF1200B9B0CA
:1038F000949AB9A202D094987F90B9A402D09496D9
:0C3900007F94B9A602D094947F96120028
:04390C00FF0EE35077
:1039100002014E6FEE0E02D0F20E0000E76EE72EAF
:103920008FEF1CF00C0E0201FF6FE76AE72E96EF97
:103930001CF0FF2F95EF1CF002014E2F8CEF1CF0B6
:02394000120073
:0E394200FE0EE3CFE9FFFF0EE3CFEAFFE9CF71
:10395000F3FFEACFF4FFFB0EE35003E1FC0EE3506C
:1039600009E0FB0EE30602E2FC0EE306FD0EE35067
:06397000EE6EF1D712001B
:0A397600D9CFE6FFDACFE6FFE1CF7C
:10398000D9FFE2CFDAFF83E9FB0E0014CA6ECC6ADE
:103990009E9200AE02D09D8201D09D92CA8441E9E0
:0A39A000E5CFDAFFE7CFD9FF1200F0
:0639AA00FF0EE3500201D4
:1039B0004E6F480E01D04C0EE76EE72EFED7E76A39
:0A39C000E72EFED74E2FF7D71200B6
:0639CA00FF0EE3500201B4
:1039D0004E6F1A0E00D000D001D0200EE76EE72EF9
:0A39E000FED74E2FFAD700D01200D8
:0639EA00000EF36E00EE7A
:1039F00000F0030E01D81200EA6002D0EE6AFCD794
:0A3A0000F350E9601200EE6AFCD7F3
:063A0A0011EE00F021EEB8
:103A100000F0F86A8FEC1BF003EC00F08CEC08F07F
:043A2000FBD71200BE
:0C3A24000F0EC614080804E00F0EC614B4
:0E3A30000B0801E1C586C7A0FED7C9501200E1
:023A3E00FF0E79
:103A4000E350E84E1200000000D000D000D0E82E75
:043A5000FAD712008F
:063A54000000000000006C
:020000040030CA
:0100000018E7
:0100010002FC
:0100020038C5
:0100030013E9
:01000500807A
:01000600C138
:0100080000F7
:010009008076
:01000A0003F2
:01000B00C034
:01000C0003F0
:01000D0040B2
:00000001FF
